{
	"Upgradable E1P 1822/Implementation1.sol": {
		"Implementation1": {
			"abi": [
				{
					"anonymous": false,
					"inputs": [
						{
							"indexed": false,
							"internalType": "address",
							"name": "from",
							"type": "address"
						},
						{
							"indexed": false,
							"internalType": "address",
							"name": "to",
							"type": "address"
						},
						{
							"indexed": false,
							"internalType": "uint256",
							"name": "amount",
							"type": "uint256"
						}
					],
					"name": "_transfer",
					"type": "event"
				},
				{
					"anonymous": false,
					"inputs": [
						{
							"indexed": false,
							"internalType": "address",
							"name": "_to",
							"type": "address"
						},
						{
							"indexed": false,
							"internalType": "uint256",
							"name": "amount",
							"type": "uint256"
						}
					],
					"name": "tokenMint",
					"type": "event"
				},
				{
					"inputs": [
						{
							"internalType": "address",
							"name": "",
							"type": "address"
						}
					],
					"name": "_balance",
					"outputs": [
						{
							"internalType": "uint256",
							"name": "",
							"type": "uint256"
						}
					],
					"stateMutability": "view",
					"type": "function"
				},
				{
					"inputs": [],
					"name": "_decimal",
					"outputs": [
						{
							"internalType": "uint256",
							"name": "",
							"type": "uint256"
						}
					],
					"stateMutability": "pure",
					"type": "function"
				},
				{
					"inputs": [],
					"name": "_name",
					"outputs": [
						{
							"internalType": "string",
							"name": "",
							"type": "string"
						}
					],
					"stateMutability": "pure",
					"type": "function"
				},
				{
					"inputs": [],
					"name": "_symbol",
					"outputs": [
						{
							"internalType": "string",
							"name": "",
							"type": "string"
						}
					],
					"stateMutability": "pure",
					"type": "function"
				},
				{
					"inputs": [],
					"name": "_totalSupply",
					"outputs": [
						{
							"internalType": "uint256",
							"name": "",
							"type": "uint256"
						}
					],
					"stateMutability": "pure",
					"type": "function"
				},
				{
					"inputs": [
						{
							"internalType": "address",
							"name": "spender",
							"type": "address"
						},
						{
							"internalType": "uint256",
							"name": "amount",
							"type": "uint256"
						}
					],
					"name": "approve",
					"outputs": [],
					"stateMutability": "nonpayable",
					"type": "function"
				},
				{
					"inputs": [
						{
							"internalType": "address",
							"name": "who",
							"type": "address"
						}
					],
					"name": "balanceOfAddress",
					"outputs": [
						{
							"internalType": "uint256",
							"name": "",
							"type": "uint256"
						}
					],
					"stateMutability": "view",
					"type": "function"
				},
				{
					"inputs": [],
					"name": "initialized",
					"outputs": [
						{
							"internalType": "bool",
							"name": "",
							"type": "bool"
						}
					],
					"stateMutability": "view",
					"type": "function"
				},
				{
					"inputs": [
						{
							"internalType": "uint256",
							"name": "amount",
							"type": "uint256"
						},
						{
							"internalType": "address",
							"name": "_to",
							"type": "address"
						}
					],
					"name": "mint",
					"outputs": [
						{
							"internalType": "uint256",
							"name": "",
							"type": "uint256"
						}
					],
					"stateMutability": "nonpayable",
					"type": "function"
				},
				{
					"inputs": [],
					"name": "owner",
					"outputs": [
						{
							"internalType": "address",
							"name": "",
							"type": "address"
						}
					],
					"stateMutability": "view",
					"type": "function"
				},
				{
					"inputs": [],
					"name": "proxiableUUID",
					"outputs": [
						{
							"internalType": "bytes32",
							"name": "",
							"type": "bytes32"
						}
					],
					"stateMutability": "pure",
					"type": "function"
				},
				{
					"inputs": [
						{
							"internalType": "address",
							"name": "newCode",
							"type": "address"
						}
					],
					"name": "updateCode",
					"outputs": [],
					"stateMutability": "nonpayable",
					"type": "function"
				}
			],
			"devdoc": {
				"kind": "dev",
				"methods": {},
				"version": 1
			},
			"evm": {
				"assembly": "    /* \"Upgradable E1P 1822/Implementation1.sol\":90:2191  contract Implementation1 is Proxiable {... */\n  mstore(0x40, 0x80)\n    /* \"Upgradable E1P 1822/Implementation1.sol\":356:387  bool public initialized = false */\n  0x01\n  dup1\n  sload\n  not(shl(0xa0, 0xff))\n  and\n  swap1\n  sstore\n    /* \"Upgradable E1P 1822/Implementation1.sol\":90:2191  contract Implementation1 is Proxiable {... */\n  callvalue\n  dup1\n  iszero\n  tag_1\n  jumpi\n  0x00\n  dup1\n  revert\ntag_1:\n  pop\n  dataSize(sub_0)\n  dup1\n  dataOffset(sub_0)\n  0x00\n  codecopy\n  0x00\n  return\nstop\n\nsub_0: assembly {\n        /* \"Upgradable E1P 1822/Implementation1.sol\":90:2191  contract Implementation1 is Proxiable {... */\n      mstore(0x40, 0x80)\n      callvalue\n      dup1\n      iszero\n      tag_1\n      jumpi\n      0x00\n      dup1\n      revert\n    tag_1:\n      pop\n      jumpi(tag_2, lt(calldatasize, 0x04))\n      shr(0xe0, calldataload(0x00))\n      dup1\n      0x86212b8f\n      gt\n      tag_15\n      jumpi\n      dup1\n      0x86212b8f\n      eq\n      tag_9\n      jumpi\n      dup1\n      0x8da5cb5b\n      eq\n      tag_10\n      jumpi\n      dup1\n      0x94bf804d\n      eq\n      tag_11\n      jumpi\n      dup1\n      0xb09f1266\n      eq\n      tag_12\n      jumpi\n      dup1\n      0xd28d8852\n      eq\n      tag_13\n      jumpi\n      dup1\n      0xd3aceae2\n      eq\n      tag_14\n      jumpi\n      0x00\n      dup1\n      revert\n    tag_15:\n      dup1\n      0x095ea7b3\n      eq\n      tag_3\n      jumpi\n      dup1\n      0x158ef93e\n      eq\n      tag_4\n      jumpi\n      dup1\n      0x2f0e3120\n      eq\n      tag_5\n      jumpi\n      dup1\n      0x3eaaf86b\n      eq\n      tag_6\n      jumpi\n      dup1\n      0x46951954\n      eq\n      tag_7\n      jumpi\n      dup1\n      0x52d1902d\n      eq\n      tag_8\n      jumpi\n    tag_2:\n      0x00\n      dup1\n      revert\n        /* \"Upgradable E1P 1822/Implementation1.sol\":1752:2086  function approve(address spender, uint amount)  external  checkBalance(msg.sender, amount) {... */\n    tag_3:\n      tag_16\n      tag_17\n      calldatasize\n      0x04\n      tag_18\n      jump\t// in\n    tag_17:\n      tag_19\n      jump\t// in\n    tag_16:\n      stop\n        /* \"Upgradable E1P 1822/Implementation1.sol\":356:387  bool public initialized = false */\n    tag_4:\n      sload(0x01)\n      tag_20\n      swap1\n      shl(0xa0, 0x01)\n      swap1\n      div\n      0xff\n      and\n      dup2\n      jump\n    tag_20:\n      mload(0x40)\n        /* \"#utility.yul\":616:630   */\n      swap1\n      iszero\n        /* \"#utility.yul\":609:631   */\n      iszero\n        /* \"#utility.yul\":591:632   */\n      dup2\n      mstore\n        /* \"#utility.yul\":579:581   */\n      0x20\n        /* \"#utility.yul\":564:582   */\n      add\n        /* \"Upgradable E1P 1822/Implementation1.sol\":356:387  bool public initialized = false */\n    tag_22:\n      mload(0x40)\n      dup1\n      swap2\n      sub\n      swap1\n      return\n        /* \"Upgradable E1P 1822/Implementation1.sol\":905:981  function _decimal() pure public returns(uint){... */\n    tag_5:\n        /* \"Upgradable E1P 1822/Implementation1.sol\":320:324  1e18 */\n      0x0de0b6b3a7640000\n        /* \"Upgradable E1P 1822/Implementation1.sol\":905:981  function _decimal() pure public returns(uint){... */\n    tag_24:\n      mload(0x40)\n        /* \"#utility.yul\":789:814   */\n      swap1\n      dup2\n      mstore\n        /* \"#utility.yul\":777:779   */\n      0x20\n        /* \"#utility.yul\":762:780   */\n      add\n        /* \"Upgradable E1P 1822/Implementation1.sol\":905:981  function _decimal() pure public returns(uint){... */\n      tag_22\n        /* \"#utility.yul\":643:820   */\n      jump\n        /* \"Upgradable E1P 1822/Implementation1.sol\":987:1071  function _totalSupply() pure public returns(uint){... */\n    tag_6:\n        /* \"Upgradable E1P 1822/Implementation1.sol\":167:172  10000 */\n      0x2710\n        /* \"Upgradable E1P 1822/Implementation1.sol\":987:1071  function _totalSupply() pure public returns(uint){... */\n      jump(tag_24)\n        /* \"Upgradable E1P 1822/Implementation1.sol\":2092:2189  function updateCode(address newCode) onlyOwner public {... */\n    tag_7:\n      tag_16\n      tag_32\n      calldatasize\n      0x04\n      tag_33\n      jump\t// in\n    tag_32:\n      tag_34\n      jump\t// in\n        /* \"Upgradable E1P 1822/Proxible.sol\":627:772  function proxiableUUID() public pure returns (bytes32) {... */\n    tag_8:\n        /* \"Upgradable E1P 1822/Proxible.sol\":699:765  0xc5f16f0fcc639fa48a6947836d9850f504798523bf8c9a3a87d5876cf622bcf7 */\n      0xc5f16f0fcc639fa48a6947836d9850f504798523bf8c9a3a87d5876cf622bcf7\n        /* \"Upgradable E1P 1822/Proxible.sol\":627:772  function proxiableUUID() public pure returns (bytes32) {... */\n      jump(tag_24)\n        /* \"Upgradable E1P 1822/Implementation1.sol\":1077:1177  function balanceOfAddress(address who) public view returns(uint) {... */\n    tag_9:\n      tag_24\n      tag_40\n      calldatasize\n      0x04\n      tag_33\n      jump\t// in\n    tag_40:\n      sub(shl(0xa0, 0x01), 0x01)\n        /* \"Upgradable E1P 1822/Implementation1.sol\":1157:1170  _balance[who] */\n      and\n        /* \"Upgradable E1P 1822/Implementation1.sol\":1136:1140  uint */\n      0x00\n        /* \"Upgradable E1P 1822/Implementation1.sol\":1157:1170  _balance[who] */\n      swap1\n      dup2\n      mstore\n        /* \"Upgradable E1P 1822/Implementation1.sol\":1157:1165  _balance */\n      0x02\n        /* \"Upgradable E1P 1822/Implementation1.sol\":1157:1170  _balance[who] */\n      0x20\n      mstore\n      0x40\n      swap1\n      keccak256\n      sload\n      swap1\n        /* \"Upgradable E1P 1822/Implementation1.sol\":1077:1177  function balanceOfAddress(address who) public view returns(uint) {... */\n      jump\n        /* \"Upgradable E1P 1822/Implementation1.sol\":330:350  address public owner */\n    tag_10:\n      sload(0x01)\n      tag_43\n      swap1\n      sub(shl(0xa0, 0x01), 0x01)\n      and\n      dup2\n      jump\n    tag_43:\n      mload(0x40)\n      sub(shl(0xa0, 0x01), 0x01)\n        /* \"#utility.yul\":1362:1394   */\n      swap1\n      swap2\n      and\n        /* \"#utility.yul\":1344:1395   */\n      dup2\n      mstore\n        /* \"#utility.yul\":1332:1334   */\n      0x20\n        /* \"#utility.yul\":1317:1335   */\n      add\n        /* \"Upgradable E1P 1822/Implementation1.sol\":330:350  address public owner */\n      tag_22\n        /* \"#utility.yul\":1198:1401   */\n      jump\n        /* \"Upgradable E1P 1822/Implementation1.sol\":1360:1746  function mint(uint amount, address _to) public onlyOwner returns(uint){... */\n    tag_11:\n      tag_24\n      tag_48\n      calldatasize\n      0x04\n      tag_49\n      jump\t// in\n    tag_48:\n      tag_50\n      jump\t// in\n        /* \"Upgradable E1P 1822/Implementation1.sol\":816:899  function _symbol() pure public returns(string memory){... */\n    tag_12:\n        /* \"Upgradable E1P 1822/Implementation1.sol\":886:892  symbol */\n      0x40\n      dup1\n      mload\n      dup1\n      dup3\n      add\n      swap1\n      swap2\n      mstore\n      0x04\n      dup2\n      mstore\n      shl(0xe0, 0x45495049)\n      0x20\n      dup3\n      add\n      mstore\n        /* \"Upgradable E1P 1822/Implementation1.sol\":816:899  function _symbol() pure public returns(string memory){... */\n    tag_52:\n      mload(0x40)\n      tag_22\n      swap2\n      swap1\n      tag_55\n      jump\t// in\n        /* \"Upgradable E1P 1822/Implementation1.sol\":731:810  function _name() pure public returns(string memory){... */\n    tag_13:\n        /* \"Upgradable E1P 1822/Implementation1.sol\":799:803  name */\n      0x40\n      dup1\n      mload\n      dup1\n      dup3\n      add\n      swap1\n      swap2\n      mstore\n      0x17\n      dup2\n      mstore\n      0x4549502d3138323220496d706c656d656e746174696f6e000000000000000000\n      0x20\n      dup3\n      add\n      mstore\n        /* \"Upgradable E1P 1822/Implementation1.sol\":731:810  function _name() pure public returns(string memory){... */\n      jump(tag_52)\n        /* \"Upgradable E1P 1822/Implementation1.sol\":394:434  mapping(address => uint) public _balance */\n    tag_14:\n      tag_24\n      tag_60\n      calldatasize\n      0x04\n      tag_33\n      jump\t// in\n    tag_60:\n      mstore(0x20, 0x02)\n      0x00\n      swap1\n      dup2\n      mstore\n      0x40\n      swap1\n      keccak256\n      sload\n      dup2\n      jump\n        /* \"Upgradable E1P 1822/Implementation1.sol\":1752:2086  function approve(address spender, uint amount)  external  checkBalance(msg.sender, amount) {... */\n    tag_19:\n        /* \"Upgradable E1P 1822/Implementation1.sol\":1823:1833  msg.sender */\n      caller\n        /* \"Upgradable E1P 1822/Implementation1.sol\":1243:1255  uint balance */\n      0x00\n        /* \"Upgradable E1P 1822/Implementation1.sol\":1157:1170  _balance[who] */\n      dup2\n      dup2\n      mstore\n        /* \"Upgradable E1P 1822/Implementation1.sol\":1157:1165  _balance */\n      0x02\n        /* \"Upgradable E1P 1822/Implementation1.sol\":1157:1170  _balance[who] */\n      0x20\n      mstore\n      0x40\n      swap1\n      keccak256\n      sload\n        /* \"Upgradable E1P 1822/Implementation1.sol\":1835:1841  amount */\n      dup3\n      swap1\n        /* \"Upgradable E1P 1822/Implementation1.sol\":1298:1315  balance >= amount */\n      dup2\n      dup2\n      lt\n      iszero\n        /* \"Upgradable E1P 1822/Implementation1.sol\":1290:1338  require(balance >= amount, \"Insufficient funds\") */\n      tag_65\n      jumpi\n      mload(0x40)\n      shl(0xe5, 0x461bcd)\n      dup2\n      mstore\n        /* \"#utility.yul\":2469:2471   */\n      0x20\n        /* \"Upgradable E1P 1822/Implementation1.sol\":1290:1338  require(balance >= amount, \"Insufficient funds\") */\n      0x04\n      dup3\n      add\n        /* \"#utility.yul\":2451:2472   */\n      mstore\n        /* \"#utility.yul\":2508:2510   */\n      0x12\n        /* \"#utility.yul\":2488:2506   */\n      0x24\n      dup3\n      add\n        /* \"#utility.yul\":2481:2511   */\n      mstore\n      shl(0x70, 0x496e73756666696369656e742066756e6473)\n        /* \"#utility.yul\":2527:2545   */\n      0x44\n      dup3\n      add\n        /* \"#utility.yul\":2520:2568   */\n      mstore\n        /* \"#utility.yul\":2585:2603   */\n      0x64\n      add\n        /* \"Upgradable E1P 1822/Implementation1.sol\":1290:1338  require(balance >= amount, \"Insufficient funds\") */\n    tag_66:\n      mload(0x40)\n      dup1\n      swap2\n      sub\n      swap1\n      revert\n    tag_65:\n      sub(shl(0xa0, 0x01), 0x01)\n        /* \"Upgradable E1P 1822/Implementation1.sol\":1859:1880  spender != address(0) */\n      dup6\n      and\n        /* \"Upgradable E1P 1822/Implementation1.sol\":1851:1881  require(spender != address(0)) */\n      tag_69\n      jumpi\n      0x00\n      dup1\n      revert\n    tag_69:\n        /* \"Upgradable E1P 1822/Implementation1.sol\":1913:1923  msg.sender */\n      caller\n        /* \"Upgradable E1P 1822/Implementation1.sol\":1889:1899  uint allow */\n      0x00\n        /* \"Upgradable E1P 1822/Implementation1.sol\":1902:1924  _allowance[msg.sender] */\n      swap1\n      dup2\n      mstore\n        /* \"Upgradable E1P 1822/Implementation1.sol\":1902:1912  _allowance */\n      0x03\n        /* \"Upgradable E1P 1822/Implementation1.sol\":1902:1924  _allowance[msg.sender] */\n      0x20\n      swap1\n      dup2\n      mstore\n      0x40\n      dup1\n      dup4\n      keccak256\n      sub(shl(0xa0, 0x01), 0x01)\n        /* \"Upgradable E1P 1822/Implementation1.sol\":1902:1933  _allowance[msg.sender][spender] */\n      dup10\n      and\n      dup5\n      mstore\n      swap1\n      swap2\n      mstore\n      swap1\n      keccak256\n      sload\n        /* \"Upgradable E1P 1822/Implementation1.sol\":1944:1954  allow == 0 */\n      dup1\n        /* \"Upgradable E1P 1822/Implementation1.sol\":1941:2080  if(allow == 0){... */\n      tag_70\n      jumpi\n        /* \"Upgradable E1P 1822/Implementation1.sol\":1976:1986  msg.sender */\n      caller\n        /* \"Upgradable E1P 1822/Implementation1.sol\":1965:1987  _allowance[msg.sender] */\n      0x00\n      swap1\n      dup2\n      mstore\n        /* \"Upgradable E1P 1822/Implementation1.sol\":1965:1975  _allowance */\n      0x03\n        /* \"Upgradable E1P 1822/Implementation1.sol\":1965:1987  _allowance[msg.sender] */\n      0x20\n      swap1\n      dup2\n      mstore\n      0x40\n      dup1\n      dup4\n      keccak256\n      sub(shl(0xa0, 0x01), 0x01)\n        /* \"Upgradable E1P 1822/Implementation1.sol\":1965:1997  _allowance[msg.sender] [spender] */\n      dup11\n      and\n      dup5\n      mstore\n      swap1\n      swap2\n      mstore\n      swap1\n      keccak256\n        /* \"Upgradable E1P 1822/Implementation1.sol\":1965:2005  _allowance[msg.sender] [spender]= amount */\n      dup6\n      swap1\n      sstore\n        /* \"Upgradable E1P 1822/Implementation1.sol\":1941:2080  if(allow == 0){... */\n      jump(tag_71)\n    tag_70:\n        /* \"Upgradable E1P 1822/Implementation1.sol\":2041:2051  msg.sender */\n      caller\n        /* \"Upgradable E1P 1822/Implementation1.sol\":2030:2052  _allowance[msg.sender] */\n      0x00\n      swap1\n      dup2\n      mstore\n        /* \"Upgradable E1P 1822/Implementation1.sol\":2030:2040  _allowance */\n      0x03\n        /* \"Upgradable E1P 1822/Implementation1.sol\":2030:2052  _allowance[msg.sender] */\n      0x20\n      swap1\n      dup2\n      mstore\n      0x40\n      dup1\n      dup4\n      keccak256\n      sub(shl(0xa0, 0x01), 0x01)\n        /* \"Upgradable E1P 1822/Implementation1.sol\":2030:2061  _allowance[msg.sender][spender] */\n      dup11\n      and\n      dup5\n      mstore\n      swap1\n      swap2\n      mstore\n      dup2\n      keccak256\n        /* \"Upgradable E1P 1822/Implementation1.sol\":2030:2071  _allowance[msg.sender][spender] += amount */\n      dup1\n      sload\n        /* \"Upgradable E1P 1822/Implementation1.sol\":2065:2071  amount */\n      dup8\n      swap3\n        /* \"Upgradable E1P 1822/Implementation1.sol\":2030:2052  _allowance[msg.sender] */\n      swap1\n        /* \"Upgradable E1P 1822/Implementation1.sol\":2030:2071  _allowance[msg.sender][spender] += amount */\n      tag_72\n      swap1\n        /* \"Upgradable E1P 1822/Implementation1.sol\":2065:2071  amount */\n      dup5\n      swap1\n        /* \"Upgradable E1P 1822/Implementation1.sol\":2030:2071  _allowance[msg.sender][spender] += amount */\n      tag_73\n      jump\t// in\n    tag_72:\n      swap1\n      swap2\n      sstore\n      pop\n      pop\n        /* \"Upgradable E1P 1822/Implementation1.sol\":1941:2080  if(allow == 0){... */\n    tag_71:\n        /* \"Upgradable E1P 1822/Implementation1.sol\":1843:2086  {... */\n      pop\n        /* \"Upgradable E1P 1822/Implementation1.sol\":1235:1354  {... */\n      pop\n        /* \"Upgradable E1P 1822/Implementation1.sol\":1752:2086  function approve(address spender, uint amount)  external  checkBalance(msg.sender, amount) {... */\n      pop\n      pop\n      pop\n      pop\n      jump\t// out\n        /* \"Upgradable E1P 1822/Implementation1.sol\":2092:2189  function updateCode(address newCode) onlyOwner public {... */\n    tag_34:\n        /* \"Upgradable E1P 1822/Implementation1.sol\":649:654  owner */\n      and(sub(shl(0xa0, 0x01), 0x01), sload(0x01))\n        /* \"Upgradable E1P 1822/Implementation1.sol\":658:668  msg.sender */\n      caller\n        /* \"Upgradable E1P 1822/Implementation1.sol\":649:668  owner == msg.sender */\n      eq\n        /* \"Upgradable E1P 1822/Implementation1.sol\":641:702  require(owner == msg.sender, \"No permission except to owner\") */\n      tag_77\n      jumpi\n      mload(0x40)\n      shl(0xe5, 0x461bcd)\n      dup2\n      mstore\n        /* \"#utility.yul\":3081:3083   */\n      0x20\n        /* \"Upgradable E1P 1822/Implementation1.sol\":641:702  require(owner == msg.sender, \"No permission except to owner\") */\n      0x04\n      dup3\n      add\n        /* \"#utility.yul\":3063:3084   */\n      mstore\n        /* \"#utility.yul\":3120:3122   */\n      0x1d\n        /* \"#utility.yul\":3100:3118   */\n      0x24\n      dup3\n      add\n        /* \"#utility.yul\":3093:3123   */\n      mstore\n        /* \"#utility.yul\":3159:3190   */\n      0x4e6f207065726d697373696f6e2065786365707420746f206f776e6572000000\n        /* \"#utility.yul\":3139:3157   */\n      0x44\n      dup3\n      add\n        /* \"#utility.yul\":3132:3191   */\n      mstore\n        /* \"#utility.yul\":3208:3226   */\n      0x64\n      add\n        /* \"Upgradable E1P 1822/Implementation1.sol\":641:702  require(owner == msg.sender, \"No permission except to owner\") */\n      tag_66\n        /* \"#utility.yul\":2879:3232   */\n      jump\n        /* \"Upgradable E1P 1822/Implementation1.sol\":641:702  require(owner == msg.sender, \"No permission except to owner\") */\n    tag_77:\n        /* \"Upgradable E1P 1822/Implementation1.sol\":2156:2182  updateCodeAddress(newCode) */\n      tag_81\n        /* \"Upgradable E1P 1822/Implementation1.sol\":2174:2181  newCode */\n      dup2\n        /* \"Upgradable E1P 1822/Implementation1.sol\":2156:2173  updateCodeAddress */\n      tag_82\n        /* \"Upgradable E1P 1822/Implementation1.sol\":2156:2182  updateCodeAddress(newCode) */\n      jump\t// in\n    tag_81:\n        /* \"Upgradable E1P 1822/Implementation1.sol\":2092:2189  function updateCode(address newCode) onlyOwner public {... */\n      pop\n      jump\t// out\n        /* \"Upgradable E1P 1822/Implementation1.sol\":1360:1746  function mint(uint amount, address _to) public onlyOwner returns(uint){... */\n    tag_50:\n        /* \"Upgradable E1P 1822/Implementation1.sol\":649:654  owner */\n      sload(0x01)\n        /* \"Upgradable E1P 1822/Implementation1.sol\":1425:1429  uint */\n      0x00\n      swap1\n      sub(shl(0xa0, 0x01), 0x01)\n        /* \"Upgradable E1P 1822/Implementation1.sol\":649:654  owner */\n      and\n        /* \"Upgradable E1P 1822/Implementation1.sol\":658:668  msg.sender */\n      caller\n        /* \"Upgradable E1P 1822/Implementation1.sol\":649:668  owner == msg.sender */\n      eq\n        /* \"Upgradable E1P 1822/Implementation1.sol\":641:702  require(owner == msg.sender, \"No permission except to owner\") */\n      tag_86\n      jumpi\n      mload(0x40)\n      shl(0xe5, 0x461bcd)\n      dup2\n      mstore\n        /* \"#utility.yul\":3081:3083   */\n      0x20\n        /* \"Upgradable E1P 1822/Implementation1.sol\":641:702  require(owner == msg.sender, \"No permission except to owner\") */\n      0x04\n      dup3\n      add\n        /* \"#utility.yul\":3063:3084   */\n      mstore\n        /* \"#utility.yul\":3120:3122   */\n      0x1d\n        /* \"#utility.yul\":3100:3118   */\n      0x24\n      dup3\n      add\n        /* \"#utility.yul\":3093:3123   */\n      mstore\n        /* \"#utility.yul\":3159:3190   */\n      0x4e6f207065726d697373696f6e2065786365707420746f206f776e6572000000\n        /* \"#utility.yul\":3139:3157   */\n      0x44\n      dup3\n      add\n        /* \"#utility.yul\":3132:3191   */\n      mstore\n        /* \"#utility.yul\":3208:3226   */\n      0x64\n      add\n        /* \"Upgradable E1P 1822/Implementation1.sol\":641:702  require(owner == msg.sender, \"No permission except to owner\") */\n      tag_66\n        /* \"#utility.yul\":2879:3232   */\n      jump\n        /* \"Upgradable E1P 1822/Implementation1.sol\":641:702  require(owner == msg.sender, \"No permission except to owner\") */\n    tag_86:\n        /* \"Upgradable E1P 1822/Implementation1.sol\":1460:1466  amount */\n      dup3\n        /* \"Upgradable E1P 1822/Implementation1.sol\":1440:1456  circulatingSuppy */\n      0x00\n      dup1\n        /* \"Upgradable E1P 1822/Implementation1.sol\":1440:1466  circulatingSuppy += amount */\n      dup3\n      dup3\n      sload\n      tag_89\n      swap2\n      swap1\n      tag_73\n      jump\t// in\n    tag_89:\n      swap1\n      swap2\n      sstore\n      pop\n      pop\n        /* \"Upgradable E1P 1822/Implementation1.sol\":1484:1500  circulatingSuppy */\n      sload(0x00)\n        /* \"Upgradable E1P 1822/Implementation1.sol\":167:172  10000 */\n      0x2710\n      lt\n        /* \"Upgradable E1P 1822/Implementation1.sol\":1484:1515  circulatingSuppy <= totalSupply */\n      iszero\n        /* \"Upgradable E1P 1822/Implementation1.sol\":1476:1550  require(circulatingSuppy <= totalSupply, \"Total supply of token exceeded\") */\n      tag_90\n      jumpi\n      mload(0x40)\n      shl(0xe5, 0x461bcd)\n      dup2\n      mstore\n        /* \"#utility.yul\":3439:3441   */\n      0x20\n        /* \"Upgradable E1P 1822/Implementation1.sol\":1476:1550  require(circulatingSuppy <= totalSupply, \"Total supply of token exceeded\") */\n      0x04\n      dup3\n      add\n        /* \"#utility.yul\":3421:3442   */\n      mstore\n        /* \"#utility.yul\":3478:3480   */\n      0x1e\n        /* \"#utility.yul\":3458:3476   */\n      0x24\n      dup3\n      add\n        /* \"#utility.yul\":3451:3481   */\n      mstore\n        /* \"#utility.yul\":3517:3549   */\n      0x546f74616c20737570706c79206f6620746f6b656e2065786365656465640000\n        /* \"#utility.yul\":3497:3515   */\n      0x44\n      dup3\n      add\n        /* \"#utility.yul\":3490:3550   */\n      mstore\n        /* \"#utility.yul\":3567:3585   */\n      0x64\n      add\n        /* \"Upgradable E1P 1822/Implementation1.sol\":1476:1550  require(circulatingSuppy <= totalSupply, \"Total supply of token exceeded\") */\n      tag_66\n        /* \"#utility.yul\":3237:3591   */\n      jump\n        /* \"Upgradable E1P 1822/Implementation1.sol\":1476:1550  require(circulatingSuppy <= totalSupply, \"Total supply of token exceeded\") */\n    tag_90:\n      sub(shl(0xa0, 0x01), 0x01)\n        /* \"Upgradable E1P 1822/Implementation1.sol\":1568:1585  _to != address(0) */\n      dup3\n      and\n        /* \"Upgradable E1P 1822/Implementation1.sol\":1560:1610  require(_to != address(0), \"mint to address zero\") */\n      tag_93\n      jumpi\n      mload(0x40)\n      shl(0xe5, 0x461bcd)\n      dup2\n      mstore\n        /* \"#utility.yul\":3798:3800   */\n      0x20\n        /* \"Upgradable E1P 1822/Implementation1.sol\":1560:1610  require(_to != address(0), \"mint to address zero\") */\n      0x04\n      dup3\n      add\n        /* \"#utility.yul\":3780:3801   */\n      mstore\n        /* \"#utility.yul\":3837:3839   */\n      0x14\n        /* \"#utility.yul\":3817:3835   */\n      0x24\n      dup3\n      add\n        /* \"#utility.yul\":3810:3840   */\n      mstore\n      shl(0x60, 0x6d696e7420746f2061646472657373207a65726f)\n        /* \"#utility.yul\":3856:3874   */\n      0x44\n      dup3\n      add\n        /* \"#utility.yul\":3849:3899   */\n      mstore\n        /* \"#utility.yul\":3916:3934   */\n      0x64\n      add\n        /* \"Upgradable E1P 1822/Implementation1.sol\":1560:1610  require(_to != address(0), \"mint to address zero\") */\n      tag_66\n        /* \"#utility.yul\":3596:3940   */\n      jump\n        /* \"Upgradable E1P 1822/Implementation1.sol\":1560:1610  require(_to != address(0), \"mint to address zero\") */\n    tag_93:\n        /* \"Upgradable E1P 1822/Implementation1.sol\":1620:1630  uint value */\n      0x00\n        /* \"Upgradable E1P 1822/Implementation1.sol\":1633:1649  amount * decimal */\n      tag_96\n        /* \"Upgradable E1P 1822/Implementation1.sol\":320:324  1e18 */\n      0x0de0b6b3a7640000\n        /* \"Upgradable E1P 1822/Implementation1.sol\":1633:1639  amount */\n      dup6\n        /* \"Upgradable E1P 1822/Implementation1.sol\":1633:1649  amount * decimal */\n      tag_97\n      jump\t// in\n    tag_96:\n      sub(shl(0xa0, 0x01), 0x01)\n        /* \"Upgradable E1P 1822/Implementation1.sol\":1659:1672  _balance[_to] */\n      dup5\n      and\n      0x00\n      swap1\n      dup2\n      mstore\n        /* \"Upgradable E1P 1822/Implementation1.sol\":1659:1667  _balance */\n      0x02\n        /* \"Upgradable E1P 1822/Implementation1.sol\":1659:1672  _balance[_to] */\n      0x20\n      mstore\n      0x40\n      dup2\n      keccak256\n        /* \"Upgradable E1P 1822/Implementation1.sol\":1659:1681  _balance[_to] += value */\n      dup1\n      sload\n        /* \"Upgradable E1P 1822/Implementation1.sol\":1620:1649  uint value = amount * decimal */\n      swap3\n      swap4\n      pop\n      dup4\n      swap3\n        /* \"Upgradable E1P 1822/Implementation1.sol\":1659:1672  _balance[_to] */\n      swap1\n      swap2\n      swap1\n        /* \"Upgradable E1P 1822/Implementation1.sol\":1659:1681  _balance[_to] += value */\n      tag_98\n      swap1\n        /* \"Upgradable E1P 1822/Implementation1.sol\":1620:1649  uint value = amount * decimal */\n      dup5\n      swap1\n        /* \"Upgradable E1P 1822/Implementation1.sol\":1659:1681  _balance[_to] += value */\n      tag_73\n      jump\t// in\n    tag_98:\n      swap1\n      swap2\n      sstore\n      pop\n      pop\n        /* \"Upgradable E1P 1822/Implementation1.sol\":1696:1717  tokenMint(_to, value) */\n      0x40\n      dup1\n      mload\n      sub(shl(0xa0, 0x01), 0x01)\n        /* \"#utility.yul\":4310:4342   */\n      dup6\n      and\n        /* \"#utility.yul\":4292:4343   */\n      dup2\n      mstore\n        /* \"#utility.yul\":4374:4376   */\n      0x20\n        /* \"#utility.yul\":4359:4377   */\n      dup2\n      add\n        /* \"#utility.yul\":4352:4386   */\n      dup4\n      swap1\n      mstore\n        /* \"Upgradable E1P 1822/Implementation1.sol\":1696:1717  tokenMint(_to, value) */\n      0xeef892aa26c4762fad30f87b912a95ed5b6ff48d8ea3521783c84679e23d2ae2\n      swap2\n        /* \"#utility.yul\":4265:4283   */\n      add\n        /* \"Upgradable E1P 1822/Implementation1.sol\":1696:1717  tokenMint(_to, value) */\n      mload(0x40)\n      dup1\n      swap2\n      sub\n      swap1\n      log1\n        /* \"Upgradable E1P 1822/Implementation1.sol\":1734:1739  value */\n      swap4\n        /* \"Upgradable E1P 1822/Implementation1.sol\":1360:1746  function mint(uint amount, address _to) public onlyOwner returns(uint){... */\n      swap3\n      pop\n      pop\n      pop\n      jump\t// out\n        /* \"Upgradable E1P 1822/Proxible.sol\":220:621  function updateCodeAddress(address newAddress) internal {... */\n    tag_82:\n        /* \"Upgradable E1P 1822/Proxible.sol\":396:406  newAddress */\n      dup1\n      sub(shl(0xa0, 0x01), 0x01)\n        /* \"Upgradable E1P 1822/Proxible.sol\":386:421  Proxiable(newAddress).proxiableUUID */\n      and\n      0x52d1902d\n        /* \"Upgradable E1P 1822/Proxible.sol\":386:423  Proxiable(newAddress).proxiableUUID() */\n      mload(0x40)\n      dup2\n      0xffffffff\n      and\n      0xe0\n      shl\n      dup2\n      mstore\n      0x04\n      add\n      0x20\n      mload(0x40)\n      dup1\n      dup4\n      sub\n      dup2\n      dup7\n      gas\n      staticcall\n      iszero\n      dup1\n      iszero\n      tag_105\n      jumpi\n      returndatasize\n      0x00\n      dup1\n      returndatacopy\n      revert(0x00, returndatasize)\n    tag_105:\n      pop\n      pop\n      pop\n      pop\n      mload(0x40)\n      returndatasize\n      not(0x1f)\n      0x1f\n      dup3\n      add\n      and\n      dup3\n      add\n      dup1\n      0x40\n      mstore\n      pop\n      dup2\n      add\n      swap1\n      tag_106\n      swap2\n      swap1\n      tag_107\n      jump\t// in\n    tag_106:\n        /* \"Upgradable E1P 1822/Proxible.sol\":315:381  0xc5f16f0fcc639fa48a6947836d9850f504798523bf8c9a3a87d5876cf622bcf7 */\n      0xc5f16f0fcc639fa48a6947836d9850f504798523bf8c9a3a87d5876cf622bcf7\n        /* \"Upgradable E1P 1822/Proxible.sol\":307:423  bytes32(0xc5f16f0fcc639fa48a6947836d9850f504798523bf8c9a3a87d5876cf622bcf7) == Proxiable(newAddress).proxiableUUID() */\n      eq\n        /* \"Upgradable E1P 1822/Proxible.sol\":286:463  require(... */\n      tag_108\n      jumpi\n      mload(0x40)\n      shl(0xe5, 0x461bcd)\n      dup2\n      mstore\n        /* \"#utility.yul\":4788:4790   */\n      0x20\n        /* \"Upgradable E1P 1822/Proxible.sol\":286:463  require(... */\n      0x04\n      dup3\n      add\n        /* \"#utility.yul\":4770:4791   */\n      mstore\n        /* \"#utility.yul\":4827:4829   */\n      0x0e\n        /* \"#utility.yul\":4807:4825   */\n      0x24\n      dup3\n      add\n        /* \"#utility.yul\":4800:4830   */\n      mstore\n      shl(0x90, 0x4e6f7420636f6d70617469626c65)\n        /* \"#utility.yul\":4846:4864   */\n      0x44\n      dup3\n      add\n        /* \"#utility.yul\":4839:4883   */\n      mstore\n        /* \"#utility.yul\":4900:4918   */\n      0x64\n      add\n        /* \"Upgradable E1P 1822/Proxible.sol\":286:463  require(... */\n      tag_66\n        /* \"#utility.yul\":4586:4924   */\n      jump\n        /* \"Upgradable E1P 1822/Proxible.sol\":286:463  require(... */\n    tag_108:\n        /* \"Upgradable E1P 1822/Proxible.sol\":526:592  0xc5f16f0fcc639fa48a6947836d9850f504798523bf8c9a3a87d5876cf622bcf7 */\n      0xc5f16f0fcc639fa48a6947836d9850f504798523bf8c9a3a87d5876cf622bcf7\n        /* \"Upgradable E1P 1822/Proxible.sol\":519:605  sstore(0xc5f16f0fcc639fa48a6947836d9850f504798523bf8c9a3a87d5876cf622bcf7, newAddress) */\n      sstore\n        /* \"Upgradable E1P 1822/Proxible.sol\":220:621  function updateCodeAddress(address newAddress) internal {... */\n      jump\t// out\n        /* \"#utility.yul\":14:187   */\n    tag_111:\n        /* \"#utility.yul\":82:102   */\n      dup1\n      calldataload\n      sub(shl(0xa0, 0x01), 0x01)\n        /* \"#utility.yul\":131:162   */\n      dup2\n      and\n        /* \"#utility.yul\":121:163   */\n      dup2\n      eq\n        /* \"#utility.yul\":111:181   */\n      tag_115\n      jumpi\n        /* \"#utility.yul\":177:178   */\n      0x00\n        /* \"#utility.yul\":174:175   */\n      dup1\n        /* \"#utility.yul\":167:179   */\n      revert\n        /* \"#utility.yul\":111:181   */\n    tag_115:\n        /* \"#utility.yul\":14:187   */\n      swap2\n      swap1\n      pop\n      jump\t// out\n        /* \"#utility.yul\":192:446   */\n    tag_18:\n        /* \"#utility.yul\":260:266   */\n      0x00\n        /* \"#utility.yul\":268:274   */\n      dup1\n        /* \"#utility.yul\":321:323   */\n      0x40\n        /* \"#utility.yul\":309:318   */\n      dup4\n        /* \"#utility.yul\":300:307   */\n      dup6\n        /* \"#utility.yul\":296:319   */\n      sub\n        /* \"#utility.yul\":292:324   */\n      slt\n        /* \"#utility.yul\":289:341   */\n      iszero\n      tag_117\n      jumpi\n        /* \"#utility.yul\":337:338   */\n      0x00\n        /* \"#utility.yul\":334:335   */\n      dup1\n        /* \"#utility.yul\":327:339   */\n      revert\n        /* \"#utility.yul\":289:341   */\n    tag_117:\n        /* \"#utility.yul\":360:389   */\n      tag_118\n        /* \"#utility.yul\":379:388   */\n      dup4\n        /* \"#utility.yul\":360:389   */\n      tag_111\n      jump\t// in\n    tag_118:\n        /* \"#utility.yul\":350:389   */\n      swap5\n        /* \"#utility.yul\":436:438   */\n      0x20\n        /* \"#utility.yul\":421:439   */\n      swap4\n      swap1\n      swap4\n      add\n        /* \"#utility.yul\":408:440   */\n      calldataload\n      swap4\n      pop\n      pop\n      pop\n        /* \"#utility.yul\":192:446   */\n      jump\t// out\n        /* \"#utility.yul\":825:1011   */\n    tag_33:\n        /* \"#utility.yul\":884:890   */\n      0x00\n        /* \"#utility.yul\":937:939   */\n      0x20\n        /* \"#utility.yul\":925:934   */\n      dup3\n        /* \"#utility.yul\":916:923   */\n      dup5\n        /* \"#utility.yul\":912:935   */\n      sub\n        /* \"#utility.yul\":908:940   */\n      slt\n        /* \"#utility.yul\":905:957   */\n      iszero\n      tag_122\n      jumpi\n        /* \"#utility.yul\":953:954   */\n      0x00\n        /* \"#utility.yul\":950:951   */\n      dup1\n        /* \"#utility.yul\":943:955   */\n      revert\n        /* \"#utility.yul\":905:957   */\n    tag_122:\n        /* \"#utility.yul\":976:1005   */\n      tag_123\n        /* \"#utility.yul\":995:1004   */\n      dup3\n        /* \"#utility.yul\":976:1005   */\n      tag_111\n      jump\t// in\n    tag_123:\n        /* \"#utility.yul\":966:1005   */\n      swap4\n        /* \"#utility.yul\":825:1011   */\n      swap3\n      pop\n      pop\n      pop\n      jump\t// out\n        /* \"#utility.yul\":1406:1660   */\n    tag_49:\n        /* \"#utility.yul\":1474:1480   */\n      0x00\n        /* \"#utility.yul\":1482:1488   */\n      dup1\n        /* \"#utility.yul\":1535:1537   */\n      0x40\n        /* \"#utility.yul\":1523:1532   */\n      dup4\n        /* \"#utility.yul\":1514:1521   */\n      dup6\n        /* \"#utility.yul\":1510:1533   */\n      sub\n        /* \"#utility.yul\":1506:1538   */\n      slt\n        /* \"#utility.yul\":1503:1555   */\n      iszero\n      tag_127\n      jumpi\n        /* \"#utility.yul\":1551:1552   */\n      0x00\n        /* \"#utility.yul\":1548:1549   */\n      dup1\n        /* \"#utility.yul\":1541:1553   */\n      revert\n        /* \"#utility.yul\":1503:1555   */\n    tag_127:\n        /* \"#utility.yul\":1587:1596   */\n      dup3\n        /* \"#utility.yul\":1574:1597   */\n      calldataload\n        /* \"#utility.yul\":1564:1597   */\n      swap2\n      pop\n        /* \"#utility.yul\":1616:1654   */\n      tag_128\n        /* \"#utility.yul\":1650:1652   */\n      0x20\n        /* \"#utility.yul\":1639:1648   */\n      dup5\n        /* \"#utility.yul\":1635:1653   */\n      add\n        /* \"#utility.yul\":1616:1654   */\n      tag_111\n      jump\t// in\n    tag_128:\n        /* \"#utility.yul\":1606:1654   */\n      swap1\n      pop\n        /* \"#utility.yul\":1406:1660   */\n      swap3\n      pop\n      swap3\n      swap1\n      pop\n      jump\t// out\n        /* \"#utility.yul\":1665:2262   */\n    tag_55:\n        /* \"#utility.yul\":1777:1781   */\n      0x00\n        /* \"#utility.yul\":1806:1808   */\n      0x20\n        /* \"#utility.yul\":1835:1837   */\n      dup1\n        /* \"#utility.yul\":1824:1833   */\n      dup4\n        /* \"#utility.yul\":1817:1838   */\n      mstore\n        /* \"#utility.yul\":1867:1873   */\n      dup4\n        /* \"#utility.yul\":1861:1874   */\n      mload\n        /* \"#utility.yul\":1910:1916   */\n      dup1\n        /* \"#utility.yul\":1905:1907   */\n      dup3\n        /* \"#utility.yul\":1894:1903   */\n      dup6\n        /* \"#utility.yul\":1890:1908   */\n      add\n        /* \"#utility.yul\":1883:1917   */\n      mstore\n        /* \"#utility.yul\":1935:1936   */\n      0x00\n        /* \"#utility.yul\":1945:2085   */\n    tag_130:\n        /* \"#utility.yul\":1959:1965   */\n      dup2\n        /* \"#utility.yul\":1956:1957   */\n      dup2\n        /* \"#utility.yul\":1953:1966   */\n      lt\n        /* \"#utility.yul\":1945:2085   */\n      iszero\n      tag_132\n      jumpi\n        /* \"#utility.yul\":2054:2068   */\n      dup6\n      dup2\n      add\n        /* \"#utility.yul\":2050:2073   */\n      dup4\n      add\n        /* \"#utility.yul\":2044:2074   */\n      mload\n        /* \"#utility.yul\":2020:2037   */\n      dup6\n      dup3\n      add\n        /* \"#utility.yul\":2039:2041   */\n      0x40\n        /* \"#utility.yul\":2016:2042   */\n      add\n        /* \"#utility.yul\":2009:2075   */\n      mstore\n        /* \"#utility.yul\":1974:1984   */\n      dup3\n      add\n        /* \"#utility.yul\":1945:2085   */\n      jump(tag_130)\n    tag_132:\n        /* \"#utility.yul\":2103:2109   */\n      dup2\n        /* \"#utility.yul\":2100:2101   */\n      dup2\n        /* \"#utility.yul\":2097:2110   */\n      gt\n        /* \"#utility.yul\":2094:2185   */\n      iszero\n      tag_133\n      jumpi\n        /* \"#utility.yul\":2173:2174   */\n      0x00\n        /* \"#utility.yul\":2168:2170   */\n      0x40\n        /* \"#utility.yul\":2159:2165   */\n      dup4\n        /* \"#utility.yul\":2148:2157   */\n      dup8\n        /* \"#utility.yul\":2144:2166   */\n      add\n        /* \"#utility.yul\":2140:2171   */\n      add\n        /* \"#utility.yul\":2133:2175   */\n      mstore\n        /* \"#utility.yul\":2094:2185   */\n    tag_133:\n      pop\n        /* \"#utility.yul\":2246:2248   */\n      0x1f\n        /* \"#utility.yul\":2225:2240   */\n      add\n      not(0x1f)\n        /* \"#utility.yul\":2221:2250   */\n      and\n        /* \"#utility.yul\":2206:2251   */\n      swap3\n      swap1\n      swap3\n      add\n        /* \"#utility.yul\":2253:2255   */\n      0x40\n        /* \"#utility.yul\":2202:2256   */\n      add\n      swap4\n        /* \"#utility.yul\":1665:2262   */\n      swap3\n      pop\n      pop\n      pop\n      jump\t// out\n        /* \"#utility.yul\":2614:2741   */\n    tag_112:\n        /* \"#utility.yul\":2675:2685   */\n      0x4e487b71\n        /* \"#utility.yul\":2670:2673   */\n      0xe0\n        /* \"#utility.yul\":2666:2686   */\n      shl\n        /* \"#utility.yul\":2663:2664   */\n      0x00\n        /* \"#utility.yul\":2656:2687   */\n      mstore\n        /* \"#utility.yul\":2706:2710   */\n      0x11\n        /* \"#utility.yul\":2703:2704   */\n      0x04\n        /* \"#utility.yul\":2696:2711   */\n      mstore\n        /* \"#utility.yul\":2730:2734   */\n      0x24\n        /* \"#utility.yul\":2727:2728   */\n      0x00\n        /* \"#utility.yul\":2720:2735   */\n      revert\n        /* \"#utility.yul\":2746:2874   */\n    tag_73:\n        /* \"#utility.yul\":2786:2789   */\n      0x00\n        /* \"#utility.yul\":2817:2818   */\n      dup3\n        /* \"#utility.yul\":2813:2819   */\n      not\n        /* \"#utility.yul\":2810:2811   */\n      dup3\n        /* \"#utility.yul\":2807:2820   */\n      gt\n        /* \"#utility.yul\":2804:2843   */\n      iszero\n      tag_138\n      jumpi\n        /* \"#utility.yul\":2823:2841   */\n      tag_138\n      tag_112\n      jump\t// in\n    tag_138:\n      pop\n        /* \"#utility.yul\":2859:2868   */\n      add\n      swap1\n        /* \"#utility.yul\":2746:2874   */\n      jump\t// out\n        /* \"#utility.yul\":3945:4113   */\n    tag_97:\n        /* \"#utility.yul\":3985:3992   */\n      0x00\n        /* \"#utility.yul\":4051:4052   */\n      dup2\n        /* \"#utility.yul\":4047:4048   */\n      0x00\n        /* \"#utility.yul\":4043:4049   */\n      not\n        /* \"#utility.yul\":4039:4053   */\n      div\n        /* \"#utility.yul\":4036:4037   */\n      dup4\n        /* \"#utility.yul\":4033:4054   */\n      gt\n        /* \"#utility.yul\":4028:4029   */\n      dup3\n        /* \"#utility.yul\":4021:4030   */\n      iszero\n        /* \"#utility.yul\":4014:4031   */\n      iszero\n        /* \"#utility.yul\":4010:4055   */\n      and\n        /* \"#utility.yul\":4007:4078   */\n      iszero\n      tag_144\n      jumpi\n        /* \"#utility.yul\":4058:4076   */\n      tag_144\n      tag_112\n      jump\t// in\n    tag_144:\n      pop\n        /* \"#utility.yul\":4098:4107   */\n      mul\n      swap1\n        /* \"#utility.yul\":3945:4113   */\n      jump\t// out\n        /* \"#utility.yul\":4397:4581   */\n    tag_107:\n        /* \"#utility.yul\":4467:4473   */\n      0x00\n        /* \"#utility.yul\":4520:4522   */\n      0x20\n        /* \"#utility.yul\":4508:4517   */\n      dup3\n        /* \"#utility.yul\":4499:4506   */\n      dup5\n        /* \"#utility.yul\":4495:4518   */\n      sub\n        /* \"#utility.yul\":4491:4523   */\n      slt\n        /* \"#utility.yul\":4488:4540   */\n      iszero\n      tag_147\n      jumpi\n        /* \"#utility.yul\":4536:4537   */\n      0x00\n        /* \"#utility.yul\":4533:4534   */\n      dup1\n        /* \"#utility.yul\":4526:4538   */\n      revert\n        /* \"#utility.yul\":4488:4540   */\n    tag_147:\n      pop\n        /* \"#utility.yul\":4559:4575   */\n      mload\n      swap2\n        /* \"#utility.yul\":4397:4581   */\n      swap1\n      pop\n      jump\t// out\n\n    auxdata: 0xa2646970667358221220578761348ebda2ca92a5af4732572ebfc0c96ca0f78e860ae41b1ff9d016ca0b64736f6c634300080a0033\n}\n",
				"bytecode": {
					"linkReferences": {},
					"object": "60806040526001805460ff60a01b1916905534801561001d57600080fd5b506107b08061002d6000396000f3fe608060405234801561001057600080fd5b50600436106100b45760003560e01c806386212b8f1161007157806386212b8f146101505780638da5cb5b1461017957806394bf804d146101a4578063b09f1266146101b7578063d28d8852146101e0578063d3aceae21461021957600080fd5b8063095ea7b3146100b9578063158ef93e146100ce5780632f0e3120146100f75780633eaaf86b1461010f578063469519541461011757806352d1902d1461012a575b600080fd5b6100cc6100c7366004610647565b610239565b005b6001546100e290600160a01b900460ff1681565b60405190151581526020015b60405180910390f35b670de0b6b3a76400005b6040519081526020016100ee565b612710610101565b6100cc610125366004610671565b61033d565b7fc5f16f0fcc639fa48a6947836d9850f504798523bf8c9a3a87d5876cf622bcf7610101565b61010161015e366004610671565b6001600160a01b031660009081526002602052604090205490565b60015461018c906001600160a01b031681565b6040516001600160a01b0390911681526020016100ee565b6101016101b2366004610693565b6103a3565b6040805180820190915260048152634549504960e01b60208201525b6040516100ee91906106bf565b60408051808201909152601781527f4549502d3138323220496d706c656d656e746174696f6e00000000000000000060208201526101d3565b610101610227366004610671565b60026020526000908152604090205481565b336000818152600260205260409020548290818110156102955760405162461bcd60e51b8152602060048201526012602482015271496e73756666696369656e742066756e647360701b60448201526064015b60405180910390fd5b6001600160a01b0385166102a857600080fd5b3360009081526003602090815260408083206001600160a01b0389168452909152902054806102fc573360009081526003602090815260408083206001600160a01b038a1684529091529020859055610335565b3360009081526003602090815260408083206001600160a01b038a1684529091528120805487929061032f90849061072a565b90915550505b505050505050565b6001546001600160a01b031633146103975760405162461bcd60e51b815260206004820152601d60248201527f4e6f207065726d697373696f6e2065786365707420746f206f776e6572000000604482015260640161028c565b6103a081610546565b50565b6001546000906001600160a01b031633146104005760405162461bcd60e51b815260206004820152601d60248201527f4e6f207065726d697373696f6e2065786365707420746f206f776e6572000000604482015260640161028c565b82600080828254610411919061072a565b9091555050600054612710101561046a5760405162461bcd60e51b815260206004820152601e60248201527f546f74616c20737570706c79206f6620746f6b656e2065786365656465640000604482015260640161028c565b6001600160a01b0382166104b75760405162461bcd60e51b81526020600482015260146024820152736d696e7420746f2061646472657373207a65726f60601b604482015260640161028c565b60006104cb670de0b6b3a764000085610742565b6001600160a01b0384166000908152600260205260408120805492935083929091906104f890849061072a565b9091555050604080516001600160a01b0385168152602081018390527feef892aa26c4762fad30f87b912a95ed5b6ff48d8ea3521783c84679e23d2ae2910160405180910390a19392505050565b806001600160a01b03166352d1902d6040518163ffffffff1660e01b8152600401602060405180830381865afa158015610584573d6000803e3d6000fd5b505050506040513d601f19601f820116820180604052508101906105a89190610761565b7fc5f16f0fcc639fa48a6947836d9850f504798523bf8c9a3a87d5876cf622bcf7146106075760405162461bcd60e51b815260206004820152600e60248201526d4e6f7420636f6d70617469626c6560901b604482015260640161028c565b7fc5f16f0fcc639fa48a6947836d9850f504798523bf8c9a3a87d5876cf622bcf755565b80356001600160a01b038116811461064257600080fd5b919050565b6000806040838503121561065a57600080fd5b6106638361062b565b946020939093013593505050565b60006020828403121561068357600080fd5b61068c8261062b565b9392505050565b600080604083850312156106a657600080fd5b823591506106b66020840161062b565b90509250929050565b600060208083528351808285015260005b818110156106ec578581018301518582016040015282016106d0565b818111156106fe576000604083870101525b50601f01601f1916929092016040019392505050565b634e487b7160e01b600052601160045260246000fd5b6000821982111561073d5761073d610714565b500190565b600081600019048311821515161561075c5761075c610714565b500290565b60006020828403121561077357600080fd5b505191905056fea2646970667358221220578761348ebda2ca92a5af4732572ebfc0c96ca0f78e860ae41b1ff9d016ca0b64736f6c634300080a0033",
					"opcodes": "PUSH1 0x80 PUSH1 0x40 MSTORE PUSH1 0x1 DUP1 SLOAD PUSH1 0xFF PUSH1 0xA0 SHL NOT AND SWAP1 SSTORE CALLVALUE DUP1 ISZERO PUSH2 0x1D JUMPI PUSH1 0x0 DUP1 REVERT JUMPDEST POP PUSH2 0x7B0 DUP1 PUSH2 0x2D PUSH1 0x0 CODECOPY PUSH1 0x0 RETURN INVALID PUSH1 0x80 PUSH1 0x40 MSTORE CALLVALUE DUP1 ISZERO PUSH2 0x10 JUMPI PUSH1 0x0 DUP1 REVERT JUMPDEST POP PUSH1 0x4 CALLDATASIZE LT PUSH2 0xB4 JUMPI PUSH1 0x0 CALLDATALOAD PUSH1 0xE0 SHR DUP1 PUSH4 0x86212B8F GT PUSH2 0x71 JUMPI DUP1 PUSH4 0x86212B8F EQ PUSH2 0x150 JUMPI DUP1 PUSH4 0x8DA5CB5B EQ PUSH2 0x179 JUMPI DUP1 PUSH4 0x94BF804D EQ PUSH2 0x1A4 JUMPI DUP1 PUSH4 0xB09F1266 EQ PUSH2 0x1B7 JUMPI DUP1 PUSH4 0xD28D8852 EQ PUSH2 0x1E0 JUMPI DUP1 PUSH4 0xD3ACEAE2 EQ PUSH2 0x219 JUMPI PUSH1 0x0 DUP1 REVERT JUMPDEST DUP1 PUSH4 0x95EA7B3 EQ PUSH2 0xB9 JUMPI DUP1 PUSH4 0x158EF93E EQ PUSH2 0xCE JUMPI DUP1 PUSH4 0x2F0E3120 EQ PUSH2 0xF7 JUMPI DUP1 PUSH4 0x3EAAF86B EQ PUSH2 0x10F JUMPI DUP1 PUSH4 0x46951954 EQ PUSH2 0x117 JUMPI DUP1 PUSH4 0x52D1902D EQ PUSH2 0x12A JUMPI JUMPDEST PUSH1 0x0 DUP1 REVERT JUMPDEST PUSH2 0xCC PUSH2 0xC7 CALLDATASIZE PUSH1 0x4 PUSH2 0x647 JUMP JUMPDEST PUSH2 0x239 JUMP JUMPDEST STOP JUMPDEST PUSH1 0x1 SLOAD PUSH2 0xE2 SWAP1 PUSH1 0x1 PUSH1 0xA0 SHL SWAP1 DIV PUSH1 0xFF AND DUP2 JUMP JUMPDEST PUSH1 0x40 MLOAD SWAP1 ISZERO ISZERO DUP2 MSTORE PUSH1 0x20 ADD JUMPDEST PUSH1 0x40 MLOAD DUP1 SWAP2 SUB SWAP1 RETURN JUMPDEST PUSH8 0xDE0B6B3A7640000 JUMPDEST PUSH1 0x40 MLOAD SWAP1 DUP2 MSTORE PUSH1 0x20 ADD PUSH2 0xEE JUMP JUMPDEST PUSH2 0x2710 PUSH2 0x101 JUMP JUMPDEST PUSH2 0xCC PUSH2 0x125 CALLDATASIZE PUSH1 0x4 PUSH2 0x671 JUMP JUMPDEST PUSH2 0x33D JUMP JUMPDEST PUSH32 0xC5F16F0FCC639FA48A6947836D9850F504798523BF8C9A3A87D5876CF622BCF7 PUSH2 0x101 JUMP JUMPDEST PUSH2 0x101 PUSH2 0x15E CALLDATASIZE PUSH1 0x4 PUSH2 0x671 JUMP JUMPDEST PUSH1 0x1 PUSH1 0x1 PUSH1 0xA0 SHL SUB AND PUSH1 0x0 SWAP1 DUP2 MSTORE PUSH1 0x2 PUSH1 0x20 MSTORE PUSH1 0x40 SWAP1 KECCAK256 SLOAD SWAP1 JUMP JUMPDEST PUSH1 0x1 SLOAD PUSH2 0x18C SWAP1 PUSH1 0x1 PUSH1 0x1 PUSH1 0xA0 SHL SUB AND DUP2 JUMP JUMPDEST PUSH1 0x40 MLOAD PUSH1 0x1 PUSH1 0x1 PUSH1 0xA0 SHL SUB SWAP1 SWAP2 AND DUP2 MSTORE PUSH1 0x20 ADD PUSH2 0xEE JUMP JUMPDEST PUSH2 0x101 PUSH2 0x1B2 CALLDATASIZE PUSH1 0x4 PUSH2 0x693 JUMP JUMPDEST PUSH2 0x3A3 JUMP JUMPDEST PUSH1 0x40 DUP1 MLOAD DUP1 DUP3 ADD SWAP1 SWAP2 MSTORE PUSH1 0x4 DUP2 MSTORE PUSH4 0x45495049 PUSH1 0xE0 SHL PUSH1 0x20 DUP3 ADD MSTORE JUMPDEST PUSH1 0x40 MLOAD PUSH2 0xEE SWAP2 SWAP1 PUSH2 0x6BF JUMP JUMPDEST PUSH1 0x40 DUP1 MLOAD DUP1 DUP3 ADD SWAP1 SWAP2 MSTORE PUSH1 0x17 DUP2 MSTORE PUSH32 0x4549502D3138323220496D706C656D656E746174696F6E000000000000000000 PUSH1 0x20 DUP3 ADD MSTORE PUSH2 0x1D3 JUMP JUMPDEST PUSH2 0x101 PUSH2 0x227 CALLDATASIZE PUSH1 0x4 PUSH2 0x671 JUMP JUMPDEST PUSH1 0x2 PUSH1 0x20 MSTORE PUSH1 0x0 SWAP1 DUP2 MSTORE PUSH1 0x40 SWAP1 KECCAK256 SLOAD DUP2 JUMP JUMPDEST CALLER PUSH1 0x0 DUP2 DUP2 MSTORE PUSH1 0x2 PUSH1 0x20 MSTORE PUSH1 0x40 SWAP1 KECCAK256 SLOAD DUP3 SWAP1 DUP2 DUP2 LT ISZERO PUSH2 0x295 JUMPI PUSH1 0x40 MLOAD PUSH3 0x461BCD PUSH1 0xE5 SHL DUP2 MSTORE PUSH1 0x20 PUSH1 0x4 DUP3 ADD MSTORE PUSH1 0x12 PUSH1 0x24 DUP3 ADD MSTORE PUSH18 0x496E73756666696369656E742066756E6473 PUSH1 0x70 SHL PUSH1 0x44 DUP3 ADD MSTORE PUSH1 0x64 ADD JUMPDEST PUSH1 0x40 MLOAD DUP1 SWAP2 SUB SWAP1 REVERT JUMPDEST PUSH1 0x1 PUSH1 0x1 PUSH1 0xA0 SHL SUB DUP6 AND PUSH2 0x2A8 JUMPI PUSH1 0x0 DUP1 REVERT JUMPDEST CALLER PUSH1 0x0 SWAP1 DUP2 MSTORE PUSH1 0x3 PUSH1 0x20 SWAP1 DUP2 MSTORE PUSH1 0x40 DUP1 DUP4 KECCAK256 PUSH1 0x1 PUSH1 0x1 PUSH1 0xA0 SHL SUB DUP10 AND DUP5 MSTORE SWAP1 SWAP2 MSTORE SWAP1 KECCAK256 SLOAD DUP1 PUSH2 0x2FC JUMPI CALLER PUSH1 0x0 SWAP1 DUP2 MSTORE PUSH1 0x3 PUSH1 0x20 SWAP1 DUP2 MSTORE PUSH1 0x40 DUP1 DUP4 KECCAK256 PUSH1 0x1 PUSH1 0x1 PUSH1 0xA0 SHL SUB DUP11 AND DUP5 MSTORE SWAP1 SWAP2 MSTORE SWAP1 KECCAK256 DUP6 SWAP1 SSTORE PUSH2 0x335 JUMP JUMPDEST CALLER PUSH1 0x0 SWAP1 DUP2 MSTORE PUSH1 0x3 PUSH1 0x20 SWAP1 DUP2 MSTORE PUSH1 0x40 DUP1 DUP4 KECCAK256 PUSH1 0x1 PUSH1 0x1 PUSH1 0xA0 SHL SUB DUP11 AND DUP5 MSTORE SWAP1 SWAP2 MSTORE DUP2 KECCAK256 DUP1 SLOAD DUP8 SWAP3 SWAP1 PUSH2 0x32F SWAP1 DUP5 SWAP1 PUSH2 0x72A JUMP JUMPDEST SWAP1 SWAP2 SSTORE POP POP JUMPDEST POP POP POP POP POP POP JUMP JUMPDEST PUSH1 0x1 SLOAD PUSH1 0x1 PUSH1 0x1 PUSH1 0xA0 SHL SUB AND CALLER EQ PUSH2 0x397 JUMPI PUSH1 0x40 MLOAD PUSH3 0x461BCD PUSH1 0xE5 SHL DUP2 MSTORE PUSH1 0x20 PUSH1 0x4 DUP3 ADD MSTORE PUSH1 0x1D PUSH1 0x24 DUP3 ADD MSTORE PUSH32 0x4E6F207065726D697373696F6E2065786365707420746F206F776E6572000000 PUSH1 0x44 DUP3 ADD MSTORE PUSH1 0x64 ADD PUSH2 0x28C JUMP JUMPDEST PUSH2 0x3A0 DUP2 PUSH2 0x546 JUMP JUMPDEST POP JUMP JUMPDEST PUSH1 0x1 SLOAD PUSH1 0x0 SWAP1 PUSH1 0x1 PUSH1 0x1 PUSH1 0xA0 SHL SUB AND CALLER EQ PUSH2 0x400 JUMPI PUSH1 0x40 MLOAD PUSH3 0x461BCD PUSH1 0xE5 SHL DUP2 MSTORE PUSH1 0x20 PUSH1 0x4 DUP3 ADD MSTORE PUSH1 0x1D PUSH1 0x24 DUP3 ADD MSTORE PUSH32 0x4E6F207065726D697373696F6E2065786365707420746F206F776E6572000000 PUSH1 0x44 DUP3 ADD MSTORE PUSH1 0x64 ADD PUSH2 0x28C JUMP JUMPDEST DUP3 PUSH1 0x0 DUP1 DUP3 DUP3 SLOAD PUSH2 0x411 SWAP2 SWAP1 PUSH2 0x72A JUMP JUMPDEST SWAP1 SWAP2 SSTORE POP POP PUSH1 0x0 SLOAD PUSH2 0x2710 LT ISZERO PUSH2 0x46A JUMPI PUSH1 0x40 MLOAD PUSH3 0x461BCD PUSH1 0xE5 SHL DUP2 MSTORE PUSH1 0x20 PUSH1 0x4 DUP3 ADD MSTORE PUSH1 0x1E PUSH1 0x24 DUP3 ADD MSTORE PUSH32 0x546F74616C20737570706C79206F6620746F6B656E2065786365656465640000 PUSH1 0x44 DUP3 ADD MSTORE PUSH1 0x64 ADD PUSH2 0x28C JUMP JUMPDEST PUSH1 0x1 PUSH1 0x1 PUSH1 0xA0 SHL SUB DUP3 AND PUSH2 0x4B7 JUMPI PUSH1 0x40 MLOAD PUSH3 0x461BCD PUSH1 0xE5 SHL DUP2 MSTORE PUSH1 0x20 PUSH1 0x4 DUP3 ADD MSTORE PUSH1 0x14 PUSH1 0x24 DUP3 ADD MSTORE PUSH20 0x6D696E7420746F2061646472657373207A65726F PUSH1 0x60 SHL PUSH1 0x44 DUP3 ADD MSTORE PUSH1 0x64 ADD PUSH2 0x28C JUMP JUMPDEST PUSH1 0x0 PUSH2 0x4CB PUSH8 0xDE0B6B3A7640000 DUP6 PUSH2 0x742 JUMP JUMPDEST PUSH1 0x1 PUSH1 0x1 PUSH1 0xA0 SHL SUB DUP5 AND PUSH1 0x0 SWAP1 DUP2 MSTORE PUSH1 0x2 PUSH1 0x20 MSTORE PUSH1 0x40 DUP2 KECCAK256 DUP1 SLOAD SWAP3 SWAP4 POP DUP4 SWAP3 SWAP1 SWAP2 SWAP1 PUSH2 0x4F8 SWAP1 DUP5 SWAP1 PUSH2 0x72A JUMP JUMPDEST SWAP1 SWAP2 SSTORE POP POP PUSH1 0x40 DUP1 MLOAD PUSH1 0x1 PUSH1 0x1 PUSH1 0xA0 SHL SUB DUP6 AND DUP2 MSTORE PUSH1 0x20 DUP2 ADD DUP4 SWAP1 MSTORE PUSH32 0xEEF892AA26C4762FAD30F87B912A95ED5B6FF48D8EA3521783C84679E23D2AE2 SWAP2 ADD PUSH1 0x40 MLOAD DUP1 SWAP2 SUB SWAP1 LOG1 SWAP4 SWAP3 POP POP POP JUMP JUMPDEST DUP1 PUSH1 0x1 PUSH1 0x1 PUSH1 0xA0 SHL SUB AND PUSH4 0x52D1902D PUSH1 0x40 MLOAD DUP2 PUSH4 0xFFFFFFFF AND PUSH1 0xE0 SHL DUP2 MSTORE PUSH1 0x4 ADD PUSH1 0x20 PUSH1 0x40 MLOAD DUP1 DUP4 SUB DUP2 DUP7 GAS STATICCALL ISZERO DUP1 ISZERO PUSH2 0x584 JUMPI RETURNDATASIZE PUSH1 0x0 DUP1 RETURNDATACOPY RETURNDATASIZE PUSH1 0x0 REVERT JUMPDEST POP POP POP POP PUSH1 0x40 MLOAD RETURNDATASIZE PUSH1 0x1F NOT PUSH1 0x1F DUP3 ADD AND DUP3 ADD DUP1 PUSH1 0x40 MSTORE POP DUP2 ADD SWAP1 PUSH2 0x5A8 SWAP2 SWAP1 PUSH2 0x761 JUMP JUMPDEST PUSH32 0xC5F16F0FCC639FA48A6947836D9850F504798523BF8C9A3A87D5876CF622BCF7 EQ PUSH2 0x607 JUMPI PUSH1 0x40 MLOAD PUSH3 0x461BCD PUSH1 0xE5 SHL DUP2 MSTORE PUSH1 0x20 PUSH1 0x4 DUP3 ADD MSTORE PUSH1 0xE PUSH1 0x24 DUP3 ADD MSTORE PUSH14 0x4E6F7420636F6D70617469626C65 PUSH1 0x90 SHL PUSH1 0x44 DUP3 ADD MSTORE PUSH1 0x64 ADD PUSH2 0x28C JUMP JUMPDEST PUSH32 0xC5F16F0FCC639FA48A6947836D9850F504798523BF8C9A3A87D5876CF622BCF7 SSTORE JUMP JUMPDEST DUP1 CALLDATALOAD PUSH1 0x1 PUSH1 0x1 PUSH1 0xA0 SHL SUB DUP2 AND DUP2 EQ PUSH2 0x642 JUMPI PUSH1 0x0 DUP1 REVERT JUMPDEST SWAP2 SWAP1 POP JUMP JUMPDEST PUSH1 0x0 DUP1 PUSH1 0x40 DUP4 DUP6 SUB SLT ISZERO PUSH2 0x65A JUMPI PUSH1 0x0 DUP1 REVERT JUMPDEST PUSH2 0x663 DUP4 PUSH2 0x62B JUMP JUMPDEST SWAP5 PUSH1 0x20 SWAP4 SWAP1 SWAP4 ADD CALLDATALOAD SWAP4 POP POP POP JUMP JUMPDEST PUSH1 0x0 PUSH1 0x20 DUP3 DUP5 SUB SLT ISZERO PUSH2 0x683 JUMPI PUSH1 0x0 DUP1 REVERT JUMPDEST PUSH2 0x68C DUP3 PUSH2 0x62B JUMP JUMPDEST SWAP4 SWAP3 POP POP POP JUMP JUMPDEST PUSH1 0x0 DUP1 PUSH1 0x40 DUP4 DUP6 SUB SLT ISZERO PUSH2 0x6A6 JUMPI PUSH1 0x0 DUP1 REVERT JUMPDEST DUP3 CALLDATALOAD SWAP2 POP PUSH2 0x6B6 PUSH1 0x20 DUP5 ADD PUSH2 0x62B JUMP JUMPDEST SWAP1 POP SWAP3 POP SWAP3 SWAP1 POP JUMP JUMPDEST PUSH1 0x0 PUSH1 0x20 DUP1 DUP4 MSTORE DUP4 MLOAD DUP1 DUP3 DUP6 ADD MSTORE PUSH1 0x0 JUMPDEST DUP2 DUP2 LT ISZERO PUSH2 0x6EC JUMPI DUP6 DUP2 ADD DUP4 ADD MLOAD DUP6 DUP3 ADD PUSH1 0x40 ADD MSTORE DUP3 ADD PUSH2 0x6D0 JUMP JUMPDEST DUP2 DUP2 GT ISZERO PUSH2 0x6FE JUMPI PUSH1 0x0 PUSH1 0x40 DUP4 DUP8 ADD ADD MSTORE JUMPDEST POP PUSH1 0x1F ADD PUSH1 0x1F NOT AND SWAP3 SWAP1 SWAP3 ADD PUSH1 0x40 ADD SWAP4 SWAP3 POP POP POP JUMP JUMPDEST PUSH4 0x4E487B71 PUSH1 0xE0 SHL PUSH1 0x0 MSTORE PUSH1 0x11 PUSH1 0x4 MSTORE PUSH1 0x24 PUSH1 0x0 REVERT JUMPDEST PUSH1 0x0 DUP3 NOT DUP3 GT ISZERO PUSH2 0x73D JUMPI PUSH2 0x73D PUSH2 0x714 JUMP JUMPDEST POP ADD SWAP1 JUMP JUMPDEST PUSH1 0x0 DUP2 PUSH1 0x0 NOT DIV DUP4 GT DUP3 ISZERO ISZERO AND ISZERO PUSH2 0x75C JUMPI PUSH2 0x75C PUSH2 0x714 JUMP JUMPDEST POP MUL SWAP1 JUMP JUMPDEST PUSH1 0x0 PUSH1 0x20 DUP3 DUP5 SUB SLT ISZERO PUSH2 0x773 JUMPI PUSH1 0x0 DUP1 REVERT JUMPDEST POP MLOAD SWAP2 SWAP1 POP JUMP INVALID LOG2 PUSH5 0x6970667358 0x22 SLT KECCAK256 JUMPI DUP8 PUSH2 0x348E 0xBD LOG2 0xCA SWAP3 0xA5 0xAF SELFBALANCE ORIGIN JUMPI 0x2E 0xBF 0xC0 0xC9 PUSH13 0xA0F78E860AE41B1FF9D016CA0B PUSH5 0x736F6C6343 STOP ADDMOD EXP STOP CALLER "
				},
				"gasEstimates": {
					"creation": {
						"codeDepositCost": "393600",
						"executionCost": "24654",
						"totalCost": "418254"
					},
					"external": {
						"_balance(address)": "2629",
						"_decimal()": "226",
						"_name()": "infinite",
						"_symbol()": "infinite",
						"_totalSupply()": "259",
						"approve(address,uint256)": "29309",
						"balanceOfAddress(address)": "2537",
						"initialized()": "2339",
						"mint(uint256,address)": "infinite",
						"owner()": "2359",
						"proxiableUUID()": "303",
						"updateCode(address)": "infinite"
					}
				},
				"methodIdentifiers": {
					"_balance(address)": "d3aceae2",
					"_decimal()": "2f0e3120",
					"_name()": "d28d8852",
					"_symbol()": "b09f1266",
					"_totalSupply()": "3eaaf86b",
					"approve(address,uint256)": "095ea7b3",
					"balanceOfAddress(address)": "86212b8f",
					"initialized()": "158ef93e",
					"mint(uint256,address)": "94bf804d",
					"owner()": "8da5cb5b",
					"proxiableUUID()": "52d1902d",
					"updateCode(address)": "46951954"
				}
			},
			"storageLayout": {
				"storage": [
					{
						"astId": 9,
						"contract": "Upgradable E1P 1822/Implementation1.sol:Implementation1",
						"label": "circulatingSuppy",
						"offset": 0,
						"slot": "0",
						"type": "t_uint256"
					},
					{
						"astId": 20,
						"contract": "Upgradable E1P 1822/Implementation1.sol:Implementation1",
						"label": "owner",
						"offset": 0,
						"slot": "1",
						"type": "t_address"
					},
					{
						"astId": 23,
						"contract": "Upgradable E1P 1822/Implementation1.sol:Implementation1",
						"label": "initialized",
						"offset": 20,
						"slot": "1",
						"type": "t_bool"
					},
					{
						"astId": 27,
						"contract": "Upgradable E1P 1822/Implementation1.sol:Implementation1",
						"label": "_balance",
						"offset": 0,
						"slot": "2",
						"type": "t_mapping(t_address,t_uint256)"
					},
					{
						"astId": 33,
						"contract": "Upgradable E1P 1822/Implementation1.sol:Implementation1",
						"label": "_allowance",
						"offset": 0,
						"slot": "3",
						"type": "t_mapping(t_address,t_mapping(t_address,t_uint256))"
					}
				],
				"types": {
					"t_address": {
						"encoding": "inplace",
						"label": "address",
						"numberOfBytes": "20"
					},
					"t_bool": {
						"encoding": "inplace",
						"label": "bool",
						"numberOfBytes": "1"
					},
					"t_mapping(t_address,t_mapping(t_address,t_uint256))": {
						"encoding": "mapping",
						"key": "t_address",
						"label": "mapping(address => mapping(address => uint256))",
						"numberOfBytes": "32",
						"value": "t_mapping(t_address,t_uint256)"
					},
					"t_mapping(t_address,t_uint256)": {
						"encoding": "mapping",
						"key": "t_address",
						"label": "mapping(address => uint256)",
						"numberOfBytes": "32",
						"value": "t_uint256"
					},
					"t_uint256": {
						"encoding": "inplace",
						"label": "uint256",
						"numberOfBytes": "32"
					}
				}
			},
			"userdoc": {
				"kind": "user",
				"methods": {},
				"version": 1
			}
		}
	}
}