{
	"Upgradable E1P 1822/Implementation2.sol": {
		"Implementation2": {
			"abi": [
				{
					"anonymous": false,
					"inputs": [
						{
							"indexed": false,
							"internalType": "address",
							"name": "from",
							"type": "address"
						},
						{
							"indexed": false,
							"internalType": "address",
							"name": "to",
							"type": "address"
						},
						{
							"indexed": false,
							"internalType": "uint256",
							"name": "amount",
							"type": "uint256"
						}
					],
					"name": "_transfer",
					"type": "event"
				},
				{
					"anonymous": false,
					"inputs": [
						{
							"indexed": false,
							"internalType": "address",
							"name": "_to",
							"type": "address"
						},
						{
							"indexed": false,
							"internalType": "uint256",
							"name": "amount",
							"type": "uint256"
						}
					],
					"name": "tokenMint",
					"type": "event"
				},
				{
					"inputs": [
						{
							"internalType": "address",
							"name": "",
							"type": "address"
						}
					],
					"name": "_balance",
					"outputs": [
						{
							"internalType": "uint256",
							"name": "",
							"type": "uint256"
						}
					],
					"stateMutability": "view",
					"type": "function"
				},
				{
					"inputs": [],
					"name": "_decimal",
					"outputs": [
						{
							"internalType": "uint256",
							"name": "",
							"type": "uint256"
						}
					],
					"stateMutability": "pure",
					"type": "function"
				},
				{
					"inputs": [],
					"name": "_name",
					"outputs": [
						{
							"internalType": "string",
							"name": "",
							"type": "string"
						}
					],
					"stateMutability": "pure",
					"type": "function"
				},
				{
					"inputs": [],
					"name": "_symbol",
					"outputs": [
						{
							"internalType": "string",
							"name": "",
							"type": "string"
						}
					],
					"stateMutability": "pure",
					"type": "function"
				},
				{
					"inputs": [],
					"name": "_totalSupply",
					"outputs": [
						{
							"internalType": "uint256",
							"name": "",
							"type": "uint256"
						}
					],
					"stateMutability": "pure",
					"type": "function"
				},
				{
					"inputs": [
						{
							"internalType": "address",
							"name": "spender",
							"type": "address"
						},
						{
							"internalType": "uint256",
							"name": "amount",
							"type": "uint256"
						}
					],
					"name": "approve",
					"outputs": [],
					"stateMutability": "nonpayable",
					"type": "function"
				},
				{
					"inputs": [
						{
							"internalType": "address",
							"name": "who",
							"type": "address"
						}
					],
					"name": "balanceOfAddress",
					"outputs": [
						{
							"internalType": "uint256",
							"name": "",
							"type": "uint256"
						}
					],
					"stateMutability": "view",
					"type": "function"
				},
				{
					"inputs": [
						{
							"internalType": "uint256",
							"name": "amount",
							"type": "uint256"
						}
					],
					"name": "calculateBurn",
					"outputs": [
						{
							"internalType": "uint256",
							"name": "burn",
							"type": "uint256"
						}
					],
					"stateMutability": "pure",
					"type": "function"
				},
				{
					"inputs": [],
					"name": "initialized",
					"outputs": [
						{
							"internalType": "bool",
							"name": "",
							"type": "bool"
						}
					],
					"stateMutability": "view",
					"type": "function"
				},
				{
					"inputs": [
						{
							"internalType": "uint256",
							"name": "amount",
							"type": "uint256"
						},
						{
							"internalType": "address",
							"name": "_to",
							"type": "address"
						}
					],
					"name": "mint",
					"outputs": [
						{
							"internalType": "uint256",
							"name": "",
							"type": "uint256"
						}
					],
					"stateMutability": "nonpayable",
					"type": "function"
				},
				{
					"inputs": [],
					"name": "owner",
					"outputs": [
						{
							"internalType": "address",
							"name": "",
							"type": "address"
						}
					],
					"stateMutability": "view",
					"type": "function"
				},
				{
					"inputs": [],
					"name": "proxiableUUID",
					"outputs": [
						{
							"internalType": "bytes32",
							"name": "",
							"type": "bytes32"
						}
					],
					"stateMutability": "pure",
					"type": "function"
				},
				{
					"inputs": [
						{
							"internalType": "address",
							"name": "_to",
							"type": "address"
						},
						{
							"internalType": "uint256",
							"name": "amount",
							"type": "uint256"
						}
					],
					"name": "transfer",
					"outputs": [],
					"stateMutability": "nonpayable",
					"type": "function"
				},
				{
					"inputs": [
						{
							"internalType": "address",
							"name": "from",
							"type": "address"
						},
						{
							"internalType": "address",
							"name": "_to",
							"type": "address"
						},
						{
							"internalType": "uint256",
							"name": "amount",
							"type": "uint256"
						}
					],
					"name": "transferFrom",
					"outputs": [],
					"stateMutability": "nonpayable",
					"type": "function"
				},
				{
					"inputs": [
						{
							"internalType": "address",
							"name": "newCode",
							"type": "address"
						}
					],
					"name": "updateCode",
					"outputs": [],
					"stateMutability": "nonpayable",
					"type": "function"
				}
			],
			"devdoc": {
				"kind": "dev",
				"methods": {},
				"version": 1
			},
			"evm": {
				"assembly": "    /* \"Upgradable E1P 1822/Implementation2.sol\":98:1381  contract Implementation2 is Implementation1 {... */\n  mstore(0x40, 0x80)\n    /* \"Upgradable E1P 1822/Implementation1.sol\":356:387  bool public initialized = false */\n  0x01\n  dup1\n  sload\n  not(shl(0xa0, 0xff))\n  and\n  swap1\n  sstore\n    /* \"Upgradable E1P 1822/Implementation2.sol\":98:1381  contract Implementation2 is Implementation1 {... */\n  callvalue\n  dup1\n  iszero\n  tag_1\n  jumpi\n  0x00\n  dup1\n  revert\ntag_1:\n  pop\n  dataSize(sub_0)\n  dup1\n  dataOffset(sub_0)\n  0x00\n  codecopy\n  0x00\n  return\nstop\n\nsub_0: assembly {\n        /* \"Upgradable E1P 1822/Implementation2.sol\":98:1381  contract Implementation2 is Implementation1 {... */\n      mstore(0x40, 0x80)\n      callvalue\n      dup1\n      iszero\n      tag_1\n      jumpi\n      0x00\n      dup1\n      revert\n    tag_1:\n      pop\n      jumpi(tag_2, lt(calldatasize, 0x04))\n      shr(0xe0, calldataload(0x00))\n      dup1\n      0x86212b8f\n      gt\n      tag_18\n      jumpi\n      dup1\n      0xb09f1266\n      gt\n      tag_19\n      jumpi\n      dup1\n      0xb09f1266\n      eq\n      tag_14\n      jumpi\n      dup1\n      0xd28d8852\n      eq\n      tag_15\n      jumpi\n      dup1\n      0xd3aceae2\n      eq\n      tag_16\n      jumpi\n      dup1\n      0xdc287c7e\n      eq\n      tag_17\n      jumpi\n      0x00\n      dup1\n      revert\n    tag_19:\n      dup1\n      0x86212b8f\n      eq\n      tag_10\n      jumpi\n      dup1\n      0x8da5cb5b\n      eq\n      tag_11\n      jumpi\n      dup1\n      0x94bf804d\n      eq\n      tag_12\n      jumpi\n      dup1\n      0xa9059cbb\n      eq\n      tag_13\n      jumpi\n      0x00\n      dup1\n      revert\n    tag_18:\n      dup1\n      0x2f0e3120\n      gt\n      tag_20\n      jumpi\n      dup1\n      0x2f0e3120\n      eq\n      tag_6\n      jumpi\n      dup1\n      0x3eaaf86b\n      eq\n      tag_7\n      jumpi\n      dup1\n      0x46951954\n      eq\n      tag_8\n      jumpi\n      dup1\n      0x52d1902d\n      eq\n      tag_9\n      jumpi\n      0x00\n      dup1\n      revert\n    tag_20:\n      dup1\n      0x095ea7b3\n      eq\n      tag_3\n      jumpi\n      dup1\n      0x158ef93e\n      eq\n      tag_4\n      jumpi\n      dup1\n      0x23b872dd\n      eq\n      tag_5\n      jumpi\n    tag_2:\n      0x00\n      dup1\n      revert\n        /* \"Upgradable E1P 1822/Implementation1.sol\":1752:2086  function approve(address spender, uint amount)  external  checkBalance(msg.sender, amount) {... */\n    tag_3:\n      tag_21\n      tag_22\n      calldatasize\n      0x04\n      tag_23\n      jump\t// in\n    tag_22:\n      tag_24\n      jump\t// in\n    tag_21:\n      stop\n        /* \"Upgradable E1P 1822/Implementation1.sol\":356:387  bool public initialized = false */\n    tag_4:\n      sload(0x01)\n      tag_25\n      swap1\n      shl(0xa0, 0x01)\n      swap1\n      div\n      0xff\n      and\n      dup2\n      jump\n    tag_25:\n      mload(0x40)\n        /* \"#utility.yul\":616:630   */\n      swap1\n      iszero\n        /* \"#utility.yul\":609:631   */\n      iszero\n        /* \"#utility.yul\":591:632   */\n      dup2\n      mstore\n        /* \"#utility.yul\":579:581   */\n      0x20\n        /* \"#utility.yul\":564:582   */\n      add\n        /* \"Upgradable E1P 1822/Implementation1.sol\":356:387  bool public initialized = false */\n    tag_27:\n      mload(0x40)\n      dup1\n      swap2\n      sub\n      swap1\n      return\n        /* \"Upgradable E1P 1822/Implementation2.sol\":887:1378  function transferFrom(address from, address _to, uint amount) external checkBalance(from, amount){... */\n    tag_5:\n      tag_21\n      tag_30\n      calldatasize\n      0x04\n      tag_31\n      jump\t// in\n    tag_30:\n      tag_32\n      jump\t// in\n        /* \"Upgradable E1P 1822/Implementation1.sol\":905:981  function _decimal() pure public returns(uint){... */\n    tag_6:\n        /* \"Upgradable E1P 1822/Implementation1.sol\":320:324  1e18 */\n      0x0de0b6b3a7640000\n        /* \"Upgradable E1P 1822/Implementation1.sol\":905:981  function _decimal() pure public returns(uint){... */\n    tag_33:\n      mload(0x40)\n        /* \"#utility.yul\":1122:1147   */\n      swap1\n      dup2\n      mstore\n        /* \"#utility.yul\":1110:1112   */\n      0x20\n        /* \"#utility.yul\":1095:1113   */\n      add\n        /* \"Upgradable E1P 1822/Implementation1.sol\":905:981  function _decimal() pure public returns(uint){... */\n      tag_27\n        /* \"#utility.yul\":976:1153   */\n      jump\n        /* \"Upgradable E1P 1822/Implementation1.sol\":987:1071  function _totalSupply() pure public returns(uint){... */\n    tag_7:\n        /* \"Upgradable E1P 1822/Implementation1.sol\":167:172  10000 */\n      0x2710\n        /* \"Upgradable E1P 1822/Implementation1.sol\":987:1071  function _totalSupply() pure public returns(uint){... */\n      jump(tag_33)\n        /* \"Upgradable E1P 1822/Implementation1.sol\":2250:2347  function updateCode(address newCode) onlyOwner public {... */\n    tag_8:\n      tag_21\n      tag_41\n      calldatasize\n      0x04\n      tag_42\n      jump\t// in\n    tag_41:\n      tag_43\n      jump\t// in\n        /* \"Upgradable E1P 1822/Proxible.sol\":627:772  function proxiableUUID() public pure returns (bytes32) {... */\n    tag_9:\n        /* \"Upgradable E1P 1822/Proxible.sol\":699:765  0xc5f16f0fcc639fa48a6947836d9850f504798523bf8c9a3a87d5876cf622bcf7 */\n      0xc5f16f0fcc639fa48a6947836d9850f504798523bf8c9a3a87d5876cf622bcf7\n        /* \"Upgradable E1P 1822/Proxible.sol\":627:772  function proxiableUUID() public pure returns (bytes32) {... */\n      jump(tag_33)\n        /* \"Upgradable E1P 1822/Implementation1.sol\":1077:1177  function balanceOfAddress(address who) public view returns(uint) {... */\n    tag_10:\n      tag_33\n      tag_49\n      calldatasize\n      0x04\n      tag_42\n      jump\t// in\n    tag_49:\n      sub(shl(0xa0, 0x01), 0x01)\n        /* \"Upgradable E1P 1822/Implementation1.sol\":1157:1170  _balance[who] */\n      and\n        /* \"Upgradable E1P 1822/Implementation1.sol\":1136:1140  uint */\n      0x00\n        /* \"Upgradable E1P 1822/Implementation1.sol\":1157:1170  _balance[who] */\n      swap1\n      dup2\n      mstore\n        /* \"Upgradable E1P 1822/Implementation1.sol\":1157:1165  _balance */\n      0x02\n        /* \"Upgradable E1P 1822/Implementation1.sol\":1157:1170  _balance[who] */\n      0x20\n      mstore\n      0x40\n      swap1\n      keccak256\n      sload\n      swap1\n        /* \"Upgradable E1P 1822/Implementation1.sol\":1077:1177  function balanceOfAddress(address who) public view returns(uint) {... */\n      jump\n        /* \"Upgradable E1P 1822/Implementation1.sol\":330:350  address public owner */\n    tag_11:\n      sload(0x01)\n      tag_52\n      swap1\n      sub(shl(0xa0, 0x01), 0x01)\n      and\n      dup2\n      jump\n    tag_52:\n      mload(0x40)\n      sub(shl(0xa0, 0x01), 0x01)\n        /* \"#utility.yul\":1695:1727   */\n      swap1\n      swap2\n      and\n        /* \"#utility.yul\":1677:1728   */\n      dup2\n      mstore\n        /* \"#utility.yul\":1665:1667   */\n      0x20\n        /* \"#utility.yul\":1650:1668   */\n      add\n        /* \"Upgradable E1P 1822/Implementation1.sol\":330:350  address public owner */\n      tag_27\n        /* \"#utility.yul\":1531:1734   */\n      jump\n        /* \"Upgradable E1P 1822/Implementation1.sol\":1360:1746  function mint(uint amount, address _to) public onlyOwner returns(uint){... */\n    tag_12:\n      tag_33\n      tag_57\n      calldatasize\n      0x04\n      tag_58\n      jump\t// in\n    tag_57:\n      tag_59\n      jump\t// in\n        /* \"Upgradable E1P 1822/Implementation2.sol\":436:880  function transfer(address _to, uint amount) external {... */\n    tag_13:\n      tag_21\n      tag_62\n      calldatasize\n      0x04\n      tag_23\n      jump\t// in\n    tag_62:\n      tag_63\n      jump\t// in\n        /* \"Upgradable E1P 1822/Implementation1.sol\":816:899  function _symbol() pure public returns(string memory){... */\n    tag_14:\n        /* \"Upgradable E1P 1822/Implementation1.sol\":886:892  symbol */\n      0x40\n      dup1\n      mload\n      dup1\n      dup3\n      add\n      swap1\n      swap2\n      mstore\n      0x04\n      dup2\n      mstore\n      shl(0xe0, 0x45495049)\n      0x20\n      dup3\n      add\n      mstore\n        /* \"Upgradable E1P 1822/Implementation1.sol\":816:899  function _symbol() pure public returns(string memory){... */\n    tag_64:\n      mload(0x40)\n      tag_27\n      swap2\n      swap1\n      tag_67\n      jump\t// in\n        /* \"Upgradable E1P 1822/Implementation1.sol\":731:810  function _name() pure public returns(string memory){... */\n    tag_15:\n        /* \"Upgradable E1P 1822/Implementation1.sol\":799:803  name */\n      0x40\n      dup1\n      mload\n      dup1\n      dup3\n      add\n      swap1\n      swap2\n      mstore\n      0x17\n      dup2\n      mstore\n      0x4549502d3138323220496d706c656d656e746174696f6e000000000000000000\n      0x20\n      dup3\n      add\n      mstore\n        /* \"Upgradable E1P 1822/Implementation1.sol\":731:810  function _name() pure public returns(string memory){... */\n      jump(tag_64)\n        /* \"Upgradable E1P 1822/Implementation1.sol\":394:434  mapping(address => uint) public _balance */\n    tag_16:\n      tag_33\n      tag_72\n      calldatasize\n      0x04\n      tag_42\n      jump\t// in\n    tag_72:\n      mstore(0x20, 0x02)\n      0x00\n      swap1\n      dup2\n      mstore\n      0x40\n      swap1\n      keccak256\n      sload\n      dup2\n      jump\n        /* \"Upgradable E1P 1822/Implementation2.sol\":326:431  function calculateBurn(uint amount) public pure returns(uint burn){... */\n    tag_17:\n      tag_33\n      tag_76\n      calldatasize\n      0x04\n      tag_77\n      jump\t// in\n    tag_76:\n      tag_78\n      jump\t// in\n        /* \"Upgradable E1P 1822/Implementation1.sol\":1752:2086  function approve(address spender, uint amount)  external  checkBalance(msg.sender, amount) {... */\n    tag_24:\n        /* \"Upgradable E1P 1822/Implementation1.sol\":1823:1833  msg.sender */\n      caller\n        /* \"Upgradable E1P 1822/Implementation1.sol\":1243:1255  uint balance */\n      0x00\n        /* \"Upgradable E1P 1822/Implementation1.sol\":1157:1170  _balance[who] */\n      dup2\n      dup2\n      mstore\n        /* \"Upgradable E1P 1822/Implementation1.sol\":1157:1165  _balance */\n      0x02\n        /* \"Upgradable E1P 1822/Implementation1.sol\":1157:1170  _balance[who] */\n      0x20\n      mstore\n      0x40\n      swap1\n      keccak256\n      sload\n        /* \"Upgradable E1P 1822/Implementation1.sol\":1835:1841  amount */\n      dup3\n      swap1\n        /* \"Upgradable E1P 1822/Implementation1.sol\":1298:1315  balance >= amount */\n      dup2\n      dup2\n      lt\n      iszero\n        /* \"Upgradable E1P 1822/Implementation1.sol\":1290:1338  require(balance >= amount, \"Insufficient funds\") */\n      tag_82\n      jumpi\n      mload(0x40)\n      shl(0xe5, 0x461bcd)\n      dup2\n      mstore\n        /* \"#utility.yul\":2938:2940   */\n      0x20\n        /* \"Upgradable E1P 1822/Implementation1.sol\":1290:1338  require(balance >= amount, \"Insufficient funds\") */\n      0x04\n      dup3\n      add\n        /* \"#utility.yul\":2920:2941   */\n      mstore\n        /* \"#utility.yul\":2977:2979   */\n      0x12\n        /* \"#utility.yul\":2957:2975   */\n      0x24\n      dup3\n      add\n        /* \"#utility.yul\":2950:2980   */\n      mstore\n      shl(0x70, 0x496e73756666696369656e742066756e6473)\n        /* \"#utility.yul\":2996:3014   */\n      0x44\n      dup3\n      add\n        /* \"#utility.yul\":2989:3037   */\n      mstore\n        /* \"#utility.yul\":3054:3072   */\n      0x64\n      add\n        /* \"Upgradable E1P 1822/Implementation1.sol\":1290:1338  require(balance >= amount, \"Insufficient funds\") */\n    tag_83:\n      mload(0x40)\n      dup1\n      swap2\n      sub\n      swap1\n      revert\n    tag_82:\n      sub(shl(0xa0, 0x01), 0x01)\n        /* \"Upgradable E1P 1822/Implementation1.sol\":1859:1880  spender != address(0) */\n      dup6\n      and\n        /* \"Upgradable E1P 1822/Implementation1.sol\":1851:1881  require(spender != address(0)) */\n      tag_86\n      jumpi\n      0x00\n      dup1\n      revert\n    tag_86:\n        /* \"Upgradable E1P 1822/Implementation1.sol\":1913:1923  msg.sender */\n      caller\n        /* \"Upgradable E1P 1822/Implementation1.sol\":1889:1899  uint allow */\n      0x00\n        /* \"Upgradable E1P 1822/Implementation1.sol\":1902:1924  _allowance[msg.sender] */\n      swap1\n      dup2\n      mstore\n        /* \"Upgradable E1P 1822/Implementation1.sol\":1902:1912  _allowance */\n      0x03\n        /* \"Upgradable E1P 1822/Implementation1.sol\":1902:1924  _allowance[msg.sender] */\n      0x20\n      swap1\n      dup2\n      mstore\n      0x40\n      dup1\n      dup4\n      keccak256\n      sub(shl(0xa0, 0x01), 0x01)\n        /* \"Upgradable E1P 1822/Implementation1.sol\":1902:1933  _allowance[msg.sender][spender] */\n      dup10\n      and\n      dup5\n      mstore\n      swap1\n      swap2\n      mstore\n      dup2\n      keccak256\n      sload\n      swap1\n        /* \"Upgradable E1P 1822/Implementation1.sol\":1944:1954  allow == 0 */\n      dup2\n      swap1\n      sub\n        /* \"Upgradable E1P 1822/Implementation1.sol\":1941:2080  if(allow == 0){... */\n      tag_87\n      jumpi\n        /* \"Upgradable E1P 1822/Implementation1.sol\":1976:1986  msg.sender */\n      caller\n        /* \"Upgradable E1P 1822/Implementation1.sol\":1965:1987  _allowance[msg.sender] */\n      0x00\n      swap1\n      dup2\n      mstore\n        /* \"Upgradable E1P 1822/Implementation1.sol\":1965:1975  _allowance */\n      0x03\n        /* \"Upgradable E1P 1822/Implementation1.sol\":1965:1987  _allowance[msg.sender] */\n      0x20\n      swap1\n      dup2\n      mstore\n      0x40\n      dup1\n      dup4\n      keccak256\n      sub(shl(0xa0, 0x01), 0x01)\n        /* \"Upgradable E1P 1822/Implementation1.sol\":1965:1997  _allowance[msg.sender] [spender] */\n      dup11\n      and\n      dup5\n      mstore\n      swap1\n      swap2\n      mstore\n      swap1\n      keccak256\n        /* \"Upgradable E1P 1822/Implementation1.sol\":1965:2005  _allowance[msg.sender] [spender]= amount */\n      dup6\n      swap1\n      sstore\n        /* \"Upgradable E1P 1822/Implementation1.sol\":1941:2080  if(allow == 0){... */\n      jump(tag_88)\n    tag_87:\n        /* \"Upgradable E1P 1822/Implementation1.sol\":2041:2051  msg.sender */\n      caller\n        /* \"Upgradable E1P 1822/Implementation1.sol\":2030:2052  _allowance[msg.sender] */\n      0x00\n      swap1\n      dup2\n      mstore\n        /* \"Upgradable E1P 1822/Implementation1.sol\":2030:2040  _allowance */\n      0x03\n        /* \"Upgradable E1P 1822/Implementation1.sol\":2030:2052  _allowance[msg.sender] */\n      0x20\n      swap1\n      dup2\n      mstore\n      0x40\n      dup1\n      dup4\n      keccak256\n      sub(shl(0xa0, 0x01), 0x01)\n        /* \"Upgradable E1P 1822/Implementation1.sol\":2030:2061  _allowance[msg.sender][spender] */\n      dup11\n      and\n      dup5\n      mstore\n      swap1\n      swap2\n      mstore\n      dup2\n      keccak256\n        /* \"Upgradable E1P 1822/Implementation1.sol\":2030:2071  _allowance[msg.sender][spender] += amount */\n      dup1\n      sload\n        /* \"Upgradable E1P 1822/Implementation1.sol\":2065:2071  amount */\n      dup8\n      swap3\n        /* \"Upgradable E1P 1822/Implementation1.sol\":2030:2052  _allowance[msg.sender] */\n      swap1\n        /* \"Upgradable E1P 1822/Implementation1.sol\":2030:2071  _allowance[msg.sender][spender] += amount */\n      tag_89\n      swap1\n        /* \"Upgradable E1P 1822/Implementation1.sol\":2065:2071  amount */\n      dup5\n      swap1\n        /* \"Upgradable E1P 1822/Implementation1.sol\":2030:2071  _allowance[msg.sender][spender] += amount */\n      tag_90\n      jump\t// in\n    tag_89:\n      swap1\n      swap2\n      sstore\n      pop\n      pop\n        /* \"Upgradable E1P 1822/Implementation1.sol\":1941:2080  if(allow == 0){... */\n    tag_88:\n        /* \"Upgradable E1P 1822/Implementation1.sol\":1843:2086  {... */\n      pop\n        /* \"Upgradable E1P 1822/Implementation1.sol\":1235:1354  {... */\n      pop\n        /* \"Upgradable E1P 1822/Implementation1.sol\":1752:2086  function approve(address spender, uint amount)  external  checkBalance(msg.sender, amount) {... */\n      pop\n      pop\n      pop\n      pop\n      jump\t// out\n        /* \"Upgradable E1P 1822/Implementation2.sol\":887:1378  function transferFrom(address from, address _to, uint amount) external checkBalance(from, amount){... */\n    tag_32:\n        /* \"Upgradable E1P 1822/Implementation2.sol\":971:975  from */\n      dup3\n        /* \"Upgradable E1P 1822/Implementation2.sol\":977:983  amount */\n      dup2\n        /* \"Upgradable E1P 1822/Implementation1.sol\":1243:1255  uint balance */\n      0x00\n        /* \"Upgradable E1P 1822/Implementation1.sol\":1258:1282  balanceOfAddress(_owner) */\n      tag_92\n        /* \"Upgradable E1P 1822/Implementation1.sol\":1275:1281  _owner */\n      dup4\n      sub(shl(0xa0, 0x01), 0x01)\n        /* \"Upgradable E1P 1822/Implementation1.sol\":1157:1170  _balance[who] */\n      and\n        /* \"Upgradable E1P 1822/Implementation1.sol\":1136:1140  uint */\n      0x00\n        /* \"Upgradable E1P 1822/Implementation1.sol\":1157:1170  _balance[who] */\n      swap1\n      dup2\n      mstore\n        /* \"Upgradable E1P 1822/Implementation1.sol\":1157:1165  _balance */\n      0x02\n        /* \"Upgradable E1P 1822/Implementation1.sol\":1157:1170  _balance[who] */\n      0x20\n      mstore\n      0x40\n      swap1\n      keccak256\n      sload\n      swap1\n        /* \"Upgradable E1P 1822/Implementation1.sol\":1077:1177  function balanceOfAddress(address who) public view returns(uint) {... */\n      jump\n        /* \"Upgradable E1P 1822/Implementation1.sol\":1258:1282  balanceOfAddress(_owner) */\n    tag_92:\n        /* \"Upgradable E1P 1822/Implementation1.sol\":1243:1282  uint balance = balanceOfAddress(_owner) */\n      swap1\n      pop\n        /* \"Upgradable E1P 1822/Implementation1.sol\":1309:1315  amount */\n      dup2\n        /* \"Upgradable E1P 1822/Implementation1.sol\":1298:1305  balance */\n      dup2\n        /* \"Upgradable E1P 1822/Implementation1.sol\":1298:1315  balance >= amount */\n      lt\n      iszero\n        /* \"Upgradable E1P 1822/Implementation1.sol\":1290:1338  require(balance >= amount, \"Insufficient funds\") */\n      tag_93\n      jumpi\n      mload(0x40)\n      shl(0xe5, 0x461bcd)\n      dup2\n      mstore\n        /* \"#utility.yul\":2938:2940   */\n      0x20\n        /* \"Upgradable E1P 1822/Implementation1.sol\":1290:1338  require(balance >= amount, \"Insufficient funds\") */\n      0x04\n      dup3\n      add\n        /* \"#utility.yul\":2920:2941   */\n      mstore\n        /* \"#utility.yul\":2977:2979   */\n      0x12\n        /* \"#utility.yul\":2957:2975   */\n      0x24\n      dup3\n      add\n        /* \"#utility.yul\":2950:2980   */\n      mstore\n      shl(0x70, 0x496e73756666696369656e742066756e6473)\n        /* \"#utility.yul\":2996:3014   */\n      0x44\n      dup3\n      add\n        /* \"#utility.yul\":2989:3037   */\n      mstore\n        /* \"#utility.yul\":3054:3072   */\n      0x64\n      add\n        /* \"Upgradable E1P 1822/Implementation1.sol\":1290:1338  require(balance >= amount, \"Insufficient funds\") */\n      tag_83\n        /* \"#utility.yul\":2736:3078   */\n      jump\n        /* \"Upgradable E1P 1822/Implementation1.sol\":1290:1338  require(balance >= amount, \"Insufficient funds\") */\n    tag_93:\n      sub(shl(0xa0, 0x01), 0x01)\n        /* \"Upgradable E1P 1822/Implementation2.sol\":1000:1017  _to == msg.sender */\n      dup6\n      and\n        /* \"Upgradable E1P 1822/Implementation2.sol\":1007:1017  msg.sender */\n      caller\n        /* \"Upgradable E1P 1822/Implementation2.sol\":1000:1017  _to == msg.sender */\n      eq\n        /* \"Upgradable E1P 1822/Implementation2.sol\":992:1045  require(_to == msg.sender, \"Not an approved spender\") */\n      tag_96\n      jumpi\n      mload(0x40)\n      shl(0xe5, 0x461bcd)\n      dup2\n      mstore\n        /* \"#utility.yul\":3547:3549   */\n      0x20\n        /* \"Upgradable E1P 1822/Implementation2.sol\":992:1045  require(_to == msg.sender, \"Not an approved spender\") */\n      0x04\n      dup3\n      add\n        /* \"#utility.yul\":3529:3550   */\n      mstore\n        /* \"#utility.yul\":3586:3588   */\n      0x17\n        /* \"#utility.yul\":3566:3584   */\n      0x24\n      dup3\n      add\n        /* \"#utility.yul\":3559:3589   */\n      mstore\n        /* \"#utility.yul\":3625:3650   */\n      0x4e6f7420616e20617070726f766564207370656e646572000000000000000000\n        /* \"#utility.yul\":3605:3623   */\n      0x44\n      dup3\n      add\n        /* \"#utility.yul\":3598:3651   */\n      mstore\n        /* \"#utility.yul\":3668:3686   */\n      0x64\n      add\n        /* \"Upgradable E1P 1822/Implementation2.sol\":992:1045  require(_to == msg.sender, \"Not an approved spender\") */\n      tag_83\n        /* \"#utility.yul\":3345:3692   */\n      jump\n        /* \"Upgradable E1P 1822/Implementation2.sol\":992:1045  require(_to == msg.sender, \"Not an approved spender\") */\n    tag_96:\n      sub(shl(0xa0, 0x01), 0x01)\n        /* \"Upgradable E1P 1822/Implementation2.sol\":1077:1093  _allowance[from] */\n      dup1\n      dup8\n      and\n        /* \"Upgradable E1P 1822/Implementation2.sol\":1053:1074  uint allowanceBalance */\n      0x00\n        /* \"Upgradable E1P 1822/Implementation2.sol\":1077:1093  _allowance[from] */\n      swap1\n      dup2\n      mstore\n        /* \"Upgradable E1P 1822/Implementation2.sol\":1077:1087  _allowance */\n      0x03\n        /* \"Upgradable E1P 1822/Implementation2.sol\":1077:1093  _allowance[from] */\n      0x20\n      swap1\n      dup2\n      mstore\n      0x40\n      dup1\n      dup4\n      keccak256\n        /* \"Upgradable E1P 1822/Implementation2.sol\":1077:1098  _allowance[from][_to] */\n      swap4\n      dup10\n      and\n      dup4\n      mstore\n      swap3\n      swap1\n      mstore\n      keccak256\n      sload\n        /* \"Upgradable E1P 1822/Implementation2.sol\":1114:1140  allowanceBalance >= amount */\n      dup5\n      dup2\n      lt\n      iszero\n        /* \"Upgradable E1P 1822/Implementation2.sol\":1106:1165  require(allowanceBalance >= amount, \"no allowance for you\") */\n      tag_99\n      jumpi\n      mload(0x40)\n      shl(0xe5, 0x461bcd)\n      dup2\n      mstore\n        /* \"#utility.yul\":3899:3901   */\n      0x20\n        /* \"Upgradable E1P 1822/Implementation2.sol\":1106:1165  require(allowanceBalance >= amount, \"no allowance for you\") */\n      0x04\n      dup3\n      add\n        /* \"#utility.yul\":3881:3902   */\n      mstore\n        /* \"#utility.yul\":3938:3940   */\n      0x14\n        /* \"#utility.yul\":3918:3936   */\n      0x24\n      dup3\n      add\n        /* \"#utility.yul\":3911:3941   */\n      mstore\n      shl(0x60, 0x6e6f20616c6c6f77616e636520666f7220796f75)\n        /* \"#utility.yul\":3957:3975   */\n      0x44\n      dup3\n      add\n        /* \"#utility.yul\":3950:4000   */\n      mstore\n        /* \"#utility.yul\":4017:4035   */\n      0x64\n      add\n        /* \"Upgradable E1P 1822/Implementation2.sol\":1106:1165  require(allowanceBalance >= amount, \"no allowance for you\") */\n      tag_83\n        /* \"#utility.yul\":3697:4041   */\n      jump\n        /* \"Upgradable E1P 1822/Implementation2.sol\":1106:1165  require(allowanceBalance >= amount, \"no allowance for you\") */\n    tag_99:\n        /* \"Upgradable E1P 1822/Implementation2.sol\":1174:1192  uint burnableToken */\n      0x00\n        /* \"Upgradable E1P 1822/Implementation2.sol\":1195:1208  _burn(amount) */\n      tag_102\n        /* \"Upgradable E1P 1822/Implementation2.sol\":1201:1207  amount */\n      dup7\n        /* \"Upgradable E1P 1822/Implementation2.sol\":1195:1200  _burn */\n      tag_103\n        /* \"Upgradable E1P 1822/Implementation2.sol\":1195:1208  _burn(amount) */\n      jump\t// in\n    tag_102:\n        /* \"Upgradable E1P 1822/Implementation2.sol\":1174:1208  uint burnableToken = _burn(amount) */\n      swap1\n      pop\n        /* \"Upgradable E1P 1822/Implementation2.sol\":1216:1234  uint transferrable */\n      0x00\n        /* \"Upgradable E1P 1822/Implementation2.sol\":1237:1259  amount - burnableToken */\n      tag_104\n        /* \"Upgradable E1P 1822/Implementation2.sol\":1174:1208  uint burnableToken = _burn(amount) */\n      dup3\n        /* \"Upgradable E1P 1822/Implementation2.sol\":1237:1243  amount */\n      dup9\n        /* \"Upgradable E1P 1822/Implementation2.sol\":1237:1259  amount - burnableToken */\n      tag_105\n      jump\t// in\n    tag_104:\n      sub(shl(0xa0, 0x01), 0x01)\n        /* \"Upgradable E1P 1822/Implementation2.sol\":1269:1285  _allowance[from] */\n      dup1\n      dup12\n      and\n      0x00\n      swap1\n      dup2\n      mstore\n        /* \"Upgradable E1P 1822/Implementation2.sol\":1269:1279  _allowance */\n      0x03\n        /* \"Upgradable E1P 1822/Implementation2.sol\":1269:1285  _allowance[from] */\n      0x20\n      swap1\n      dup2\n      mstore\n      0x40\n      dup1\n      dup4\n      keccak256\n        /* \"Upgradable E1P 1822/Implementation2.sol\":1269:1290  _allowance[from][_to] */\n      swap4\n      dup14\n      and\n      dup4\n      mstore\n      swap3\n      swap1\n      mstore\n      swap1\n      dup2\n      keccak256\n        /* \"Upgradable E1P 1822/Implementation2.sol\":1269:1307  _allowance[from][_to] -= transferrable */\n      dup1\n      sload\n        /* \"Upgradable E1P 1822/Implementation2.sol\":1216:1259  uint transferrable = amount - burnableToken */\n      swap3\n      swap4\n      pop\n      dup4\n      swap3\n        /* \"Upgradable E1P 1822/Implementation2.sol\":1269:1290  _allowance[from][_to] */\n      swap1\n      swap2\n        /* \"Upgradable E1P 1822/Implementation2.sol\":1269:1285  _allowance[from] */\n      swap1\n        /* \"Upgradable E1P 1822/Implementation2.sol\":1269:1307  _allowance[from][_to] -= transferrable */\n      tag_106\n      swap1\n        /* \"Upgradable E1P 1822/Implementation2.sol\":1216:1259  uint transferrable = amount - burnableToken */\n      dup5\n      swap1\n        /* \"Upgradable E1P 1822/Implementation2.sol\":1269:1307  _allowance[from][_to] -= transferrable */\n      tag_105\n      jump\t// in\n    tag_106:\n      swap1\n      swap2\n      sstore\n      pop\n      pop\n      sub(shl(0xa0, 0x01), 0x01)\n        /* \"Upgradable E1P 1822/Implementation2.sol\":1316:1330  _balance[from] */\n      dup10\n      and\n      0x00\n      swap1\n      dup2\n      mstore\n        /* \"Upgradable E1P 1822/Implementation2.sol\":1316:1324  _balance */\n      0x02\n        /* \"Upgradable E1P 1822/Implementation2.sol\":1316:1330  _balance[from] */\n      0x20\n      mstore\n      0x40\n      dup2\n      keccak256\n        /* \"Upgradable E1P 1822/Implementation2.sol\":1316:1340  _balance[from] -= amount */\n      dup1\n      sload\n        /* \"Upgradable E1P 1822/Implementation2.sol\":1334:1340  amount */\n      dup10\n      swap3\n        /* \"Upgradable E1P 1822/Implementation2.sol\":1316:1330  _balance[from] */\n      swap1\n        /* \"Upgradable E1P 1822/Implementation2.sol\":1316:1340  _balance[from] -= amount */\n      tag_107\n      swap1\n        /* \"Upgradable E1P 1822/Implementation2.sol\":1334:1340  amount */\n      dup5\n      swap1\n        /* \"Upgradable E1P 1822/Implementation2.sol\":1316:1340  _balance[from] -= amount */\n      tag_105\n      jump\t// in\n    tag_107:\n      swap1\n      swap2\n      sstore\n      pop\n      pop\n      sub(shl(0xa0, 0x01), 0x01)\n        /* \"Upgradable E1P 1822/Implementation2.sol\":1348:1361  _balance[_to] */\n      dup9\n      and\n      0x00\n      swap1\n      dup2\n      mstore\n        /* \"Upgradable E1P 1822/Implementation2.sol\":1348:1356  _balance */\n      0x02\n        /* \"Upgradable E1P 1822/Implementation2.sol\":1348:1361  _balance[_to] */\n      0x20\n      mstore\n      0x40\n      dup2\n      keccak256\n        /* \"Upgradable E1P 1822/Implementation2.sol\":1348:1371  _balance[_to] += amount */\n      dup1\n      sload\n        /* \"Upgradable E1P 1822/Implementation2.sol\":1365:1371  amount */\n      dup10\n      swap3\n        /* \"Upgradable E1P 1822/Implementation2.sol\":1348:1361  _balance[_to] */\n      swap1\n        /* \"Upgradable E1P 1822/Implementation2.sol\":1348:1371  _balance[_to] += amount */\n      tag_108\n      swap1\n        /* \"Upgradable E1P 1822/Implementation2.sol\":1365:1371  amount */\n      dup5\n      swap1\n        /* \"Upgradable E1P 1822/Implementation2.sol\":1348:1371  _balance[_to] += amount */\n      tag_90\n      jump\t// in\n    tag_108:\n      swap1\n      swap2\n      sstore\n      pop\n      pop\n      pop\n      pop\n      pop\n      pop\n      pop\n      pop\n      pop\n      pop\n      pop\n        /* \"Upgradable E1P 1822/Implementation2.sol\":887:1378  function transferFrom(address from, address _to, uint amount) external checkBalance(from, amount){... */\n      jump\t// out\n        /* \"Upgradable E1P 1822/Implementation1.sol\":2250:2347  function updateCode(address newCode) onlyOwner public {... */\n    tag_43:\n        /* \"Upgradable E1P 1822/Implementation1.sol\":649:654  owner */\n      and(sub(shl(0xa0, 0x01), 0x01), sload(0x01))\n        /* \"Upgradable E1P 1822/Implementation1.sol\":658:668  msg.sender */\n      caller\n        /* \"Upgradable E1P 1822/Implementation1.sol\":649:668  owner == msg.sender */\n      eq\n        /* \"Upgradable E1P 1822/Implementation1.sol\":641:702  require(owner == msg.sender, \"No permission except to owner\") */\n      tag_112\n      jumpi\n      mload(0x40)\n      shl(0xe5, 0x461bcd)\n      dup2\n      mstore\n        /* \"#utility.yul\":4381:4383   */\n      0x20\n        /* \"Upgradable E1P 1822/Implementation1.sol\":641:702  require(owner == msg.sender, \"No permission except to owner\") */\n      0x04\n      dup3\n      add\n        /* \"#utility.yul\":4363:4384   */\n      mstore\n        /* \"#utility.yul\":4420:4422   */\n      0x1d\n        /* \"#utility.yul\":4400:4418   */\n      0x24\n      dup3\n      add\n        /* \"#utility.yul\":4393:4423   */\n      mstore\n        /* \"#utility.yul\":4459:4490   */\n      0x4e6f207065726d697373696f6e2065786365707420746f206f776e6572000000\n        /* \"#utility.yul\":4439:4457   */\n      0x44\n      dup3\n      add\n        /* \"#utility.yul\":4432:4491   */\n      mstore\n        /* \"#utility.yul\":4508:4526   */\n      0x64\n      add\n        /* \"Upgradable E1P 1822/Implementation1.sol\":641:702  require(owner == msg.sender, \"No permission except to owner\") */\n      tag_83\n        /* \"#utility.yul\":4179:4532   */\n      jump\n        /* \"Upgradable E1P 1822/Implementation1.sol\":641:702  require(owner == msg.sender, \"No permission except to owner\") */\n    tag_112:\n        /* \"Upgradable E1P 1822/Implementation1.sol\":2314:2340  updateCodeAddress(newCode) */\n      tag_116\n        /* \"Upgradable E1P 1822/Implementation1.sol\":2332:2339  newCode */\n      dup2\n        /* \"Upgradable E1P 1822/Implementation1.sol\":2314:2331  updateCodeAddress */\n      tag_117\n        /* \"Upgradable E1P 1822/Implementation1.sol\":2314:2340  updateCodeAddress(newCode) */\n      jump\t// in\n    tag_116:\n        /* \"Upgradable E1P 1822/Implementation1.sol\":2250:2347  function updateCode(address newCode) onlyOwner public {... */\n      pop\n      jump\t// out\n        /* \"Upgradable E1P 1822/Implementation1.sol\":1360:1746  function mint(uint amount, address _to) public onlyOwner returns(uint){... */\n    tag_59:\n        /* \"Upgradable E1P 1822/Implementation1.sol\":649:654  owner */\n      sload(0x01)\n        /* \"Upgradable E1P 1822/Implementation1.sol\":1425:1429  uint */\n      0x00\n      swap1\n      sub(shl(0xa0, 0x01), 0x01)\n        /* \"Upgradable E1P 1822/Implementation1.sol\":649:654  owner */\n      and\n        /* \"Upgradable E1P 1822/Implementation1.sol\":658:668  msg.sender */\n      caller\n        /* \"Upgradable E1P 1822/Implementation1.sol\":649:668  owner == msg.sender */\n      eq\n        /* \"Upgradable E1P 1822/Implementation1.sol\":641:702  require(owner == msg.sender, \"No permission except to owner\") */\n      tag_121\n      jumpi\n      mload(0x40)\n      shl(0xe5, 0x461bcd)\n      dup2\n      mstore\n        /* \"#utility.yul\":4381:4383   */\n      0x20\n        /* \"Upgradable E1P 1822/Implementation1.sol\":641:702  require(owner == msg.sender, \"No permission except to owner\") */\n      0x04\n      dup3\n      add\n        /* \"#utility.yul\":4363:4384   */\n      mstore\n        /* \"#utility.yul\":4420:4422   */\n      0x1d\n        /* \"#utility.yul\":4400:4418   */\n      0x24\n      dup3\n      add\n        /* \"#utility.yul\":4393:4423   */\n      mstore\n        /* \"#utility.yul\":4459:4490   */\n      0x4e6f207065726d697373696f6e2065786365707420746f206f776e6572000000\n        /* \"#utility.yul\":4439:4457   */\n      0x44\n      dup3\n      add\n        /* \"#utility.yul\":4432:4491   */\n      mstore\n        /* \"#utility.yul\":4508:4526   */\n      0x64\n      add\n        /* \"Upgradable E1P 1822/Implementation1.sol\":641:702  require(owner == msg.sender, \"No permission except to owner\") */\n      tag_83\n        /* \"#utility.yul\":4179:4532   */\n      jump\n        /* \"Upgradable E1P 1822/Implementation1.sol\":641:702  require(owner == msg.sender, \"No permission except to owner\") */\n    tag_121:\n        /* \"Upgradable E1P 1822/Implementation1.sol\":1460:1466  amount */\n      dup3\n        /* \"Upgradable E1P 1822/Implementation1.sol\":1440:1456  circulatingSuppy */\n      0x00\n      dup1\n        /* \"Upgradable E1P 1822/Implementation1.sol\":1440:1466  circulatingSuppy += amount */\n      dup3\n      dup3\n      sload\n      tag_124\n      swap2\n      swap1\n      tag_90\n      jump\t// in\n    tag_124:\n      swap1\n      swap2\n      sstore\n      pop\n      pop\n        /* \"Upgradable E1P 1822/Implementation1.sol\":1484:1500  circulatingSuppy */\n      sload(0x00)\n        /* \"Upgradable E1P 1822/Implementation1.sol\":167:172  10000 */\n      0x2710\n      lt\n        /* \"Upgradable E1P 1822/Implementation1.sol\":1484:1515  circulatingSuppy <= totalSupply */\n      iszero\n        /* \"Upgradable E1P 1822/Implementation1.sol\":1476:1550  require(circulatingSuppy <= totalSupply, \"Total supply of token exceeded\") */\n      tag_125\n      jumpi\n      mload(0x40)\n      shl(0xe5, 0x461bcd)\n      dup2\n      mstore\n        /* \"#utility.yul\":4739:4741   */\n      0x20\n        /* \"Upgradable E1P 1822/Implementation1.sol\":1476:1550  require(circulatingSuppy <= totalSupply, \"Total supply of token exceeded\") */\n      0x04\n      dup3\n      add\n        /* \"#utility.yul\":4721:4742   */\n      mstore\n        /* \"#utility.yul\":4778:4780   */\n      0x1e\n        /* \"#utility.yul\":4758:4776   */\n      0x24\n      dup3\n      add\n        /* \"#utility.yul\":4751:4781   */\n      mstore\n        /* \"#utility.yul\":4817:4849   */\n      0x546f74616c20737570706c79206f6620746f6b656e2065786365656465640000\n        /* \"#utility.yul\":4797:4815   */\n      0x44\n      dup3\n      add\n        /* \"#utility.yul\":4790:4850   */\n      mstore\n        /* \"#utility.yul\":4867:4885   */\n      0x64\n      add\n        /* \"Upgradable E1P 1822/Implementation1.sol\":1476:1550  require(circulatingSuppy <= totalSupply, \"Total supply of token exceeded\") */\n      tag_83\n        /* \"#utility.yul\":4537:4891   */\n      jump\n        /* \"Upgradable E1P 1822/Implementation1.sol\":1476:1550  require(circulatingSuppy <= totalSupply, \"Total supply of token exceeded\") */\n    tag_125:\n      sub(shl(0xa0, 0x01), 0x01)\n        /* \"Upgradable E1P 1822/Implementation1.sol\":1568:1585  _to != address(0) */\n      dup3\n      and\n        /* \"Upgradable E1P 1822/Implementation1.sol\":1560:1610  require(_to != address(0), \"mint to address zero\") */\n      tag_128\n      jumpi\n      mload(0x40)\n      shl(0xe5, 0x461bcd)\n      dup2\n      mstore\n        /* \"#utility.yul\":5098:5100   */\n      0x20\n        /* \"Upgradable E1P 1822/Implementation1.sol\":1560:1610  require(_to != address(0), \"mint to address zero\") */\n      0x04\n      dup3\n      add\n        /* \"#utility.yul\":5080:5101   */\n      mstore\n        /* \"#utility.yul\":5137:5139   */\n      0x14\n        /* \"#utility.yul\":5117:5135   */\n      0x24\n      dup3\n      add\n        /* \"#utility.yul\":5110:5140   */\n      mstore\n      shl(0x60, 0x6d696e7420746f2061646472657373207a65726f)\n        /* \"#utility.yul\":5156:5174   */\n      0x44\n      dup3\n      add\n        /* \"#utility.yul\":5149:5199   */\n      mstore\n        /* \"#utility.yul\":5216:5234   */\n      0x64\n      add\n        /* \"Upgradable E1P 1822/Implementation1.sol\":1560:1610  require(_to != address(0), \"mint to address zero\") */\n      tag_83\n        /* \"#utility.yul\":4896:5240   */\n      jump\n        /* \"Upgradable E1P 1822/Implementation1.sol\":1560:1610  require(_to != address(0), \"mint to address zero\") */\n    tag_128:\n        /* \"Upgradable E1P 1822/Implementation1.sol\":1620:1630  uint value */\n      0x00\n        /* \"Upgradable E1P 1822/Implementation1.sol\":1633:1649  amount * decimal */\n      tag_131\n        /* \"Upgradable E1P 1822/Implementation1.sol\":320:324  1e18 */\n      0x0de0b6b3a7640000\n        /* \"Upgradable E1P 1822/Implementation1.sol\":1633:1639  amount */\n      dup6\n        /* \"Upgradable E1P 1822/Implementation1.sol\":1633:1649  amount * decimal */\n      tag_132\n      jump\t// in\n    tag_131:\n      sub(shl(0xa0, 0x01), 0x01)\n        /* \"Upgradable E1P 1822/Implementation1.sol\":1659:1672  _balance[_to] */\n      dup5\n      and\n      0x00\n      swap1\n      dup2\n      mstore\n        /* \"Upgradable E1P 1822/Implementation1.sol\":1659:1667  _balance */\n      0x02\n        /* \"Upgradable E1P 1822/Implementation1.sol\":1659:1672  _balance[_to] */\n      0x20\n      mstore\n      0x40\n      dup2\n      keccak256\n        /* \"Upgradable E1P 1822/Implementation1.sol\":1659:1681  _balance[_to] += value */\n      dup1\n      sload\n        /* \"Upgradable E1P 1822/Implementation1.sol\":1620:1649  uint value = amount * decimal */\n      swap3\n      swap4\n      pop\n      dup4\n      swap3\n        /* \"Upgradable E1P 1822/Implementation1.sol\":1659:1672  _balance[_to] */\n      swap1\n      swap2\n      swap1\n        /* \"Upgradable E1P 1822/Implementation1.sol\":1659:1681  _balance[_to] += value */\n      tag_133\n      swap1\n        /* \"Upgradable E1P 1822/Implementation1.sol\":1620:1649  uint value = amount * decimal */\n      dup5\n      swap1\n        /* \"Upgradable E1P 1822/Implementation1.sol\":1659:1681  _balance[_to] += value */\n      tag_90\n      jump\t// in\n    tag_133:\n      swap1\n      swap2\n      sstore\n      pop\n      pop\n        /* \"Upgradable E1P 1822/Implementation1.sol\":1696:1717  tokenMint(_to, value) */\n      0x40\n      dup1\n      mload\n      sub(shl(0xa0, 0x01), 0x01)\n        /* \"#utility.yul\":5610:5642   */\n      dup6\n      and\n        /* \"#utility.yul\":5592:5643   */\n      dup2\n      mstore\n        /* \"#utility.yul\":5674:5676   */\n      0x20\n        /* \"#utility.yul\":5659:5677   */\n      dup2\n      add\n        /* \"#utility.yul\":5652:5686   */\n      dup4\n      swap1\n      mstore\n        /* \"Upgradable E1P 1822/Implementation1.sol\":1696:1717  tokenMint(_to, value) */\n      0xeef892aa26c4762fad30f87b912a95ed5b6ff48d8ea3521783c84679e23d2ae2\n      swap2\n        /* \"#utility.yul\":5565:5583   */\n      add\n        /* \"Upgradable E1P 1822/Implementation1.sol\":1696:1717  tokenMint(_to, value) */\n      mload(0x40)\n      dup1\n      swap2\n      sub\n      swap1\n      log1\n        /* \"Upgradable E1P 1822/Implementation1.sol\":1734:1739  value */\n      swap1\n      pop\n        /* \"Upgradable E1P 1822/Implementation1.sol\":710:711  _ */\n    tag_123:\n        /* \"Upgradable E1P 1822/Implementation1.sol\":1360:1746  function mint(uint amount, address _to) public onlyOwner returns(uint){... */\n      swap3\n      swap2\n      pop\n      pop\n      jump\t// out\n        /* \"Upgradable E1P 1822/Implementation2.sol\":436:880  function transfer(address _to, uint amount) external {... */\n    tag_63:\n      sub(shl(0xa0, 0x01), 0x01)\n        /* \"Upgradable E1P 1822/Implementation2.sol\":505:522  _to != address(0) */\n      dup3\n      and\n        /* \"Upgradable E1P 1822/Implementation2.sol\":497:547  require(_to != address(0), \"mint to address zero\") */\n      tag_137\n      jumpi\n      mload(0x40)\n      shl(0xe5, 0x461bcd)\n      dup2\n      mstore\n        /* \"#utility.yul\":5098:5100   */\n      0x20\n        /* \"Upgradable E1P 1822/Implementation2.sol\":497:547  require(_to != address(0), \"mint to address zero\") */\n      0x04\n      dup3\n      add\n        /* \"#utility.yul\":5080:5101   */\n      mstore\n        /* \"#utility.yul\":5137:5139   */\n      0x14\n        /* \"#utility.yul\":5117:5135   */\n      0x24\n      dup3\n      add\n        /* \"#utility.yul\":5110:5140   */\n      mstore\n      shl(0x60, 0x6d696e7420746f2061646472657373207a65726f)\n        /* \"#utility.yul\":5156:5174   */\n      0x44\n      dup3\n      add\n        /* \"#utility.yul\":5149:5199   */\n      mstore\n        /* \"#utility.yul\":5216:5234   */\n      0x64\n      add\n        /* \"Upgradable E1P 1822/Implementation2.sol\":497:547  require(_to != address(0), \"mint to address zero\") */\n      tag_83\n        /* \"#utility.yul\":4896:5240   */\n      jump\n        /* \"Upgradable E1P 1822/Implementation2.sol\":497:547  require(_to != address(0), \"mint to address zero\") */\n    tag_137:\n        /* \"Upgradable E1P 1822/Implementation2.sol\":583:593  msg.sender */\n      caller\n        /* \"Upgradable E1P 1822/Implementation2.sol\":555:571  uint userBalance */\n      0x00\n        /* \"Upgradable E1P 1822/Implementation2.sol\":574:594  _balance[msg.sender] */\n      swap1\n      dup2\n      mstore\n        /* \"Upgradable E1P 1822/Implementation2.sol\":574:582  _balance */\n      0x02\n        /* \"Upgradable E1P 1822/Implementation2.sol\":574:594  _balance[msg.sender] */\n      0x20\n      mstore\n      0x40\n      swap1\n      keccak256\n      sload\n        /* \"Upgradable E1P 1822/Implementation2.sol\":610:631  userBalance >= amount */\n      dup2\n      dup2\n      lt\n      iszero\n        /* \"Upgradable E1P 1822/Implementation2.sol\":602:653  require(userBalance >= amount, \"Insufficient fund\") */\n      tag_139\n      jumpi\n      mload(0x40)\n      shl(0xe5, 0x461bcd)\n      dup2\n      mstore\n        /* \"#utility.yul\":5899:5901   */\n      0x20\n        /* \"Upgradable E1P 1822/Implementation2.sol\":602:653  require(userBalance >= amount, \"Insufficient fund\") */\n      0x04\n      dup3\n      add\n        /* \"#utility.yul\":5881:5902   */\n      mstore\n        /* \"#utility.yul\":5938:5940   */\n      0x11\n        /* \"#utility.yul\":5918:5936   */\n      0x24\n      dup3\n      add\n        /* \"#utility.yul\":5911:5941   */\n      mstore\n      shl(0x7a, 0x125b9cdd59999a58da595b9d08199d5b99)\n        /* \"#utility.yul\":5957:5975   */\n      0x44\n      dup3\n      add\n        /* \"#utility.yul\":5950:5997   */\n      mstore\n        /* \"#utility.yul\":6014:6032   */\n      0x64\n      add\n        /* \"Upgradable E1P 1822/Implementation2.sol\":602:653  require(userBalance >= amount, \"Insufficient fund\") */\n      tag_83\n        /* \"#utility.yul\":5697:6038   */\n      jump\n        /* \"Upgradable E1P 1822/Implementation2.sol\":602:653  require(userBalance >= amount, \"Insufficient fund\") */\n    tag_139:\n        /* \"Upgradable E1P 1822/Implementation2.sol\":662:680  uint burnableToken */\n      0x00\n        /* \"Upgradable E1P 1822/Implementation2.sol\":683:696  _burn(amount) */\n      tag_142\n        /* \"Upgradable E1P 1822/Implementation2.sol\":689:695  amount */\n      dup4\n        /* \"Upgradable E1P 1822/Implementation2.sol\":683:688  _burn */\n      tag_103\n        /* \"Upgradable E1P 1822/Implementation2.sol\":683:696  _burn(amount) */\n      jump\t// in\n    tag_142:\n        /* \"Upgradable E1P 1822/Implementation2.sol\":662:696  uint burnableToken = _burn(amount) */\n      swap1\n      pop\n        /* \"Upgradable E1P 1822/Implementation2.sol\":704:722  uint transferrable */\n      0x00\n        /* \"Upgradable E1P 1822/Implementation2.sol\":725:747  amount - burnableToken */\n      tag_143\n        /* \"Upgradable E1P 1822/Implementation2.sol\":662:696  uint burnableToken = _burn(amount) */\n      dup3\n        /* \"Upgradable E1P 1822/Implementation2.sol\":725:731  amount */\n      dup6\n        /* \"Upgradable E1P 1822/Implementation2.sol\":725:747  amount - burnableToken */\n      tag_105\n      jump\t// in\n    tag_143:\n        /* \"Upgradable E1P 1822/Implementation2.sol\":765:775  msg.sender */\n      caller\n        /* \"Upgradable E1P 1822/Implementation2.sol\":756:776  _balance[msg.sender] */\n      0x00\n      swap1\n      dup2\n      mstore\n        /* \"Upgradable E1P 1822/Implementation2.sol\":756:764  _balance */\n      0x02\n        /* \"Upgradable E1P 1822/Implementation2.sol\":756:776  _balance[msg.sender] */\n      0x20\n      mstore\n      0x40\n      dup2\n      keccak256\n        /* \"Upgradable E1P 1822/Implementation2.sol\":756:786  _balance[msg.sender] -= amount */\n      dup1\n      sload\n        /* \"Upgradable E1P 1822/Implementation2.sol\":704:747  uint transferrable = amount - burnableToken */\n      swap3\n      swap4\n      pop\n        /* \"Upgradable E1P 1822/Implementation2.sol\":780:786  amount */\n      dup7\n      swap3\n        /* \"Upgradable E1P 1822/Implementation2.sol\":756:776  _balance[msg.sender] */\n      swap1\n      swap2\n      swap1\n        /* \"Upgradable E1P 1822/Implementation2.sol\":756:786  _balance[msg.sender] -= amount */\n      tag_144\n      swap1\n        /* \"Upgradable E1P 1822/Implementation2.sol\":780:786  amount */\n      dup5\n      swap1\n        /* \"Upgradable E1P 1822/Implementation2.sol\":756:786  _balance[msg.sender] -= amount */\n      tag_105\n      jump\t// in\n    tag_144:\n      swap1\n      swap2\n      sstore\n      pop\n      pop\n      sub(shl(0xa0, 0x01), 0x01)\n        /* \"Upgradable E1P 1822/Implementation2.sol\":794:807  _balance[_to] */\n      dup6\n      and\n      0x00\n      swap1\n      dup2\n      mstore\n        /* \"Upgradable E1P 1822/Implementation2.sol\":794:802  _balance */\n      0x02\n        /* \"Upgradable E1P 1822/Implementation2.sol\":794:807  _balance[_to] */\n      0x20\n      mstore\n      0x40\n      dup2\n      keccak256\n        /* \"Upgradable E1P 1822/Implementation2.sol\":794:824  _balance[_to] += transferrable */\n      dup1\n      sload\n        /* \"Upgradable E1P 1822/Implementation2.sol\":811:824  transferrable */\n      dup4\n      swap3\n        /* \"Upgradable E1P 1822/Implementation2.sol\":794:807  _balance[_to] */\n      swap1\n        /* \"Upgradable E1P 1822/Implementation2.sol\":794:824  _balance[_to] += transferrable */\n      tag_145\n      swap1\n        /* \"Upgradable E1P 1822/Implementation2.sol\":811:824  transferrable */\n      dup5\n      swap1\n        /* \"Upgradable E1P 1822/Implementation2.sol\":794:824  _balance[_to] += transferrable */\n      tag_90\n      jump\t// in\n    tag_145:\n      swap1\n      swap2\n      sstore\n      pop\n      pop\n        /* \"Upgradable E1P 1822/Implementation2.sol\":838:872  _transfer(msg.sender, _to, amount) */\n      0x40\n      dup1\n      mload\n        /* \"Upgradable E1P 1822/Implementation2.sol\":848:858  msg.sender */\n      caller\n        /* \"#utility.yul\":6283:6317   */\n      dup2\n      mstore\n      sub(shl(0xa0, 0x01), 0x01)\n        /* \"#utility.yul\":6353:6368   */\n      dup8\n      and\n        /* \"#utility.yul\":6348:6350   */\n      0x20\n        /* \"#utility.yul\":6333:6351   */\n      dup3\n      add\n        /* \"#utility.yul\":6326:6369   */\n      mstore\n        /* \"#utility.yul\":6385:6403   */\n      swap1\n      dup2\n      add\n        /* \"#utility.yul\":6378:6412   */\n      dup6\n      swap1\n      mstore\n        /* \"Upgradable E1P 1822/Implementation2.sol\":838:872  _transfer(msg.sender, _to, amount) */\n      0x30e0789ed23094f42b5810cbdf4e48a0478aec0b37810e24e912443dd0032b3c\n      swap1\n        /* \"#utility.yul\":6233:6235   */\n      0x60\n        /* \"#utility.yul\":6218:6236   */\n      add\n        /* \"Upgradable E1P 1822/Implementation2.sol\":838:872  _transfer(msg.sender, _to, amount) */\n      mload(0x40)\n      dup1\n      swap2\n      sub\n      swap1\n      log1\n        /* \"Upgradable E1P 1822/Implementation2.sol\":489:880  {... */\n      pop\n      pop\n      pop\n        /* \"Upgradable E1P 1822/Implementation2.sol\":436:880  function transfer(address _to, uint amount) external {... */\n      pop\n      pop\n      jump\t// out\n        /* \"Upgradable E1P 1822/Implementation2.sol\":326:431  function calculateBurn(uint amount) public pure returns(uint burn){... */\n    tag_78:\n        /* \"Upgradable E1P 1822/Implementation2.sol\":382:391  uint burn */\n      0x00\n        /* \"Upgradable E1P 1822/Implementation2.sol\":421:424  100 */\n      0x64\n        /* \"Upgradable E1P 1822/Implementation2.sol\":408:419  amount * 10 */\n      tag_151\n        /* \"Upgradable E1P 1822/Implementation2.sol\":408:414  amount */\n      dup4\n        /* \"Upgradable E1P 1822/Implementation2.sol\":417:419  10 */\n      0x0a\n        /* \"Upgradable E1P 1822/Implementation2.sol\":408:419  amount * 10 */\n      tag_132\n      jump\t// in\n    tag_151:\n        /* \"Upgradable E1P 1822/Implementation2.sol\":407:424  (amount * 10)/100 */\n      tag_123\n      swap2\n      swap1\n      tag_153\n      jump\t// in\n        /* \"Upgradable E1P 1822/Implementation2.sol\":154:320  function _burn(uint amount) private returns(uint burnableToken){... */\n    tag_103:\n        /* \"Upgradable E1P 1822/Implementation2.sol\":198:216  uint burnableToken */\n      0x00\n        /* \"Upgradable E1P 1822/Implementation2.sol\":241:262  calculateBurn(amount) */\n      tag_155\n        /* \"Upgradable E1P 1822/Implementation2.sol\":255:261  amount */\n      dup3\n        /* \"Upgradable E1P 1822/Implementation2.sol\":241:254  calculateBurn */\n      tag_78\n        /* \"Upgradable E1P 1822/Implementation2.sol\":241:262  calculateBurn(amount) */\n      jump\t// in\n    tag_155:\n        /* \"Upgradable E1P 1822/Implementation2.sol\":225:262  burnableToken = calculateBurn(amount) */\n      swap1\n      pop\n        /* \"Upgradable E1P 1822/Implementation2.sol\":291:313  burnableToken/ decimal */\n      tag_156\n        /* \"Upgradable E1P 1822/Implementation1.sol\":320:324  1e18 */\n      0x0de0b6b3a7640000\n        /* \"Upgradable E1P 1822/Implementation2.sol\":225:262  burnableToken = calculateBurn(amount) */\n      dup3\n        /* \"Upgradable E1P 1822/Implementation2.sol\":291:313  burnableToken/ decimal */\n      tag_153\n      jump\t// in\n    tag_156:\n        /* \"Upgradable E1P 1822/Implementation2.sol\":271:287  circulatingSuppy */\n      0x00\n      dup1\n        /* \"Upgradable E1P 1822/Implementation2.sol\":271:313  circulatingSuppy -= burnableToken/ decimal */\n      dup3\n      dup3\n      sload\n      tag_157\n      swap2\n      swap1\n      tag_105\n      jump\t// in\n    tag_157:\n      swap1\n      swap2\n      sstore\n      pop\n        /* \"Upgradable E1P 1822/Implementation2.sol\":154:320  function _burn(uint amount) private returns(uint burnableToken){... */\n      swap1\n      swap3\n      swap2\n      pop\n      pop\n      jump\t// out\n        /* \"Upgradable E1P 1822/Proxible.sol\":220:621  function updateCodeAddress(address newAddress) internal {... */\n    tag_117:\n        /* \"Upgradable E1P 1822/Proxible.sol\":396:406  newAddress */\n      dup1\n      sub(shl(0xa0, 0x01), 0x01)\n        /* \"Upgradable E1P 1822/Proxible.sol\":386:421  Proxiable(newAddress).proxiableUUID */\n      and\n      0x52d1902d\n        /* \"Upgradable E1P 1822/Proxible.sol\":386:423  Proxiable(newAddress).proxiableUUID() */\n      mload(0x40)\n      dup2\n      0xffffffff\n      and\n      0xe0\n      shl\n      dup2\n      mstore\n      0x04\n      add\n      0x20\n      mload(0x40)\n      dup1\n      dup4\n      sub\n      dup2\n      dup7\n      gas\n      staticcall\n      iszero\n      dup1\n      iszero\n      tag_160\n      jumpi\n      returndatasize\n      0x00\n      dup1\n      returndatacopy\n      revert(0x00, returndatasize)\n    tag_160:\n      pop\n      pop\n      pop\n      pop\n      mload(0x40)\n      returndatasize\n      not(0x1f)\n      0x1f\n      dup3\n      add\n      and\n      dup3\n      add\n      dup1\n      0x40\n      mstore\n      pop\n      dup2\n      add\n      swap1\n      tag_161\n      swap2\n      swap1\n      tag_162\n      jump\t// in\n    tag_161:\n        /* \"Upgradable E1P 1822/Proxible.sol\":315:381  0xc5f16f0fcc639fa48a6947836d9850f504798523bf8c9a3a87d5876cf622bcf7 */\n      0xc5f16f0fcc639fa48a6947836d9850f504798523bf8c9a3a87d5876cf622bcf7\n        /* \"Upgradable E1P 1822/Proxible.sol\":307:423  bytes32(0xc5f16f0fcc639fa48a6947836d9850f504798523bf8c9a3a87d5876cf622bcf7) == Proxiable(newAddress).proxiableUUID() */\n      eq\n        /* \"Upgradable E1P 1822/Proxible.sol\":286:463  require(... */\n      tag_163\n      jumpi\n      mload(0x40)\n      shl(0xe5, 0x461bcd)\n      dup2\n      mstore\n        /* \"#utility.yul\":7036:7038   */\n      0x20\n        /* \"Upgradable E1P 1822/Proxible.sol\":286:463  require(... */\n      0x04\n      dup3\n      add\n        /* \"#utility.yul\":7018:7039   */\n      mstore\n        /* \"#utility.yul\":7075:7077   */\n      0x0e\n        /* \"#utility.yul\":7055:7073   */\n      0x24\n      dup3\n      add\n        /* \"#utility.yul\":7048:7078   */\n      mstore\n      shl(0x90, 0x4e6f7420636f6d70617469626c65)\n        /* \"#utility.yul\":7094:7112   */\n      0x44\n      dup3\n      add\n        /* \"#utility.yul\":7087:7131   */\n      mstore\n        /* \"#utility.yul\":7148:7166   */\n      0x64\n      add\n        /* \"Upgradable E1P 1822/Proxible.sol\":286:463  require(... */\n      tag_83\n        /* \"#utility.yul\":6834:7172   */\n      jump\n        /* \"Upgradable E1P 1822/Proxible.sol\":286:463  require(... */\n    tag_163:\n        /* \"Upgradable E1P 1822/Proxible.sol\":526:592  0xc5f16f0fcc639fa48a6947836d9850f504798523bf8c9a3a87d5876cf622bcf7 */\n      0xc5f16f0fcc639fa48a6947836d9850f504798523bf8c9a3a87d5876cf622bcf7\n        /* \"Upgradable E1P 1822/Proxible.sol\":519:605  sstore(0xc5f16f0fcc639fa48a6947836d9850f504798523bf8c9a3a87d5876cf622bcf7, newAddress) */\n      sstore\n        /* \"Upgradable E1P 1822/Proxible.sol\":220:621  function updateCodeAddress(address newAddress) internal {... */\n      jump\t// out\n        /* \"#utility.yul\":14:187   */\n    tag_166:\n        /* \"#utility.yul\":82:102   */\n      dup1\n      calldataload\n      sub(shl(0xa0, 0x01), 0x01)\n        /* \"#utility.yul\":131:162   */\n      dup2\n      and\n        /* \"#utility.yul\":121:163   */\n      dup2\n      eq\n        /* \"#utility.yul\":111:181   */\n      tag_170\n      jumpi\n        /* \"#utility.yul\":177:178   */\n      0x00\n        /* \"#utility.yul\":174:175   */\n      dup1\n        /* \"#utility.yul\":167:179   */\n      revert\n        /* \"#utility.yul\":111:181   */\n    tag_170:\n        /* \"#utility.yul\":14:187   */\n      swap2\n      swap1\n      pop\n      jump\t// out\n        /* \"#utility.yul\":192:446   */\n    tag_23:\n        /* \"#utility.yul\":260:266   */\n      0x00\n        /* \"#utility.yul\":268:274   */\n      dup1\n        /* \"#utility.yul\":321:323   */\n      0x40\n        /* \"#utility.yul\":309:318   */\n      dup4\n        /* \"#utility.yul\":300:307   */\n      dup6\n        /* \"#utility.yul\":296:319   */\n      sub\n        /* \"#utility.yul\":292:324   */\n      slt\n        /* \"#utility.yul\":289:341   */\n      iszero\n      tag_172\n      jumpi\n        /* \"#utility.yul\":337:338   */\n      0x00\n        /* \"#utility.yul\":334:335   */\n      dup1\n        /* \"#utility.yul\":327:339   */\n      revert\n        /* \"#utility.yul\":289:341   */\n    tag_172:\n        /* \"#utility.yul\":360:389   */\n      tag_173\n        /* \"#utility.yul\":379:388   */\n      dup4\n        /* \"#utility.yul\":360:389   */\n      tag_166\n      jump\t// in\n    tag_173:\n        /* \"#utility.yul\":350:389   */\n      swap5\n        /* \"#utility.yul\":436:438   */\n      0x20\n        /* \"#utility.yul\":421:439   */\n      swap4\n      swap1\n      swap4\n      add\n        /* \"#utility.yul\":408:440   */\n      calldataload\n      swap4\n      pop\n      pop\n      pop\n        /* \"#utility.yul\":192:446   */\n      jump\t// out\n        /* \"#utility.yul\":643:971   */\n    tag_31:\n        /* \"#utility.yul\":720:726   */\n      0x00\n        /* \"#utility.yul\":728:734   */\n      dup1\n        /* \"#utility.yul\":736:742   */\n      0x00\n        /* \"#utility.yul\":789:791   */\n      0x60\n        /* \"#utility.yul\":777:786   */\n      dup5\n        /* \"#utility.yul\":768:775   */\n      dup7\n        /* \"#utility.yul\":764:787   */\n      sub\n        /* \"#utility.yul\":760:792   */\n      slt\n        /* \"#utility.yul\":757:809   */\n      iszero\n      tag_176\n      jumpi\n        /* \"#utility.yul\":805:806   */\n      0x00\n        /* \"#utility.yul\":802:803   */\n      dup1\n        /* \"#utility.yul\":795:807   */\n      revert\n        /* \"#utility.yul\":757:809   */\n    tag_176:\n        /* \"#utility.yul\":828:857   */\n      tag_177\n        /* \"#utility.yul\":847:856   */\n      dup5\n        /* \"#utility.yul\":828:857   */\n      tag_166\n      jump\t// in\n    tag_177:\n        /* \"#utility.yul\":818:857   */\n      swap3\n      pop\n        /* \"#utility.yul\":876:914   */\n      tag_178\n        /* \"#utility.yul\":910:912   */\n      0x20\n        /* \"#utility.yul\":899:908   */\n      dup6\n        /* \"#utility.yul\":895:913   */\n      add\n        /* \"#utility.yul\":876:914   */\n      tag_166\n      jump\t// in\n    tag_178:\n        /* \"#utility.yul\":866:914   */\n      swap2\n      pop\n        /* \"#utility.yul\":961:963   */\n      0x40\n        /* \"#utility.yul\":950:959   */\n      dup5\n        /* \"#utility.yul\":946:964   */\n      add\n        /* \"#utility.yul\":933:965   */\n      calldataload\n        /* \"#utility.yul\":923:965   */\n      swap1\n      pop\n        /* \"#utility.yul\":643:971   */\n      swap3\n      pop\n      swap3\n      pop\n      swap3\n      jump\t// out\n        /* \"#utility.yul\":1158:1344   */\n    tag_42:\n        /* \"#utility.yul\":1217:1223   */\n      0x00\n        /* \"#utility.yul\":1270:1272   */\n      0x20\n        /* \"#utility.yul\":1258:1267   */\n      dup3\n        /* \"#utility.yul\":1249:1256   */\n      dup5\n        /* \"#utility.yul\":1245:1268   */\n      sub\n        /* \"#utility.yul\":1241:1273   */\n      slt\n        /* \"#utility.yul\":1238:1290   */\n      iszero\n      tag_181\n      jumpi\n        /* \"#utility.yul\":1286:1287   */\n      0x00\n        /* \"#utility.yul\":1283:1284   */\n      dup1\n        /* \"#utility.yul\":1276:1288   */\n      revert\n        /* \"#utility.yul\":1238:1290   */\n    tag_181:\n        /* \"#utility.yul\":1309:1338   */\n      tag_182\n        /* \"#utility.yul\":1328:1337   */\n      dup3\n        /* \"#utility.yul\":1309:1338   */\n      tag_166\n      jump\t// in\n    tag_182:\n        /* \"#utility.yul\":1299:1338   */\n      swap4\n        /* \"#utility.yul\":1158:1344   */\n      swap3\n      pop\n      pop\n      pop\n      jump\t// out\n        /* \"#utility.yul\":1739:1993   */\n    tag_58:\n        /* \"#utility.yul\":1807:1813   */\n      0x00\n        /* \"#utility.yul\":1815:1821   */\n      dup1\n        /* \"#utility.yul\":1868:1870   */\n      0x40\n        /* \"#utility.yul\":1856:1865   */\n      dup4\n        /* \"#utility.yul\":1847:1854   */\n      dup6\n        /* \"#utility.yul\":1843:1866   */\n      sub\n        /* \"#utility.yul\":1839:1871   */\n      slt\n        /* \"#utility.yul\":1836:1888   */\n      iszero\n      tag_186\n      jumpi\n        /* \"#utility.yul\":1884:1885   */\n      0x00\n        /* \"#utility.yul\":1881:1882   */\n      dup1\n        /* \"#utility.yul\":1874:1886   */\n      revert\n        /* \"#utility.yul\":1836:1888   */\n    tag_186:\n        /* \"#utility.yul\":1920:1929   */\n      dup3\n        /* \"#utility.yul\":1907:1930   */\n      calldataload\n        /* \"#utility.yul\":1897:1930   */\n      swap2\n      pop\n        /* \"#utility.yul\":1949:1987   */\n      tag_187\n        /* \"#utility.yul\":1983:1985   */\n      0x20\n        /* \"#utility.yul\":1972:1981   */\n      dup5\n        /* \"#utility.yul\":1968:1986   */\n      add\n        /* \"#utility.yul\":1949:1987   */\n      tag_166\n      jump\t// in\n    tag_187:\n        /* \"#utility.yul\":1939:1987   */\n      swap1\n      pop\n        /* \"#utility.yul\":1739:1993   */\n      swap3\n      pop\n      swap3\n      swap1\n      pop\n      jump\t// out\n        /* \"#utility.yul\":1998:2546   */\n    tag_67:\n        /* \"#utility.yul\":2110:2114   */\n      0x00\n        /* \"#utility.yul\":2139:2141   */\n      0x20\n        /* \"#utility.yul\":2168:2170   */\n      dup1\n        /* \"#utility.yul\":2157:2166   */\n      dup4\n        /* \"#utility.yul\":2150:2171   */\n      mstore\n        /* \"#utility.yul\":2200:2206   */\n      dup4\n        /* \"#utility.yul\":2194:2207   */\n      mload\n        /* \"#utility.yul\":2243:2249   */\n      dup1\n        /* \"#utility.yul\":2238:2240   */\n      dup3\n        /* \"#utility.yul\":2227:2236   */\n      dup6\n        /* \"#utility.yul\":2223:2241   */\n      add\n        /* \"#utility.yul\":2216:2250   */\n      mstore\n        /* \"#utility.yul\":2268:2269   */\n      0x00\n        /* \"#utility.yul\":2278:2418   */\n    tag_189:\n        /* \"#utility.yul\":2292:2298   */\n      dup2\n        /* \"#utility.yul\":2289:2290   */\n      dup2\n        /* \"#utility.yul\":2286:2299   */\n      lt\n        /* \"#utility.yul\":2278:2418   */\n      iszero\n      tag_191\n      jumpi\n        /* \"#utility.yul\":2387:2401   */\n      dup6\n      dup2\n      add\n        /* \"#utility.yul\":2383:2406   */\n      dup4\n      add\n        /* \"#utility.yul\":2377:2407   */\n      mload\n        /* \"#utility.yul\":2353:2370   */\n      dup6\n      dup3\n      add\n        /* \"#utility.yul\":2372:2374   */\n      0x40\n        /* \"#utility.yul\":2349:2375   */\n      add\n        /* \"#utility.yul\":2342:2408   */\n      mstore\n        /* \"#utility.yul\":2307:2317   */\n      dup3\n      add\n        /* \"#utility.yul\":2278:2418   */\n      jump(tag_189)\n    tag_191:\n        /* \"#utility.yul\":2282:2285   */\n      pop\n        /* \"#utility.yul\":2467:2468   */\n      0x00\n        /* \"#utility.yul\":2462:2464   */\n      0x40\n        /* \"#utility.yul\":2453:2459   */\n      dup3\n        /* \"#utility.yul\":2442:2451   */\n      dup7\n        /* \"#utility.yul\":2438:2460   */\n      add\n        /* \"#utility.yul\":2434:2465   */\n      add\n        /* \"#utility.yul\":2427:2469   */\n      mstore\n        /* \"#utility.yul\":2537:2539   */\n      0x40\n        /* \"#utility.yul\":2530:2532   */\n      0x1f\n        /* \"#utility.yul\":2526:2533   */\n      not\n        /* \"#utility.yul\":2521:2523   */\n      0x1f\n        /* \"#utility.yul\":2513:2519   */\n      dup4\n        /* \"#utility.yul\":2509:2524   */\n      add\n        /* \"#utility.yul\":2505:2534   */\n      and\n        /* \"#utility.yul\":2494:2503   */\n      dup6\n        /* \"#utility.yul\":2490:2535   */\n      add\n        /* \"#utility.yul\":2486:2540   */\n      add\n        /* \"#utility.yul\":2478:2540   */\n      swap3\n      pop\n      pop\n      pop\n        /* \"#utility.yul\":1998:2546   */\n      swap3\n      swap2\n      pop\n      pop\n      jump\t// out\n        /* \"#utility.yul\":2551:2731   */\n    tag_77:\n        /* \"#utility.yul\":2610:2616   */\n      0x00\n        /* \"#utility.yul\":2663:2665   */\n      0x20\n        /* \"#utility.yul\":2651:2660   */\n      dup3\n        /* \"#utility.yul\":2642:2649   */\n      dup5\n        /* \"#utility.yul\":2638:2661   */\n      sub\n        /* \"#utility.yul\":2634:2666   */\n      slt\n        /* \"#utility.yul\":2631:2683   */\n      iszero\n      tag_193\n      jumpi\n        /* \"#utility.yul\":2679:2680   */\n      0x00\n        /* \"#utility.yul\":2676:2677   */\n      dup1\n        /* \"#utility.yul\":2669:2681   */\n      revert\n        /* \"#utility.yul\":2631:2683   */\n    tag_193:\n      pop\n        /* \"#utility.yul\":2702:2725   */\n      calldataload\n      swap2\n        /* \"#utility.yul\":2551:2731   */\n      swap1\n      pop\n      jump\t// out\n        /* \"#utility.yul\":3083:3210   */\n    tag_167:\n        /* \"#utility.yul\":3144:3154   */\n      0x4e487b71\n        /* \"#utility.yul\":3139:3142   */\n      0xe0\n        /* \"#utility.yul\":3135:3155   */\n      shl\n        /* \"#utility.yul\":3132:3133   */\n      0x00\n        /* \"#utility.yul\":3125:3156   */\n      mstore\n        /* \"#utility.yul\":3175:3179   */\n      0x11\n        /* \"#utility.yul\":3172:3173   */\n      0x04\n        /* \"#utility.yul\":3165:3180   */\n      mstore\n        /* \"#utility.yul\":3199:3203   */\n      0x24\n        /* \"#utility.yul\":3196:3197   */\n      0x00\n        /* \"#utility.yul\":3189:3204   */\n      revert\n        /* \"#utility.yul\":3215:3340   */\n    tag_90:\n        /* \"#utility.yul\":3280:3289   */\n      dup1\n      dup3\n      add\n        /* \"#utility.yul\":3301:3311   */\n      dup1\n      dup3\n      gt\n        /* \"#utility.yul\":3298:3334   */\n      iszero\n      tag_123\n      jumpi\n        /* \"#utility.yul\":3314:3332   */\n      tag_123\n      tag_167\n      jump\t// in\n        /* \"#utility.yul\":4046:4174   */\n    tag_105:\n        /* \"#utility.yul\":4113:4122   */\n      dup2\n      dup2\n      sub\n        /* \"#utility.yul\":4134:4145   */\n      dup2\n      dup2\n      gt\n        /* \"#utility.yul\":4131:4168   */\n      iszero\n      tag_123\n      jumpi\n        /* \"#utility.yul\":4148:4166   */\n      tag_123\n      tag_167\n      jump\t// in\n        /* \"#utility.yul\":5245:5413   */\n    tag_132:\n        /* \"#utility.yul\":5318:5327   */\n      dup1\n      dup3\n      mul\n        /* \"#utility.yul\":5349:5358   */\n      dup2\n      iszero\n        /* \"#utility.yul\":5366:5381   */\n      dup3\n      dup3\n      div\n        /* \"#utility.yul\":5360:5382   */\n      dup5\n      eq\n        /* \"#utility.yul\":5346:5383   */\n      or\n        /* \"#utility.yul\":5336:5407   */\n      tag_123\n      jumpi\n        /* \"#utility.yul\":5387:5405   */\n      tag_123\n      tag_167\n      jump\t// in\n        /* \"#utility.yul\":6423:6640   */\n    tag_153:\n        /* \"#utility.yul\":6463:6464   */\n      0x00\n        /* \"#utility.yul\":6489:6490   */\n      dup3\n        /* \"#utility.yul\":6479:6611   */\n      tag_214\n      jumpi\n        /* \"#utility.yul\":6533:6543   */\n      0x4e487b71\n        /* \"#utility.yul\":6528:6531   */\n      0xe0\n        /* \"#utility.yul\":6524:6544   */\n      shl\n        /* \"#utility.yul\":6521:6522   */\n      0x00\n        /* \"#utility.yul\":6514:6545   */\n      mstore\n        /* \"#utility.yul\":6568:6572   */\n      0x12\n        /* \"#utility.yul\":6565:6566   */\n      0x04\n        /* \"#utility.yul\":6558:6573   */\n      mstore\n        /* \"#utility.yul\":6596:6600   */\n      0x24\n        /* \"#utility.yul\":6593:6594   */\n      0x00\n        /* \"#utility.yul\":6586:6601   */\n      revert\n        /* \"#utility.yul\":6479:6611   */\n    tag_214:\n      pop\n        /* \"#utility.yul\":6625:6634   */\n      div\n      swap1\n        /* \"#utility.yul\":6423:6640   */\n      jump\t// out\n        /* \"#utility.yul\":6645:6829   */\n    tag_162:\n        /* \"#utility.yul\":6715:6721   */\n      0x00\n        /* \"#utility.yul\":6768:6770   */\n      0x20\n        /* \"#utility.yul\":6756:6765   */\n      dup3\n        /* \"#utility.yul\":6747:6754   */\n      dup5\n        /* \"#utility.yul\":6743:6766   */\n      sub\n        /* \"#utility.yul\":6739:6771   */\n      slt\n        /* \"#utility.yul\":6736:6788   */\n      iszero\n      tag_216\n      jumpi\n        /* \"#utility.yul\":6784:6785   */\n      0x00\n        /* \"#utility.yul\":6781:6782   */\n      dup1\n        /* \"#utility.yul\":6774:6786   */\n      revert\n        /* \"#utility.yul\":6736:6788   */\n    tag_216:\n      pop\n        /* \"#utility.yul\":6807:6823   */\n      mload\n      swap2\n        /* \"#utility.yul\":6645:6829   */\n      swap1\n      pop\n      jump\t// out\n\n    auxdata: 0xa2646970667358221220b9dfa86e291969a113613525f9d36b3aeaf3f487c47ca315cb9a56cc07d021d264736f6c63430008110033\n}\n",
				"bytecode": {
					"linkReferences": {},
					"object": "60806040526001805460ff60a01b1916905534801561001d57600080fd5b50610c468061002d6000396000f3fe608060405234801561001057600080fd5b50600436106100f55760003560e01c806386212b8f11610097578063b09f126611610066578063b09f12661461021e578063d28d885214610247578063d3aceae214610280578063dc287c7e146102a057600080fd5b806386212b8f146101a45780638da5cb5b146101cd57806394bf804d146101f8578063a9059cbb1461020b57600080fd5b80632f0e3120116100d35780632f0e31201461014b5780633eaaf86b14610163578063469519541461016b57806352d1902d1461017e57600080fd5b8063095ea7b3146100fa578063158ef93e1461010f57806323b872dd14610138575b600080fd5b61010d610108366004610a67565b6102b3565b005b60015461012390600160a01b900460ff1681565b60405190151581526020015b60405180910390f35b61010d610146366004610a91565b6103ba565b670de0b6b3a76400005b60405190815260200161012f565b612710610155565b61010d610179366004610acd565b6105a8565b7fc5f16f0fcc639fa48a6947836d9850f504798523bf8c9a3a87d5876cf622bcf7610155565b6101556101b2366004610acd565b6001600160a01b031660009081526002602052604090205490565b6001546101e0906001600160a01b031681565b6040516001600160a01b03909116815260200161012f565b610155610206366004610aef565b61060e565b61010d610219366004610a67565b6107b3565b6040805180820190915260048152634549504960e01b60208201525b60405161012f9190610b1b565b60408051808201909152601781527f4549502d3138323220496d706c656d656e746174696f6e000000000000000000602082015261023a565b61015561028e366004610acd565b60026020526000908152604090205481565b6101556102ae366004610b69565b610913565b3360008181526002602052604090205482908181101561030f5760405162461bcd60e51b8152602060048201526012602482015271496e73756666696369656e742066756e647360701b60448201526064015b60405180910390fd5b6001600160a01b03851661032257600080fd5b3360009081526003602090815260408083206001600160a01b038916845290915281205490819003610379573360009081526003602090815260408083206001600160a01b038a16845290915290208590556103b2565b3360009081526003602090815260408083206001600160a01b038a168452909152812080548792906103ac908490610b98565b90915550505b505050505050565b828160006103dd836001600160a01b031660009081526002602052604090205490565b9050818110156104245760405162461bcd60e51b8152602060048201526012602482015271496e73756666696369656e742066756e647360701b6044820152606401610306565b6001600160a01b038516331461047c5760405162461bcd60e51b815260206004820152601760248201527f4e6f7420616e20617070726f766564207370656e6465720000000000000000006044820152606401610306565b6001600160a01b03808716600090815260036020908152604080832093891683529290522054848110156104e95760405162461bcd60e51b81526020600482015260146024820152736e6f20616c6c6f77616e636520666f7220796f7560601b6044820152606401610306565b60006104f48661092c565b905060006105028288610bab565b6001600160a01b03808b166000908152600360209081526040808320938d1683529290529081208054929350839290919061053e908490610bab565b90915550506001600160a01b0389166000908152600260205260408120805489929061056b908490610bab565b90915550506001600160a01b03881660009081526002602052604081208054899290610598908490610b98565b9091555050505050505050505050565b6001546001600160a01b031633146106025760405162461bcd60e51b815260206004820152601d60248201527f4e6f207065726d697373696f6e2065786365707420746f206f776e65720000006044820152606401610306565b61060b81610966565b50565b6001546000906001600160a01b0316331461066b5760405162461bcd60e51b815260206004820152601d60248201527f4e6f207065726d697373696f6e2065786365707420746f206f776e65720000006044820152606401610306565b8260008082825461067c9190610b98565b909155505060005461271010156106d55760405162461bcd60e51b815260206004820152601e60248201527f546f74616c20737570706c79206f6620746f6b656e20657863656564656400006044820152606401610306565b6001600160a01b0382166107225760405162461bcd60e51b81526020600482015260146024820152736d696e7420746f2061646472657373207a65726f60601b6044820152606401610306565b6000610736670de0b6b3a764000085610bbe565b6001600160a01b038416600090815260026020526040812080549293508392909190610763908490610b98565b9091555050604080516001600160a01b0385168152602081018390527feef892aa26c4762fad30f87b912a95ed5b6ff48d8ea3521783c84679e23d2ae2910160405180910390a190505b92915050565b6001600160a01b0382166108005760405162461bcd60e51b81526020600482015260146024820152736d696e7420746f2061646472657373207a65726f60601b6044820152606401610306565b33600090815260026020526040902054818110156108545760405162461bcd60e51b8152602060048201526011602482015270125b9cdd59999a58da595b9d08199d5b99607a1b6044820152606401610306565b600061085f8361092c565b9050600061086d8285610bab565b33600090815260026020526040812080549293508692909190610891908490610bab565b90915550506001600160a01b038516600090815260026020526040812080548392906108be908490610b98565b9091555050604080513381526001600160a01b03871660208201529081018590527f30e0789ed23094f42b5810cbdf4e48a0478aec0b37810e24e912443dd0032b3c9060600160405180910390a15050505050565b6000606461092283600a610bbe565b6107ad9190610bd5565b600061093782610913565b905061094b670de0b6b3a764000082610bd5565b60008082825461095b9190610bab565b909155509092915050565b806001600160a01b03166352d1902d6040518163ffffffff1660e01b8152600401602060405180830381865afa1580156109a4573d6000803e3d6000fd5b505050506040513d601f19601f820116820180604052508101906109c89190610bf7565b7fc5f16f0fcc639fa48a6947836d9850f504798523bf8c9a3a87d5876cf622bcf714610a275760405162461bcd60e51b815260206004820152600e60248201526d4e6f7420636f6d70617469626c6560901b6044820152606401610306565b7fc5f16f0fcc639fa48a6947836d9850f504798523bf8c9a3a87d5876cf622bcf755565b80356001600160a01b0381168114610a6257600080fd5b919050565b60008060408385031215610a7a57600080fd5b610a8383610a4b565b946020939093013593505050565b600080600060608486031215610aa657600080fd5b610aaf84610a4b565b9250610abd60208501610a4b565b9150604084013590509250925092565b600060208284031215610adf57600080fd5b610ae882610a4b565b9392505050565b60008060408385031215610b0257600080fd5b82359150610b1260208401610a4b565b90509250929050565b600060208083528351808285015260005b81811015610b4857858101830151858201604001528201610b2c565b506000604082860101526040601f19601f8301168501019250505092915050565b600060208284031215610b7b57600080fd5b5035919050565b634e487b7160e01b600052601160045260246000fd5b808201808211156107ad576107ad610b82565b818103818111156107ad576107ad610b82565b80820281158282048414176107ad576107ad610b82565b600082610bf257634e487b7160e01b600052601260045260246000fd5b500490565b600060208284031215610c0957600080fd5b505191905056fea2646970667358221220b9dfa86e291969a113613525f9d36b3aeaf3f487c47ca315cb9a56cc07d021d264736f6c63430008110033",
					"opcodes": "PUSH1 0x80 PUSH1 0x40 MSTORE PUSH1 0x1 DUP1 SLOAD PUSH1 0xFF PUSH1 0xA0 SHL NOT AND SWAP1 SSTORE CALLVALUE DUP1 ISZERO PUSH2 0x1D JUMPI PUSH1 0x0 DUP1 REVERT JUMPDEST POP PUSH2 0xC46 DUP1 PUSH2 0x2D PUSH1 0x0 CODECOPY PUSH1 0x0 RETURN INVALID PUSH1 0x80 PUSH1 0x40 MSTORE CALLVALUE DUP1 ISZERO PUSH2 0x10 JUMPI PUSH1 0x0 DUP1 REVERT JUMPDEST POP PUSH1 0x4 CALLDATASIZE LT PUSH2 0xF5 JUMPI PUSH1 0x0 CALLDATALOAD PUSH1 0xE0 SHR DUP1 PUSH4 0x86212B8F GT PUSH2 0x97 JUMPI DUP1 PUSH4 0xB09F1266 GT PUSH2 0x66 JUMPI DUP1 PUSH4 0xB09F1266 EQ PUSH2 0x21E JUMPI DUP1 PUSH4 0xD28D8852 EQ PUSH2 0x247 JUMPI DUP1 PUSH4 0xD3ACEAE2 EQ PUSH2 0x280 JUMPI DUP1 PUSH4 0xDC287C7E EQ PUSH2 0x2A0 JUMPI PUSH1 0x0 DUP1 REVERT JUMPDEST DUP1 PUSH4 0x86212B8F EQ PUSH2 0x1A4 JUMPI DUP1 PUSH4 0x8DA5CB5B EQ PUSH2 0x1CD JUMPI DUP1 PUSH4 0x94BF804D EQ PUSH2 0x1F8 JUMPI DUP1 PUSH4 0xA9059CBB EQ PUSH2 0x20B JUMPI PUSH1 0x0 DUP1 REVERT JUMPDEST DUP1 PUSH4 0x2F0E3120 GT PUSH2 0xD3 JUMPI DUP1 PUSH4 0x2F0E3120 EQ PUSH2 0x14B JUMPI DUP1 PUSH4 0x3EAAF86B EQ PUSH2 0x163 JUMPI DUP1 PUSH4 0x46951954 EQ PUSH2 0x16B JUMPI DUP1 PUSH4 0x52D1902D EQ PUSH2 0x17E JUMPI PUSH1 0x0 DUP1 REVERT JUMPDEST DUP1 PUSH4 0x95EA7B3 EQ PUSH2 0xFA JUMPI DUP1 PUSH4 0x158EF93E EQ PUSH2 0x10F JUMPI DUP1 PUSH4 0x23B872DD EQ PUSH2 0x138 JUMPI JUMPDEST PUSH1 0x0 DUP1 REVERT JUMPDEST PUSH2 0x10D PUSH2 0x108 CALLDATASIZE PUSH1 0x4 PUSH2 0xA67 JUMP JUMPDEST PUSH2 0x2B3 JUMP JUMPDEST STOP JUMPDEST PUSH1 0x1 SLOAD PUSH2 0x123 SWAP1 PUSH1 0x1 PUSH1 0xA0 SHL SWAP1 DIV PUSH1 0xFF AND DUP2 JUMP JUMPDEST PUSH1 0x40 MLOAD SWAP1 ISZERO ISZERO DUP2 MSTORE PUSH1 0x20 ADD JUMPDEST PUSH1 0x40 MLOAD DUP1 SWAP2 SUB SWAP1 RETURN JUMPDEST PUSH2 0x10D PUSH2 0x146 CALLDATASIZE PUSH1 0x4 PUSH2 0xA91 JUMP JUMPDEST PUSH2 0x3BA JUMP JUMPDEST PUSH8 0xDE0B6B3A7640000 JUMPDEST PUSH1 0x40 MLOAD SWAP1 DUP2 MSTORE PUSH1 0x20 ADD PUSH2 0x12F JUMP JUMPDEST PUSH2 0x2710 PUSH2 0x155 JUMP JUMPDEST PUSH2 0x10D PUSH2 0x179 CALLDATASIZE PUSH1 0x4 PUSH2 0xACD JUMP JUMPDEST PUSH2 0x5A8 JUMP JUMPDEST PUSH32 0xC5F16F0FCC639FA48A6947836D9850F504798523BF8C9A3A87D5876CF622BCF7 PUSH2 0x155 JUMP JUMPDEST PUSH2 0x155 PUSH2 0x1B2 CALLDATASIZE PUSH1 0x4 PUSH2 0xACD JUMP JUMPDEST PUSH1 0x1 PUSH1 0x1 PUSH1 0xA0 SHL SUB AND PUSH1 0x0 SWAP1 DUP2 MSTORE PUSH1 0x2 PUSH1 0x20 MSTORE PUSH1 0x40 SWAP1 KECCAK256 SLOAD SWAP1 JUMP JUMPDEST PUSH1 0x1 SLOAD PUSH2 0x1E0 SWAP1 PUSH1 0x1 PUSH1 0x1 PUSH1 0xA0 SHL SUB AND DUP2 JUMP JUMPDEST PUSH1 0x40 MLOAD PUSH1 0x1 PUSH1 0x1 PUSH1 0xA0 SHL SUB SWAP1 SWAP2 AND DUP2 MSTORE PUSH1 0x20 ADD PUSH2 0x12F JUMP JUMPDEST PUSH2 0x155 PUSH2 0x206 CALLDATASIZE PUSH1 0x4 PUSH2 0xAEF JUMP JUMPDEST PUSH2 0x60E JUMP JUMPDEST PUSH2 0x10D PUSH2 0x219 CALLDATASIZE PUSH1 0x4 PUSH2 0xA67 JUMP JUMPDEST PUSH2 0x7B3 JUMP JUMPDEST PUSH1 0x40 DUP1 MLOAD DUP1 DUP3 ADD SWAP1 SWAP2 MSTORE PUSH1 0x4 DUP2 MSTORE PUSH4 0x45495049 PUSH1 0xE0 SHL PUSH1 0x20 DUP3 ADD MSTORE JUMPDEST PUSH1 0x40 MLOAD PUSH2 0x12F SWAP2 SWAP1 PUSH2 0xB1B JUMP JUMPDEST PUSH1 0x40 DUP1 MLOAD DUP1 DUP3 ADD SWAP1 SWAP2 MSTORE PUSH1 0x17 DUP2 MSTORE PUSH32 0x4549502D3138323220496D706C656D656E746174696F6E000000000000000000 PUSH1 0x20 DUP3 ADD MSTORE PUSH2 0x23A JUMP JUMPDEST PUSH2 0x155 PUSH2 0x28E CALLDATASIZE PUSH1 0x4 PUSH2 0xACD JUMP JUMPDEST PUSH1 0x2 PUSH1 0x20 MSTORE PUSH1 0x0 SWAP1 DUP2 MSTORE PUSH1 0x40 SWAP1 KECCAK256 SLOAD DUP2 JUMP JUMPDEST PUSH2 0x155 PUSH2 0x2AE CALLDATASIZE PUSH1 0x4 PUSH2 0xB69 JUMP JUMPDEST PUSH2 0x913 JUMP JUMPDEST CALLER PUSH1 0x0 DUP2 DUP2 MSTORE PUSH1 0x2 PUSH1 0x20 MSTORE PUSH1 0x40 SWAP1 KECCAK256 SLOAD DUP3 SWAP1 DUP2 DUP2 LT ISZERO PUSH2 0x30F JUMPI PUSH1 0x40 MLOAD PUSH3 0x461BCD PUSH1 0xE5 SHL DUP2 MSTORE PUSH1 0x20 PUSH1 0x4 DUP3 ADD MSTORE PUSH1 0x12 PUSH1 0x24 DUP3 ADD MSTORE PUSH18 0x496E73756666696369656E742066756E6473 PUSH1 0x70 SHL PUSH1 0x44 DUP3 ADD MSTORE PUSH1 0x64 ADD JUMPDEST PUSH1 0x40 MLOAD DUP1 SWAP2 SUB SWAP1 REVERT JUMPDEST PUSH1 0x1 PUSH1 0x1 PUSH1 0xA0 SHL SUB DUP6 AND PUSH2 0x322 JUMPI PUSH1 0x0 DUP1 REVERT JUMPDEST CALLER PUSH1 0x0 SWAP1 DUP2 MSTORE PUSH1 0x3 PUSH1 0x20 SWAP1 DUP2 MSTORE PUSH1 0x40 DUP1 DUP4 KECCAK256 PUSH1 0x1 PUSH1 0x1 PUSH1 0xA0 SHL SUB DUP10 AND DUP5 MSTORE SWAP1 SWAP2 MSTORE DUP2 KECCAK256 SLOAD SWAP1 DUP2 SWAP1 SUB PUSH2 0x379 JUMPI CALLER PUSH1 0x0 SWAP1 DUP2 MSTORE PUSH1 0x3 PUSH1 0x20 SWAP1 DUP2 MSTORE PUSH1 0x40 DUP1 DUP4 KECCAK256 PUSH1 0x1 PUSH1 0x1 PUSH1 0xA0 SHL SUB DUP11 AND DUP5 MSTORE SWAP1 SWAP2 MSTORE SWAP1 KECCAK256 DUP6 SWAP1 SSTORE PUSH2 0x3B2 JUMP JUMPDEST CALLER PUSH1 0x0 SWAP1 DUP2 MSTORE PUSH1 0x3 PUSH1 0x20 SWAP1 DUP2 MSTORE PUSH1 0x40 DUP1 DUP4 KECCAK256 PUSH1 0x1 PUSH1 0x1 PUSH1 0xA0 SHL SUB DUP11 AND DUP5 MSTORE SWAP1 SWAP2 MSTORE DUP2 KECCAK256 DUP1 SLOAD DUP8 SWAP3 SWAP1 PUSH2 0x3AC SWAP1 DUP5 SWAP1 PUSH2 0xB98 JUMP JUMPDEST SWAP1 SWAP2 SSTORE POP POP JUMPDEST POP POP POP POP POP POP JUMP JUMPDEST DUP3 DUP2 PUSH1 0x0 PUSH2 0x3DD DUP4 PUSH1 0x1 PUSH1 0x1 PUSH1 0xA0 SHL SUB AND PUSH1 0x0 SWAP1 DUP2 MSTORE PUSH1 0x2 PUSH1 0x20 MSTORE PUSH1 0x40 SWAP1 KECCAK256 SLOAD SWAP1 JUMP JUMPDEST SWAP1 POP DUP2 DUP2 LT ISZERO PUSH2 0x424 JUMPI PUSH1 0x40 MLOAD PUSH3 0x461BCD PUSH1 0xE5 SHL DUP2 MSTORE PUSH1 0x20 PUSH1 0x4 DUP3 ADD MSTORE PUSH1 0x12 PUSH1 0x24 DUP3 ADD MSTORE PUSH18 0x496E73756666696369656E742066756E6473 PUSH1 0x70 SHL PUSH1 0x44 DUP3 ADD MSTORE PUSH1 0x64 ADD PUSH2 0x306 JUMP JUMPDEST PUSH1 0x1 PUSH1 0x1 PUSH1 0xA0 SHL SUB DUP6 AND CALLER EQ PUSH2 0x47C JUMPI PUSH1 0x40 MLOAD PUSH3 0x461BCD PUSH1 0xE5 SHL DUP2 MSTORE PUSH1 0x20 PUSH1 0x4 DUP3 ADD MSTORE PUSH1 0x17 PUSH1 0x24 DUP3 ADD MSTORE PUSH32 0x4E6F7420616E20617070726F766564207370656E646572000000000000000000 PUSH1 0x44 DUP3 ADD MSTORE PUSH1 0x64 ADD PUSH2 0x306 JUMP JUMPDEST PUSH1 0x1 PUSH1 0x1 PUSH1 0xA0 SHL SUB DUP1 DUP8 AND PUSH1 0x0 SWAP1 DUP2 MSTORE PUSH1 0x3 PUSH1 0x20 SWAP1 DUP2 MSTORE PUSH1 0x40 DUP1 DUP4 KECCAK256 SWAP4 DUP10 AND DUP4 MSTORE SWAP3 SWAP1 MSTORE KECCAK256 SLOAD DUP5 DUP2 LT ISZERO PUSH2 0x4E9 JUMPI PUSH1 0x40 MLOAD PUSH3 0x461BCD PUSH1 0xE5 SHL DUP2 MSTORE PUSH1 0x20 PUSH1 0x4 DUP3 ADD MSTORE PUSH1 0x14 PUSH1 0x24 DUP3 ADD MSTORE PUSH20 0x6E6F20616C6C6F77616E636520666F7220796F75 PUSH1 0x60 SHL PUSH1 0x44 DUP3 ADD MSTORE PUSH1 0x64 ADD PUSH2 0x306 JUMP JUMPDEST PUSH1 0x0 PUSH2 0x4F4 DUP7 PUSH2 0x92C JUMP JUMPDEST SWAP1 POP PUSH1 0x0 PUSH2 0x502 DUP3 DUP9 PUSH2 0xBAB JUMP JUMPDEST PUSH1 0x1 PUSH1 0x1 PUSH1 0xA0 SHL SUB DUP1 DUP12 AND PUSH1 0x0 SWAP1 DUP2 MSTORE PUSH1 0x3 PUSH1 0x20 SWAP1 DUP2 MSTORE PUSH1 0x40 DUP1 DUP4 KECCAK256 SWAP4 DUP14 AND DUP4 MSTORE SWAP3 SWAP1 MSTORE SWAP1 DUP2 KECCAK256 DUP1 SLOAD SWAP3 SWAP4 POP DUP4 SWAP3 SWAP1 SWAP2 SWAP1 PUSH2 0x53E SWAP1 DUP5 SWAP1 PUSH2 0xBAB JUMP JUMPDEST SWAP1 SWAP2 SSTORE POP POP PUSH1 0x1 PUSH1 0x1 PUSH1 0xA0 SHL SUB DUP10 AND PUSH1 0x0 SWAP1 DUP2 MSTORE PUSH1 0x2 PUSH1 0x20 MSTORE PUSH1 0x40 DUP2 KECCAK256 DUP1 SLOAD DUP10 SWAP3 SWAP1 PUSH2 0x56B SWAP1 DUP5 SWAP1 PUSH2 0xBAB JUMP JUMPDEST SWAP1 SWAP2 SSTORE POP POP PUSH1 0x1 PUSH1 0x1 PUSH1 0xA0 SHL SUB DUP9 AND PUSH1 0x0 SWAP1 DUP2 MSTORE PUSH1 0x2 PUSH1 0x20 MSTORE PUSH1 0x40 DUP2 KECCAK256 DUP1 SLOAD DUP10 SWAP3 SWAP1 PUSH2 0x598 SWAP1 DUP5 SWAP1 PUSH2 0xB98 JUMP JUMPDEST SWAP1 SWAP2 SSTORE POP POP POP POP POP POP POP POP POP POP POP JUMP JUMPDEST PUSH1 0x1 SLOAD PUSH1 0x1 PUSH1 0x1 PUSH1 0xA0 SHL SUB AND CALLER EQ PUSH2 0x602 JUMPI PUSH1 0x40 MLOAD PUSH3 0x461BCD PUSH1 0xE5 SHL DUP2 MSTORE PUSH1 0x20 PUSH1 0x4 DUP3 ADD MSTORE PUSH1 0x1D PUSH1 0x24 DUP3 ADD MSTORE PUSH32 0x4E6F207065726D697373696F6E2065786365707420746F206F776E6572000000 PUSH1 0x44 DUP3 ADD MSTORE PUSH1 0x64 ADD PUSH2 0x306 JUMP JUMPDEST PUSH2 0x60B DUP2 PUSH2 0x966 JUMP JUMPDEST POP JUMP JUMPDEST PUSH1 0x1 SLOAD PUSH1 0x0 SWAP1 PUSH1 0x1 PUSH1 0x1 PUSH1 0xA0 SHL SUB AND CALLER EQ PUSH2 0x66B JUMPI PUSH1 0x40 MLOAD PUSH3 0x461BCD PUSH1 0xE5 SHL DUP2 MSTORE PUSH1 0x20 PUSH1 0x4 DUP3 ADD MSTORE PUSH1 0x1D PUSH1 0x24 DUP3 ADD MSTORE PUSH32 0x4E6F207065726D697373696F6E2065786365707420746F206F776E6572000000 PUSH1 0x44 DUP3 ADD MSTORE PUSH1 0x64 ADD PUSH2 0x306 JUMP JUMPDEST DUP3 PUSH1 0x0 DUP1 DUP3 DUP3 SLOAD PUSH2 0x67C SWAP2 SWAP1 PUSH2 0xB98 JUMP JUMPDEST SWAP1 SWAP2 SSTORE POP POP PUSH1 0x0 SLOAD PUSH2 0x2710 LT ISZERO PUSH2 0x6D5 JUMPI PUSH1 0x40 MLOAD PUSH3 0x461BCD PUSH1 0xE5 SHL DUP2 MSTORE PUSH1 0x20 PUSH1 0x4 DUP3 ADD MSTORE PUSH1 0x1E PUSH1 0x24 DUP3 ADD MSTORE PUSH32 0x546F74616C20737570706C79206F6620746F6B656E2065786365656465640000 PUSH1 0x44 DUP3 ADD MSTORE PUSH1 0x64 ADD PUSH2 0x306 JUMP JUMPDEST PUSH1 0x1 PUSH1 0x1 PUSH1 0xA0 SHL SUB DUP3 AND PUSH2 0x722 JUMPI PUSH1 0x40 MLOAD PUSH3 0x461BCD PUSH1 0xE5 SHL DUP2 MSTORE PUSH1 0x20 PUSH1 0x4 DUP3 ADD MSTORE PUSH1 0x14 PUSH1 0x24 DUP3 ADD MSTORE PUSH20 0x6D696E7420746F2061646472657373207A65726F PUSH1 0x60 SHL PUSH1 0x44 DUP3 ADD MSTORE PUSH1 0x64 ADD PUSH2 0x306 JUMP JUMPDEST PUSH1 0x0 PUSH2 0x736 PUSH8 0xDE0B6B3A7640000 DUP6 PUSH2 0xBBE JUMP JUMPDEST PUSH1 0x1 PUSH1 0x1 PUSH1 0xA0 SHL SUB DUP5 AND PUSH1 0x0 SWAP1 DUP2 MSTORE PUSH1 0x2 PUSH1 0x20 MSTORE PUSH1 0x40 DUP2 KECCAK256 DUP1 SLOAD SWAP3 SWAP4 POP DUP4 SWAP3 SWAP1 SWAP2 SWAP1 PUSH2 0x763 SWAP1 DUP5 SWAP1 PUSH2 0xB98 JUMP JUMPDEST SWAP1 SWAP2 SSTORE POP POP PUSH1 0x40 DUP1 MLOAD PUSH1 0x1 PUSH1 0x1 PUSH1 0xA0 SHL SUB DUP6 AND DUP2 MSTORE PUSH1 0x20 DUP2 ADD DUP4 SWAP1 MSTORE PUSH32 0xEEF892AA26C4762FAD30F87B912A95ED5B6FF48D8EA3521783C84679E23D2AE2 SWAP2 ADD PUSH1 0x40 MLOAD DUP1 SWAP2 SUB SWAP1 LOG1 SWAP1 POP JUMPDEST SWAP3 SWAP2 POP POP JUMP JUMPDEST PUSH1 0x1 PUSH1 0x1 PUSH1 0xA0 SHL SUB DUP3 AND PUSH2 0x800 JUMPI PUSH1 0x40 MLOAD PUSH3 0x461BCD PUSH1 0xE5 SHL DUP2 MSTORE PUSH1 0x20 PUSH1 0x4 DUP3 ADD MSTORE PUSH1 0x14 PUSH1 0x24 DUP3 ADD MSTORE PUSH20 0x6D696E7420746F2061646472657373207A65726F PUSH1 0x60 SHL PUSH1 0x44 DUP3 ADD MSTORE PUSH1 0x64 ADD PUSH2 0x306 JUMP JUMPDEST CALLER PUSH1 0x0 SWAP1 DUP2 MSTORE PUSH1 0x2 PUSH1 0x20 MSTORE PUSH1 0x40 SWAP1 KECCAK256 SLOAD DUP2 DUP2 LT ISZERO PUSH2 0x854 JUMPI PUSH1 0x40 MLOAD PUSH3 0x461BCD PUSH1 0xE5 SHL DUP2 MSTORE PUSH1 0x20 PUSH1 0x4 DUP3 ADD MSTORE PUSH1 0x11 PUSH1 0x24 DUP3 ADD MSTORE PUSH17 0x125B9CDD59999A58DA595B9D08199D5B99 PUSH1 0x7A SHL PUSH1 0x44 DUP3 ADD MSTORE PUSH1 0x64 ADD PUSH2 0x306 JUMP JUMPDEST PUSH1 0x0 PUSH2 0x85F DUP4 PUSH2 0x92C JUMP JUMPDEST SWAP1 POP PUSH1 0x0 PUSH2 0x86D DUP3 DUP6 PUSH2 0xBAB JUMP JUMPDEST CALLER PUSH1 0x0 SWAP1 DUP2 MSTORE PUSH1 0x2 PUSH1 0x20 MSTORE PUSH1 0x40 DUP2 KECCAK256 DUP1 SLOAD SWAP3 SWAP4 POP DUP7 SWAP3 SWAP1 SWAP2 SWAP1 PUSH2 0x891 SWAP1 DUP5 SWAP1 PUSH2 0xBAB JUMP JUMPDEST SWAP1 SWAP2 SSTORE POP POP PUSH1 0x1 PUSH1 0x1 PUSH1 0xA0 SHL SUB DUP6 AND PUSH1 0x0 SWAP1 DUP2 MSTORE PUSH1 0x2 PUSH1 0x20 MSTORE PUSH1 0x40 DUP2 KECCAK256 DUP1 SLOAD DUP4 SWAP3 SWAP1 PUSH2 0x8BE SWAP1 DUP5 SWAP1 PUSH2 0xB98 JUMP JUMPDEST SWAP1 SWAP2 SSTORE POP POP PUSH1 0x40 DUP1 MLOAD CALLER DUP2 MSTORE PUSH1 0x1 PUSH1 0x1 PUSH1 0xA0 SHL SUB DUP8 AND PUSH1 0x20 DUP3 ADD MSTORE SWAP1 DUP2 ADD DUP6 SWAP1 MSTORE PUSH32 0x30E0789ED23094F42B5810CBDF4E48A0478AEC0B37810E24E912443DD0032B3C SWAP1 PUSH1 0x60 ADD PUSH1 0x40 MLOAD DUP1 SWAP2 SUB SWAP1 LOG1 POP POP POP POP POP JUMP JUMPDEST PUSH1 0x0 PUSH1 0x64 PUSH2 0x922 DUP4 PUSH1 0xA PUSH2 0xBBE JUMP JUMPDEST PUSH2 0x7AD SWAP2 SWAP1 PUSH2 0xBD5 JUMP JUMPDEST PUSH1 0x0 PUSH2 0x937 DUP3 PUSH2 0x913 JUMP JUMPDEST SWAP1 POP PUSH2 0x94B PUSH8 0xDE0B6B3A7640000 DUP3 PUSH2 0xBD5 JUMP JUMPDEST PUSH1 0x0 DUP1 DUP3 DUP3 SLOAD PUSH2 0x95B SWAP2 SWAP1 PUSH2 0xBAB JUMP JUMPDEST SWAP1 SWAP2 SSTORE POP SWAP1 SWAP3 SWAP2 POP POP JUMP JUMPDEST DUP1 PUSH1 0x1 PUSH1 0x1 PUSH1 0xA0 SHL SUB AND PUSH4 0x52D1902D PUSH1 0x40 MLOAD DUP2 PUSH4 0xFFFFFFFF AND PUSH1 0xE0 SHL DUP2 MSTORE PUSH1 0x4 ADD PUSH1 0x20 PUSH1 0x40 MLOAD DUP1 DUP4 SUB DUP2 DUP7 GAS STATICCALL ISZERO DUP1 ISZERO PUSH2 0x9A4 JUMPI RETURNDATASIZE PUSH1 0x0 DUP1 RETURNDATACOPY RETURNDATASIZE PUSH1 0x0 REVERT JUMPDEST POP POP POP POP PUSH1 0x40 MLOAD RETURNDATASIZE PUSH1 0x1F NOT PUSH1 0x1F DUP3 ADD AND DUP3 ADD DUP1 PUSH1 0x40 MSTORE POP DUP2 ADD SWAP1 PUSH2 0x9C8 SWAP2 SWAP1 PUSH2 0xBF7 JUMP JUMPDEST PUSH32 0xC5F16F0FCC639FA48A6947836D9850F504798523BF8C9A3A87D5876CF622BCF7 EQ PUSH2 0xA27 JUMPI PUSH1 0x40 MLOAD PUSH3 0x461BCD PUSH1 0xE5 SHL DUP2 MSTORE PUSH1 0x20 PUSH1 0x4 DUP3 ADD MSTORE PUSH1 0xE PUSH1 0x24 DUP3 ADD MSTORE PUSH14 0x4E6F7420636F6D70617469626C65 PUSH1 0x90 SHL PUSH1 0x44 DUP3 ADD MSTORE PUSH1 0x64 ADD PUSH2 0x306 JUMP JUMPDEST PUSH32 0xC5F16F0FCC639FA48A6947836D9850F504798523BF8C9A3A87D5876CF622BCF7 SSTORE JUMP JUMPDEST DUP1 CALLDATALOAD PUSH1 0x1 PUSH1 0x1 PUSH1 0xA0 SHL SUB DUP2 AND DUP2 EQ PUSH2 0xA62 JUMPI PUSH1 0x0 DUP1 REVERT JUMPDEST SWAP2 SWAP1 POP JUMP JUMPDEST PUSH1 0x0 DUP1 PUSH1 0x40 DUP4 DUP6 SUB SLT ISZERO PUSH2 0xA7A JUMPI PUSH1 0x0 DUP1 REVERT JUMPDEST PUSH2 0xA83 DUP4 PUSH2 0xA4B JUMP JUMPDEST SWAP5 PUSH1 0x20 SWAP4 SWAP1 SWAP4 ADD CALLDATALOAD SWAP4 POP POP POP JUMP JUMPDEST PUSH1 0x0 DUP1 PUSH1 0x0 PUSH1 0x60 DUP5 DUP7 SUB SLT ISZERO PUSH2 0xAA6 JUMPI PUSH1 0x0 DUP1 REVERT JUMPDEST PUSH2 0xAAF DUP5 PUSH2 0xA4B JUMP JUMPDEST SWAP3 POP PUSH2 0xABD PUSH1 0x20 DUP6 ADD PUSH2 0xA4B JUMP JUMPDEST SWAP2 POP PUSH1 0x40 DUP5 ADD CALLDATALOAD SWAP1 POP SWAP3 POP SWAP3 POP SWAP3 JUMP JUMPDEST PUSH1 0x0 PUSH1 0x20 DUP3 DUP5 SUB SLT ISZERO PUSH2 0xADF JUMPI PUSH1 0x0 DUP1 REVERT JUMPDEST PUSH2 0xAE8 DUP3 PUSH2 0xA4B JUMP JUMPDEST SWAP4 SWAP3 POP POP POP JUMP JUMPDEST PUSH1 0x0 DUP1 PUSH1 0x40 DUP4 DUP6 SUB SLT ISZERO PUSH2 0xB02 JUMPI PUSH1 0x0 DUP1 REVERT JUMPDEST DUP3 CALLDATALOAD SWAP2 POP PUSH2 0xB12 PUSH1 0x20 DUP5 ADD PUSH2 0xA4B JUMP JUMPDEST SWAP1 POP SWAP3 POP SWAP3 SWAP1 POP JUMP JUMPDEST PUSH1 0x0 PUSH1 0x20 DUP1 DUP4 MSTORE DUP4 MLOAD DUP1 DUP3 DUP6 ADD MSTORE PUSH1 0x0 JUMPDEST DUP2 DUP2 LT ISZERO PUSH2 0xB48 JUMPI DUP6 DUP2 ADD DUP4 ADD MLOAD DUP6 DUP3 ADD PUSH1 0x40 ADD MSTORE DUP3 ADD PUSH2 0xB2C JUMP JUMPDEST POP PUSH1 0x0 PUSH1 0x40 DUP3 DUP7 ADD ADD MSTORE PUSH1 0x40 PUSH1 0x1F NOT PUSH1 0x1F DUP4 ADD AND DUP6 ADD ADD SWAP3 POP POP POP SWAP3 SWAP2 POP POP JUMP JUMPDEST PUSH1 0x0 PUSH1 0x20 DUP3 DUP5 SUB SLT ISZERO PUSH2 0xB7B JUMPI PUSH1 0x0 DUP1 REVERT JUMPDEST POP CALLDATALOAD SWAP2 SWAP1 POP JUMP JUMPDEST PUSH4 0x4E487B71 PUSH1 0xE0 SHL PUSH1 0x0 MSTORE PUSH1 0x11 PUSH1 0x4 MSTORE PUSH1 0x24 PUSH1 0x0 REVERT JUMPDEST DUP1 DUP3 ADD DUP1 DUP3 GT ISZERO PUSH2 0x7AD JUMPI PUSH2 0x7AD PUSH2 0xB82 JUMP JUMPDEST DUP2 DUP2 SUB DUP2 DUP2 GT ISZERO PUSH2 0x7AD JUMPI PUSH2 0x7AD PUSH2 0xB82 JUMP JUMPDEST DUP1 DUP3 MUL DUP2 ISZERO DUP3 DUP3 DIV DUP5 EQ OR PUSH2 0x7AD JUMPI PUSH2 0x7AD PUSH2 0xB82 JUMP JUMPDEST PUSH1 0x0 DUP3 PUSH2 0xBF2 JUMPI PUSH4 0x4E487B71 PUSH1 0xE0 SHL PUSH1 0x0 MSTORE PUSH1 0x12 PUSH1 0x4 MSTORE PUSH1 0x24 PUSH1 0x0 REVERT JUMPDEST POP DIV SWAP1 JUMP JUMPDEST PUSH1 0x0 PUSH1 0x20 DUP3 DUP5 SUB SLT ISZERO PUSH2 0xC09 JUMPI PUSH1 0x0 DUP1 REVERT JUMPDEST POP MLOAD SWAP2 SWAP1 POP JUMP INVALID LOG2 PUSH5 0x6970667358 0x22 SLT KECCAK256 0xB9 0xDF 0xA8 PUSH15 0x291969A113613525F9D36B3AEAF3F4 DUP8 0xC4 PUSH29 0xA315CB9A56CC07D021D264736F6C634300081100330000000000000000 "
				},
				"gasEstimates": {
					"creation": {
						"codeDepositCost": "628400",
						"executionCost": "24888",
						"totalCost": "653288"
					},
					"external": {
						"_balance(address)": "2585",
						"_decimal()": "204",
						"_name()": "infinite",
						"_symbol()": "infinite",
						"_totalSupply()": "237",
						"approve(address,uint256)": "29346",
						"balanceOfAddress(address)": "2560",
						"calculateBurn(uint256)": "infinite",
						"initialized()": "2362",
						"mint(uint256,address)": "infinite",
						"owner()": "2382",
						"proxiableUUID()": "281",
						"transfer(address,uint256)": "infinite",
						"transferFrom(address,address,uint256)": "infinite",
						"updateCode(address)": "infinite"
					},
					"internal": {
						"_burn(uint256)": "infinite"
					}
				},
				"methodIdentifiers": {
					"_balance(address)": "d3aceae2",
					"_decimal()": "2f0e3120",
					"_name()": "d28d8852",
					"_symbol()": "b09f1266",
					"_totalSupply()": "3eaaf86b",
					"approve(address,uint256)": "095ea7b3",
					"balanceOfAddress(address)": "86212b8f",
					"calculateBurn(uint256)": "dc287c7e",
					"initialized()": "158ef93e",
					"mint(uint256,address)": "94bf804d",
					"owner()": "8da5cb5b",
					"proxiableUUID()": "52d1902d",
					"transfer(address,uint256)": "a9059cbb",
					"transferFrom(address,address,uint256)": "23b872dd",
					"updateCode(address)": "46951954"
				}
			},
			"storageLayout": {
				"storage": [
					{
						"astId": 9,
						"contract": "Upgradable E1P 1822/Implementation2.sol:Implementation2",
						"label": "circulatingSuppy",
						"offset": 0,
						"slot": "0",
						"type": "t_uint256"
					},
					{
						"astId": 20,
						"contract": "Upgradable E1P 1822/Implementation2.sol:Implementation2",
						"label": "owner",
						"offset": 0,
						"slot": "1",
						"type": "t_address"
					},
					{
						"astId": 23,
						"contract": "Upgradable E1P 1822/Implementation2.sol:Implementation2",
						"label": "initialized",
						"offset": 20,
						"slot": "1",
						"type": "t_bool"
					},
					{
						"astId": 27,
						"contract": "Upgradable E1P 1822/Implementation2.sol:Implementation2",
						"label": "_balance",
						"offset": 0,
						"slot": "2",
						"type": "t_mapping(t_address,t_uint256)"
					},
					{
						"astId": 33,
						"contract": "Upgradable E1P 1822/Implementation2.sol:Implementation2",
						"label": "_allowance",
						"offset": 0,
						"slot": "3",
						"type": "t_mapping(t_address,t_mapping(t_address,t_uint256))"
					}
				],
				"types": {
					"t_address": {
						"encoding": "inplace",
						"label": "address",
						"numberOfBytes": "20"
					},
					"t_bool": {
						"encoding": "inplace",
						"label": "bool",
						"numberOfBytes": "1"
					},
					"t_mapping(t_address,t_mapping(t_address,t_uint256))": {
						"encoding": "mapping",
						"key": "t_address",
						"label": "mapping(address => mapping(address => uint256))",
						"numberOfBytes": "32",
						"value": "t_mapping(t_address,t_uint256)"
					},
					"t_mapping(t_address,t_uint256)": {
						"encoding": "mapping",
						"key": "t_address",
						"label": "mapping(address => uint256)",
						"numberOfBytes": "32",
						"value": "t_uint256"
					},
					"t_uint256": {
						"encoding": "inplace",
						"label": "uint256",
						"numberOfBytes": "32"
					}
				}
			},
			"userdoc": {
				"kind": "user",
				"methods": {},
				"version": 1
			}
		}
	}
}