{
	"Upgradable E1P 1822/Implementation1.sol": {
		"Implementation1": {
			"abi": [
				{
					"anonymous": false,
					"inputs": [
						{
							"indexed": false,
							"internalType": "address",
							"name": "from",
							"type": "address"
						},
						{
							"indexed": false,
							"internalType": "address",
							"name": "to",
							"type": "address"
						},
						{
							"indexed": false,
							"internalType": "uint256",
							"name": "amount",
							"type": "uint256"
						}
					],
					"name": "_transfer",
					"type": "event"
				},
				{
					"anonymous": false,
					"inputs": [
						{
							"indexed": false,
							"internalType": "address",
							"name": "_to",
							"type": "address"
						},
						{
							"indexed": false,
							"internalType": "uint256",
							"name": "amount",
							"type": "uint256"
						}
					],
					"name": "tokenMint",
					"type": "event"
				},
				{
					"inputs": [
						{
							"internalType": "address",
							"name": "",
							"type": "address"
						}
					],
					"name": "_balance",
					"outputs": [
						{
							"internalType": "uint256",
							"name": "",
							"type": "uint256"
						}
					],
					"stateMutability": "view",
					"type": "function"
				},
				{
					"inputs": [
						{
							"internalType": "address",
							"name": "spender",
							"type": "address"
						},
						{
							"internalType": "uint256",
							"name": "amount",
							"type": "uint256"
						}
					],
					"name": "approve",
					"outputs": [],
					"stateMutability": "nonpayable",
					"type": "function"
				},
				{
					"inputs": [
						{
							"internalType": "address",
							"name": "who",
							"type": "address"
						}
					],
					"name": "balanceOfAddress",
					"outputs": [
						{
							"internalType": "uint256",
							"name": "",
							"type": "uint256"
						}
					],
					"stateMutability": "view",
					"type": "function"
				},
				{
					"inputs": [],
					"name": "initialized",
					"outputs": [
						{
							"internalType": "bool",
							"name": "",
							"type": "bool"
						}
					],
					"stateMutability": "view",
					"type": "function"
				},
				{
					"inputs": [
						{
							"internalType": "uint256",
							"name": "amount",
							"type": "uint256"
						},
						{
							"internalType": "address",
							"name": "_to",
							"type": "address"
						}
					],
					"name": "mint",
					"outputs": [
						{
							"internalType": "uint256",
							"name": "",
							"type": "uint256"
						}
					],
					"stateMutability": "nonpayable",
					"type": "function"
				},
				{
					"inputs": [],
					"name": "owner",
					"outputs": [
						{
							"internalType": "address",
							"name": "",
							"type": "address"
						}
					],
					"stateMutability": "view",
					"type": "function"
				},
				{
					"inputs": [],
					"name": "proxiableUUID",
					"outputs": [
						{
							"internalType": "bytes32",
							"name": "",
							"type": "bytes32"
						}
					],
					"stateMutability": "pure",
					"type": "function"
				},
				{
					"inputs": [
						{
							"internalType": "address",
							"name": "newCode",
							"type": "address"
						}
					],
					"name": "updateCode",
					"outputs": [],
					"stateMutability": "nonpayable",
					"type": "function"
				}
			],
			"devdoc": {
				"kind": "dev",
				"methods": {},
				"version": 1
			},
			"evm": {
				"assembly": "    /* \"Upgradable E1P 1822/Implementation1.sol\":90:2008  contract Implementation1 is Proxiable {... */\n  mstore(0x40, 0x80)\n    /* \"Upgradable E1P 1822/Implementation1.sol\":382:387  false */\n  0x00\n    /* \"Upgradable E1P 1822/Implementation1.sol\":356:387  bool public initialized = false */\n  0x01\n  exp(0x0100, 0x14)\n  dup2\n  sload\n  dup2\n  0xff\n  mul\n  not\n  and\n  swap1\n  dup4\n  iszero\n  iszero\n  mul\n  or\n  swap1\n  sstore\n  pop\n    /* \"Upgradable E1P 1822/Implementation1.sol\":90:2008  contract Implementation1 is Proxiable {... */\n  callvalue\n  dup1\n  iszero\n  tag_1\n  jumpi\n  0x00\n  dup1\n  revert\ntag_1:\n  pop\n  dataSize(sub_0)\n  dup1\n  dataOffset(sub_0)\n  0x00\n  codecopy\n  0x00\n  return\nstop\n\nsub_0: assembly {\n        /* \"Upgradable E1P 1822/Implementation1.sol\":90:2008  contract Implementation1 is Proxiable {... */\n      mstore(0x40, 0x80)\n      callvalue\n      dup1\n      iszero\n      tag_1\n      jumpi\n      0x00\n      dup1\n      revert\n    tag_1:\n      pop\n      jumpi(tag_2, lt(calldatasize, 0x04))\n      shr(0xe0, calldataload(0x00))\n      dup1\n      0x86212b8f\n      gt\n      tag_11\n      jumpi\n      dup1\n      0x86212b8f\n      eq\n      tag_7\n      jumpi\n      dup1\n      0x8da5cb5b\n      eq\n      tag_8\n      jumpi\n      dup1\n      0x94bf804d\n      eq\n      tag_9\n      jumpi\n      dup1\n      0xd3aceae2\n      eq\n      tag_10\n      jumpi\n      jump(tag_2)\n    tag_11:\n      dup1\n      0x095ea7b3\n      eq\n      tag_3\n      jumpi\n      dup1\n      0x158ef93e\n      eq\n      tag_4\n      jumpi\n      dup1\n      0x46951954\n      eq\n      tag_5\n      jumpi\n      dup1\n      0x52d1902d\n      eq\n      tag_6\n      jumpi\n    tag_2:\n      0x00\n      dup1\n      revert\n        /* \"Upgradable E1P 1822/Implementation1.sol\":1408:1742  function approve(address spender, uint amount)  external  checkBalance(msg.sender, amount) {... */\n    tag_3:\n      tag_12\n      0x04\n      dup1\n      calldatasize\n      sub\n      dup2\n      add\n      swap1\n      tag_13\n      swap2\n      swap1\n      tag_14\n      jump\t// in\n    tag_13:\n      tag_15\n      jump\t// in\n    tag_12:\n      stop\n        /* \"Upgradable E1P 1822/Implementation1.sol\":356:387  bool public initialized = false */\n    tag_4:\n      tag_16\n      tag_17\n      jump\t// in\n    tag_16:\n      mload(0x40)\n      tag_18\n      swap2\n      swap1\n      tag_19\n      jump\t// in\n    tag_18:\n      mload(0x40)\n      dup1\n      swap2\n      sub\n      swap1\n      return\n        /* \"Upgradable E1P 1822/Implementation1.sol\":1909:2006  function updateCode(address newCode) onlyOwner public {... */\n    tag_5:\n      tag_20\n      0x04\n      dup1\n      calldatasize\n      sub\n      dup2\n      add\n      swap1\n      tag_21\n      swap2\n      swap1\n      tag_22\n      jump\t// in\n    tag_21:\n      tag_23\n      jump\t// in\n    tag_20:\n      stop\n        /* \"Upgradable E1P 1822/Proxible.sol\":627:772  function proxiableUUID() public pure returns (bytes32) {... */\n    tag_6:\n      tag_24\n      tag_25\n      jump\t// in\n    tag_24:\n      mload(0x40)\n      tag_26\n      swap2\n      swap1\n      tag_27\n      jump\t// in\n    tag_26:\n      mload(0x40)\n      dup1\n      swap2\n      sub\n      swap1\n      return\n        /* \"Upgradable E1P 1822/Implementation1.sol\":1302:1402  function balanceOfAddress(address who) public view returns(uint) {... */\n    tag_7:\n      tag_28\n      0x04\n      dup1\n      calldatasize\n      sub\n      dup2\n      add\n      swap1\n      tag_29\n      swap2\n      swap1\n      tag_22\n      jump\t// in\n    tag_29:\n      tag_30\n      jump\t// in\n    tag_28:\n      mload(0x40)\n      tag_31\n      swap2\n      swap1\n      tag_32\n      jump\t// in\n    tag_31:\n      mload(0x40)\n      dup1\n      swap2\n      sub\n      swap1\n      return\n        /* \"Upgradable E1P 1822/Implementation1.sol\":330:350  address public owner */\n    tag_8:\n      tag_33\n      tag_34\n      jump\t// in\n    tag_33:\n      mload(0x40)\n      tag_35\n      swap2\n      swap1\n      tag_36\n      jump\t// in\n    tag_35:\n      mload(0x40)\n      dup1\n      swap2\n      sub\n      swap1\n      return\n        /* \"Upgradable E1P 1822/Implementation1.sol\":908:1294  function mint(uint amount, address _to) public onlyOwner returns(uint){... */\n    tag_9:\n      tag_37\n      0x04\n      dup1\n      calldatasize\n      sub\n      dup2\n      add\n      swap1\n      tag_38\n      swap2\n      swap1\n      tag_39\n      jump\t// in\n    tag_38:\n      tag_40\n      jump\t// in\n    tag_37:\n      mload(0x40)\n      tag_41\n      swap2\n      swap1\n      tag_32\n      jump\t// in\n    tag_41:\n      mload(0x40)\n      dup1\n      swap2\n      sub\n      swap1\n      return\n        /* \"Upgradable E1P 1822/Implementation1.sol\":394:434  mapping(address => uint) public _balance */\n    tag_10:\n      tag_42\n      0x04\n      dup1\n      calldatasize\n      sub\n      dup2\n      add\n      swap1\n      tag_43\n      swap2\n      swap1\n      tag_22\n      jump\t// in\n    tag_43:\n      tag_44\n      jump\t// in\n    tag_42:\n      mload(0x40)\n      tag_45\n      swap2\n      swap1\n      tag_32\n      jump\t// in\n    tag_45:\n      mload(0x40)\n      dup1\n      swap2\n      sub\n      swap1\n      return\n        /* \"Upgradable E1P 1822/Implementation1.sol\":1408:1742  function approve(address spender, uint amount)  external  checkBalance(msg.sender, amount) {... */\n    tag_15:\n        /* \"Upgradable E1P 1822/Implementation1.sol\":1479:1489  msg.sender */\n      caller\n        /* \"Upgradable E1P 1822/Implementation1.sol\":1491:1497  amount */\n      dup2\n        /* \"Upgradable E1P 1822/Implementation1.sol\":791:803  uint balance */\n      0x00\n        /* \"Upgradable E1P 1822/Implementation1.sol\":806:830  balanceOfAddress(_owner) */\n      tag_47\n        /* \"Upgradable E1P 1822/Implementation1.sol\":823:829  _owner */\n      dup4\n        /* \"Upgradable E1P 1822/Implementation1.sol\":806:822  balanceOfAddress */\n      tag_30\n        /* \"Upgradable E1P 1822/Implementation1.sol\":806:830  balanceOfAddress(_owner) */\n      jump\t// in\n    tag_47:\n        /* \"Upgradable E1P 1822/Implementation1.sol\":791:830  uint balance = balanceOfAddress(_owner) */\n      swap1\n      pop\n        /* \"Upgradable E1P 1822/Implementation1.sol\":857:863  amount */\n      dup2\n        /* \"Upgradable E1P 1822/Implementation1.sol\":846:853  balance */\n      dup2\n        /* \"Upgradable E1P 1822/Implementation1.sol\":846:863  balance >= amount */\n      lt\n      iszero\n        /* \"Upgradable E1P 1822/Implementation1.sol\":838:886  require(balance >= amount, \"Insufficient funds\") */\n      tag_48\n      jumpi\n      mload(0x40)\n      0x08c379a000000000000000000000000000000000000000000000000000000000\n      dup2\n      mstore\n      0x04\n      add\n      tag_49\n      swap1\n      tag_50\n      jump\t// in\n    tag_49:\n      mload(0x40)\n      dup1\n      swap2\n      sub\n      swap1\n      revert\n    tag_48:\n        /* \"Upgradable E1P 1822/Implementation1.sol\":1534:1535  0 */\n      0x00\n        /* \"Upgradable E1P 1822/Implementation1.sol\":1515:1536  spender != address(0) */\n      0xffffffffffffffffffffffffffffffffffffffff\n      and\n        /* \"Upgradable E1P 1822/Implementation1.sol\":1515:1522  spender */\n      dup6\n        /* \"Upgradable E1P 1822/Implementation1.sol\":1515:1536  spender != address(0) */\n      0xffffffffffffffffffffffffffffffffffffffff\n      and\n      sub\n        /* \"Upgradable E1P 1822/Implementation1.sol\":1507:1537  require(spender != address(0)) */\n      tag_52\n      jumpi\n      0x00\n      dup1\n      revert\n    tag_52:\n        /* \"Upgradable E1P 1822/Implementation1.sol\":1545:1555  uint allow */\n      0x00\n        /* \"Upgradable E1P 1822/Implementation1.sol\":1558:1568  _allowance */\n      0x03\n        /* \"Upgradable E1P 1822/Implementation1.sol\":1558:1580  _allowance[msg.sender] */\n      0x00\n        /* \"Upgradable E1P 1822/Implementation1.sol\":1569:1579  msg.sender */\n      caller\n        /* \"Upgradable E1P 1822/Implementation1.sol\":1558:1580  _allowance[msg.sender] */\n      0xffffffffffffffffffffffffffffffffffffffff\n      and\n      0xffffffffffffffffffffffffffffffffffffffff\n      and\n      dup2\n      mstore\n      0x20\n      add\n      swap1\n      dup2\n      mstore\n      0x20\n      add\n      0x00\n      keccak256\n        /* \"Upgradable E1P 1822/Implementation1.sol\":1558:1589  _allowance[msg.sender][spender] */\n      0x00\n        /* \"Upgradable E1P 1822/Implementation1.sol\":1581:1588  spender */\n      dup8\n        /* \"Upgradable E1P 1822/Implementation1.sol\":1558:1589  _allowance[msg.sender][spender] */\n      0xffffffffffffffffffffffffffffffffffffffff\n      and\n      0xffffffffffffffffffffffffffffffffffffffff\n      and\n      dup2\n      mstore\n      0x20\n      add\n      swap1\n      dup2\n      mstore\n      0x20\n      add\n      0x00\n      keccak256\n      sload\n        /* \"Upgradable E1P 1822/Implementation1.sol\":1545:1589  uint allow = _allowance[msg.sender][spender] */\n      swap1\n      pop\n        /* \"Upgradable E1P 1822/Implementation1.sol\":1609:1610  0 */\n      0x00\n        /* \"Upgradable E1P 1822/Implementation1.sol\":1600:1605  allow */\n      dup2\n        /* \"Upgradable E1P 1822/Implementation1.sol\":1600:1610  allow == 0 */\n      sub\n        /* \"Upgradable E1P 1822/Implementation1.sol\":1597:1736  if(allow == 0){... */\n      tag_53\n      jumpi\n        /* \"Upgradable E1P 1822/Implementation1.sol\":1655:1661  amount */\n      dup5\n        /* \"Upgradable E1P 1822/Implementation1.sol\":1621:1631  _allowance */\n      0x03\n        /* \"Upgradable E1P 1822/Implementation1.sol\":1621:1643  _allowance[msg.sender] */\n      0x00\n        /* \"Upgradable E1P 1822/Implementation1.sol\":1632:1642  msg.sender */\n      caller\n        /* \"Upgradable E1P 1822/Implementation1.sol\":1621:1643  _allowance[msg.sender] */\n      0xffffffffffffffffffffffffffffffffffffffff\n      and\n      0xffffffffffffffffffffffffffffffffffffffff\n      and\n      dup2\n      mstore\n      0x20\n      add\n      swap1\n      dup2\n      mstore\n      0x20\n      add\n      0x00\n      keccak256\n        /* \"Upgradable E1P 1822/Implementation1.sol\":1621:1653  _allowance[msg.sender] [spender] */\n      0x00\n        /* \"Upgradable E1P 1822/Implementation1.sol\":1645:1652  spender */\n      dup9\n        /* \"Upgradable E1P 1822/Implementation1.sol\":1621:1653  _allowance[msg.sender] [spender] */\n      0xffffffffffffffffffffffffffffffffffffffff\n      and\n      0xffffffffffffffffffffffffffffffffffffffff\n      and\n      dup2\n      mstore\n      0x20\n      add\n      swap1\n      dup2\n      mstore\n      0x20\n      add\n      0x00\n      keccak256\n        /* \"Upgradable E1P 1822/Implementation1.sol\":1621:1661  _allowance[msg.sender] [spender]= amount */\n      dup2\n      swap1\n      sstore\n      pop\n        /* \"Upgradable E1P 1822/Implementation1.sol\":1597:1736  if(allow == 0){... */\n      jump(tag_54)\n    tag_53:\n        /* \"Upgradable E1P 1822/Implementation1.sol\":1721:1727  amount */\n      dup5\n        /* \"Upgradable E1P 1822/Implementation1.sol\":1686:1696  _allowance */\n      0x03\n        /* \"Upgradable E1P 1822/Implementation1.sol\":1686:1708  _allowance[msg.sender] */\n      0x00\n        /* \"Upgradable E1P 1822/Implementation1.sol\":1697:1707  msg.sender */\n      caller\n        /* \"Upgradable E1P 1822/Implementation1.sol\":1686:1708  _allowance[msg.sender] */\n      0xffffffffffffffffffffffffffffffffffffffff\n      and\n      0xffffffffffffffffffffffffffffffffffffffff\n      and\n      dup2\n      mstore\n      0x20\n      add\n      swap1\n      dup2\n      mstore\n      0x20\n      add\n      0x00\n      keccak256\n        /* \"Upgradable E1P 1822/Implementation1.sol\":1686:1717  _allowance[msg.sender][spender] */\n      0x00\n        /* \"Upgradable E1P 1822/Implementation1.sol\":1709:1716  spender */\n      dup9\n        /* \"Upgradable E1P 1822/Implementation1.sol\":1686:1717  _allowance[msg.sender][spender] */\n      0xffffffffffffffffffffffffffffffffffffffff\n      and\n      0xffffffffffffffffffffffffffffffffffffffff\n      and\n      dup2\n      mstore\n      0x20\n      add\n      swap1\n      dup2\n      mstore\n      0x20\n      add\n      0x00\n      keccak256\n      0x00\n        /* \"Upgradable E1P 1822/Implementation1.sol\":1686:1727  _allowance[msg.sender][spender] += amount */\n      dup3\n      dup3\n      sload\n      tag_55\n      swap2\n      swap1\n      tag_56\n      jump\t// in\n    tag_55:\n      swap3\n      pop\n      pop\n      dup2\n      swap1\n      sstore\n      pop\n        /* \"Upgradable E1P 1822/Implementation1.sol\":1597:1736  if(allow == 0){... */\n    tag_54:\n        /* \"Upgradable E1P 1822/Implementation1.sol\":1499:1742  {... */\n      pop\n        /* \"Upgradable E1P 1822/Implementation1.sol\":783:902  {... */\n      pop\n        /* \"Upgradable E1P 1822/Implementation1.sol\":1408:1742  function approve(address spender, uint amount)  external  checkBalance(msg.sender, amount) {... */\n      pop\n      pop\n      pop\n      pop\n      jump\t// out\n        /* \"Upgradable E1P 1822/Implementation1.sol\":356:387  bool public initialized = false */\n    tag_17:\n      0x01\n      0x14\n      swap1\n      sload\n      swap1\n      0x0100\n      exp\n      swap1\n      div\n      0xff\n      and\n      dup2\n      jump\t// out\n        /* \"Upgradable E1P 1822/Implementation1.sol\":1909:2006  function updateCode(address newCode) onlyOwner public {... */\n    tag_23:\n        /* \"Upgradable E1P 1822/Implementation1.sol\":658:668  msg.sender */\n      caller\n        /* \"Upgradable E1P 1822/Implementation1.sol\":649:668  owner == msg.sender */\n      0xffffffffffffffffffffffffffffffffffffffff\n      and\n        /* \"Upgradable E1P 1822/Implementation1.sol\":649:654  owner */\n      0x01\n      0x00\n      swap1\n      sload\n      swap1\n      0x0100\n      exp\n      swap1\n      div\n      0xffffffffffffffffffffffffffffffffffffffff\n      and\n        /* \"Upgradable E1P 1822/Implementation1.sol\":649:668  owner == msg.sender */\n      0xffffffffffffffffffffffffffffffffffffffff\n      and\n      eq\n        /* \"Upgradable E1P 1822/Implementation1.sol\":641:702  require(owner == msg.sender, \"No permission except to owner\") */\n      tag_58\n      jumpi\n      mload(0x40)\n      0x08c379a000000000000000000000000000000000000000000000000000000000\n      dup2\n      mstore\n      0x04\n      add\n      tag_59\n      swap1\n      tag_60\n      jump\t// in\n    tag_59:\n      mload(0x40)\n      dup1\n      swap2\n      sub\n      swap1\n      revert\n    tag_58:\n        /* \"Upgradable E1P 1822/Implementation1.sol\":1973:1999  updateCodeAddress(newCode) */\n      tag_62\n        /* \"Upgradable E1P 1822/Implementation1.sol\":1991:1998  newCode */\n      dup2\n        /* \"Upgradable E1P 1822/Implementation1.sol\":1973:1990  updateCodeAddress */\n      tag_63\n        /* \"Upgradable E1P 1822/Implementation1.sol\":1973:1999  updateCodeAddress(newCode) */\n      jump\t// in\n    tag_62:\n        /* \"Upgradable E1P 1822/Implementation1.sol\":1909:2006  function updateCode(address newCode) onlyOwner public {... */\n      pop\n      jump\t// out\n        /* \"Upgradable E1P 1822/Proxible.sol\":627:772  function proxiableUUID() public pure returns (bytes32) {... */\n    tag_25:\n        /* \"Upgradable E1P 1822/Proxible.sol\":673:680  bytes32 */\n      0x00\n        /* \"Upgradable E1P 1822/Proxible.sol\":699:765  0xc5f16f0fcc639fa48a6947836d9850f504798523bf8c9a3a87d5876cf622bcf7 */\n      0xc5f16f0fcc639fa48a6947836d9850f504798523bf8c9a3a87d5876cf622bcf7\n        /* \"Upgradable E1P 1822/Proxible.sol\":692:765  return 0xc5f16f0fcc639fa48a6947836d9850f504798523bf8c9a3a87d5876cf622bcf7 */\n      0x00\n      shl\n      swap1\n      pop\n        /* \"Upgradable E1P 1822/Proxible.sol\":627:772  function proxiableUUID() public pure returns (bytes32) {... */\n      swap1\n      jump\t// out\n        /* \"Upgradable E1P 1822/Implementation1.sol\":1302:1402  function balanceOfAddress(address who) public view returns(uint) {... */\n    tag_30:\n        /* \"Upgradable E1P 1822/Implementation1.sol\":1361:1365  uint */\n      0x00\n        /* \"Upgradable E1P 1822/Implementation1.sol\":1382:1390  _balance */\n      0x02\n        /* \"Upgradable E1P 1822/Implementation1.sol\":1382:1395  _balance[who] */\n      0x00\n        /* \"Upgradable E1P 1822/Implementation1.sol\":1391:1394  who */\n      dup4\n        /* \"Upgradable E1P 1822/Implementation1.sol\":1382:1395  _balance[who] */\n      0xffffffffffffffffffffffffffffffffffffffff\n      and\n      0xffffffffffffffffffffffffffffffffffffffff\n      and\n      dup2\n      mstore\n      0x20\n      add\n      swap1\n      dup2\n      mstore\n      0x20\n      add\n      0x00\n      keccak256\n      sload\n        /* \"Upgradable E1P 1822/Implementation1.sol\":1375:1395  return _balance[who] */\n      swap1\n      pop\n        /* \"Upgradable E1P 1822/Implementation1.sol\":1302:1402  function balanceOfAddress(address who) public view returns(uint) {... */\n      swap2\n      swap1\n      pop\n      jump\t// out\n        /* \"Upgradable E1P 1822/Implementation1.sol\":330:350  address public owner */\n    tag_34:\n      0x01\n      0x00\n      swap1\n      sload\n      swap1\n      0x0100\n      exp\n      swap1\n      div\n      0xffffffffffffffffffffffffffffffffffffffff\n      and\n      dup2\n      jump\t// out\n        /* \"Upgradable E1P 1822/Implementation1.sol\":908:1294  function mint(uint amount, address _to) public onlyOwner returns(uint){... */\n    tag_40:\n        /* \"Upgradable E1P 1822/Implementation1.sol\":973:977  uint */\n      0x00\n        /* \"Upgradable E1P 1822/Implementation1.sol\":658:668  msg.sender */\n      caller\n        /* \"Upgradable E1P 1822/Implementation1.sol\":649:668  owner == msg.sender */\n      0xffffffffffffffffffffffffffffffffffffffff\n      and\n        /* \"Upgradable E1P 1822/Implementation1.sol\":649:654  owner */\n      0x01\n      0x00\n      swap1\n      sload\n      swap1\n      0x0100\n      exp\n      swap1\n      div\n      0xffffffffffffffffffffffffffffffffffffffff\n      and\n        /* \"Upgradable E1P 1822/Implementation1.sol\":649:668  owner == msg.sender */\n      0xffffffffffffffffffffffffffffffffffffffff\n      and\n      eq\n        /* \"Upgradable E1P 1822/Implementation1.sol\":641:702  require(owner == msg.sender, \"No permission except to owner\") */\n      tag_67\n      jumpi\n      mload(0x40)\n      0x08c379a000000000000000000000000000000000000000000000000000000000\n      dup2\n      mstore\n      0x04\n      add\n      tag_68\n      swap1\n      tag_60\n      jump\t// in\n    tag_68:\n      mload(0x40)\n      dup1\n      swap2\n      sub\n      swap1\n      revert\n    tag_67:\n        /* \"Upgradable E1P 1822/Implementation1.sol\":1008:1014  amount */\n      dup3\n        /* \"Upgradable E1P 1822/Implementation1.sol\":988:1004  circulatingSuppy */\n      0x00\n      dup1\n        /* \"Upgradable E1P 1822/Implementation1.sol\":988:1014  circulatingSuppy += amount */\n      dup3\n      dup3\n      sload\n      tag_70\n      swap2\n      swap1\n      tag_56\n      jump\t// in\n    tag_70:\n      swap3\n      pop\n      pop\n      dup2\n      swap1\n      sstore\n      pop\n        /* \"Upgradable E1P 1822/Implementation1.sol\":167:172  10000 */\n      0x2710\n        /* \"Upgradable E1P 1822/Implementation1.sol\":1032:1048  circulatingSuppy */\n      sload(0x00)\n        /* \"Upgradable E1P 1822/Implementation1.sol\":1032:1063  circulatingSuppy <= totalSupply */\n      gt\n      iszero\n        /* \"Upgradable E1P 1822/Implementation1.sol\":1024:1098  require(circulatingSuppy <= totalSupply, \"Total supply of token exceeded\") */\n      tag_71\n      jumpi\n      mload(0x40)\n      0x08c379a000000000000000000000000000000000000000000000000000000000\n      dup2\n      mstore\n      0x04\n      add\n      tag_72\n      swap1\n      tag_73\n      jump\t// in\n    tag_72:\n      mload(0x40)\n      dup1\n      swap2\n      sub\n      swap1\n      revert\n    tag_71:\n        /* \"Upgradable E1P 1822/Implementation1.sol\":1131:1132  0 */\n      0x00\n        /* \"Upgradable E1P 1822/Implementation1.sol\":1116:1133  _to != address(0) */\n      0xffffffffffffffffffffffffffffffffffffffff\n      and\n        /* \"Upgradable E1P 1822/Implementation1.sol\":1116:1119  _to */\n      dup3\n        /* \"Upgradable E1P 1822/Implementation1.sol\":1116:1133  _to != address(0) */\n      0xffffffffffffffffffffffffffffffffffffffff\n      and\n      sub\n        /* \"Upgradable E1P 1822/Implementation1.sol\":1108:1158  require(_to != address(0), \"mint to address zero\") */\n      tag_74\n      jumpi\n      mload(0x40)\n      0x08c379a000000000000000000000000000000000000000000000000000000000\n      dup2\n      mstore\n      0x04\n      add\n      tag_75\n      swap1\n      tag_76\n      jump\t// in\n    tag_75:\n      mload(0x40)\n      dup1\n      swap2\n      sub\n      swap1\n      revert\n    tag_74:\n        /* \"Upgradable E1P 1822/Implementation1.sol\":1168:1178  uint value */\n      0x00\n        /* \"Upgradable E1P 1822/Implementation1.sol\":320:324  1e18 */\n      0x0de0b6b3a7640000\n        /* \"Upgradable E1P 1822/Implementation1.sol\":1181:1187  amount */\n      dup5\n        /* \"Upgradable E1P 1822/Implementation1.sol\":1181:1197  amount * decimal */\n      tag_77\n      swap2\n      swap1\n      tag_78\n      jump\t// in\n    tag_77:\n        /* \"Upgradable E1P 1822/Implementation1.sol\":1168:1197  uint value = amount * decimal */\n      swap1\n      pop\n        /* \"Upgradable E1P 1822/Implementation1.sol\":1224:1229  value */\n      dup1\n        /* \"Upgradable E1P 1822/Implementation1.sol\":1207:1215  _balance */\n      0x02\n        /* \"Upgradable E1P 1822/Implementation1.sol\":1207:1220  _balance[_to] */\n      0x00\n        /* \"Upgradable E1P 1822/Implementation1.sol\":1216:1219  _to */\n      dup6\n        /* \"Upgradable E1P 1822/Implementation1.sol\":1207:1220  _balance[_to] */\n      0xffffffffffffffffffffffffffffffffffffffff\n      and\n      0xffffffffffffffffffffffffffffffffffffffff\n      and\n      dup2\n      mstore\n      0x20\n      add\n      swap1\n      dup2\n      mstore\n      0x20\n      add\n      0x00\n      keccak256\n      0x00\n        /* \"Upgradable E1P 1822/Implementation1.sol\":1207:1229  _balance[_to] += value */\n      dup3\n      dup3\n      sload\n      tag_79\n      swap2\n      swap1\n      tag_56\n      jump\t// in\n    tag_79:\n      swap3\n      pop\n      pop\n      dup2\n      swap1\n      sstore\n      pop\n        /* \"Upgradable E1P 1822/Implementation1.sol\":1244:1265  tokenMint(_to, value) */\n      0xeef892aa26c4762fad30f87b912a95ed5b6ff48d8ea3521783c84679e23d2ae2\n        /* \"Upgradable E1P 1822/Implementation1.sol\":1254:1257  _to */\n      dup4\n        /* \"Upgradable E1P 1822/Implementation1.sol\":1259:1264  value */\n      dup3\n        /* \"Upgradable E1P 1822/Implementation1.sol\":1244:1265  tokenMint(_to, value) */\n      mload(0x40)\n      tag_80\n      swap3\n      swap2\n      swap1\n      tag_81\n      jump\t// in\n    tag_80:\n      mload(0x40)\n      dup1\n      swap2\n      sub\n      swap1\n      log1\n        /* \"Upgradable E1P 1822/Implementation1.sol\":1282:1287  value */\n      dup1\n        /* \"Upgradable E1P 1822/Implementation1.sol\":1275:1287  return value */\n      swap2\n      pop\n      pop\n        /* \"Upgradable E1P 1822/Implementation1.sol\":908:1294  function mint(uint amount, address _to) public onlyOwner returns(uint){... */\n      swap3\n      swap2\n      pop\n      pop\n      jump\t// out\n        /* \"Upgradable E1P 1822/Implementation1.sol\":394:434  mapping(address => uint) public _balance */\n    tag_44:\n      mstore(0x20, 0x02)\n      dup1\n      0x00\n      mstore\n      keccak256(0x00, 0x40)\n      0x00\n      swap2\n      pop\n      swap1\n      pop\n      sload\n      dup2\n      jump\t// out\n        /* \"Upgradable E1P 1822/Proxible.sol\":220:621  function updateCodeAddress(address newAddress) internal {... */\n    tag_63:\n        /* \"Upgradable E1P 1822/Proxible.sol\":396:406  newAddress */\n      dup1\n        /* \"Upgradable E1P 1822/Proxible.sol\":386:421  Proxiable(newAddress).proxiableUUID */\n      0xffffffffffffffffffffffffffffffffffffffff\n      and\n      0x52d1902d\n        /* \"Upgradable E1P 1822/Proxible.sol\":386:423  Proxiable(newAddress).proxiableUUID() */\n      mload(0x40)\n      dup2\n      0xffffffff\n      and\n      0xe0\n      shl\n      dup2\n      mstore\n      0x04\n      add\n      0x20\n      mload(0x40)\n      dup1\n      dup4\n      sub\n      dup2\n      dup7\n      gas\n      staticcall\n      iszero\n      dup1\n      iszero\n      tag_84\n      jumpi\n      returndatasize\n      0x00\n      dup1\n      returndatacopy\n      revert(0x00, returndatasize)\n    tag_84:\n      pop\n      pop\n      pop\n      pop\n      mload(0x40)\n      returndatasize\n      not(0x1f)\n      0x1f\n      dup3\n      add\n      and\n      dup3\n      add\n      dup1\n      0x40\n      mstore\n      pop\n      dup2\n      add\n      swap1\n      tag_85\n      swap2\n      swap1\n      tag_86\n      jump\t// in\n    tag_85:\n        /* \"Upgradable E1P 1822/Proxible.sol\":315:381  0xc5f16f0fcc639fa48a6947836d9850f504798523bf8c9a3a87d5876cf622bcf7 */\n      0xc5f16f0fcc639fa48a6947836d9850f504798523bf8c9a3a87d5876cf622bcf7\n        /* \"Upgradable E1P 1822/Proxible.sol\":307:382  bytes32(0xc5f16f0fcc639fa48a6947836d9850f504798523bf8c9a3a87d5876cf622bcf7) */\n      0x00\n      shl\n        /* \"Upgradable E1P 1822/Proxible.sol\":307:423  bytes32(0xc5f16f0fcc639fa48a6947836d9850f504798523bf8c9a3a87d5876cf622bcf7) == Proxiable(newAddress).proxiableUUID() */\n      eq\n        /* \"Upgradable E1P 1822/Proxible.sol\":286:463  require(... */\n      tag_87\n      jumpi\n      mload(0x40)\n      0x08c379a000000000000000000000000000000000000000000000000000000000\n      dup2\n      mstore\n      0x04\n      add\n      tag_88\n      swap1\n      tag_89\n      jump\t// in\n    tag_88:\n      mload(0x40)\n      dup1\n      swap2\n      sub\n      swap1\n      revert\n    tag_87:\n        /* \"Upgradable E1P 1822/Proxible.sol\":594:604  newAddress */\n      dup1\n        /* \"Upgradable E1P 1822/Proxible.sol\":526:592  0xc5f16f0fcc639fa48a6947836d9850f504798523bf8c9a3a87d5876cf622bcf7 */\n      0xc5f16f0fcc639fa48a6947836d9850f504798523bf8c9a3a87d5876cf622bcf7\n        /* \"Upgradable E1P 1822/Proxible.sol\":519:605  sstore(0xc5f16f0fcc639fa48a6947836d9850f504798523bf8c9a3a87d5876cf622bcf7, newAddress) */\n      sstore\n        /* \"Upgradable E1P 1822/Proxible.sol\":220:621  function updateCodeAddress(address newAddress) internal {... */\n      pop\n      jump\t// out\n        /* \"#utility.yul\":88:205   */\n    tag_91:\n        /* \"#utility.yul\":197:198   */\n      0x00\n        /* \"#utility.yul\":194:195   */\n      dup1\n        /* \"#utility.yul\":187:199   */\n      revert\n        /* \"#utility.yul\":334:460   */\n    tag_93:\n        /* \"#utility.yul\":371:378   */\n      0x00\n        /* \"#utility.yul\":411:453   */\n      0xffffffffffffffffffffffffffffffffffffffff\n        /* \"#utility.yul\":404:409   */\n      dup3\n        /* \"#utility.yul\":400:454   */\n      and\n        /* \"#utility.yul\":389:454   */\n      swap1\n      pop\n        /* \"#utility.yul\":334:460   */\n      swap2\n      swap1\n      pop\n      jump\t// out\n        /* \"#utility.yul\":466:562   */\n    tag_94:\n        /* \"#utility.yul\":503:510   */\n      0x00\n        /* \"#utility.yul\":532:556   */\n      tag_126\n        /* \"#utility.yul\":550:555   */\n      dup3\n        /* \"#utility.yul\":532:556   */\n      tag_93\n      jump\t// in\n    tag_126:\n        /* \"#utility.yul\":521:556   */\n      swap1\n      pop\n        /* \"#utility.yul\":466:562   */\n      swap2\n      swap1\n      pop\n      jump\t// out\n        /* \"#utility.yul\":568:690   */\n    tag_95:\n        /* \"#utility.yul\":641:665   */\n      tag_128\n        /* \"#utility.yul\":659:664   */\n      dup2\n        /* \"#utility.yul\":641:665   */\n      tag_94\n      jump\t// in\n    tag_128:\n        /* \"#utility.yul\":634:639   */\n      dup2\n        /* \"#utility.yul\":631:666   */\n      eq\n        /* \"#utility.yul\":621:684   */\n      tag_129\n      jumpi\n        /* \"#utility.yul\":680:681   */\n      0x00\n        /* \"#utility.yul\":677:678   */\n      dup1\n        /* \"#utility.yul\":670:682   */\n      revert\n        /* \"#utility.yul\":621:684   */\n    tag_129:\n        /* \"#utility.yul\":568:690   */\n      pop\n      jump\t// out\n        /* \"#utility.yul\":696:835   */\n    tag_96:\n        /* \"#utility.yul\":742:747   */\n      0x00\n        /* \"#utility.yul\":780:786   */\n      dup2\n        /* \"#utility.yul\":767:787   */\n      calldataload\n        /* \"#utility.yul\":758:787   */\n      swap1\n      pop\n        /* \"#utility.yul\":796:829   */\n      tag_131\n        /* \"#utility.yul\":823:828   */\n      dup2\n        /* \"#utility.yul\":796:829   */\n      tag_95\n      jump\t// in\n    tag_131:\n        /* \"#utility.yul\":696:835   */\n      swap3\n      swap2\n      pop\n      pop\n      jump\t// out\n        /* \"#utility.yul\":841:918   */\n    tag_97:\n        /* \"#utility.yul\":878:885   */\n      0x00\n        /* \"#utility.yul\":907:912   */\n      dup2\n        /* \"#utility.yul\":896:912   */\n      swap1\n      pop\n        /* \"#utility.yul\":841:918   */\n      swap2\n      swap1\n      pop\n      jump\t// out\n        /* \"#utility.yul\":924:1046   */\n    tag_98:\n        /* \"#utility.yul\":997:1021   */\n      tag_134\n        /* \"#utility.yul\":1015:1020   */\n      dup2\n        /* \"#utility.yul\":997:1021   */\n      tag_97\n      jump\t// in\n    tag_134:\n        /* \"#utility.yul\":990:995   */\n      dup2\n        /* \"#utility.yul\":987:1022   */\n      eq\n        /* \"#utility.yul\":977:1040   */\n      tag_135\n      jumpi\n        /* \"#utility.yul\":1036:1037   */\n      0x00\n        /* \"#utility.yul\":1033:1034   */\n      dup1\n        /* \"#utility.yul\":1026:1038   */\n      revert\n        /* \"#utility.yul\":977:1040   */\n    tag_135:\n        /* \"#utility.yul\":924:1046   */\n      pop\n      jump\t// out\n        /* \"#utility.yul\":1052:1191   */\n    tag_99:\n        /* \"#utility.yul\":1098:1103   */\n      0x00\n        /* \"#utility.yul\":1136:1142   */\n      dup2\n        /* \"#utility.yul\":1123:1143   */\n      calldataload\n        /* \"#utility.yul\":1114:1143   */\n      swap1\n      pop\n        /* \"#utility.yul\":1152:1185   */\n      tag_137\n        /* \"#utility.yul\":1179:1184   */\n      dup2\n        /* \"#utility.yul\":1152:1185   */\n      tag_98\n      jump\t// in\n    tag_137:\n        /* \"#utility.yul\":1052:1191   */\n      swap3\n      swap2\n      pop\n      pop\n      jump\t// out\n        /* \"#utility.yul\":1197:1671   */\n    tag_14:\n        /* \"#utility.yul\":1265:1271   */\n      0x00\n        /* \"#utility.yul\":1273:1279   */\n      dup1\n        /* \"#utility.yul\":1322:1324   */\n      0x40\n        /* \"#utility.yul\":1310:1319   */\n      dup4\n        /* \"#utility.yul\":1301:1308   */\n      dup6\n        /* \"#utility.yul\":1297:1320   */\n      sub\n        /* \"#utility.yul\":1293:1325   */\n      slt\n        /* \"#utility.yul\":1290:1409   */\n      iszero\n      tag_139\n      jumpi\n        /* \"#utility.yul\":1328:1407   */\n      tag_140\n      tag_91\n      jump\t// in\n    tag_140:\n        /* \"#utility.yul\":1290:1409   */\n    tag_139:\n        /* \"#utility.yul\":1448:1449   */\n      0x00\n        /* \"#utility.yul\":1473:1526   */\n      tag_141\n        /* \"#utility.yul\":1518:1525   */\n      dup6\n        /* \"#utility.yul\":1509:1515   */\n      dup3\n        /* \"#utility.yul\":1498:1507   */\n      dup7\n        /* \"#utility.yul\":1494:1516   */\n      add\n        /* \"#utility.yul\":1473:1526   */\n      tag_96\n      jump\t// in\n    tag_141:\n        /* \"#utility.yul\":1463:1526   */\n      swap3\n      pop\n        /* \"#utility.yul\":1419:1536   */\n      pop\n        /* \"#utility.yul\":1575:1577   */\n      0x20\n        /* \"#utility.yul\":1601:1654   */\n      tag_142\n        /* \"#utility.yul\":1646:1653   */\n      dup6\n        /* \"#utility.yul\":1637:1643   */\n      dup3\n        /* \"#utility.yul\":1626:1635   */\n      dup7\n        /* \"#utility.yul\":1622:1644   */\n      add\n        /* \"#utility.yul\":1601:1654   */\n      tag_99\n      jump\t// in\n    tag_142:\n        /* \"#utility.yul\":1591:1654   */\n      swap2\n      pop\n        /* \"#utility.yul\":1546:1664   */\n      pop\n        /* \"#utility.yul\":1197:1671   */\n      swap3\n      pop\n      swap3\n      swap1\n      pop\n      jump\t// out\n        /* \"#utility.yul\":1677:1767   */\n    tag_100:\n        /* \"#utility.yul\":1711:1718   */\n      0x00\n        /* \"#utility.yul\":1754:1759   */\n      dup2\n        /* \"#utility.yul\":1747:1760   */\n      iszero\n        /* \"#utility.yul\":1740:1761   */\n      iszero\n        /* \"#utility.yul\":1729:1761   */\n      swap1\n      pop\n        /* \"#utility.yul\":1677:1767   */\n      swap2\n      swap1\n      pop\n      jump\t// out\n        /* \"#utility.yul\":1773:1882   */\n    tag_101:\n        /* \"#utility.yul\":1854:1875   */\n      tag_145\n        /* \"#utility.yul\":1869:1874   */\n      dup2\n        /* \"#utility.yul\":1854:1875   */\n      tag_100\n      jump\t// in\n    tag_145:\n        /* \"#utility.yul\":1849:1852   */\n      dup3\n        /* \"#utility.yul\":1842:1876   */\n      mstore\n        /* \"#utility.yul\":1773:1882   */\n      pop\n      pop\n      jump\t// out\n        /* \"#utility.yul\":1888:2098   */\n    tag_19:\n        /* \"#utility.yul\":1975:1979   */\n      0x00\n        /* \"#utility.yul\":2013:2015   */\n      0x20\n        /* \"#utility.yul\":2002:2011   */\n      dup3\n        /* \"#utility.yul\":1998:2016   */\n      add\n        /* \"#utility.yul\":1990:2016   */\n      swap1\n      pop\n        /* \"#utility.yul\":2026:2091   */\n      tag_147\n        /* \"#utility.yul\":2088:2089   */\n      0x00\n        /* \"#utility.yul\":2077:2086   */\n      dup4\n        /* \"#utility.yul\":2073:2090   */\n      add\n        /* \"#utility.yul\":2064:2070   */\n      dup5\n        /* \"#utility.yul\":2026:2091   */\n      tag_101\n      jump\t// in\n    tag_147:\n        /* \"#utility.yul\":1888:2098   */\n      swap3\n      swap2\n      pop\n      pop\n      jump\t// out\n        /* \"#utility.yul\":2104:2433   */\n    tag_22:\n        /* \"#utility.yul\":2163:2169   */\n      0x00\n        /* \"#utility.yul\":2212:2214   */\n      0x20\n        /* \"#utility.yul\":2200:2209   */\n      dup3\n        /* \"#utility.yul\":2191:2198   */\n      dup5\n        /* \"#utility.yul\":2187:2210   */\n      sub\n        /* \"#utility.yul\":2183:2215   */\n      slt\n        /* \"#utility.yul\":2180:2299   */\n      iszero\n      tag_149\n      jumpi\n        /* \"#utility.yul\":2218:2297   */\n      tag_150\n      tag_91\n      jump\t// in\n    tag_150:\n        /* \"#utility.yul\":2180:2299   */\n    tag_149:\n        /* \"#utility.yul\":2338:2339   */\n      0x00\n        /* \"#utility.yul\":2363:2416   */\n      tag_151\n        /* \"#utility.yul\":2408:2415   */\n      dup5\n        /* \"#utility.yul\":2399:2405   */\n      dup3\n        /* \"#utility.yul\":2388:2397   */\n      dup6\n        /* \"#utility.yul\":2384:2406   */\n      add\n        /* \"#utility.yul\":2363:2416   */\n      tag_96\n      jump\t// in\n    tag_151:\n        /* \"#utility.yul\":2353:2416   */\n      swap2\n      pop\n        /* \"#utility.yul\":2309:2426   */\n      pop\n        /* \"#utility.yul\":2104:2433   */\n      swap3\n      swap2\n      pop\n      pop\n      jump\t// out\n        /* \"#utility.yul\":2439:2516   */\n    tag_102:\n        /* \"#utility.yul\":2476:2483   */\n      0x00\n        /* \"#utility.yul\":2505:2510   */\n      dup2\n        /* \"#utility.yul\":2494:2510   */\n      swap1\n      pop\n        /* \"#utility.yul\":2439:2516   */\n      swap2\n      swap1\n      pop\n      jump\t// out\n        /* \"#utility.yul\":2522:2640   */\n    tag_103:\n        /* \"#utility.yul\":2609:2633   */\n      tag_154\n        /* \"#utility.yul\":2627:2632   */\n      dup2\n        /* \"#utility.yul\":2609:2633   */\n      tag_102\n      jump\t// in\n    tag_154:\n        /* \"#utility.yul\":2604:2607   */\n      dup3\n        /* \"#utility.yul\":2597:2634   */\n      mstore\n        /* \"#utility.yul\":2522:2640   */\n      pop\n      pop\n      jump\t// out\n        /* \"#utility.yul\":2646:2868   */\n    tag_27:\n        /* \"#utility.yul\":2739:2743   */\n      0x00\n        /* \"#utility.yul\":2777:2779   */\n      0x20\n        /* \"#utility.yul\":2766:2775   */\n      dup3\n        /* \"#utility.yul\":2762:2780   */\n      add\n        /* \"#utility.yul\":2754:2780   */\n      swap1\n      pop\n        /* \"#utility.yul\":2790:2861   */\n      tag_156\n        /* \"#utility.yul\":2858:2859   */\n      0x00\n        /* \"#utility.yul\":2847:2856   */\n      dup4\n        /* \"#utility.yul\":2843:2860   */\n      add\n        /* \"#utility.yul\":2834:2840   */\n      dup5\n        /* \"#utility.yul\":2790:2861   */\n      tag_103\n      jump\t// in\n    tag_156:\n        /* \"#utility.yul\":2646:2868   */\n      swap3\n      swap2\n      pop\n      pop\n      jump\t// out\n        /* \"#utility.yul\":2874:2992   */\n    tag_104:\n        /* \"#utility.yul\":2961:2985   */\n      tag_158\n        /* \"#utility.yul\":2979:2984   */\n      dup2\n        /* \"#utility.yul\":2961:2985   */\n      tag_97\n      jump\t// in\n    tag_158:\n        /* \"#utility.yul\":2956:2959   */\n      dup3\n        /* \"#utility.yul\":2949:2986   */\n      mstore\n        /* \"#utility.yul\":2874:2992   */\n      pop\n      pop\n      jump\t// out\n        /* \"#utility.yul\":2998:3220   */\n    tag_32:\n        /* \"#utility.yul\":3091:3095   */\n      0x00\n        /* \"#utility.yul\":3129:3131   */\n      0x20\n        /* \"#utility.yul\":3118:3127   */\n      dup3\n        /* \"#utility.yul\":3114:3132   */\n      add\n        /* \"#utility.yul\":3106:3132   */\n      swap1\n      pop\n        /* \"#utility.yul\":3142:3213   */\n      tag_160\n        /* \"#utility.yul\":3210:3211   */\n      0x00\n        /* \"#utility.yul\":3199:3208   */\n      dup4\n        /* \"#utility.yul\":3195:3212   */\n      add\n        /* \"#utility.yul\":3186:3192   */\n      dup5\n        /* \"#utility.yul\":3142:3213   */\n      tag_104\n      jump\t// in\n    tag_160:\n        /* \"#utility.yul\":2998:3220   */\n      swap3\n      swap2\n      pop\n      pop\n      jump\t// out\n        /* \"#utility.yul\":3226:3344   */\n    tag_105:\n        /* \"#utility.yul\":3313:3337   */\n      tag_162\n        /* \"#utility.yul\":3331:3336   */\n      dup2\n        /* \"#utility.yul\":3313:3337   */\n      tag_94\n      jump\t// in\n    tag_162:\n        /* \"#utility.yul\":3308:3311   */\n      dup3\n        /* \"#utility.yul\":3301:3338   */\n      mstore\n        /* \"#utility.yul\":3226:3344   */\n      pop\n      pop\n      jump\t// out\n        /* \"#utility.yul\":3350:3572   */\n    tag_36:\n        /* \"#utility.yul\":3443:3447   */\n      0x00\n        /* \"#utility.yul\":3481:3483   */\n      0x20\n        /* \"#utility.yul\":3470:3479   */\n      dup3\n        /* \"#utility.yul\":3466:3484   */\n      add\n        /* \"#utility.yul\":3458:3484   */\n      swap1\n      pop\n        /* \"#utility.yul\":3494:3565   */\n      tag_164\n        /* \"#utility.yul\":3562:3563   */\n      0x00\n        /* \"#utility.yul\":3551:3560   */\n      dup4\n        /* \"#utility.yul\":3547:3564   */\n      add\n        /* \"#utility.yul\":3538:3544   */\n      dup5\n        /* \"#utility.yul\":3494:3565   */\n      tag_105\n      jump\t// in\n    tag_164:\n        /* \"#utility.yul\":3350:3572   */\n      swap3\n      swap2\n      pop\n      pop\n      jump\t// out\n        /* \"#utility.yul\":3578:4052   */\n    tag_39:\n        /* \"#utility.yul\":3646:3652   */\n      0x00\n        /* \"#utility.yul\":3654:3660   */\n      dup1\n        /* \"#utility.yul\":3703:3705   */\n      0x40\n        /* \"#utility.yul\":3691:3700   */\n      dup4\n        /* \"#utility.yul\":3682:3689   */\n      dup6\n        /* \"#utility.yul\":3678:3701   */\n      sub\n        /* \"#utility.yul\":3674:3706   */\n      slt\n        /* \"#utility.yul\":3671:3790   */\n      iszero\n      tag_166\n      jumpi\n        /* \"#utility.yul\":3709:3788   */\n      tag_167\n      tag_91\n      jump\t// in\n    tag_167:\n        /* \"#utility.yul\":3671:3790   */\n    tag_166:\n        /* \"#utility.yul\":3829:3830   */\n      0x00\n        /* \"#utility.yul\":3854:3907   */\n      tag_168\n        /* \"#utility.yul\":3899:3906   */\n      dup6\n        /* \"#utility.yul\":3890:3896   */\n      dup3\n        /* \"#utility.yul\":3879:3888   */\n      dup7\n        /* \"#utility.yul\":3875:3897   */\n      add\n        /* \"#utility.yul\":3854:3907   */\n      tag_99\n      jump\t// in\n    tag_168:\n        /* \"#utility.yul\":3844:3907   */\n      swap3\n      pop\n        /* \"#utility.yul\":3800:3917   */\n      pop\n        /* \"#utility.yul\":3956:3958   */\n      0x20\n        /* \"#utility.yul\":3982:4035   */\n      tag_169\n        /* \"#utility.yul\":4027:4034   */\n      dup6\n        /* \"#utility.yul\":4018:4024   */\n      dup3\n        /* \"#utility.yul\":4007:4016   */\n      dup7\n        /* \"#utility.yul\":4003:4025   */\n      add\n        /* \"#utility.yul\":3982:4035   */\n      tag_96\n      jump\t// in\n    tag_169:\n        /* \"#utility.yul\":3972:4035   */\n      swap2\n      pop\n        /* \"#utility.yul\":3927:4045   */\n      pop\n        /* \"#utility.yul\":3578:4052   */\n      swap3\n      pop\n      swap3\n      swap1\n      pop\n      jump\t// out\n        /* \"#utility.yul\":4058:4227   */\n    tag_106:\n        /* \"#utility.yul\":4142:4153   */\n      0x00\n        /* \"#utility.yul\":4176:4182   */\n      dup3\n        /* \"#utility.yul\":4171:4174   */\n      dup3\n        /* \"#utility.yul\":4164:4183   */\n      mstore\n        /* \"#utility.yul\":4216:4220   */\n      0x20\n        /* \"#utility.yul\":4211:4214   */\n      dup3\n        /* \"#utility.yul\":4207:4221   */\n      add\n        /* \"#utility.yul\":4192:4221   */\n      swap1\n      pop\n        /* \"#utility.yul\":4058:4227   */\n      swap3\n      swap2\n      pop\n      pop\n      jump\t// out\n        /* \"#utility.yul\":4233:4401   */\n    tag_107:\n        /* \"#utility.yul\":4373:4393   */\n      0x496e73756666696369656e742066756e64730000000000000000000000000000\n        /* \"#utility.yul\":4369:4370   */\n      0x00\n        /* \"#utility.yul\":4361:4367   */\n      dup3\n        /* \"#utility.yul\":4357:4371   */\n      add\n        /* \"#utility.yul\":4350:4394   */\n      mstore\n        /* \"#utility.yul\":4233:4401   */\n      pop\n      jump\t// out\n        /* \"#utility.yul\":4407:4773   */\n    tag_108:\n        /* \"#utility.yul\":4549:4552   */\n      0x00\n        /* \"#utility.yul\":4570:4637   */\n      tag_173\n        /* \"#utility.yul\":4634:4636   */\n      0x12\n        /* \"#utility.yul\":4629:4632   */\n      dup4\n        /* \"#utility.yul\":4570:4637   */\n      tag_106\n      jump\t// in\n    tag_173:\n        /* \"#utility.yul\":4563:4637   */\n      swap2\n      pop\n        /* \"#utility.yul\":4646:4739   */\n      tag_174\n        /* \"#utility.yul\":4735:4738   */\n      dup3\n        /* \"#utility.yul\":4646:4739   */\n      tag_107\n      jump\t// in\n    tag_174:\n        /* \"#utility.yul\":4764:4766   */\n      0x20\n        /* \"#utility.yul\":4759:4762   */\n      dup3\n        /* \"#utility.yul\":4755:4767   */\n      add\n        /* \"#utility.yul\":4748:4767   */\n      swap1\n      pop\n        /* \"#utility.yul\":4407:4773   */\n      swap2\n      swap1\n      pop\n      jump\t// out\n        /* \"#utility.yul\":4779:5198   */\n    tag_50:\n        /* \"#utility.yul\":4945:4949   */\n      0x00\n        /* \"#utility.yul\":4983:4985   */\n      0x20\n        /* \"#utility.yul\":4972:4981   */\n      dup3\n        /* \"#utility.yul\":4968:4986   */\n      add\n        /* \"#utility.yul\":4960:4986   */\n      swap1\n      pop\n        /* \"#utility.yul\":5032:5041   */\n      dup2\n        /* \"#utility.yul\":5026:5030   */\n      dup2\n        /* \"#utility.yul\":5022:5042   */\n      sub\n        /* \"#utility.yul\":5018:5019   */\n      0x00\n        /* \"#utility.yul\":5007:5016   */\n      dup4\n        /* \"#utility.yul\":5003:5020   */\n      add\n        /* \"#utility.yul\":4996:5043   */\n      mstore\n        /* \"#utility.yul\":5060:5191   */\n      tag_176\n        /* \"#utility.yul\":5186:5190   */\n      dup2\n        /* \"#utility.yul\":5060:5191   */\n      tag_108\n      jump\t// in\n    tag_176:\n        /* \"#utility.yul\":5052:5191   */\n      swap1\n      pop\n        /* \"#utility.yul\":4779:5198   */\n      swap2\n      swap1\n      pop\n      jump\t// out\n        /* \"#utility.yul\":5204:5384   */\n    tag_109:\n        /* \"#utility.yul\":5252:5329   */\n      0x4e487b7100000000000000000000000000000000000000000000000000000000\n        /* \"#utility.yul\":5249:5250   */\n      0x00\n        /* \"#utility.yul\":5242:5330   */\n      mstore\n        /* \"#utility.yul\":5349:5353   */\n      0x11\n        /* \"#utility.yul\":5346:5347   */\n      0x04\n        /* \"#utility.yul\":5339:5354   */\n      mstore\n        /* \"#utility.yul\":5373:5377   */\n      0x24\n        /* \"#utility.yul\":5370:5371   */\n      0x00\n        /* \"#utility.yul\":5363:5378   */\n      revert\n        /* \"#utility.yul\":5390:5581   */\n    tag_56:\n        /* \"#utility.yul\":5430:5433   */\n      0x00\n        /* \"#utility.yul\":5449:5469   */\n      tag_179\n        /* \"#utility.yul\":5467:5468   */\n      dup3\n        /* \"#utility.yul\":5449:5469   */\n      tag_97\n      jump\t// in\n    tag_179:\n        /* \"#utility.yul\":5444:5469   */\n      swap2\n      pop\n        /* \"#utility.yul\":5483:5503   */\n      tag_180\n        /* \"#utility.yul\":5501:5502   */\n      dup4\n        /* \"#utility.yul\":5483:5503   */\n      tag_97\n      jump\t// in\n    tag_180:\n        /* \"#utility.yul\":5478:5503   */\n      swap3\n      pop\n        /* \"#utility.yul\":5526:5527   */\n      dup3\n        /* \"#utility.yul\":5523:5524   */\n      dup3\n        /* \"#utility.yul\":5519:5528   */\n      add\n        /* \"#utility.yul\":5512:5528   */\n      swap1\n      pop\n        /* \"#utility.yul\":5547:5550   */\n      dup1\n        /* \"#utility.yul\":5544:5545   */\n      dup3\n        /* \"#utility.yul\":5541:5551   */\n      gt\n        /* \"#utility.yul\":5538:5574   */\n      iszero\n      tag_181\n      jumpi\n        /* \"#utility.yul\":5554:5572   */\n      tag_182\n      tag_109\n      jump\t// in\n    tag_182:\n        /* \"#utility.yul\":5538:5574   */\n    tag_181:\n        /* \"#utility.yul\":5390:5581   */\n      swap3\n      swap2\n      pop\n      pop\n      jump\t// out\n        /* \"#utility.yul\":5587:5766   */\n    tag_110:\n        /* \"#utility.yul\":5727:5758   */\n      0x4e6f207065726d697373696f6e2065786365707420746f206f776e6572000000\n        /* \"#utility.yul\":5723:5724   */\n      0x00\n        /* \"#utility.yul\":5715:5721   */\n      dup3\n        /* \"#utility.yul\":5711:5725   */\n      add\n        /* \"#utility.yul\":5704:5759   */\n      mstore\n        /* \"#utility.yul\":5587:5766   */\n      pop\n      jump\t// out\n        /* \"#utility.yul\":5772:6138   */\n    tag_111:\n        /* \"#utility.yul\":5914:5917   */\n      0x00\n        /* \"#utility.yul\":5935:6002   */\n      tag_185\n        /* \"#utility.yul\":5999:6001   */\n      0x1d\n        /* \"#utility.yul\":5994:5997   */\n      dup4\n        /* \"#utility.yul\":5935:6002   */\n      tag_106\n      jump\t// in\n    tag_185:\n        /* \"#utility.yul\":5928:6002   */\n      swap2\n      pop\n        /* \"#utility.yul\":6011:6104   */\n      tag_186\n        /* \"#utility.yul\":6100:6103   */\n      dup3\n        /* \"#utility.yul\":6011:6104   */\n      tag_110\n      jump\t// in\n    tag_186:\n        /* \"#utility.yul\":6129:6131   */\n      0x20\n        /* \"#utility.yul\":6124:6127   */\n      dup3\n        /* \"#utility.yul\":6120:6132   */\n      add\n        /* \"#utility.yul\":6113:6132   */\n      swap1\n      pop\n        /* \"#utility.yul\":5772:6138   */\n      swap2\n      swap1\n      pop\n      jump\t// out\n        /* \"#utility.yul\":6144:6563   */\n    tag_60:\n        /* \"#utility.yul\":6310:6314   */\n      0x00\n        /* \"#utility.yul\":6348:6350   */\n      0x20\n        /* \"#utility.yul\":6337:6346   */\n      dup3\n        /* \"#utility.yul\":6333:6351   */\n      add\n        /* \"#utility.yul\":6325:6351   */\n      swap1\n      pop\n        /* \"#utility.yul\":6397:6406   */\n      dup2\n        /* \"#utility.yul\":6391:6395   */\n      dup2\n        /* \"#utility.yul\":6387:6407   */\n      sub\n        /* \"#utility.yul\":6383:6384   */\n      0x00\n        /* \"#utility.yul\":6372:6381   */\n      dup4\n        /* \"#utility.yul\":6368:6385   */\n      add\n        /* \"#utility.yul\":6361:6408   */\n      mstore\n        /* \"#utility.yul\":6425:6556   */\n      tag_188\n        /* \"#utility.yul\":6551:6555   */\n      dup2\n        /* \"#utility.yul\":6425:6556   */\n      tag_111\n      jump\t// in\n    tag_188:\n        /* \"#utility.yul\":6417:6556   */\n      swap1\n      pop\n        /* \"#utility.yul\":6144:6563   */\n      swap2\n      swap1\n      pop\n      jump\t// out\n        /* \"#utility.yul\":6569:6749   */\n    tag_112:\n        /* \"#utility.yul\":6709:6741   */\n      0x546f74616c20737570706c79206f6620746f6b656e2065786365656465640000\n        /* \"#utility.yul\":6705:6706   */\n      0x00\n        /* \"#utility.yul\":6697:6703   */\n      dup3\n        /* \"#utility.yul\":6693:6707   */\n      add\n        /* \"#utility.yul\":6686:6742   */\n      mstore\n        /* \"#utility.yul\":6569:6749   */\n      pop\n      jump\t// out\n        /* \"#utility.yul\":6755:7121   */\n    tag_113:\n        /* \"#utility.yul\":6897:6900   */\n      0x00\n        /* \"#utility.yul\":6918:6985   */\n      tag_191\n        /* \"#utility.yul\":6982:6984   */\n      0x1e\n        /* \"#utility.yul\":6977:6980   */\n      dup4\n        /* \"#utility.yul\":6918:6985   */\n      tag_106\n      jump\t// in\n    tag_191:\n        /* \"#utility.yul\":6911:6985   */\n      swap2\n      pop\n        /* \"#utility.yul\":6994:7087   */\n      tag_192\n        /* \"#utility.yul\":7083:7086   */\n      dup3\n        /* \"#utility.yul\":6994:7087   */\n      tag_112\n      jump\t// in\n    tag_192:\n        /* \"#utility.yul\":7112:7114   */\n      0x20\n        /* \"#utility.yul\":7107:7110   */\n      dup3\n        /* \"#utility.yul\":7103:7115   */\n      add\n        /* \"#utility.yul\":7096:7115   */\n      swap1\n      pop\n        /* \"#utility.yul\":6755:7121   */\n      swap2\n      swap1\n      pop\n      jump\t// out\n        /* \"#utility.yul\":7127:7546   */\n    tag_73:\n        /* \"#utility.yul\":7293:7297   */\n      0x00\n        /* \"#utility.yul\":7331:7333   */\n      0x20\n        /* \"#utility.yul\":7320:7329   */\n      dup3\n        /* \"#utility.yul\":7316:7334   */\n      add\n        /* \"#utility.yul\":7308:7334   */\n      swap1\n      pop\n        /* \"#utility.yul\":7380:7389   */\n      dup2\n        /* \"#utility.yul\":7374:7378   */\n      dup2\n        /* \"#utility.yul\":7370:7390   */\n      sub\n        /* \"#utility.yul\":7366:7367   */\n      0x00\n        /* \"#utility.yul\":7355:7364   */\n      dup4\n        /* \"#utility.yul\":7351:7368   */\n      add\n        /* \"#utility.yul\":7344:7391   */\n      mstore\n        /* \"#utility.yul\":7408:7539   */\n      tag_194\n        /* \"#utility.yul\":7534:7538   */\n      dup2\n        /* \"#utility.yul\":7408:7539   */\n      tag_113\n      jump\t// in\n    tag_194:\n        /* \"#utility.yul\":7400:7539   */\n      swap1\n      pop\n        /* \"#utility.yul\":7127:7546   */\n      swap2\n      swap1\n      pop\n      jump\t// out\n        /* \"#utility.yul\":7552:7722   */\n    tag_114:\n        /* \"#utility.yul\":7692:7714   */\n      0x6d696e7420746f2061646472657373207a65726f000000000000000000000000\n        /* \"#utility.yul\":7688:7689   */\n      0x00\n        /* \"#utility.yul\":7680:7686   */\n      dup3\n        /* \"#utility.yul\":7676:7690   */\n      add\n        /* \"#utility.yul\":7669:7715   */\n      mstore\n        /* \"#utility.yul\":7552:7722   */\n      pop\n      jump\t// out\n        /* \"#utility.yul\":7728:8094   */\n    tag_115:\n        /* \"#utility.yul\":7870:7873   */\n      0x00\n        /* \"#utility.yul\":7891:7958   */\n      tag_197\n        /* \"#utility.yul\":7955:7957   */\n      0x14\n        /* \"#utility.yul\":7950:7953   */\n      dup4\n        /* \"#utility.yul\":7891:7958   */\n      tag_106\n      jump\t// in\n    tag_197:\n        /* \"#utility.yul\":7884:7958   */\n      swap2\n      pop\n        /* \"#utility.yul\":7967:8060   */\n      tag_198\n        /* \"#utility.yul\":8056:8059   */\n      dup3\n        /* \"#utility.yul\":7967:8060   */\n      tag_114\n      jump\t// in\n    tag_198:\n        /* \"#utility.yul\":8085:8087   */\n      0x20\n        /* \"#utility.yul\":8080:8083   */\n      dup3\n        /* \"#utility.yul\":8076:8088   */\n      add\n        /* \"#utility.yul\":8069:8088   */\n      swap1\n      pop\n        /* \"#utility.yul\":7728:8094   */\n      swap2\n      swap1\n      pop\n      jump\t// out\n        /* \"#utility.yul\":8100:8519   */\n    tag_76:\n        /* \"#utility.yul\":8266:8270   */\n      0x00\n        /* \"#utility.yul\":8304:8306   */\n      0x20\n        /* \"#utility.yul\":8293:8302   */\n      dup3\n        /* \"#utility.yul\":8289:8307   */\n      add\n        /* \"#utility.yul\":8281:8307   */\n      swap1\n      pop\n        /* \"#utility.yul\":8353:8362   */\n      dup2\n        /* \"#utility.yul\":8347:8351   */\n      dup2\n        /* \"#utility.yul\":8343:8363   */\n      sub\n        /* \"#utility.yul\":8339:8340   */\n      0x00\n        /* \"#utility.yul\":8328:8337   */\n      dup4\n        /* \"#utility.yul\":8324:8341   */\n      add\n        /* \"#utility.yul\":8317:8364   */\n      mstore\n        /* \"#utility.yul\":8381:8512   */\n      tag_200\n        /* \"#utility.yul\":8507:8511   */\n      dup2\n        /* \"#utility.yul\":8381:8512   */\n      tag_115\n      jump\t// in\n    tag_200:\n        /* \"#utility.yul\":8373:8512   */\n      swap1\n      pop\n        /* \"#utility.yul\":8100:8519   */\n      swap2\n      swap1\n      pop\n      jump\t// out\n        /* \"#utility.yul\":8525:8935   */\n    tag_78:\n        /* \"#utility.yul\":8565:8572   */\n      0x00\n        /* \"#utility.yul\":8588:8608   */\n      tag_202\n        /* \"#utility.yul\":8606:8607   */\n      dup3\n        /* \"#utility.yul\":8588:8608   */\n      tag_97\n      jump\t// in\n    tag_202:\n        /* \"#utility.yul\":8583:8608   */\n      swap2\n      pop\n        /* \"#utility.yul\":8622:8642   */\n      tag_203\n        /* \"#utility.yul\":8640:8641   */\n      dup4\n        /* \"#utility.yul\":8622:8642   */\n      tag_97\n      jump\t// in\n    tag_203:\n        /* \"#utility.yul\":8617:8642   */\n      swap3\n      pop\n        /* \"#utility.yul\":8677:8678   */\n      dup3\n        /* \"#utility.yul\":8674:8675   */\n      dup3\n        /* \"#utility.yul\":8670:8679   */\n      mul\n        /* \"#utility.yul\":8699:8729   */\n      tag_204\n        /* \"#utility.yul\":8717:8728   */\n      dup2\n        /* \"#utility.yul\":8699:8729   */\n      tag_97\n      jump\t// in\n    tag_204:\n        /* \"#utility.yul\":8688:8729   */\n      swap2\n      pop\n        /* \"#utility.yul\":8878:8879   */\n      dup3\n        /* \"#utility.yul\":8869:8876   */\n      dup3\n        /* \"#utility.yul\":8865:8880   */\n      div\n        /* \"#utility.yul\":8862:8863   */\n      dup5\n        /* \"#utility.yul\":8859:8881   */\n      eq\n        /* \"#utility.yul\":8839:8840   */\n      dup4\n        /* \"#utility.yul\":8832:8841   */\n      iszero\n        /* \"#utility.yul\":8812:8895   */\n      or\n        /* \"#utility.yul\":8789:8928   */\n      tag_205\n      jumpi\n        /* \"#utility.yul\":8908:8926   */\n      tag_206\n      tag_109\n      jump\t// in\n    tag_206:\n        /* \"#utility.yul\":8789:8928   */\n    tag_205:\n        /* \"#utility.yul\":8573:8935   */\n      pop\n        /* \"#utility.yul\":8525:8935   */\n      swap3\n      swap2\n      pop\n      pop\n      jump\t// out\n        /* \"#utility.yul\":8941:9273   */\n    tag_81:\n        /* \"#utility.yul\":9062:9066   */\n      0x00\n        /* \"#utility.yul\":9100:9102   */\n      0x40\n        /* \"#utility.yul\":9089:9098   */\n      dup3\n        /* \"#utility.yul\":9085:9103   */\n      add\n        /* \"#utility.yul\":9077:9103   */\n      swap1\n      pop\n        /* \"#utility.yul\":9113:9184   */\n      tag_208\n        /* \"#utility.yul\":9181:9182   */\n      0x00\n        /* \"#utility.yul\":9170:9179   */\n      dup4\n        /* \"#utility.yul\":9166:9183   */\n      add\n        /* \"#utility.yul\":9157:9163   */\n      dup6\n        /* \"#utility.yul\":9113:9184   */\n      tag_105\n      jump\t// in\n    tag_208:\n        /* \"#utility.yul\":9194:9266   */\n      tag_209\n        /* \"#utility.yul\":9262:9264   */\n      0x20\n        /* \"#utility.yul\":9251:9260   */\n      dup4\n        /* \"#utility.yul\":9247:9265   */\n      add\n        /* \"#utility.yul\":9238:9244   */\n      dup5\n        /* \"#utility.yul\":9194:9266   */\n      tag_104\n      jump\t// in\n    tag_209:\n        /* \"#utility.yul\":8941:9273   */\n      swap4\n      swap3\n      pop\n      pop\n      pop\n      jump\t// out\n        /* \"#utility.yul\":9279:9401   */\n    tag_116:\n        /* \"#utility.yul\":9352:9376   */\n      tag_211\n        /* \"#utility.yul\":9370:9375   */\n      dup2\n        /* \"#utility.yul\":9352:9376   */\n      tag_102\n      jump\t// in\n    tag_211:\n        /* \"#utility.yul\":9345:9350   */\n      dup2\n        /* \"#utility.yul\":9342:9377   */\n      eq\n        /* \"#utility.yul\":9332:9395   */\n      tag_212\n      jumpi\n        /* \"#utility.yul\":9391:9392   */\n      0x00\n        /* \"#utility.yul\":9388:9389   */\n      dup1\n        /* \"#utility.yul\":9381:9393   */\n      revert\n        /* \"#utility.yul\":9332:9395   */\n    tag_212:\n        /* \"#utility.yul\":9279:9401   */\n      pop\n      jump\t// out\n        /* \"#utility.yul\":9407:9550   */\n    tag_117:\n        /* \"#utility.yul\":9464:9469   */\n      0x00\n        /* \"#utility.yul\":9495:9501   */\n      dup2\n        /* \"#utility.yul\":9489:9502   */\n      mload\n        /* \"#utility.yul\":9480:9502   */\n      swap1\n      pop\n        /* \"#utility.yul\":9511:9544   */\n      tag_214\n        /* \"#utility.yul\":9538:9543   */\n      dup2\n        /* \"#utility.yul\":9511:9544   */\n      tag_116\n      jump\t// in\n    tag_214:\n        /* \"#utility.yul\":9407:9550   */\n      swap3\n      swap2\n      pop\n      pop\n      jump\t// out\n        /* \"#utility.yul\":9556:9907   */\n    tag_86:\n        /* \"#utility.yul\":9626:9632   */\n      0x00\n        /* \"#utility.yul\":9675:9677   */\n      0x20\n        /* \"#utility.yul\":9663:9672   */\n      dup3\n        /* \"#utility.yul\":9654:9661   */\n      dup5\n        /* \"#utility.yul\":9650:9673   */\n      sub\n        /* \"#utility.yul\":9646:9678   */\n      slt\n        /* \"#utility.yul\":9643:9762   */\n      iszero\n      tag_216\n      jumpi\n        /* \"#utility.yul\":9681:9760   */\n      tag_217\n      tag_91\n      jump\t// in\n    tag_217:\n        /* \"#utility.yul\":9643:9762   */\n    tag_216:\n        /* \"#utility.yul\":9801:9802   */\n      0x00\n        /* \"#utility.yul\":9826:9890   */\n      tag_218\n        /* \"#utility.yul\":9882:9889   */\n      dup5\n        /* \"#utility.yul\":9873:9879   */\n      dup3\n        /* \"#utility.yul\":9862:9871   */\n      dup6\n        /* \"#utility.yul\":9858:9880   */\n      add\n        /* \"#utility.yul\":9826:9890   */\n      tag_117\n      jump\t// in\n    tag_218:\n        /* \"#utility.yul\":9816:9890   */\n      swap2\n      pop\n        /* \"#utility.yul\":9772:9900   */\n      pop\n        /* \"#utility.yul\":9556:9907   */\n      swap3\n      swap2\n      pop\n      pop\n      jump\t// out\n        /* \"#utility.yul\":9913:10077   */\n    tag_118:\n        /* \"#utility.yul\":10053:10069   */\n      0x4e6f7420636f6d70617469626c65000000000000000000000000000000000000\n        /* \"#utility.yul\":10049:10050   */\n      0x00\n        /* \"#utility.yul\":10041:10047   */\n      dup3\n        /* \"#utility.yul\":10037:10051   */\n      add\n        /* \"#utility.yul\":10030:10070   */\n      mstore\n        /* \"#utility.yul\":9913:10077   */\n      pop\n      jump\t// out\n        /* \"#utility.yul\":10083:10449   */\n    tag_119:\n        /* \"#utility.yul\":10225:10228   */\n      0x00\n        /* \"#utility.yul\":10246:10313   */\n      tag_221\n        /* \"#utility.yul\":10310:10312   */\n      0x0e\n        /* \"#utility.yul\":10305:10308   */\n      dup4\n        /* \"#utility.yul\":10246:10313   */\n      tag_106\n      jump\t// in\n    tag_221:\n        /* \"#utility.yul\":10239:10313   */\n      swap2\n      pop\n        /* \"#utility.yul\":10322:10415   */\n      tag_222\n        /* \"#utility.yul\":10411:10414   */\n      dup3\n        /* \"#utility.yul\":10322:10415   */\n      tag_118\n      jump\t// in\n    tag_222:\n        /* \"#utility.yul\":10440:10442   */\n      0x20\n        /* \"#utility.yul\":10435:10438   */\n      dup3\n        /* \"#utility.yul\":10431:10443   */\n      add\n        /* \"#utility.yul\":10424:10443   */\n      swap1\n      pop\n        /* \"#utility.yul\":10083:10449   */\n      swap2\n      swap1\n      pop\n      jump\t// out\n        /* \"#utility.yul\":10455:10874   */\n    tag_89:\n        /* \"#utility.yul\":10621:10625   */\n      0x00\n        /* \"#utility.yul\":10659:10661   */\n      0x20\n        /* \"#utility.yul\":10648:10657   */\n      dup3\n        /* \"#utility.yul\":10644:10662   */\n      add\n        /* \"#utility.yul\":10636:10662   */\n      swap1\n      pop\n        /* \"#utility.yul\":10708:10717   */\n      dup2\n        /* \"#utility.yul\":10702:10706   */\n      dup2\n        /* \"#utility.yul\":10698:10718   */\n      sub\n        /* \"#utility.yul\":10694:10695   */\n      0x00\n        /* \"#utility.yul\":10683:10692   */\n      dup4\n        /* \"#utility.yul\":10679:10696   */\n      add\n        /* \"#utility.yul\":10672:10719   */\n      mstore\n        /* \"#utility.yul\":10736:10867   */\n      tag_224\n        /* \"#utility.yul\":10862:10866   */\n      dup2\n        /* \"#utility.yul\":10736:10867   */\n      tag_119\n      jump\t// in\n    tag_224:\n        /* \"#utility.yul\":10728:10867   */\n      swap1\n      pop\n        /* \"#utility.yul\":10455:10874   */\n      swap2\n      swap1\n      pop\n      jump\t// out\n\n    auxdata: 0xa2646970667358221220f6f791186b29920c1e0a343a0ed9212f9ea37b9fb41633a5cb600bd1085c85b364736f6c63430008110033\n}\n",
				"bytecode": {
					"linkReferences": {},
					"object": "60806040526000600160146101000a81548160ff02191690831515021790555034801561002b57600080fd5b50610dde8061003b6000396000f3fe608060405234801561001057600080fd5b50600436106100885760003560e01c806386212b8f1161005b57806386212b8f146101015780638da5cb5b1461013157806394bf804d1461014f578063d3aceae21461017f57610088565b8063095ea7b31461008d578063158ef93e146100a957806346951954146100c757806352d1902d146100e3575b600080fd5b6100a760048036038101906100a291906108e9565b6101af565b005b6100b16103e5565b6040516100be9190610944565b60405180910390f35b6100e160048036038101906100dc919061095f565b6103f8565b005b6100eb610494565b6040516100f891906109a5565b60405180910390f35b61011b6004803603810190610116919061095f565b6104bf565b60405161012891906109cf565b60405180910390f35b610139610508565b60405161014691906109f9565b60405180910390f35b61016960048036038101906101649190610a14565b61052e565b60405161017691906109cf565b60405180910390f35b6101996004803603810190610194919061095f565b61073f565b6040516101a691906109cf565b60405180910390f35b338160006101bc836104bf565b905081811015610201576040517f08c379a00000000000000000000000000000000000000000000000000000000081526004016101f890610ab1565b60405180910390fd5b600073ffffffffffffffffffffffffffffffffffffffff168573ffffffffffffffffffffffffffffffffffffffff160361023a57600080fd5b6000600360003373ffffffffffffffffffffffffffffffffffffffff1673ffffffffffffffffffffffffffffffffffffffff16815260200190815260200160002060008773ffffffffffffffffffffffffffffffffffffffff1673ffffffffffffffffffffffffffffffffffffffff168152602001908152602001600020549050600081036103495784600360003373ffffffffffffffffffffffffffffffffffffffff1673ffffffffffffffffffffffffffffffffffffffff16815260200190815260200160002060008873ffffffffffffffffffffffffffffffffffffffff1673ffffffffffffffffffffffffffffffffffffffff168152602001908152602001600020819055506103dd565b84600360003373ffffffffffffffffffffffffffffffffffffffff1673ffffffffffffffffffffffffffffffffffffffff16815260200190815260200160002060008873ffffffffffffffffffffffffffffffffffffffff1673ffffffffffffffffffffffffffffffffffffffff16815260200190815260200160002060008282546103d59190610b00565b925050819055505b505050505050565b600160149054906101000a900460ff1681565b3373ffffffffffffffffffffffffffffffffffffffff16600160009054906101000a900473ffffffffffffffffffffffffffffffffffffffff1673ffffffffffffffffffffffffffffffffffffffff1614610488576040517f08c379a000000000000000000000000000000000000000000000000000000000815260040161047f90610b80565b60405180910390fd5b61049181610757565b50565b60007fc5f16f0fcc639fa48a6947836d9850f504798523bf8c9a3a87d5876cf622bcf760001b905090565b6000600260008373ffffffffffffffffffffffffffffffffffffffff1673ffffffffffffffffffffffffffffffffffffffff168152602001908152602001600020549050919050565b600160009054906101000a900473ffffffffffffffffffffffffffffffffffffffff1681565b60003373ffffffffffffffffffffffffffffffffffffffff16600160009054906101000a900473ffffffffffffffffffffffffffffffffffffffff1673ffffffffffffffffffffffffffffffffffffffff16146105c0576040517f08c379a00000000000000000000000000000000000000000000000000000000081526004016105b790610b80565b60405180910390fd5b826000808282546105d19190610b00565b92505081905550612710600054111561061f576040517f08c379a000000000000000000000000000000000000000000000000000000000815260040161061690610bec565b60405180910390fd5b600073ffffffffffffffffffffffffffffffffffffffff168273ffffffffffffffffffffffffffffffffffffffff160361068e576040517f08c379a000000000000000000000000000000000000000000000000000000000815260040161068590610c58565b60405180910390fd5b6000670de0b6b3a7640000846106a49190610c78565b905080600260008573ffffffffffffffffffffffffffffffffffffffff1673ffffffffffffffffffffffffffffffffffffffff16815260200190815260200160002060008282546106f59190610b00565b925050819055507feef892aa26c4762fad30f87b912a95ed5b6ff48d8ea3521783c84679e23d2ae2838260405161072d929190610cba565b60405180910390a18091505092915050565b60026020528060005260406000206000915090505481565b8073ffffffffffffffffffffffffffffffffffffffff166352d1902d6040518163ffffffff1660e01b8152600401602060405180830381865afa1580156107a2573d6000803e3d6000fd5b505050506040513d601f19601f820116820180604052508101906107c69190610d0f565b7fc5f16f0fcc639fa48a6947836d9850f504798523bf8c9a3a87d5876cf622bcf760001b1461082a576040517f08c379a000000000000000000000000000000000000000000000000000000000815260040161082190610d88565b60405180910390fd5b807fc5f16f0fcc639fa48a6947836d9850f504798523bf8c9a3a87d5876cf622bcf75550565b600080fd5b600073ffffffffffffffffffffffffffffffffffffffff82169050919050565b600061088082610855565b9050919050565b61089081610875565b811461089b57600080fd5b50565b6000813590506108ad81610887565b92915050565b6000819050919050565b6108c6816108b3565b81146108d157600080fd5b50565b6000813590506108e3816108bd565b92915050565b60008060408385031215610900576108ff610850565b5b600061090e8582860161089e565b925050602061091f858286016108d4565b9150509250929050565b60008115159050919050565b61093e81610929565b82525050565b60006020820190506109596000830184610935565b92915050565b60006020828403121561097557610974610850565b5b60006109838482850161089e565b91505092915050565b6000819050919050565b61099f8161098c565b82525050565b60006020820190506109ba6000830184610996565b92915050565b6109c9816108b3565b82525050565b60006020820190506109e460008301846109c0565b92915050565b6109f381610875565b82525050565b6000602082019050610a0e60008301846109ea565b92915050565b60008060408385031215610a2b57610a2a610850565b5b6000610a39858286016108d4565b9250506020610a4a8582860161089e565b9150509250929050565b600082825260208201905092915050565b7f496e73756666696369656e742066756e64730000000000000000000000000000600082015250565b6000610a9b601283610a54565b9150610aa682610a65565b602082019050919050565b60006020820190508181036000830152610aca81610a8e565b9050919050565b7f4e487b7100000000000000000000000000000000000000000000000000000000600052601160045260246000fd5b6000610b0b826108b3565b9150610b16836108b3565b9250828201905080821115610b2e57610b2d610ad1565b5b92915050565b7f4e6f207065726d697373696f6e2065786365707420746f206f776e6572000000600082015250565b6000610b6a601d83610a54565b9150610b7582610b34565b602082019050919050565b60006020820190508181036000830152610b9981610b5d565b9050919050565b7f546f74616c20737570706c79206f6620746f6b656e2065786365656465640000600082015250565b6000610bd6601e83610a54565b9150610be182610ba0565b602082019050919050565b60006020820190508181036000830152610c0581610bc9565b9050919050565b7f6d696e7420746f2061646472657373207a65726f000000000000000000000000600082015250565b6000610c42601483610a54565b9150610c4d82610c0c565b602082019050919050565b60006020820190508181036000830152610c7181610c35565b9050919050565b6000610c83826108b3565b9150610c8e836108b3565b9250828202610c9c816108b3565b91508282048414831517610cb357610cb2610ad1565b5b5092915050565b6000604082019050610ccf60008301856109ea565b610cdc60208301846109c0565b9392505050565b610cec8161098c565b8114610cf757600080fd5b50565b600081519050610d0981610ce3565b92915050565b600060208284031215610d2557610d24610850565b5b6000610d3384828501610cfa565b91505092915050565b7f4e6f7420636f6d70617469626c65000000000000000000000000000000000000600082015250565b6000610d72600e83610a54565b9150610d7d82610d3c565b602082019050919050565b60006020820190508181036000830152610da181610d65565b905091905056fea2646970667358221220f6f791186b29920c1e0a343a0ed9212f9ea37b9fb41633a5cb600bd1085c85b364736f6c63430008110033",
					"opcodes": "PUSH1 0x80 PUSH1 0x40 MSTORE PUSH1 0x0 PUSH1 0x1 PUSH1 0x14 PUSH2 0x100 EXP DUP2 SLOAD DUP2 PUSH1 0xFF MUL NOT AND SWAP1 DUP4 ISZERO ISZERO MUL OR SWAP1 SSTORE POP CALLVALUE DUP1 ISZERO PUSH2 0x2B JUMPI PUSH1 0x0 DUP1 REVERT JUMPDEST POP PUSH2 0xDDE DUP1 PUSH2 0x3B PUSH1 0x0 CODECOPY PUSH1 0x0 RETURN INVALID PUSH1 0x80 PUSH1 0x40 MSTORE CALLVALUE DUP1 ISZERO PUSH2 0x10 JUMPI PUSH1 0x0 DUP1 REVERT JUMPDEST POP PUSH1 0x4 CALLDATASIZE LT PUSH2 0x88 JUMPI PUSH1 0x0 CALLDATALOAD PUSH1 0xE0 SHR DUP1 PUSH4 0x86212B8F GT PUSH2 0x5B JUMPI DUP1 PUSH4 0x86212B8F EQ PUSH2 0x101 JUMPI DUP1 PUSH4 0x8DA5CB5B EQ PUSH2 0x131 JUMPI DUP1 PUSH4 0x94BF804D EQ PUSH2 0x14F JUMPI DUP1 PUSH4 0xD3ACEAE2 EQ PUSH2 0x17F JUMPI PUSH2 0x88 JUMP JUMPDEST DUP1 PUSH4 0x95EA7B3 EQ PUSH2 0x8D JUMPI DUP1 PUSH4 0x158EF93E EQ PUSH2 0xA9 JUMPI DUP1 PUSH4 0x46951954 EQ PUSH2 0xC7 JUMPI DUP1 PUSH4 0x52D1902D EQ PUSH2 0xE3 JUMPI JUMPDEST PUSH1 0x0 DUP1 REVERT JUMPDEST PUSH2 0xA7 PUSH1 0x4 DUP1 CALLDATASIZE SUB DUP2 ADD SWAP1 PUSH2 0xA2 SWAP2 SWAP1 PUSH2 0x8E9 JUMP JUMPDEST PUSH2 0x1AF JUMP JUMPDEST STOP JUMPDEST PUSH2 0xB1 PUSH2 0x3E5 JUMP JUMPDEST PUSH1 0x40 MLOAD PUSH2 0xBE SWAP2 SWAP1 PUSH2 0x944 JUMP JUMPDEST PUSH1 0x40 MLOAD DUP1 SWAP2 SUB SWAP1 RETURN JUMPDEST PUSH2 0xE1 PUSH1 0x4 DUP1 CALLDATASIZE SUB DUP2 ADD SWAP1 PUSH2 0xDC SWAP2 SWAP1 PUSH2 0x95F JUMP JUMPDEST PUSH2 0x3F8 JUMP JUMPDEST STOP JUMPDEST PUSH2 0xEB PUSH2 0x494 JUMP JUMPDEST PUSH1 0x40 MLOAD PUSH2 0xF8 SWAP2 SWAP1 PUSH2 0x9A5 JUMP JUMPDEST PUSH1 0x40 MLOAD DUP1 SWAP2 SUB SWAP1 RETURN JUMPDEST PUSH2 0x11B PUSH1 0x4 DUP1 CALLDATASIZE SUB DUP2 ADD SWAP1 PUSH2 0x116 SWAP2 SWAP1 PUSH2 0x95F JUMP JUMPDEST PUSH2 0x4BF JUMP JUMPDEST PUSH1 0x40 MLOAD PUSH2 0x128 SWAP2 SWAP1 PUSH2 0x9CF JUMP JUMPDEST PUSH1 0x40 MLOAD DUP1 SWAP2 SUB SWAP1 RETURN JUMPDEST PUSH2 0x139 PUSH2 0x508 JUMP JUMPDEST PUSH1 0x40 MLOAD PUSH2 0x146 SWAP2 SWAP1 PUSH2 0x9F9 JUMP JUMPDEST PUSH1 0x40 MLOAD DUP1 SWAP2 SUB SWAP1 RETURN JUMPDEST PUSH2 0x169 PUSH1 0x4 DUP1 CALLDATASIZE SUB DUP2 ADD SWAP1 PUSH2 0x164 SWAP2 SWAP1 PUSH2 0xA14 JUMP JUMPDEST PUSH2 0x52E JUMP JUMPDEST PUSH1 0x40 MLOAD PUSH2 0x176 SWAP2 SWAP1 PUSH2 0x9CF JUMP JUMPDEST PUSH1 0x40 MLOAD DUP1 SWAP2 SUB SWAP1 RETURN JUMPDEST PUSH2 0x199 PUSH1 0x4 DUP1 CALLDATASIZE SUB DUP2 ADD SWAP1 PUSH2 0x194 SWAP2 SWAP1 PUSH2 0x95F JUMP JUMPDEST PUSH2 0x73F JUMP JUMPDEST PUSH1 0x40 MLOAD PUSH2 0x1A6 SWAP2 SWAP1 PUSH2 0x9CF JUMP JUMPDEST PUSH1 0x40 MLOAD DUP1 SWAP2 SUB SWAP1 RETURN JUMPDEST CALLER DUP2 PUSH1 0x0 PUSH2 0x1BC DUP4 PUSH2 0x4BF JUMP JUMPDEST SWAP1 POP DUP2 DUP2 LT ISZERO PUSH2 0x201 JUMPI PUSH1 0x40 MLOAD PUSH32 0x8C379A000000000000000000000000000000000000000000000000000000000 DUP2 MSTORE PUSH1 0x4 ADD PUSH2 0x1F8 SWAP1 PUSH2 0xAB1 JUMP JUMPDEST PUSH1 0x40 MLOAD DUP1 SWAP2 SUB SWAP1 REVERT JUMPDEST PUSH1 0x0 PUSH20 0xFFFFFFFFFFFFFFFFFFFFFFFFFFFFFFFFFFFFFFFF AND DUP6 PUSH20 0xFFFFFFFFFFFFFFFFFFFFFFFFFFFFFFFFFFFFFFFF AND SUB PUSH2 0x23A JUMPI PUSH1 0x0 DUP1 REVERT JUMPDEST PUSH1 0x0 PUSH1 0x3 PUSH1 0x0 CALLER PUSH20 0xFFFFFFFFFFFFFFFFFFFFFFFFFFFFFFFFFFFFFFFF AND PUSH20 0xFFFFFFFFFFFFFFFFFFFFFFFFFFFFFFFFFFFFFFFF AND DUP2 MSTORE PUSH1 0x20 ADD SWAP1 DUP2 MSTORE PUSH1 0x20 ADD PUSH1 0x0 KECCAK256 PUSH1 0x0 DUP8 PUSH20 0xFFFFFFFFFFFFFFFFFFFFFFFFFFFFFFFFFFFFFFFF AND PUSH20 0xFFFFFFFFFFFFFFFFFFFFFFFFFFFFFFFFFFFFFFFF AND DUP2 MSTORE PUSH1 0x20 ADD SWAP1 DUP2 MSTORE PUSH1 0x20 ADD PUSH1 0x0 KECCAK256 SLOAD SWAP1 POP PUSH1 0x0 DUP2 SUB PUSH2 0x349 JUMPI DUP5 PUSH1 0x3 PUSH1 0x0 CALLER PUSH20 0xFFFFFFFFFFFFFFFFFFFFFFFFFFFFFFFFFFFFFFFF AND PUSH20 0xFFFFFFFFFFFFFFFFFFFFFFFFFFFFFFFFFFFFFFFF AND DUP2 MSTORE PUSH1 0x20 ADD SWAP1 DUP2 MSTORE PUSH1 0x20 ADD PUSH1 0x0 KECCAK256 PUSH1 0x0 DUP9 PUSH20 0xFFFFFFFFFFFFFFFFFFFFFFFFFFFFFFFFFFFFFFFF AND PUSH20 0xFFFFFFFFFFFFFFFFFFFFFFFFFFFFFFFFFFFFFFFF AND DUP2 MSTORE PUSH1 0x20 ADD SWAP1 DUP2 MSTORE PUSH1 0x20 ADD PUSH1 0x0 KECCAK256 DUP2 SWAP1 SSTORE POP PUSH2 0x3DD JUMP JUMPDEST DUP5 PUSH1 0x3 PUSH1 0x0 CALLER PUSH20 0xFFFFFFFFFFFFFFFFFFFFFFFFFFFFFFFFFFFFFFFF AND PUSH20 0xFFFFFFFFFFFFFFFFFFFFFFFFFFFFFFFFFFFFFFFF AND DUP2 MSTORE PUSH1 0x20 ADD SWAP1 DUP2 MSTORE PUSH1 0x20 ADD PUSH1 0x0 KECCAK256 PUSH1 0x0 DUP9 PUSH20 0xFFFFFFFFFFFFFFFFFFFFFFFFFFFFFFFFFFFFFFFF AND PUSH20 0xFFFFFFFFFFFFFFFFFFFFFFFFFFFFFFFFFFFFFFFF AND DUP2 MSTORE PUSH1 0x20 ADD SWAP1 DUP2 MSTORE PUSH1 0x20 ADD PUSH1 0x0 KECCAK256 PUSH1 0x0 DUP3 DUP3 SLOAD PUSH2 0x3D5 SWAP2 SWAP1 PUSH2 0xB00 JUMP JUMPDEST SWAP3 POP POP DUP2 SWAP1 SSTORE POP JUMPDEST POP POP POP POP POP POP JUMP JUMPDEST PUSH1 0x1 PUSH1 0x14 SWAP1 SLOAD SWAP1 PUSH2 0x100 EXP SWAP1 DIV PUSH1 0xFF AND DUP2 JUMP JUMPDEST CALLER PUSH20 0xFFFFFFFFFFFFFFFFFFFFFFFFFFFFFFFFFFFFFFFF AND PUSH1 0x1 PUSH1 0x0 SWAP1 SLOAD SWAP1 PUSH2 0x100 EXP SWAP1 DIV PUSH20 0xFFFFFFFFFFFFFFFFFFFFFFFFFFFFFFFFFFFFFFFF AND PUSH20 0xFFFFFFFFFFFFFFFFFFFFFFFFFFFFFFFFFFFFFFFF AND EQ PUSH2 0x488 JUMPI PUSH1 0x40 MLOAD PUSH32 0x8C379A000000000000000000000000000000000000000000000000000000000 DUP2 MSTORE PUSH1 0x4 ADD PUSH2 0x47F SWAP1 PUSH2 0xB80 JUMP JUMPDEST PUSH1 0x40 MLOAD DUP1 SWAP2 SUB SWAP1 REVERT JUMPDEST PUSH2 0x491 DUP2 PUSH2 0x757 JUMP JUMPDEST POP JUMP JUMPDEST PUSH1 0x0 PUSH32 0xC5F16F0FCC639FA48A6947836D9850F504798523BF8C9A3A87D5876CF622BCF7 PUSH1 0x0 SHL SWAP1 POP SWAP1 JUMP JUMPDEST PUSH1 0x0 PUSH1 0x2 PUSH1 0x0 DUP4 PUSH20 0xFFFFFFFFFFFFFFFFFFFFFFFFFFFFFFFFFFFFFFFF AND PUSH20 0xFFFFFFFFFFFFFFFFFFFFFFFFFFFFFFFFFFFFFFFF AND DUP2 MSTORE PUSH1 0x20 ADD SWAP1 DUP2 MSTORE PUSH1 0x20 ADD PUSH1 0x0 KECCAK256 SLOAD SWAP1 POP SWAP2 SWAP1 POP JUMP JUMPDEST PUSH1 0x1 PUSH1 0x0 SWAP1 SLOAD SWAP1 PUSH2 0x100 EXP SWAP1 DIV PUSH20 0xFFFFFFFFFFFFFFFFFFFFFFFFFFFFFFFFFFFFFFFF AND DUP2 JUMP JUMPDEST PUSH1 0x0 CALLER PUSH20 0xFFFFFFFFFFFFFFFFFFFFFFFFFFFFFFFFFFFFFFFF AND PUSH1 0x1 PUSH1 0x0 SWAP1 SLOAD SWAP1 PUSH2 0x100 EXP SWAP1 DIV PUSH20 0xFFFFFFFFFFFFFFFFFFFFFFFFFFFFFFFFFFFFFFFF AND PUSH20 0xFFFFFFFFFFFFFFFFFFFFFFFFFFFFFFFFFFFFFFFF AND EQ PUSH2 0x5C0 JUMPI PUSH1 0x40 MLOAD PUSH32 0x8C379A000000000000000000000000000000000000000000000000000000000 DUP2 MSTORE PUSH1 0x4 ADD PUSH2 0x5B7 SWAP1 PUSH2 0xB80 JUMP JUMPDEST PUSH1 0x40 MLOAD DUP1 SWAP2 SUB SWAP1 REVERT JUMPDEST DUP3 PUSH1 0x0 DUP1 DUP3 DUP3 SLOAD PUSH2 0x5D1 SWAP2 SWAP1 PUSH2 0xB00 JUMP JUMPDEST SWAP3 POP POP DUP2 SWAP1 SSTORE POP PUSH2 0x2710 PUSH1 0x0 SLOAD GT ISZERO PUSH2 0x61F JUMPI PUSH1 0x40 MLOAD PUSH32 0x8C379A000000000000000000000000000000000000000000000000000000000 DUP2 MSTORE PUSH1 0x4 ADD PUSH2 0x616 SWAP1 PUSH2 0xBEC JUMP JUMPDEST PUSH1 0x40 MLOAD DUP1 SWAP2 SUB SWAP1 REVERT JUMPDEST PUSH1 0x0 PUSH20 0xFFFFFFFFFFFFFFFFFFFFFFFFFFFFFFFFFFFFFFFF AND DUP3 PUSH20 0xFFFFFFFFFFFFFFFFFFFFFFFFFFFFFFFFFFFFFFFF AND SUB PUSH2 0x68E JUMPI PUSH1 0x40 MLOAD PUSH32 0x8C379A000000000000000000000000000000000000000000000000000000000 DUP2 MSTORE PUSH1 0x4 ADD PUSH2 0x685 SWAP1 PUSH2 0xC58 JUMP JUMPDEST PUSH1 0x40 MLOAD DUP1 SWAP2 SUB SWAP1 REVERT JUMPDEST PUSH1 0x0 PUSH8 0xDE0B6B3A7640000 DUP5 PUSH2 0x6A4 SWAP2 SWAP1 PUSH2 0xC78 JUMP JUMPDEST SWAP1 POP DUP1 PUSH1 0x2 PUSH1 0x0 DUP6 PUSH20 0xFFFFFFFFFFFFFFFFFFFFFFFFFFFFFFFFFFFFFFFF AND PUSH20 0xFFFFFFFFFFFFFFFFFFFFFFFFFFFFFFFFFFFFFFFF AND DUP2 MSTORE PUSH1 0x20 ADD SWAP1 DUP2 MSTORE PUSH1 0x20 ADD PUSH1 0x0 KECCAK256 PUSH1 0x0 DUP3 DUP3 SLOAD PUSH2 0x6F5 SWAP2 SWAP1 PUSH2 0xB00 JUMP JUMPDEST SWAP3 POP POP DUP2 SWAP1 SSTORE POP PUSH32 0xEEF892AA26C4762FAD30F87B912A95ED5B6FF48D8EA3521783C84679E23D2AE2 DUP4 DUP3 PUSH1 0x40 MLOAD PUSH2 0x72D SWAP3 SWAP2 SWAP1 PUSH2 0xCBA JUMP JUMPDEST PUSH1 0x40 MLOAD DUP1 SWAP2 SUB SWAP1 LOG1 DUP1 SWAP2 POP POP SWAP3 SWAP2 POP POP JUMP JUMPDEST PUSH1 0x2 PUSH1 0x20 MSTORE DUP1 PUSH1 0x0 MSTORE PUSH1 0x40 PUSH1 0x0 KECCAK256 PUSH1 0x0 SWAP2 POP SWAP1 POP SLOAD DUP2 JUMP JUMPDEST DUP1 PUSH20 0xFFFFFFFFFFFFFFFFFFFFFFFFFFFFFFFFFFFFFFFF AND PUSH4 0x52D1902D PUSH1 0x40 MLOAD DUP2 PUSH4 0xFFFFFFFF AND PUSH1 0xE0 SHL DUP2 MSTORE PUSH1 0x4 ADD PUSH1 0x20 PUSH1 0x40 MLOAD DUP1 DUP4 SUB DUP2 DUP7 GAS STATICCALL ISZERO DUP1 ISZERO PUSH2 0x7A2 JUMPI RETURNDATASIZE PUSH1 0x0 DUP1 RETURNDATACOPY RETURNDATASIZE PUSH1 0x0 REVERT JUMPDEST POP POP POP POP PUSH1 0x40 MLOAD RETURNDATASIZE PUSH1 0x1F NOT PUSH1 0x1F DUP3 ADD AND DUP3 ADD DUP1 PUSH1 0x40 MSTORE POP DUP2 ADD SWAP1 PUSH2 0x7C6 SWAP2 SWAP1 PUSH2 0xD0F JUMP JUMPDEST PUSH32 0xC5F16F0FCC639FA48A6947836D9850F504798523BF8C9A3A87D5876CF622BCF7 PUSH1 0x0 SHL EQ PUSH2 0x82A JUMPI PUSH1 0x40 MLOAD PUSH32 0x8C379A000000000000000000000000000000000000000000000000000000000 DUP2 MSTORE PUSH1 0x4 ADD PUSH2 0x821 SWAP1 PUSH2 0xD88 JUMP JUMPDEST PUSH1 0x40 MLOAD DUP1 SWAP2 SUB SWAP1 REVERT JUMPDEST DUP1 PUSH32 0xC5F16F0FCC639FA48A6947836D9850F504798523BF8C9A3A87D5876CF622BCF7 SSTORE POP JUMP JUMPDEST PUSH1 0x0 DUP1 REVERT JUMPDEST PUSH1 0x0 PUSH20 0xFFFFFFFFFFFFFFFFFFFFFFFFFFFFFFFFFFFFFFFF DUP3 AND SWAP1 POP SWAP2 SWAP1 POP JUMP JUMPDEST PUSH1 0x0 PUSH2 0x880 DUP3 PUSH2 0x855 JUMP JUMPDEST SWAP1 POP SWAP2 SWAP1 POP JUMP JUMPDEST PUSH2 0x890 DUP2 PUSH2 0x875 JUMP JUMPDEST DUP2 EQ PUSH2 0x89B JUMPI PUSH1 0x0 DUP1 REVERT JUMPDEST POP JUMP JUMPDEST PUSH1 0x0 DUP2 CALLDATALOAD SWAP1 POP PUSH2 0x8AD DUP2 PUSH2 0x887 JUMP JUMPDEST SWAP3 SWAP2 POP POP JUMP JUMPDEST PUSH1 0x0 DUP2 SWAP1 POP SWAP2 SWAP1 POP JUMP JUMPDEST PUSH2 0x8C6 DUP2 PUSH2 0x8B3 JUMP JUMPDEST DUP2 EQ PUSH2 0x8D1 JUMPI PUSH1 0x0 DUP1 REVERT JUMPDEST POP JUMP JUMPDEST PUSH1 0x0 DUP2 CALLDATALOAD SWAP1 POP PUSH2 0x8E3 DUP2 PUSH2 0x8BD JUMP JUMPDEST SWAP3 SWAP2 POP POP JUMP JUMPDEST PUSH1 0x0 DUP1 PUSH1 0x40 DUP4 DUP6 SUB SLT ISZERO PUSH2 0x900 JUMPI PUSH2 0x8FF PUSH2 0x850 JUMP JUMPDEST JUMPDEST PUSH1 0x0 PUSH2 0x90E DUP6 DUP3 DUP7 ADD PUSH2 0x89E JUMP JUMPDEST SWAP3 POP POP PUSH1 0x20 PUSH2 0x91F DUP6 DUP3 DUP7 ADD PUSH2 0x8D4 JUMP JUMPDEST SWAP2 POP POP SWAP3 POP SWAP3 SWAP1 POP JUMP JUMPDEST PUSH1 0x0 DUP2 ISZERO ISZERO SWAP1 POP SWAP2 SWAP1 POP JUMP JUMPDEST PUSH2 0x93E DUP2 PUSH2 0x929 JUMP JUMPDEST DUP3 MSTORE POP POP JUMP JUMPDEST PUSH1 0x0 PUSH1 0x20 DUP3 ADD SWAP1 POP PUSH2 0x959 PUSH1 0x0 DUP4 ADD DUP5 PUSH2 0x935 JUMP JUMPDEST SWAP3 SWAP2 POP POP JUMP JUMPDEST PUSH1 0x0 PUSH1 0x20 DUP3 DUP5 SUB SLT ISZERO PUSH2 0x975 JUMPI PUSH2 0x974 PUSH2 0x850 JUMP JUMPDEST JUMPDEST PUSH1 0x0 PUSH2 0x983 DUP5 DUP3 DUP6 ADD PUSH2 0x89E JUMP JUMPDEST SWAP2 POP POP SWAP3 SWAP2 POP POP JUMP JUMPDEST PUSH1 0x0 DUP2 SWAP1 POP SWAP2 SWAP1 POP JUMP JUMPDEST PUSH2 0x99F DUP2 PUSH2 0x98C JUMP JUMPDEST DUP3 MSTORE POP POP JUMP JUMPDEST PUSH1 0x0 PUSH1 0x20 DUP3 ADD SWAP1 POP PUSH2 0x9BA PUSH1 0x0 DUP4 ADD DUP5 PUSH2 0x996 JUMP JUMPDEST SWAP3 SWAP2 POP POP JUMP JUMPDEST PUSH2 0x9C9 DUP2 PUSH2 0x8B3 JUMP JUMPDEST DUP3 MSTORE POP POP JUMP JUMPDEST PUSH1 0x0 PUSH1 0x20 DUP3 ADD SWAP1 POP PUSH2 0x9E4 PUSH1 0x0 DUP4 ADD DUP5 PUSH2 0x9C0 JUMP JUMPDEST SWAP3 SWAP2 POP POP JUMP JUMPDEST PUSH2 0x9F3 DUP2 PUSH2 0x875 JUMP JUMPDEST DUP3 MSTORE POP POP JUMP JUMPDEST PUSH1 0x0 PUSH1 0x20 DUP3 ADD SWAP1 POP PUSH2 0xA0E PUSH1 0x0 DUP4 ADD DUP5 PUSH2 0x9EA JUMP JUMPDEST SWAP3 SWAP2 POP POP JUMP JUMPDEST PUSH1 0x0 DUP1 PUSH1 0x40 DUP4 DUP6 SUB SLT ISZERO PUSH2 0xA2B JUMPI PUSH2 0xA2A PUSH2 0x850 JUMP JUMPDEST JUMPDEST PUSH1 0x0 PUSH2 0xA39 DUP6 DUP3 DUP7 ADD PUSH2 0x8D4 JUMP JUMPDEST SWAP3 POP POP PUSH1 0x20 PUSH2 0xA4A DUP6 DUP3 DUP7 ADD PUSH2 0x89E JUMP JUMPDEST SWAP2 POP POP SWAP3 POP SWAP3 SWAP1 POP JUMP JUMPDEST PUSH1 0x0 DUP3 DUP3 MSTORE PUSH1 0x20 DUP3 ADD SWAP1 POP SWAP3 SWAP2 POP POP JUMP JUMPDEST PUSH32 0x496E73756666696369656E742066756E64730000000000000000000000000000 PUSH1 0x0 DUP3 ADD MSTORE POP JUMP JUMPDEST PUSH1 0x0 PUSH2 0xA9B PUSH1 0x12 DUP4 PUSH2 0xA54 JUMP JUMPDEST SWAP2 POP PUSH2 0xAA6 DUP3 PUSH2 0xA65 JUMP JUMPDEST PUSH1 0x20 DUP3 ADD SWAP1 POP SWAP2 SWAP1 POP JUMP JUMPDEST PUSH1 0x0 PUSH1 0x20 DUP3 ADD SWAP1 POP DUP2 DUP2 SUB PUSH1 0x0 DUP4 ADD MSTORE PUSH2 0xACA DUP2 PUSH2 0xA8E JUMP JUMPDEST SWAP1 POP SWAP2 SWAP1 POP JUMP JUMPDEST PUSH32 0x4E487B7100000000000000000000000000000000000000000000000000000000 PUSH1 0x0 MSTORE PUSH1 0x11 PUSH1 0x4 MSTORE PUSH1 0x24 PUSH1 0x0 REVERT JUMPDEST PUSH1 0x0 PUSH2 0xB0B DUP3 PUSH2 0x8B3 JUMP JUMPDEST SWAP2 POP PUSH2 0xB16 DUP4 PUSH2 0x8B3 JUMP JUMPDEST SWAP3 POP DUP3 DUP3 ADD SWAP1 POP DUP1 DUP3 GT ISZERO PUSH2 0xB2E JUMPI PUSH2 0xB2D PUSH2 0xAD1 JUMP JUMPDEST JUMPDEST SWAP3 SWAP2 POP POP JUMP JUMPDEST PUSH32 0x4E6F207065726D697373696F6E2065786365707420746F206F776E6572000000 PUSH1 0x0 DUP3 ADD MSTORE POP JUMP JUMPDEST PUSH1 0x0 PUSH2 0xB6A PUSH1 0x1D DUP4 PUSH2 0xA54 JUMP JUMPDEST SWAP2 POP PUSH2 0xB75 DUP3 PUSH2 0xB34 JUMP JUMPDEST PUSH1 0x20 DUP3 ADD SWAP1 POP SWAP2 SWAP1 POP JUMP JUMPDEST PUSH1 0x0 PUSH1 0x20 DUP3 ADD SWAP1 POP DUP2 DUP2 SUB PUSH1 0x0 DUP4 ADD MSTORE PUSH2 0xB99 DUP2 PUSH2 0xB5D JUMP JUMPDEST SWAP1 POP SWAP2 SWAP1 POP JUMP JUMPDEST PUSH32 0x546F74616C20737570706C79206F6620746F6B656E2065786365656465640000 PUSH1 0x0 DUP3 ADD MSTORE POP JUMP JUMPDEST PUSH1 0x0 PUSH2 0xBD6 PUSH1 0x1E DUP4 PUSH2 0xA54 JUMP JUMPDEST SWAP2 POP PUSH2 0xBE1 DUP3 PUSH2 0xBA0 JUMP JUMPDEST PUSH1 0x20 DUP3 ADD SWAP1 POP SWAP2 SWAP1 POP JUMP JUMPDEST PUSH1 0x0 PUSH1 0x20 DUP3 ADD SWAP1 POP DUP2 DUP2 SUB PUSH1 0x0 DUP4 ADD MSTORE PUSH2 0xC05 DUP2 PUSH2 0xBC9 JUMP JUMPDEST SWAP1 POP SWAP2 SWAP1 POP JUMP JUMPDEST PUSH32 0x6D696E7420746F2061646472657373207A65726F000000000000000000000000 PUSH1 0x0 DUP3 ADD MSTORE POP JUMP JUMPDEST PUSH1 0x0 PUSH2 0xC42 PUSH1 0x14 DUP4 PUSH2 0xA54 JUMP JUMPDEST SWAP2 POP PUSH2 0xC4D DUP3 PUSH2 0xC0C JUMP JUMPDEST PUSH1 0x20 DUP3 ADD SWAP1 POP SWAP2 SWAP1 POP JUMP JUMPDEST PUSH1 0x0 PUSH1 0x20 DUP3 ADD SWAP1 POP DUP2 DUP2 SUB PUSH1 0x0 DUP4 ADD MSTORE PUSH2 0xC71 DUP2 PUSH2 0xC35 JUMP JUMPDEST SWAP1 POP SWAP2 SWAP1 POP JUMP JUMPDEST PUSH1 0x0 PUSH2 0xC83 DUP3 PUSH2 0x8B3 JUMP JUMPDEST SWAP2 POP PUSH2 0xC8E DUP4 PUSH2 0x8B3 JUMP JUMPDEST SWAP3 POP DUP3 DUP3 MUL PUSH2 0xC9C DUP2 PUSH2 0x8B3 JUMP JUMPDEST SWAP2 POP DUP3 DUP3 DIV DUP5 EQ DUP4 ISZERO OR PUSH2 0xCB3 JUMPI PUSH2 0xCB2 PUSH2 0xAD1 JUMP JUMPDEST JUMPDEST POP SWAP3 SWAP2 POP POP JUMP JUMPDEST PUSH1 0x0 PUSH1 0x40 DUP3 ADD SWAP1 POP PUSH2 0xCCF PUSH1 0x0 DUP4 ADD DUP6 PUSH2 0x9EA JUMP JUMPDEST PUSH2 0xCDC PUSH1 0x20 DUP4 ADD DUP5 PUSH2 0x9C0 JUMP JUMPDEST SWAP4 SWAP3 POP POP POP JUMP JUMPDEST PUSH2 0xCEC DUP2 PUSH2 0x98C JUMP JUMPDEST DUP2 EQ PUSH2 0xCF7 JUMPI PUSH1 0x0 DUP1 REVERT JUMPDEST POP JUMP JUMPDEST PUSH1 0x0 DUP2 MLOAD SWAP1 POP PUSH2 0xD09 DUP2 PUSH2 0xCE3 JUMP JUMPDEST SWAP3 SWAP2 POP POP JUMP JUMPDEST PUSH1 0x0 PUSH1 0x20 DUP3 DUP5 SUB SLT ISZERO PUSH2 0xD25 JUMPI PUSH2 0xD24 PUSH2 0x850 JUMP JUMPDEST JUMPDEST PUSH1 0x0 PUSH2 0xD33 DUP5 DUP3 DUP6 ADD PUSH2 0xCFA JUMP JUMPDEST SWAP2 POP POP SWAP3 SWAP2 POP POP JUMP JUMPDEST PUSH32 0x4E6F7420636F6D70617469626C65000000000000000000000000000000000000 PUSH1 0x0 DUP3 ADD MSTORE POP JUMP JUMPDEST PUSH1 0x0 PUSH2 0xD72 PUSH1 0xE DUP4 PUSH2 0xA54 JUMP JUMPDEST SWAP2 POP PUSH2 0xD7D DUP3 PUSH2 0xD3C JUMP JUMPDEST PUSH1 0x20 DUP3 ADD SWAP1 POP SWAP2 SWAP1 POP JUMP JUMPDEST PUSH1 0x0 PUSH1 0x20 DUP3 ADD SWAP1 POP DUP2 DUP2 SUB PUSH1 0x0 DUP4 ADD MSTORE PUSH2 0xDA1 DUP2 PUSH2 0xD65 JUMP JUMPDEST SWAP1 POP SWAP2 SWAP1 POP JUMP INVALID LOG2 PUSH5 0x6970667358 0x22 SLT KECCAK256 0xF6 0xF7 SWAP2 XOR PUSH12 0x29920C1E0A343A0ED9212F9E LOG3 PUSH28 0x9FB41633A5CB600BD1085C85B364736F6C6343000811003300000000 "
				},
				"gasEstimates": {
					"creation": {
						"codeDepositCost": "710000",
						"executionCost": "25058",
						"totalCost": "735058"
					},
					"external": {
						"_balance(address)": "2880",
						"approve(address,uint256)": "infinite",
						"balanceOfAddress(address)": "2841",
						"initialized()": "2544",
						"mint(uint256,address)": "infinite",
						"owner()": "2536",
						"proxiableUUID()": "410",
						"updateCode(address)": "infinite"
					},
					"internal": {
						"initialize()": "infinite"
					}
				},
				"methodIdentifiers": {
					"_balance(address)": "d3aceae2",
					"approve(address,uint256)": "095ea7b3",
					"balanceOfAddress(address)": "86212b8f",
					"initialized()": "158ef93e",
					"mint(uint256,address)": "94bf804d",
					"owner()": "8da5cb5b",
					"proxiableUUID()": "52d1902d",
					"updateCode(address)": "46951954"
				}
			},
			"storageLayout": {
				"storage": [
					{
						"astId": 9,
						"contract": "Upgradable E1P 1822/Implementation1.sol:Implementation1",
						"label": "circulatingSuppy",
						"offset": 0,
						"slot": "0",
						"type": "t_uint256"
					},
					{
						"astId": 20,
						"contract": "Upgradable E1P 1822/Implementation1.sol:Implementation1",
						"label": "owner",
						"offset": 0,
						"slot": "1",
						"type": "t_address"
					},
					{
						"astId": 23,
						"contract": "Upgradable E1P 1822/Implementation1.sol:Implementation1",
						"label": "initialized",
						"offset": 20,
						"slot": "1",
						"type": "t_bool"
					},
					{
						"astId": 27,
						"contract": "Upgradable E1P 1822/Implementation1.sol:Implementation1",
						"label": "_balance",
						"offset": 0,
						"slot": "2",
						"type": "t_mapping(t_address,t_uint256)"
					},
					{
						"astId": 33,
						"contract": "Upgradable E1P 1822/Implementation1.sol:Implementation1",
						"label": "_allowance",
						"offset": 0,
						"slot": "3",
						"type": "t_mapping(t_address,t_mapping(t_address,t_uint256))"
					}
				],
				"types": {
					"t_address": {
						"encoding": "inplace",
						"label": "address",
						"numberOfBytes": "20"
					},
					"t_bool": {
						"encoding": "inplace",
						"label": "bool",
						"numberOfBytes": "1"
					},
					"t_mapping(t_address,t_mapping(t_address,t_uint256))": {
						"encoding": "mapping",
						"key": "t_address",
						"label": "mapping(address => mapping(address => uint256))",
						"numberOfBytes": "32",
						"value": "t_mapping(t_address,t_uint256)"
					},
					"t_mapping(t_address,t_uint256)": {
						"encoding": "mapping",
						"key": "t_address",
						"label": "mapping(address => uint256)",
						"numberOfBytes": "32",
						"value": "t_uint256"
					},
					"t_uint256": {
						"encoding": "inplace",
						"label": "uint256",
						"numberOfBytes": "32"
					}
				}
			},
			"userdoc": {
				"kind": "user",
				"methods": {},
				"version": 1
			}
		}
	}
}