{
	"Upgradable E1P 1822/Implementation1.sol": {
		"Implementation1": {
			"abi": [
				{
					"anonymous": false,
					"inputs": [
						{
							"indexed": true,
							"internalType": "address",
							"name": "owner",
							"type": "address"
						},
						{
							"indexed": true,
							"internalType": "address",
							"name": "spender",
							"type": "address"
						},
						{
							"indexed": false,
							"internalType": "uint256",
							"name": "value",
							"type": "uint256"
						}
					],
					"name": "Approval",
					"type": "event"
				},
				{
					"anonymous": false,
					"inputs": [
						{
							"indexed": true,
							"internalType": "address",
							"name": "from",
							"type": "address"
						},
						{
							"indexed": true,
							"internalType": "address",
							"name": "to",
							"type": "address"
						},
						{
							"indexed": false,
							"internalType": "uint256",
							"name": "value",
							"type": "uint256"
						}
					],
					"name": "Transfer",
					"type": "event"
				},
				{
					"inputs": [
						{
							"internalType": "address",
							"name": "owner",
							"type": "address"
						},
						{
							"internalType": "address",
							"name": "spender",
							"type": "address"
						}
					],
					"name": "allowance",
					"outputs": [
						{
							"internalType": "uint256",
							"name": "",
							"type": "uint256"
						}
					],
					"stateMutability": "view",
					"type": "function"
				},
				{
					"inputs": [
						{
							"internalType": "address",
							"name": "spender",
							"type": "address"
						},
						{
							"internalType": "uint256",
							"name": "amount",
							"type": "uint256"
						}
					],
					"name": "approve",
					"outputs": [
						{
							"internalType": "bool",
							"name": "",
							"type": "bool"
						}
					],
					"stateMutability": "nonpayable",
					"type": "function"
				},
				{
					"inputs": [
						{
							"internalType": "address",
							"name": "account",
							"type": "address"
						}
					],
					"name": "balanceOf",
					"outputs": [
						{
							"internalType": "uint256",
							"name": "",
							"type": "uint256"
						}
					],
					"stateMutability": "view",
					"type": "function"
				},
				{
					"inputs": [],
					"name": "decimals",
					"outputs": [
						{
							"internalType": "uint8",
							"name": "",
							"type": "uint8"
						}
					],
					"stateMutability": "view",
					"type": "function"
				},
				{
					"inputs": [
						{
							"internalType": "address",
							"name": "spender",
							"type": "address"
						},
						{
							"internalType": "uint256",
							"name": "subtractedValue",
							"type": "uint256"
						}
					],
					"name": "decreaseAllowance",
					"outputs": [
						{
							"internalType": "bool",
							"name": "",
							"type": "bool"
						}
					],
					"stateMutability": "nonpayable",
					"type": "function"
				},
				{
					"inputs": [],
					"name": "encodeer",
					"outputs": [
						{
							"internalType": "bytes",
							"name": "",
							"type": "bytes"
						}
					],
					"stateMutability": "pure",
					"type": "function"
				},
				{
					"inputs": [
						{
							"internalType": "address",
							"name": "spender",
							"type": "address"
						},
						{
							"internalType": "uint256",
							"name": "addedValue",
							"type": "uint256"
						}
					],
					"name": "increaseAllowance",
					"outputs": [
						{
							"internalType": "bool",
							"name": "",
							"type": "bool"
						}
					],
					"stateMutability": "nonpayable",
					"type": "function"
				},
				{
					"inputs": [],
					"name": "initialize",
					"outputs": [],
					"stateMutability": "nonpayable",
					"type": "function"
				},
				{
					"inputs": [],
					"name": "initialized",
					"outputs": [
						{
							"internalType": "bool",
							"name": "",
							"type": "bool"
						}
					],
					"stateMutability": "view",
					"type": "function"
				},
				{
					"inputs": [
						{
							"internalType": "uint256",
							"name": "amount",
							"type": "uint256"
						},
						{
							"internalType": "address",
							"name": "_to",
							"type": "address"
						}
					],
					"name": "mintToken",
					"outputs": [],
					"stateMutability": "nonpayable",
					"type": "function"
				},
				{
					"inputs": [],
					"name": "name",
					"outputs": [
						{
							"internalType": "string",
							"name": "",
							"type": "string"
						}
					],
					"stateMutability": "view",
					"type": "function"
				},
				{
					"inputs": [],
					"name": "owner",
					"outputs": [
						{
							"internalType": "address",
							"name": "",
							"type": "address"
						}
					],
					"stateMutability": "view",
					"type": "function"
				},
				{
					"inputs": [],
					"name": "proxiableUUID",
					"outputs": [
						{
							"internalType": "bytes32",
							"name": "",
							"type": "bytes32"
						}
					],
					"stateMutability": "pure",
					"type": "function"
				},
				{
					"inputs": [],
					"name": "symbol",
					"outputs": [
						{
							"internalType": "string",
							"name": "",
							"type": "string"
						}
					],
					"stateMutability": "view",
					"type": "function"
				},
				{
					"inputs": [],
					"name": "totalSupply",
					"outputs": [
						{
							"internalType": "uint256",
							"name": "",
							"type": "uint256"
						}
					],
					"stateMutability": "view",
					"type": "function"
				},
				{
					"inputs": [
						{
							"internalType": "address",
							"name": "to",
							"type": "address"
						},
						{
							"internalType": "uint256",
							"name": "amount",
							"type": "uint256"
						}
					],
					"name": "transfer",
					"outputs": [
						{
							"internalType": "bool",
							"name": "",
							"type": "bool"
						}
					],
					"stateMutability": "nonpayable",
					"type": "function"
				},
				{
					"inputs": [
						{
							"internalType": "address",
							"name": "from",
							"type": "address"
						},
						{
							"internalType": "address",
							"name": "to",
							"type": "address"
						},
						{
							"internalType": "uint256",
							"name": "amount",
							"type": "uint256"
						}
					],
					"name": "transferFrom",
					"outputs": [
						{
							"internalType": "bool",
							"name": "",
							"type": "bool"
						}
					],
					"stateMutability": "nonpayable",
					"type": "function"
				},
				{
					"inputs": [
						{
							"internalType": "address",
							"name": "sendTo",
							"type": "address"
						},
						{
							"internalType": "uint256",
							"name": "amountOut",
							"type": "uint256"
						}
					],
					"name": "transferOut",
					"outputs": [],
					"stateMutability": "nonpayable",
					"type": "function"
				},
				{
					"inputs": [
						{
							"internalType": "address",
							"name": "newCode",
							"type": "address"
						}
					],
					"name": "updateCode",
					"outputs": [],
					"stateMutability": "nonpayable",
					"type": "function"
				}
			],
			"devdoc": {
				"kind": "dev",
				"methods": {
					"allowance(address,address)": {
						"details": "See {IERC20-allowance}."
					},
					"approve(address,uint256)": {
						"details": "See {IERC20-approve}. NOTE: If `amount` is the maximum `uint256`, the allowance is not updated on `transferFrom`. This is semantically equivalent to an infinite approval. Requirements: - `spender` cannot be the zero address."
					},
					"balanceOf(address)": {
						"details": "See {IERC20-balanceOf}."
					},
					"decimals()": {
						"details": "Returns the number of decimals used to get its user representation. For example, if `decimals` equals `2`, a balance of `505` tokens should be displayed to a user as `5.05` (`505 / 10 ** 2`). Tokens usually opt for a value of 18, imitating the relationship between Ether and Wei. This is the value {ERC20} uses, unless this function is overridden; NOTE: This information is only used for _display_ purposes: it in no way affects any of the arithmetic of the contract, including {IERC20-balanceOf} and {IERC20-transfer}."
					},
					"decreaseAllowance(address,uint256)": {
						"details": "Atomically decreases the allowance granted to `spender` by the caller. This is an alternative to {approve} that can be used as a mitigation for problems described in {IERC20-approve}. Emits an {Approval} event indicating the updated allowance. Requirements: - `spender` cannot be the zero address. - `spender` must have allowance for the caller of at least `subtractedValue`."
					},
					"increaseAllowance(address,uint256)": {
						"details": "Atomically increases the allowance granted to `spender` by the caller. This is an alternative to {approve} that can be used as a mitigation for problems described in {IERC20-approve}. Emits an {Approval} event indicating the updated allowance. Requirements: - `spender` cannot be the zero address."
					},
					"name()": {
						"details": "Returns the name of the token."
					},
					"symbol()": {
						"details": "Returns the symbol of the token, usually a shorter version of the name."
					},
					"totalSupply()": {
						"details": "See {IERC20-totalSupply}."
					},
					"transfer(address,uint256)": {
						"details": "See {IERC20-transfer}. Requirements: - `to` cannot be the zero address. - the caller must have a balance of at least `amount`."
					},
					"transferFrom(address,address,uint256)": {
						"details": "See {IERC20-transferFrom}. Emits an {Approval} event indicating the updated allowance. This is not required by the EIP. See the note at the beginning of {ERC20}. NOTE: Does not update the allowance if the current allowance is the maximum `uint256`. Requirements: - `from` and `to` cannot be the zero address. - `from` must have a balance of at least `amount`. - the caller must have allowance for ``from``'s tokens of at least `amount`."
					}
				},
				"version": 1
			},
			"evm": {
				"assembly": "    /* \"Upgradable E1P 1822/Implementation1.sol\":201:1589  contract Implementation1 is ERC20(\"EIP-1822\", \"EIPI\"), Proxiable {... */\n  mstore(0x40, 0x80)\n    /* \"Upgradable E1P 1822/Implementation1.sol\":303:334  bool public initialized = false */\n  0x05\n  dup1\n  sload\n  not(shl(0xa0, 0xff))\n  and\n  swap1\n  sstore\n    /* \"Upgradable E1P 1822/Implementation1.sol\":201:1589  contract Implementation1 is ERC20(\"EIP-1822\", \"EIPI\"), Proxiable {... */\n  callvalue\n  dup1\n  iszero\n  tag_1\n  jumpi\n  0x00\n  dup1\n  revert\ntag_1:\n  pop\n    /* \"https://github.com/OpenZeppelin/openzeppelin-contracts/blob/master/contracts/token/ERC20/ERC20.sol\":1976:2089  constructor(string memory name_, string memory symbol_) {... */\n  0x40\n  dup1\n  mload\n  dup1\n  dup3\n  add\n  dup3\n  mstore\n  0x08\n  dup2\n  mstore\n  shl(0xc1, 0x22a4a816989c1919)\n  0x20\n  dup1\n  dup4\n  add\n  swap2\n  dup3\n  mstore\n  dup4\n  mload\n  dup1\n  dup6\n  add\n  swap1\n  swap5\n  mstore\n  0x04\n  dup5\n  mstore\n  shl(0xe0, 0x45495049)\n  swap1\n  dup5\n  add\n  mstore\n    /* \"https://github.com/OpenZeppelin/openzeppelin-contracts/blob/master/contracts/token/ERC20/ERC20.sol\":2042:2055  _name = name_ */\n  dup2\n  mload\n    /* \"https://github.com/OpenZeppelin/openzeppelin-contracts/blob/master/contracts/token/ERC20/ERC20.sol\":1976:2089  constructor(string memory name_, string memory symbol_) {... */\n  swap2\n  swap3\n  swap2\n    /* \"https://github.com/OpenZeppelin/openzeppelin-contracts/blob/master/contracts/token/ERC20/ERC20.sol\":2042:2055  _name = name_ */\n  tag_4\n  swap2\n    /* \"https://github.com/OpenZeppelin/openzeppelin-contracts/blob/master/contracts/token/ERC20/ERC20.sol\":2042:2047  _name */\n  0x03\n  swap2\n    /* \"https://github.com/OpenZeppelin/openzeppelin-contracts/blob/master/contracts/token/ERC20/ERC20.sol\":2042:2055  _name = name_ */\n  tag_5\n  jump\t// in\ntag_4:\n  pop\n    /* \"https://github.com/OpenZeppelin/openzeppelin-contracts/blob/master/contracts/token/ERC20/ERC20.sol\":2065:2082  _symbol = symbol_ */\n  dup1\n  mload\n  tag_6\n  swap1\n    /* \"https://github.com/OpenZeppelin/openzeppelin-contracts/blob/master/contracts/token/ERC20/ERC20.sol\":2065:2072  _symbol */\n  0x04\n  swap1\n    /* \"https://github.com/OpenZeppelin/openzeppelin-contracts/blob/master/contracts/token/ERC20/ERC20.sol\":2065:2082  _symbol = symbol_ */\n  0x20\n  dup5\n  add\n  swap1\n  tag_5\n  jump\t// in\ntag_6:\n  pop\n    /* \"https://github.com/OpenZeppelin/openzeppelin-contracts/blob/master/contracts/token/ERC20/ERC20.sol\":1976:2089  constructor(string memory name_, string memory symbol_) {... */\n  pop\n  pop\n    /* \"Upgradable E1P 1822/Implementation1.sol\":201:1589  contract Implementation1 is ERC20(\"EIP-1822\", \"EIPI\"), Proxiable {... */\n  jump(tag_19)\ntag_5:\n  dup3\n  dup1\n  sload\n  tag_8\n  swap1\n  tag_9\n  jump\t// in\ntag_8:\n  swap1\n  0x00\n  mstore\n  keccak256(0x00, 0x20)\n  swap1\n  0x1f\n  add\n  0x20\n  swap1\n  div\n  dup2\n  add\n  swap3\n  dup3\n  tag_11\n  jumpi\n  0x00\n  dup6\n  sstore\n  jump(tag_14)\ntag_11:\n  dup3\n  0x1f\n  lt\n  tag_12\n  jumpi\n  dup1\n  mload\n  not(0xff)\n  and\n  dup4\n  dup1\n  add\n  or\n  dup6\n  sstore\n  jump(tag_14)\ntag_12:\n  dup3\n  dup1\n  add\n  0x01\n  add\n  dup6\n  sstore\n  dup3\n  iszero\n  tag_14\n  jumpi\n  swap2\n  dup3\n  add\ntag_13:\n  dup3\n  dup2\n  gt\n  iszero\n  tag_14\n  jumpi\n  dup3\n  mload\n  dup3\n  sstore\n  swap2\n  0x20\n  add\n  swap2\n  swap1\n  0x01\n  add\n  swap1\n  jump(tag_13)\ntag_14:\n  pop\n  tag_15\n  swap3\n  swap2\n  pop\n  tag_16\n  jump\t// in\ntag_15:\n  pop\n  swap1\n  jump\t// out\ntag_16:\ntag_17:\n  dup1\n  dup3\n  gt\n  iszero\n  tag_15\n  jumpi\n  0x00\n  dup2\n  sstore\n  0x01\n  add\n  jump(tag_17)\n    /* \"#utility.yul\":14:394   */\ntag_9:\n    /* \"#utility.yul\":93:94   */\n  0x01\n    /* \"#utility.yul\":89:101   */\n  dup2\n  dup2\n  shr\n  swap1\n    /* \"#utility.yul\":136:148   */\n  dup3\n  and\n  dup1\n    /* \"#utility.yul\":157:218   */\n  tag_21\n  jumpi\n    /* \"#utility.yul\":211:215   */\n  0x7f\n    /* \"#utility.yul\":203:209   */\n  dup3\n    /* \"#utility.yul\":199:216   */\n  and\n    /* \"#utility.yul\":189:216   */\n  swap2\n  pop\n    /* \"#utility.yul\":157:218   */\ntag_21:\n    /* \"#utility.yul\":264:266   */\n  0x20\n    /* \"#utility.yul\":256:262   */\n  dup3\n    /* \"#utility.yul\":253:267   */\n  lt\n    /* \"#utility.yul\":233:251   */\n  dup2\n    /* \"#utility.yul\":230:268   */\n  eq\n    /* \"#utility.yul\":227:388   */\n  iszero\n  tag_22\n  jumpi\n    /* \"#utility.yul\":310:320   */\n  0x4e487b71\n    /* \"#utility.yul\":305:308   */\n  0xe0\n    /* \"#utility.yul\":301:321   */\n  shl\n    /* \"#utility.yul\":298:299   */\n  0x00\n    /* \"#utility.yul\":291:322   */\n  mstore\n    /* \"#utility.yul\":345:349   */\n  0x22\n    /* \"#utility.yul\":342:343   */\n  0x04\n    /* \"#utility.yul\":335:350   */\n  mstore\n    /* \"#utility.yul\":373:377   */\n  0x24\n    /* \"#utility.yul\":370:371   */\n  0x00\n    /* \"#utility.yul\":363:378   */\n  revert\n    /* \"#utility.yul\":227:388   */\ntag_22:\n  pop\n    /* \"#utility.yul\":14:394   */\n  swap2\n  swap1\n  pop\n  jump\t// out\ntag_19:\n    /* \"Upgradable E1P 1822/Implementation1.sol\":201:1589  contract Implementation1 is ERC20(\"EIP-1822\", \"EIPI\"), Proxiable {... */\n  dataSize(sub_0)\n  dup1\n  dataOffset(sub_0)\n  0x00\n  codecopy\n  0x00\n  return\nstop\n\nsub_0: assembly {\n        /* \"Upgradable E1P 1822/Implementation1.sol\":201:1589  contract Implementation1 is ERC20(\"EIP-1822\", \"EIPI\"), Proxiable {... */\n      mstore(0x40, 0x80)\n      callvalue\n      dup1\n      iszero\n      tag_1\n      jumpi\n      0x00\n      dup1\n      revert\n    tag_1:\n      pop\n      jumpi(tag_2, lt(calldatasize, 0x04))\n      shr(0xe0, calldataload(0x00))\n      dup1\n      0x52d1902d\n      gt\n      tag_22\n      jumpi\n      dup1\n      0x95d89b41\n      gt\n      tag_23\n      jumpi\n      dup1\n      0x95d89b41\n      eq\n      tag_17\n      jumpi\n      dup1\n      0xa140ae23\n      eq\n      tag_18\n      jumpi\n      dup1\n      0xa457c2d7\n      eq\n      tag_19\n      jumpi\n      dup1\n      0xa9059cbb\n      eq\n      tag_20\n      jumpi\n      dup1\n      0xdd62ed3e\n      eq\n      tag_21\n      jumpi\n      0x00\n      dup1\n      revert\n    tag_23:\n      dup1\n      0x52d1902d\n      eq\n      tag_12\n      jumpi\n      dup1\n      0x70a08231\n      eq\n      tag_13\n      jumpi\n      dup1\n      0x76890c58\n      eq\n      tag_14\n      jumpi\n      dup1\n      0x8129fc1c\n      eq\n      tag_15\n      jumpi\n      dup1\n      0x8da5cb5b\n      eq\n      tag_16\n      jumpi\n      0x00\n      dup1\n      revert\n    tag_22:\n      dup1\n      0x18160ddd\n      gt\n      tag_24\n      jumpi\n      dup1\n      0x18160ddd\n      eq\n      tag_7\n      jumpi\n      dup1\n      0x23b872dd\n      eq\n      tag_8\n      jumpi\n      dup1\n      0x313ce567\n      eq\n      tag_9\n      jumpi\n      dup1\n      0x39509351\n      eq\n      tag_10\n      jumpi\n      dup1\n      0x46951954\n      eq\n      tag_11\n      jumpi\n      0x00\n      dup1\n      revert\n    tag_24:\n      dup1\n      0x06fdde03\n      eq\n      tag_3\n      jumpi\n      dup1\n      0x095ea7b3\n      eq\n      tag_4\n      jumpi\n      dup1\n      0x11d7fe4d\n      eq\n      tag_5\n      jumpi\n      dup1\n      0x158ef93e\n      eq\n      tag_6\n      jumpi\n    tag_2:\n      0x00\n      dup1\n      revert\n        /* \"Upgradable E1P 1822/Implementation1.sol\":757:859  function name() public view virtual override returns (string memory) {... */\n    tag_3:\n      tag_25\n      tag_26\n      jump\t// in\n    tag_25:\n      mload(0x40)\n      tag_27\n      swap2\n      swap1\n      tag_28\n      jump\t// in\n    tag_27:\n      mload(0x40)\n      dup1\n      swap2\n      sub\n      swap1\n      return\n        /* \"https://github.com/OpenZeppelin/openzeppelin-contracts/blob/master/contracts/token/ERC20/ERC20.sol\":4431:4628  function approve(address spender, uint256 amount) public virtual override returns (bool) {... */\n    tag_4:\n      tag_29\n      tag_30\n      calldatasize\n      0x04\n      tag_31\n      jump\t// in\n    tag_30:\n      tag_32\n      jump\t// in\n    tag_29:\n      mload(0x40)\n        /* \"#utility.yul\":1318:1332   */\n      swap1\n      iszero\n        /* \"#utility.yul\":1311:1333   */\n      iszero\n        /* \"#utility.yul\":1293:1334   */\n      dup2\n      mstore\n        /* \"#utility.yul\":1281:1283   */\n      0x20\n        /* \"#utility.yul\":1266:1284   */\n      add\n        /* \"https://github.com/OpenZeppelin/openzeppelin-contracts/blob/master/contracts/token/ERC20/ERC20.sol\":4431:4628  function approve(address spender, uint256 amount) public virtual override returns (bool) {... */\n      tag_27\n        /* \"#utility.yul\":1153:1340   */\n      jump\n        /* \"Upgradable E1P 1822/Implementation1.sol\":981:1097  function encodeer() public pure returns(bytes memory){... */\n    tag_5:\n      tag_25\n        /* \"Upgradable E1P 1822/Implementation1.sol\":1051:1090  abi.encodeWithSignature(\"initialize()\") */\n      0x40\n      dup1\n      mload\n      0x04\n      dup2\n      mstore\n      0x24\n      dup2\n      add\n      swap1\n      swap2\n      mstore\n      0x20\n      dup2\n      add\n      dup1\n      mload\n      sub(shl(0xe0, 0x01), 0x01)\n      and\n      shl(0xe2, 0x204a7f07)\n      or\n      swap1\n      mstore\n      swap1\n        /* \"Upgradable E1P 1822/Implementation1.sol\":981:1097  function encodeer() public pure returns(bytes memory){... */\n      jump\n        /* \"Upgradable E1P 1822/Implementation1.sol\":303:334  bool public initialized = false */\n    tag_6:\n      sload(0x05)\n      tag_29\n      swap1\n      shl(0xa0, 0x01)\n      swap1\n      div\n      0xff\n      and\n      dup2\n      jump\n        /* \"https://github.com/OpenZeppelin/openzeppelin-contracts/blob/master/contracts/token/ERC20/ERC20.sol\":3242:3348  function totalSupply() public view virtual override returns (uint256) {... */\n    tag_7:\n        /* \"https://github.com/OpenZeppelin/openzeppelin-contracts/blob/master/contracts/token/ERC20/ERC20.sol\":3329:3341  _totalSupply */\n      sload(0x02)\n        /* \"https://github.com/OpenZeppelin/openzeppelin-contracts/blob/master/contracts/token/ERC20/ERC20.sol\":3242:3348  function totalSupply() public view virtual override returns (uint256) {... */\n    tag_42:\n      mload(0x40)\n        /* \"#utility.yul\":1714:1739   */\n      swap1\n      dup2\n      mstore\n        /* \"#utility.yul\":1702:1704   */\n      0x20\n        /* \"#utility.yul\":1687:1705   */\n      add\n        /* \"https://github.com/OpenZeppelin/openzeppelin-contracts/blob/master/contracts/token/ERC20/ERC20.sol\":3242:3348  function totalSupply() public view virtual override returns (uint256) {... */\n      tag_27\n        /* \"#utility.yul\":1568:1745   */\n      jump\n        /* \"https://github.com/OpenZeppelin/openzeppelin-contracts/blob/master/contracts/token/ERC20/ERC20.sol\":5190:5476  function transferFrom(... */\n    tag_8:\n      tag_29\n      tag_47\n      calldatasize\n      0x04\n      tag_48\n      jump\t// in\n    tag_47:\n      tag_49\n      jump\t// in\n        /* \"https://github.com/OpenZeppelin/openzeppelin-contracts/blob/master/contracts/token/ERC20/ERC20.sol\":3091:3182  function decimals() public view virtual override returns (uint8) {... */\n    tag_9:\n      mload(0x40)\n        /* \"https://github.com/OpenZeppelin/openzeppelin-contracts/blob/master/contracts/token/ERC20/ERC20.sol\":3173:3175  18 */\n      0x12\n        /* \"#utility.yul\":2225:2261   */\n      dup2\n      mstore\n        /* \"#utility.yul\":2213:2215   */\n      0x20\n        /* \"#utility.yul\":2198:2216   */\n      add\n        /* \"https://github.com/OpenZeppelin/openzeppelin-contracts/blob/master/contracts/token/ERC20/ERC20.sol\":3091:3182  function decimals() public view virtual override returns (uint8) {... */\n      tag_27\n        /* \"#utility.yul\":2083:2267   */\n      jump\n        /* \"https://github.com/OpenZeppelin/openzeppelin-contracts/blob/master/contracts/token/ERC20/ERC20.sol\":5871:6105  function increaseAllowance(address spender, uint256 addedValue) public virtual returns (bool) {... */\n    tag_10:\n      tag_29\n      tag_56\n      calldatasize\n      0x04\n      tag_31\n      jump\t// in\n    tag_56:\n      tag_57\n      jump\t// in\n        /* \"Upgradable E1P 1822/Implementation1.sol\":1490:1587  function updateCode(address newCode) onlyOwner public {... */\n    tag_11:\n      tag_59\n      tag_60\n      calldatasize\n      0x04\n      tag_61\n      jump\t// in\n    tag_60:\n      tag_62\n      jump\t// in\n    tag_59:\n      stop\n        /* \"Upgradable E1P 1822/Proxible.sol\":627:772  function proxiableUUID() public pure returns (bytes32) {... */\n    tag_12:\n        /* \"Upgradable E1P 1822/Proxible.sol\":699:765  0xc5f16f0fcc639fa48a6947836d9850f504798523bf8c9a3a87d5876cf622bcf7 */\n      0xc5f16f0fcc639fa48a6947836d9850f504798523bf8c9a3a87d5876cf622bcf7\n        /* \"Upgradable E1P 1822/Proxible.sol\":627:772  function proxiableUUID() public pure returns (bytes32) {... */\n      jump(tag_42)\n        /* \"https://github.com/OpenZeppelin/openzeppelin-contracts/blob/master/contracts/token/ERC20/ERC20.sol\":3406:3531  function balanceOf(address account) public view virtual override returns (uint256) {... */\n    tag_13:\n      tag_42\n      tag_68\n      calldatasize\n      0x04\n      tag_61\n      jump\t// in\n    tag_68:\n      sub(shl(0xa0, 0x01), 0x01)\n        /* \"https://github.com/OpenZeppelin/openzeppelin-contracts/blob/master/contracts/token/ERC20/ERC20.sol\":3506:3524  _balances[account] */\n      and\n        /* \"https://github.com/OpenZeppelin/openzeppelin-contracts/blob/master/contracts/token/ERC20/ERC20.sol\":3480:3487  uint256 */\n      0x00\n        /* \"https://github.com/OpenZeppelin/openzeppelin-contracts/blob/master/contracts/token/ERC20/ERC20.sol\":3506:3524  _balances[account] */\n      swap1\n      dup2\n      mstore\n      0x20\n      dup2\n      swap1\n      mstore\n      0x40\n      swap1\n      keccak256\n      sload\n      swap1\n        /* \"https://github.com/OpenZeppelin/openzeppelin-contracts/blob/master/contracts/token/ERC20/ERC20.sol\":3406:3531  function balanceOf(address account) public view virtual override returns (uint256) {... */\n      jump\n        /* \"Upgradable E1P 1822/Implementation1.sol\":1195:1484  function transferOut(address sendTo,uint amountOut) public onlyOwner {... */\n    tag_14:\n      tag_59\n      tag_72\n      calldatasize\n      0x04\n      tag_31\n      jump\t// in\n    tag_72:\n      tag_73\n      jump\t// in\n        /* \"Upgradable E1P 1822/Implementation1.sol\":499:752  function initialize() public {... */\n    tag_15:\n      tag_59\n      tag_75\n      jump\t// in\n        /* \"Upgradable E1P 1822/Implementation1.sol\":277:297  address public owner */\n    tag_16:\n      sload(0x05)\n      tag_76\n      swap1\n      sub(shl(0xa0, 0x01), 0x01)\n      and\n      dup2\n      jump\n    tag_76:\n      mload(0x40)\n      sub(shl(0xa0, 0x01), 0x01)\n        /* \"#utility.yul\":2809:2841   */\n      swap1\n      swap2\n      and\n        /* \"#utility.yul\":2791:2842   */\n      dup2\n      mstore\n        /* \"#utility.yul\":2779:2781   */\n      0x20\n        /* \"#utility.yul\":2764:2782   */\n      add\n        /* \"Upgradable E1P 1822/Implementation1.sol\":277:297  address public owner */\n      tag_27\n        /* \"#utility.yul\":2645:2848   */\n      jump\n        /* \"Upgradable E1P 1822/Implementation1.sol\":865:971  function symbol() public view virtual override returns (string memory) {... */\n    tag_17:\n      tag_25\n      tag_81\n      jump\t// in\n        /* \"Upgradable E1P 1822/Implementation1.sol\":1103:1189  function mintToken(uint amount, address _to) public {... */\n    tag_18:\n      tag_59\n      tag_84\n      calldatasize\n      0x04\n      tag_85\n      jump\t// in\n    tag_84:\n      tag_86\n      jump\t// in\n        /* \"https://github.com/OpenZeppelin/openzeppelin-contracts/blob/master/contracts/token/ERC20/ERC20.sol\":6592:7019  function decreaseAllowance(address spender, uint256 subtractedValue) public virtual returns (bool) {... */\n    tag_19:\n      tag_29\n      tag_88\n      calldatasize\n      0x04\n      tag_31\n      jump\t// in\n    tag_88:\n      tag_89\n      jump\t// in\n        /* \"https://github.com/OpenZeppelin/openzeppelin-contracts/blob/master/contracts/token/ERC20/ERC20.sol\":3727:3916  function transfer(address to, uint256 amount) public virtual override returns (bool) {... */\n    tag_20:\n      tag_29\n      tag_92\n      calldatasize\n      0x04\n      tag_31\n      jump\t// in\n    tag_92:\n      tag_93\n      jump\t// in\n        /* \"https://github.com/OpenZeppelin/openzeppelin-contracts/blob/master/contracts/token/ERC20/ERC20.sol\":3974:4123  function allowance(address owner, address spender) public view virtual override returns (uint256) {... */\n    tag_21:\n      tag_42\n      tag_96\n      calldatasize\n      0x04\n      tag_97\n      jump\t// in\n    tag_96:\n      tag_98\n      jump\t// in\n        /* \"Upgradable E1P 1822/Implementation1.sol\":757:859  function name() public view virtual override returns (string memory) {... */\n    tag_26:\n        /* \"Upgradable E1P 1822/Implementation1.sol\":811:824  string memory */\n      0x60\n        /* \"Upgradable E1P 1822/Implementation1.sol\":843:852  tokenName */\n      0x06\n        /* \"Upgradable E1P 1822/Implementation1.sol\":836:852  return tokenName */\n      dup1\n      sload\n      tag_101\n      swap1\n      tag_102\n      jump\t// in\n    tag_101:\n      dup1\n      0x1f\n      add\n      0x20\n      dup1\n      swap2\n      div\n      mul\n      0x20\n      add\n      mload(0x40)\n      swap1\n      dup2\n      add\n      0x40\n      mstore\n      dup1\n      swap3\n      swap2\n      swap1\n      dup2\n      dup2\n      mstore\n      0x20\n      add\n      dup3\n      dup1\n      sload\n      tag_103\n      swap1\n      tag_102\n      jump\t// in\n    tag_103:\n      dup1\n      iszero\n      tag_104\n      jumpi\n      dup1\n      0x1f\n      lt\n      tag_105\n      jumpi\n      0x0100\n      dup1\n      dup4\n      sload\n      div\n      mul\n      dup4\n      mstore\n      swap2\n      0x20\n      add\n      swap2\n      jump(tag_104)\n    tag_105:\n      dup3\n      add\n      swap2\n      swap1\n      0x00\n      mstore\n      keccak256(0x00, 0x20)\n      swap1\n    tag_106:\n      dup2\n      sload\n      dup2\n      mstore\n      swap1\n      0x01\n      add\n      swap1\n      0x20\n      add\n      dup1\n      dup4\n      gt\n      tag_106\n      jumpi\n      dup3\n      swap1\n      sub\n      0x1f\n      and\n      dup3\n      add\n      swap2\n    tag_104:\n      pop\n      pop\n      pop\n      pop\n      pop\n      swap1\n      pop\n        /* \"Upgradable E1P 1822/Implementation1.sol\":757:859  function name() public view virtual override returns (string memory) {... */\n      swap1\n      jump\t// out\n        /* \"https://github.com/OpenZeppelin/openzeppelin-contracts/blob/master/contracts/token/ERC20/ERC20.sol\":4431:4628  function approve(address spender, uint256 amount) public virtual override returns (bool) {... */\n    tag_32:\n        /* \"https://github.com/OpenZeppelin/openzeppelin-contracts/blob/master/contracts/token/ERC20/ERC20.sol\":4514:4518  bool */\n      0x00\n        /* \"https://github.com/OpenZeppelin/openzeppelin-contracts/blob/master/contracts/utils/Context.sol\":719:729  msg.sender */\n      caller\n        /* \"https://github.com/OpenZeppelin/openzeppelin-contracts/blob/master/contracts/token/ERC20/ERC20.sol\":4568:4600  _approve(owner, spender, amount) */\n      tag_110\n        /* \"https://github.com/OpenZeppelin/openzeppelin-contracts/blob/master/contracts/utils/Context.sol\":719:729  msg.sender */\n      dup2\n        /* \"https://github.com/OpenZeppelin/openzeppelin-contracts/blob/master/contracts/token/ERC20/ERC20.sol\":4584:4591  spender */\n      dup6\n        /* \"https://github.com/OpenZeppelin/openzeppelin-contracts/blob/master/contracts/token/ERC20/ERC20.sol\":4593:4599  amount */\n      dup6\n        /* \"https://github.com/OpenZeppelin/openzeppelin-contracts/blob/master/contracts/token/ERC20/ERC20.sol\":4568:4576  _approve */\n      tag_111\n        /* \"https://github.com/OpenZeppelin/openzeppelin-contracts/blob/master/contracts/token/ERC20/ERC20.sol\":4568:4600  _approve(owner, spender, amount) */\n      jump\t// in\n    tag_110:\n      pop\n        /* \"https://github.com/OpenZeppelin/openzeppelin-contracts/blob/master/contracts/token/ERC20/ERC20.sol\":4617:4621  true */\n      0x01\n      swap4\n        /* \"https://github.com/OpenZeppelin/openzeppelin-contracts/blob/master/contracts/token/ERC20/ERC20.sol\":4431:4628  function approve(address spender, uint256 amount) public virtual override returns (bool) {... */\n      swap3\n      pop\n      pop\n      pop\n      jump\t// out\n        /* \"https://github.com/OpenZeppelin/openzeppelin-contracts/blob/master/contracts/token/ERC20/ERC20.sol\":5190:5476  function transferFrom(... */\n    tag_49:\n        /* \"https://github.com/OpenZeppelin/openzeppelin-contracts/blob/master/contracts/token/ERC20/ERC20.sol\":5317:5321  bool */\n      0x00\n        /* \"https://github.com/OpenZeppelin/openzeppelin-contracts/blob/master/contracts/utils/Context.sol\":719:729  msg.sender */\n      caller\n        /* \"https://github.com/OpenZeppelin/openzeppelin-contracts/blob/master/contracts/token/ERC20/ERC20.sol\":5373:5411  _spendAllowance(from, spender, amount) */\n      tag_116\n        /* \"https://github.com/OpenZeppelin/openzeppelin-contracts/blob/master/contracts/token/ERC20/ERC20.sol\":5389:5393  from */\n      dup6\n        /* \"https://github.com/OpenZeppelin/openzeppelin-contracts/blob/master/contracts/utils/Context.sol\":719:729  msg.sender */\n      dup3\n        /* \"https://github.com/OpenZeppelin/openzeppelin-contracts/blob/master/contracts/token/ERC20/ERC20.sol\":5404:5410  amount */\n      dup6\n        /* \"https://github.com/OpenZeppelin/openzeppelin-contracts/blob/master/contracts/token/ERC20/ERC20.sol\":5373:5388  _spendAllowance */\n      tag_117\n        /* \"https://github.com/OpenZeppelin/openzeppelin-contracts/blob/master/contracts/token/ERC20/ERC20.sol\":5373:5411  _spendAllowance(from, spender, amount) */\n      jump\t// in\n    tag_116:\n        /* \"https://github.com/OpenZeppelin/openzeppelin-contracts/blob/master/contracts/token/ERC20/ERC20.sol\":5421:5448  _transfer(from, to, amount) */\n      tag_118\n        /* \"https://github.com/OpenZeppelin/openzeppelin-contracts/blob/master/contracts/token/ERC20/ERC20.sol\":5431:5435  from */\n      dup6\n        /* \"https://github.com/OpenZeppelin/openzeppelin-contracts/blob/master/contracts/token/ERC20/ERC20.sol\":5437:5439  to */\n      dup6\n        /* \"https://github.com/OpenZeppelin/openzeppelin-contracts/blob/master/contracts/token/ERC20/ERC20.sol\":5441:5447  amount */\n      dup6\n        /* \"https://github.com/OpenZeppelin/openzeppelin-contracts/blob/master/contracts/token/ERC20/ERC20.sol\":5421:5430  _transfer */\n      tag_119\n        /* \"https://github.com/OpenZeppelin/openzeppelin-contracts/blob/master/contracts/token/ERC20/ERC20.sol\":5421:5448  _transfer(from, to, amount) */\n      jump\t// in\n    tag_118:\n      pop\n        /* \"https://github.com/OpenZeppelin/openzeppelin-contracts/blob/master/contracts/token/ERC20/ERC20.sol\":5465:5469  true */\n      0x01\n      swap5\n        /* \"https://github.com/OpenZeppelin/openzeppelin-contracts/blob/master/contracts/token/ERC20/ERC20.sol\":5190:5476  function transferFrom(... */\n      swap4\n      pop\n      pop\n      pop\n      pop\n      jump\t// out\n        /* \"https://github.com/OpenZeppelin/openzeppelin-contracts/blob/master/contracts/token/ERC20/ERC20.sol\":5871:6105  function increaseAllowance(address spender, uint256 addedValue) public virtual returns (bool) {... */\n    tag_57:\n        /* \"https://github.com/OpenZeppelin/openzeppelin-contracts/blob/master/contracts/token/ERC20/ERC20.sol\":5959:5963  bool */\n      0x00\n        /* \"https://github.com/OpenZeppelin/openzeppelin-contracts/blob/master/contracts/utils/Context.sol\":719:729  msg.sender */\n      caller\n        /* \"https://github.com/OpenZeppelin/openzeppelin-contracts/blob/master/contracts/token/ERC20/ERC20.sol\":6013:6077  _approve(owner, spender, allowance(owner, spender) + addedValue) */\n      tag_110\n        /* \"https://github.com/OpenZeppelin/openzeppelin-contracts/blob/master/contracts/utils/Context.sol\":719:729  msg.sender */\n      dup2\n        /* \"https://github.com/OpenZeppelin/openzeppelin-contracts/blob/master/contracts/token/ERC20/ERC20.sol\":6029:6036  spender */\n      dup6\n        /* \"https://github.com/OpenZeppelin/openzeppelin-contracts/blob/master/contracts/token/ERC20/ERC20.sol\":6066:6076  addedValue */\n      dup6\n        /* \"https://github.com/OpenZeppelin/openzeppelin-contracts/blob/master/contracts/token/ERC20/ERC20.sol\":6038:6063  allowance(owner, spender) */\n      tag_124\n        /* \"https://github.com/OpenZeppelin/openzeppelin-contracts/blob/master/contracts/utils/Context.sol\":719:729  msg.sender */\n      dup4\n        /* \"https://github.com/OpenZeppelin/openzeppelin-contracts/blob/master/contracts/token/ERC20/ERC20.sol\":6029:6036  spender */\n      dup4\n        /* \"https://github.com/OpenZeppelin/openzeppelin-contracts/blob/master/contracts/token/ERC20/ERC20.sol\":6038:6047  allowance */\n      tag_98\n        /* \"https://github.com/OpenZeppelin/openzeppelin-contracts/blob/master/contracts/token/ERC20/ERC20.sol\":6038:6063  allowance(owner, spender) */\n      jump\t// in\n    tag_124:\n        /* \"https://github.com/OpenZeppelin/openzeppelin-contracts/blob/master/contracts/token/ERC20/ERC20.sol\":6038:6076  allowance(owner, spender) + addedValue */\n      tag_125\n      swap2\n      swap1\n      tag_126\n      jump\t// in\n    tag_125:\n        /* \"https://github.com/OpenZeppelin/openzeppelin-contracts/blob/master/contracts/token/ERC20/ERC20.sol\":6013:6021  _approve */\n      tag_111\n        /* \"https://github.com/OpenZeppelin/openzeppelin-contracts/blob/master/contracts/token/ERC20/ERC20.sol\":6013:6077  _approve(owner, spender, allowance(owner, spender) + addedValue) */\n      jump\t// in\n        /* \"Upgradable E1P 1822/Implementation1.sol\":1490:1587  function updateCode(address newCode) onlyOwner public {... */\n    tag_62:\n        /* \"Upgradable E1P 1822/Implementation1.sol\":424:429  owner */\n      and(sub(shl(0xa0, 0x01), 0x01), sload(0x05))\n        /* \"Upgradable E1P 1822/Implementation1.sol\":433:443  msg.sender */\n      caller\n        /* \"Upgradable E1P 1822/Implementation1.sol\":424:443  owner == msg.sender */\n      eq\n        /* \"Upgradable E1P 1822/Implementation1.sol\":416:477  require(owner == msg.sender, \"No permission except to owner\") */\n      tag_128\n      jumpi\n      mload(0x40)\n      shl(0xe5, 0x461bcd)\n      dup2\n      mstore\n        /* \"#utility.yul\":4194:4196   */\n      0x20\n        /* \"Upgradable E1P 1822/Implementation1.sol\":416:477  require(owner == msg.sender, \"No permission except to owner\") */\n      0x04\n      dup3\n      add\n        /* \"#utility.yul\":4176:4197   */\n      mstore\n        /* \"#utility.yul\":4233:4235   */\n      0x1d\n        /* \"#utility.yul\":4213:4231   */\n      0x24\n      dup3\n      add\n        /* \"#utility.yul\":4206:4236   */\n      mstore\n        /* \"#utility.yul\":4272:4303   */\n      0x4e6f207065726d697373696f6e2065786365707420746f206f776e6572000000\n        /* \"#utility.yul\":4252:4270   */\n      0x44\n      dup3\n      add\n        /* \"#utility.yul\":4245:4304   */\n      mstore\n        /* \"#utility.yul\":4321:4339   */\n      0x64\n      add\n        /* \"Upgradable E1P 1822/Implementation1.sol\":416:477  require(owner == msg.sender, \"No permission except to owner\") */\n    tag_129:\n      mload(0x40)\n      dup1\n      swap2\n      sub\n      swap1\n      revert\n    tag_128:\n        /* \"Upgradable E1P 1822/Implementation1.sol\":1554:1580  updateCodeAddress(newCode) */\n      tag_132\n        /* \"Upgradable E1P 1822/Implementation1.sol\":1572:1579  newCode */\n      dup2\n        /* \"Upgradable E1P 1822/Implementation1.sol\":1554:1571  updateCodeAddress */\n      tag_133\n        /* \"Upgradable E1P 1822/Implementation1.sol\":1554:1580  updateCodeAddress(newCode) */\n      jump\t// in\n    tag_132:\n        /* \"Upgradable E1P 1822/Implementation1.sol\":1490:1587  function updateCode(address newCode) onlyOwner public {... */\n      pop\n      jump\t// out\n        /* \"Upgradable E1P 1822/Implementation1.sol\":1195:1484  function transferOut(address sendTo,uint amountOut) public onlyOwner {... */\n    tag_73:\n        /* \"Upgradable E1P 1822/Implementation1.sol\":424:429  owner */\n      and(sub(shl(0xa0, 0x01), 0x01), sload(0x05))\n        /* \"Upgradable E1P 1822/Implementation1.sol\":433:443  msg.sender */\n      caller\n        /* \"Upgradable E1P 1822/Implementation1.sol\":424:443  owner == msg.sender */\n      eq\n        /* \"Upgradable E1P 1822/Implementation1.sol\":416:477  require(owner == msg.sender, \"No permission except to owner\") */\n      tag_137\n      jumpi\n      mload(0x40)\n      shl(0xe5, 0x461bcd)\n      dup2\n      mstore\n        /* \"#utility.yul\":4194:4196   */\n      0x20\n        /* \"Upgradable E1P 1822/Implementation1.sol\":416:477  require(owner == msg.sender, \"No permission except to owner\") */\n      0x04\n      dup3\n      add\n        /* \"#utility.yul\":4176:4197   */\n      mstore\n        /* \"#utility.yul\":4233:4235   */\n      0x1d\n        /* \"#utility.yul\":4213:4231   */\n      0x24\n      dup3\n      add\n        /* \"#utility.yul\":4206:4236   */\n      mstore\n        /* \"#utility.yul\":4272:4303   */\n      0x4e6f207065726d697373696f6e2065786365707420746f206f776e6572000000\n        /* \"#utility.yul\":4252:4270   */\n      0x44\n      dup3\n      add\n        /* \"#utility.yul\":4245:4304   */\n      mstore\n        /* \"#utility.yul\":4321:4339   */\n      0x64\n      add\n        /* \"Upgradable E1P 1822/Implementation1.sol\":416:477  require(owner == msg.sender, \"No permission except to owner\") */\n      tag_129\n        /* \"#utility.yul\":3992:4345   */\n      jump\n        /* \"Upgradable E1P 1822/Implementation1.sol\":416:477  require(owner == msg.sender, \"No permission except to owner\") */\n    tag_137:\n        /* \"Upgradable E1P 1822/Implementation1.sol\":1309:1313  this */\n      address\n        /* \"Upgradable E1P 1822/Implementation1.sol\":1272:1288  uint contractBal */\n      0x00\n        /* \"https://github.com/OpenZeppelin/openzeppelin-contracts/blob/master/contracts/token/ERC20/ERC20.sol\":3506:3524  _balances[account] */\n      swap1\n      dup2\n      mstore\n      0x20\n      dup2\n      swap1\n      mstore\n      0x40\n      swap1\n      keccak256\n      sload\n      sub(shl(0xa0, 0x01), 0x01)\n        /* \"Upgradable E1P 1822/Implementation1.sol\":1331:1351  sendTo != address(0) */\n      dup4\n      and\n        /* \"Upgradable E1P 1822/Implementation1.sol\":1323:1386  require(sendTo != address(0), \"You cant transfer to address 0\") */\n      tag_141\n      jumpi\n      mload(0x40)\n      shl(0xe5, 0x461bcd)\n      dup2\n      mstore\n        /* \"#utility.yul\":4552:4554   */\n      0x20\n        /* \"Upgradable E1P 1822/Implementation1.sol\":1323:1386  require(sendTo != address(0), \"You cant transfer to address 0\") */\n      0x04\n      dup3\n      add\n        /* \"#utility.yul\":4534:4555   */\n      mstore\n        /* \"#utility.yul\":4591:4593   */\n      0x1e\n        /* \"#utility.yul\":4571:4589   */\n      0x24\n      dup3\n      add\n        /* \"#utility.yul\":4564:4594   */\n      mstore\n        /* \"#utility.yul\":4630:4662   */\n      0x596f752063616e74207472616e7366657220746f206164647265737320300000\n        /* \"#utility.yul\":4610:4628   */\n      0x44\n      dup3\n      add\n        /* \"#utility.yul\":4603:4663   */\n      mstore\n        /* \"#utility.yul\":4680:4698   */\n      0x64\n      add\n        /* \"Upgradable E1P 1822/Implementation1.sol\":1323:1386  require(sendTo != address(0), \"You cant transfer to address 0\") */\n      tag_129\n        /* \"#utility.yul\":4350:4704   */\n      jump\n        /* \"Upgradable E1P 1822/Implementation1.sol\":1323:1386  require(sendTo != address(0), \"You cant transfer to address 0\") */\n    tag_141:\n        /* \"Upgradable E1P 1822/Implementation1.sol\":1416:1425  amountOut */\n      dup2\n        /* \"Upgradable E1P 1822/Implementation1.sol\":1402:1413  contractBal */\n      dup2\n        /* \"Upgradable E1P 1822/Implementation1.sol\":1402:1425  contractBal > amountOut */\n      gt\n        /* \"Upgradable E1P 1822/Implementation1.sol\":1394:1426  require(contractBal > amountOut) */\n      tag_144\n      jumpi\n      0x00\n      dup1\n      revert\n    tag_144:\n        /* \"Upgradable E1P 1822/Implementation1.sol\":1434:1477  _transfer(address(this), sendTo, amountOut) */\n      tag_145\n        /* \"Upgradable E1P 1822/Implementation1.sol\":1452:1456  this */\n      address\n        /* \"Upgradable E1P 1822/Implementation1.sol\":1459:1465  sendTo */\n      dup5\n        /* \"Upgradable E1P 1822/Implementation1.sol\":1467:1476  amountOut */\n      dup5\n        /* \"Upgradable E1P 1822/Implementation1.sol\":1434:1443  _transfer */\n      tag_119\n        /* \"Upgradable E1P 1822/Implementation1.sol\":1434:1477  _transfer(address(this), sendTo, amountOut) */\n      jump\t// in\n    tag_145:\n        /* \"Upgradable E1P 1822/Implementation1.sol\":1264:1484  {... */\n      pop\n        /* \"Upgradable E1P 1822/Implementation1.sol\":1195:1484  function transferOut(address sendTo,uint amountOut) public onlyOwner {... */\n      pop\n      pop\n      jump\t// out\n        /* \"Upgradable E1P 1822/Implementation1.sol\":499:752  function initialize() public {... */\n    tag_75:\n        /* \"Upgradable E1P 1822/Implementation1.sol\":538:567  _mint(address(this), 1000e18) */\n      tag_147\n        /* \"Upgradable E1P 1822/Implementation1.sol\":552:556  this */\n      address\n        /* \"Upgradable E1P 1822/Implementation1.sol\":559:566  1000e18 */\n      0x3635c9adc5dea00000\n        /* \"Upgradable E1P 1822/Implementation1.sol\":538:543  _mint */\n      tag_148\n        /* \"Upgradable E1P 1822/Implementation1.sol\":538:567  _mint(address(this), 1000e18) */\n      jump\t// in\n    tag_147:\n        /* \"Upgradable E1P 1822/Implementation1.sol\":585:590  owner */\n      and(sub(shl(0xa0, 0x01), 0x01), sload(0x05))\n        /* \"Upgradable E1P 1822/Implementation1.sol\":585:604  owner == address(0) */\n      iszero\n        /* \"Upgradable E1P 1822/Implementation1.sol\":577:627  require(owner == address(0), \"Already initalized\") */\n      tag_149\n      jumpi\n      mload(0x40)\n      shl(0xe5, 0x461bcd)\n      dup2\n      mstore\n        /* \"#utility.yul\":4911:4913   */\n      0x20\n        /* \"Upgradable E1P 1822/Implementation1.sol\":577:627  require(owner == address(0), \"Already initalized\") */\n      0x04\n      dup3\n      add\n        /* \"#utility.yul\":4893:4914   */\n      mstore\n        /* \"#utility.yul\":4950:4952   */\n      0x12\n        /* \"#utility.yul\":4930:4948   */\n      0x24\n      dup3\n      add\n        /* \"#utility.yul\":4923:4953   */\n      mstore\n      shl(0x72, 0x105b1c9958591e481a5b9a5d185b1a5e9959)\n        /* \"#utility.yul\":4969:4987   */\n      0x44\n      dup3\n      add\n        /* \"#utility.yul\":4962:5010   */\n      mstore\n        /* \"#utility.yul\":5027:5045   */\n      0x64\n      add\n        /* \"Upgradable E1P 1822/Implementation1.sol\":577:627  require(owner == address(0), \"Already initalized\") */\n      tag_129\n        /* \"#utility.yul\":4709:5051   */\n      jump\n        /* \"Upgradable E1P 1822/Implementation1.sol\":577:627  require(owner == address(0), \"Already initalized\") */\n    tag_149:\n        /* \"Upgradable E1P 1822/Implementation1.sol\":637:642  owner */\n      0x05\n        /* \"Upgradable E1P 1822/Implementation1.sol\":637:655  owner = msg.sender */\n      dup1\n      sload\n      not(shl(0xa0, 0xff))\n        /* \"Upgradable E1P 1822/Implementation1.sol\":645:655  msg.sender */\n      caller\n        /* \"Upgradable E1P 1822/Implementation1.sol\":665:683  initialized = true */\n      and\n      not(sub(shl(0xa8, 0x01), 0x01))\n      swap1\n      swap2\n      and\n      or\n      shl(0xa0, 0x01)\n      or\n      swap1\n      sstore\n        /* \"Upgradable E1P 1822/Implementation1.sol\":693:715  tokenName = \"EIP-1822\" */\n      0x40\n      dup1\n      mload\n      dup1\n      dup3\n      add\n      swap1\n      swap2\n      mstore\n      0x08\n      dup1\n      dup3\n      mstore\n      shl(0xc1, 0x22a4a816989c1919)\n      0x20\n      swap1\n      swap3\n      add\n      swap2\n      dup3\n      mstore\n      tag_152\n      swap2\n        /* \"Upgradable E1P 1822/Implementation1.sol\":693:702  tokenName */\n      0x06\n      swap2\n        /* \"Upgradable E1P 1822/Implementation1.sol\":693:715  tokenName = \"EIP-1822\" */\n      tag_153\n      jump\t// in\n    tag_152:\n      pop\n        /* \"Upgradable E1P 1822/Implementation1.sol\":725:745  tokenSymbol = \"EIPI\" */\n      0x40\n      dup1\n      mload\n      dup1\n      dup3\n      add\n      swap1\n      swap2\n      mstore\n      0x04\n      dup1\n      dup3\n      mstore\n      shl(0xe0, 0x45495049)\n      0x20\n      swap1\n      swap3\n      add\n      swap2\n      dup3\n      mstore\n      tag_132\n      swap2\n        /* \"Upgradable E1P 1822/Implementation1.sol\":725:736  tokenSymbol */\n      0x07\n      swap2\n        /* \"Upgradable E1P 1822/Implementation1.sol\":725:745  tokenSymbol = \"EIPI\" */\n      tag_153\n      jump\t// in\n        /* \"Upgradable E1P 1822/Implementation1.sol\":865:971  function symbol() public view virtual override returns (string memory) {... */\n    tag_81:\n        /* \"Upgradable E1P 1822/Implementation1.sol\":921:934  string memory */\n      0x60\n        /* \"Upgradable E1P 1822/Implementation1.sol\":953:964  tokenSymbol */\n      0x07\n        /* \"Upgradable E1P 1822/Implementation1.sol\":946:964  return tokenSymbol */\n      dup1\n      sload\n      tag_101\n      swap1\n      tag_102\n      jump\t// in\n        /* \"Upgradable E1P 1822/Implementation1.sol\":1103:1189  function mintToken(uint amount, address _to) public {... */\n    tag_86:\n        /* \"Upgradable E1P 1822/Implementation1.sol\":1164:1182  _mint(_to, amount) */\n      tag_162\n        /* \"Upgradable E1P 1822/Implementation1.sol\":1170:1173  _to */\n      dup2\n        /* \"Upgradable E1P 1822/Implementation1.sol\":1175:1181  amount */\n      dup4\n        /* \"Upgradable E1P 1822/Implementation1.sol\":1164:1169  _mint */\n      tag_148\n        /* \"Upgradable E1P 1822/Implementation1.sol\":1164:1182  _mint(_to, amount) */\n      jump\t// in\n    tag_162:\n        /* \"Upgradable E1P 1822/Implementation1.sol\":1103:1189  function mintToken(uint amount, address _to) public {... */\n      pop\n      pop\n      jump\t// out\n        /* \"https://github.com/OpenZeppelin/openzeppelin-contracts/blob/master/contracts/token/ERC20/ERC20.sol\":6592:7019  function decreaseAllowance(address spender, uint256 subtractedValue) public virtual returns (bool) {... */\n    tag_89:\n        /* \"https://github.com/OpenZeppelin/openzeppelin-contracts/blob/master/contracts/token/ERC20/ERC20.sol\":6685:6689  bool */\n      0x00\n        /* \"https://github.com/OpenZeppelin/openzeppelin-contracts/blob/master/contracts/utils/Context.sol\":719:729  msg.sender */\n      caller\n        /* \"https://github.com/OpenZeppelin/openzeppelin-contracts/blob/master/contracts/token/ERC20/ERC20.sol\":6685:6689  bool */\n      dup2\n        /* \"https://github.com/OpenZeppelin/openzeppelin-contracts/blob/master/contracts/token/ERC20/ERC20.sol\":6766:6791  allowance(owner, spender) */\n      tag_165\n        /* \"https://github.com/OpenZeppelin/openzeppelin-contracts/blob/master/contracts/utils/Context.sol\":719:729  msg.sender */\n      dup3\n        /* \"https://github.com/OpenZeppelin/openzeppelin-contracts/blob/master/contracts/token/ERC20/ERC20.sol\":6783:6790  spender */\n      dup7\n        /* \"https://github.com/OpenZeppelin/openzeppelin-contracts/blob/master/contracts/token/ERC20/ERC20.sol\":6766:6775  allowance */\n      tag_98\n        /* \"https://github.com/OpenZeppelin/openzeppelin-contracts/blob/master/contracts/token/ERC20/ERC20.sol\":6766:6791  allowance(owner, spender) */\n      jump\t// in\n    tag_165:\n        /* \"https://github.com/OpenZeppelin/openzeppelin-contracts/blob/master/contracts/token/ERC20/ERC20.sol\":6739:6791  uint256 currentAllowance = allowance(owner, spender) */\n      swap1\n      pop\n        /* \"https://github.com/OpenZeppelin/openzeppelin-contracts/blob/master/contracts/token/ERC20/ERC20.sol\":6829:6844  subtractedValue */\n      dup4\n        /* \"https://github.com/OpenZeppelin/openzeppelin-contracts/blob/master/contracts/token/ERC20/ERC20.sol\":6809:6825  currentAllowance */\n      dup2\n        /* \"https://github.com/OpenZeppelin/openzeppelin-contracts/blob/master/contracts/token/ERC20/ERC20.sol\":6809:6844  currentAllowance >= subtractedValue */\n      lt\n      iszero\n        /* \"https://github.com/OpenZeppelin/openzeppelin-contracts/blob/master/contracts/token/ERC20/ERC20.sol\":6801:6886  require(currentAllowance >= subtractedValue, \"ERC20: decreased allowance below zero\") */\n      tag_166\n      jumpi\n      mload(0x40)\n      shl(0xe5, 0x461bcd)\n      dup2\n      mstore\n        /* \"#utility.yul\":5258:5260   */\n      0x20\n        /* \"https://github.com/OpenZeppelin/openzeppelin-contracts/blob/master/contracts/token/ERC20/ERC20.sol\":6801:6886  require(currentAllowance >= subtractedValue, \"ERC20: decreased allowance below zero\") */\n      0x04\n      dup3\n      add\n        /* \"#utility.yul\":5240:5261   */\n      mstore\n        /* \"#utility.yul\":5297:5299   */\n      0x25\n        /* \"#utility.yul\":5277:5295   */\n      0x24\n      dup3\n      add\n        /* \"#utility.yul\":5270:5300   */\n      mstore\n        /* \"#utility.yul\":5336:5370   */\n      0x45524332303a2064656372656173656420616c6c6f77616e63652062656c6f77\n        /* \"#utility.yul\":5316:5334   */\n      0x44\n      dup3\n      add\n        /* \"#utility.yul\":5309:5371   */\n      mstore\n      shl(0xd8, 0x207a65726f)\n        /* \"#utility.yul\":5387:5405   */\n      0x64\n      dup3\n      add\n        /* \"#utility.yul\":5380:5415   */\n      mstore\n        /* \"#utility.yul\":5432:5451   */\n      0x84\n      add\n        /* \"https://github.com/OpenZeppelin/openzeppelin-contracts/blob/master/contracts/token/ERC20/ERC20.sol\":6801:6886  require(currentAllowance >= subtractedValue, \"ERC20: decreased allowance below zero\") */\n      tag_129\n        /* \"#utility.yul\":5056:5457   */\n      jump\n        /* \"https://github.com/OpenZeppelin/openzeppelin-contracts/blob/master/contracts/token/ERC20/ERC20.sol\":6801:6886  require(currentAllowance >= subtractedValue, \"ERC20: decreased allowance below zero\") */\n    tag_166:\n        /* \"https://github.com/OpenZeppelin/openzeppelin-contracts/blob/master/contracts/token/ERC20/ERC20.sol\":6920:6980  _approve(owner, spender, currentAllowance - subtractedValue) */\n      tag_118\n        /* \"https://github.com/OpenZeppelin/openzeppelin-contracts/blob/master/contracts/token/ERC20/ERC20.sol\":6929:6934  owner */\n      dup3\n        /* \"https://github.com/OpenZeppelin/openzeppelin-contracts/blob/master/contracts/token/ERC20/ERC20.sol\":6936:6943  spender */\n      dup7\n        /* \"https://github.com/OpenZeppelin/openzeppelin-contracts/blob/master/contracts/token/ERC20/ERC20.sol\":6964:6979  subtractedValue */\n      dup7\n        /* \"https://github.com/OpenZeppelin/openzeppelin-contracts/blob/master/contracts/token/ERC20/ERC20.sol\":6945:6961  currentAllowance */\n      dup5\n        /* \"https://github.com/OpenZeppelin/openzeppelin-contracts/blob/master/contracts/token/ERC20/ERC20.sol\":6945:6979  currentAllowance - subtractedValue */\n      sub\n        /* \"https://github.com/OpenZeppelin/openzeppelin-contracts/blob/master/contracts/token/ERC20/ERC20.sol\":6920:6928  _approve */\n      tag_111\n        /* \"https://github.com/OpenZeppelin/openzeppelin-contracts/blob/master/contracts/token/ERC20/ERC20.sol\":6920:6980  _approve(owner, spender, currentAllowance - subtractedValue) */\n      jump\t// in\n        /* \"https://github.com/OpenZeppelin/openzeppelin-contracts/blob/master/contracts/token/ERC20/ERC20.sol\":3727:3916  function transfer(address to, uint256 amount) public virtual override returns (bool) {... */\n    tag_93:\n        /* \"https://github.com/OpenZeppelin/openzeppelin-contracts/blob/master/contracts/token/ERC20/ERC20.sol\":3806:3810  bool */\n      0x00\n        /* \"https://github.com/OpenZeppelin/openzeppelin-contracts/blob/master/contracts/utils/Context.sol\":719:729  msg.sender */\n      caller\n        /* \"https://github.com/OpenZeppelin/openzeppelin-contracts/blob/master/contracts/token/ERC20/ERC20.sol\":3860:3888  _transfer(owner, to, amount) */\n      tag_110\n        /* \"https://github.com/OpenZeppelin/openzeppelin-contracts/blob/master/contracts/utils/Context.sol\":719:729  msg.sender */\n      dup2\n        /* \"https://github.com/OpenZeppelin/openzeppelin-contracts/blob/master/contracts/token/ERC20/ERC20.sol\":3877:3879  to */\n      dup6\n        /* \"https://github.com/OpenZeppelin/openzeppelin-contracts/blob/master/contracts/token/ERC20/ERC20.sol\":3881:3887  amount */\n      dup6\n        /* \"https://github.com/OpenZeppelin/openzeppelin-contracts/blob/master/contracts/token/ERC20/ERC20.sol\":3860:3869  _transfer */\n      tag_119\n        /* \"https://github.com/OpenZeppelin/openzeppelin-contracts/blob/master/contracts/token/ERC20/ERC20.sol\":3860:3888  _transfer(owner, to, amount) */\n      jump\t// in\n        /* \"https://github.com/OpenZeppelin/openzeppelin-contracts/blob/master/contracts/token/ERC20/ERC20.sol\":3974:4123  function allowance(address owner, address spender) public view virtual override returns (uint256) {... */\n    tag_98:\n      sub(shl(0xa0, 0x01), 0x01)\n        /* \"https://github.com/OpenZeppelin/openzeppelin-contracts/blob/master/contracts/token/ERC20/ERC20.sol\":4089:4107  _allowances[owner] */\n      swap2\n      dup3\n      and\n        /* \"https://github.com/OpenZeppelin/openzeppelin-contracts/blob/master/contracts/token/ERC20/ERC20.sol\":4063:4070  uint256 */\n      0x00\n        /* \"https://github.com/OpenZeppelin/openzeppelin-contracts/blob/master/contracts/token/ERC20/ERC20.sol\":4089:4107  _allowances[owner] */\n      swap1\n      dup2\n      mstore\n        /* \"https://github.com/OpenZeppelin/openzeppelin-contracts/blob/master/contracts/token/ERC20/ERC20.sol\":4089:4100  _allowances */\n      0x01\n        /* \"https://github.com/OpenZeppelin/openzeppelin-contracts/blob/master/contracts/token/ERC20/ERC20.sol\":4089:4107  _allowances[owner] */\n      0x20\n      swap1\n      dup2\n      mstore\n      0x40\n      dup1\n      dup4\n      keccak256\n        /* \"https://github.com/OpenZeppelin/openzeppelin-contracts/blob/master/contracts/token/ERC20/ERC20.sol\":4089:4116  _allowances[owner][spender] */\n      swap4\n      swap1\n      swap5\n      and\n      dup3\n      mstore\n      swap2\n      swap1\n      swap2\n      mstore\n      keccak256\n      sload\n      swap1\n        /* \"https://github.com/OpenZeppelin/openzeppelin-contracts/blob/master/contracts/token/ERC20/ERC20.sol\":3974:4123  function allowance(address owner, address spender) public view virtual override returns (uint256) {... */\n      jump\t// out\n        /* \"https://github.com/OpenZeppelin/openzeppelin-contracts/blob/master/contracts/token/ERC20/ERC20.sol\":10504:10874  function _approve(... */\n    tag_111:\n      sub(shl(0xa0, 0x01), 0x01)\n        /* \"https://github.com/OpenZeppelin/openzeppelin-contracts/blob/master/contracts/token/ERC20/ERC20.sol\":10635:10654  owner != address(0) */\n      dup4\n      and\n        /* \"https://github.com/OpenZeppelin/openzeppelin-contracts/blob/master/contracts/token/ERC20/ERC20.sol\":10627:10695  require(owner != address(0), \"ERC20: approve from the zero address\") */\n      tag_176\n      jumpi\n      mload(0x40)\n      shl(0xe5, 0x461bcd)\n      dup2\n      mstore\n        /* \"#utility.yul\":5664:5666   */\n      0x20\n        /* \"https://github.com/OpenZeppelin/openzeppelin-contracts/blob/master/contracts/token/ERC20/ERC20.sol\":10627:10695  require(owner != address(0), \"ERC20: approve from the zero address\") */\n      0x04\n      dup3\n      add\n        /* \"#utility.yul\":5646:5667   */\n      mstore\n        /* \"#utility.yul\":5703:5705   */\n      0x24\n        /* \"#utility.yul\":5683:5701   */\n      dup1\n      dup3\n      add\n        /* \"#utility.yul\":5676:5706   */\n      mstore\n        /* \"#utility.yul\":5742:5776   */\n      0x45524332303a20617070726f76652066726f6d20746865207a65726f20616464\n        /* \"#utility.yul\":5722:5740   */\n      0x44\n      dup3\n      add\n        /* \"#utility.yul\":5715:5777   */\n      mstore\n      shl(0xe0, 0x72657373)\n        /* \"#utility.yul\":5793:5811   */\n      0x64\n      dup3\n      add\n        /* \"#utility.yul\":5786:5820   */\n      mstore\n        /* \"#utility.yul\":5837:5856   */\n      0x84\n      add\n        /* \"https://github.com/OpenZeppelin/openzeppelin-contracts/blob/master/contracts/token/ERC20/ERC20.sol\":10627:10695  require(owner != address(0), \"ERC20: approve from the zero address\") */\n      tag_129\n        /* \"#utility.yul\":5462:5862   */\n      jump\n        /* \"https://github.com/OpenZeppelin/openzeppelin-contracts/blob/master/contracts/token/ERC20/ERC20.sol\":10627:10695  require(owner != address(0), \"ERC20: approve from the zero address\") */\n    tag_176:\n      sub(shl(0xa0, 0x01), 0x01)\n        /* \"https://github.com/OpenZeppelin/openzeppelin-contracts/blob/master/contracts/token/ERC20/ERC20.sol\":10713:10734  spender != address(0) */\n      dup3\n      and\n        /* \"https://github.com/OpenZeppelin/openzeppelin-contracts/blob/master/contracts/token/ERC20/ERC20.sol\":10705:10773  require(spender != address(0), \"ERC20: approve to the zero address\") */\n      tag_179\n      jumpi\n      mload(0x40)\n      shl(0xe5, 0x461bcd)\n      dup2\n      mstore\n        /* \"#utility.yul\":6069:6071   */\n      0x20\n        /* \"https://github.com/OpenZeppelin/openzeppelin-contracts/blob/master/contracts/token/ERC20/ERC20.sol\":10705:10773  require(spender != address(0), \"ERC20: approve to the zero address\") */\n      0x04\n      dup3\n      add\n        /* \"#utility.yul\":6051:6072   */\n      mstore\n        /* \"#utility.yul\":6108:6110   */\n      0x22\n        /* \"#utility.yul\":6088:6106   */\n      0x24\n      dup3\n      add\n        /* \"#utility.yul\":6081:6111   */\n      mstore\n        /* \"#utility.yul\":6147:6181   */\n      0x45524332303a20617070726f766520746f20746865207a65726f206164647265\n        /* \"#utility.yul\":6127:6145   */\n      0x44\n      dup3\n      add\n        /* \"#utility.yul\":6120:6182   */\n      mstore\n      shl(0xf0, 0x7373)\n        /* \"#utility.yul\":6198:6216   */\n      0x64\n      dup3\n      add\n        /* \"#utility.yul\":6191:6223   */\n      mstore\n        /* \"#utility.yul\":6240:6259   */\n      0x84\n      add\n        /* \"https://github.com/OpenZeppelin/openzeppelin-contracts/blob/master/contracts/token/ERC20/ERC20.sol\":10705:10773  require(spender != address(0), \"ERC20: approve to the zero address\") */\n      tag_129\n        /* \"#utility.yul\":5867:6265   */\n      jump\n        /* \"https://github.com/OpenZeppelin/openzeppelin-contracts/blob/master/contracts/token/ERC20/ERC20.sol\":10705:10773  require(spender != address(0), \"ERC20: approve to the zero address\") */\n    tag_179:\n      sub(shl(0xa0, 0x01), 0x01)\n        /* \"https://github.com/OpenZeppelin/openzeppelin-contracts/blob/master/contracts/token/ERC20/ERC20.sol\":10784:10802  _allowances[owner] */\n      dup4\n      dup2\n      and\n      0x00\n      dup2\n      dup2\n      mstore\n        /* \"https://github.com/OpenZeppelin/openzeppelin-contracts/blob/master/contracts/token/ERC20/ERC20.sol\":10784:10795  _allowances */\n      0x01\n        /* \"https://github.com/OpenZeppelin/openzeppelin-contracts/blob/master/contracts/token/ERC20/ERC20.sol\":10784:10802  _allowances[owner] */\n      0x20\n      swap1\n      dup2\n      mstore\n      0x40\n      dup1\n      dup4\n      keccak256\n        /* \"https://github.com/OpenZeppelin/openzeppelin-contracts/blob/master/contracts/token/ERC20/ERC20.sol\":10784:10811  _allowances[owner][spender] */\n      swap5\n      dup8\n      and\n      dup1\n      dup5\n      mstore\n      swap5\n      dup3\n      mstore\n      swap2\n      dup3\n      swap1\n      keccak256\n        /* \"https://github.com/OpenZeppelin/openzeppelin-contracts/blob/master/contracts/token/ERC20/ERC20.sol\":10784:10820  _allowances[owner][spender] = amount */\n      dup6\n      swap1\n      sstore\n        /* \"https://github.com/OpenZeppelin/openzeppelin-contracts/blob/master/contracts/token/ERC20/ERC20.sol\":10835:10867  Approval(owner, spender, amount) */\n      swap1\n      mload\n        /* \"#utility.yul\":1714:1739   */\n      dup5\n      dup2\n      mstore\n        /* \"https://github.com/OpenZeppelin/openzeppelin-contracts/blob/master/contracts/token/ERC20/ERC20.sol\":10835:10867  Approval(owner, spender, amount) */\n      0x8c5be1e5ebec7d5bd14f71427d1e84f3dd0314c0f7b2291e5b200ac8c7c3b925\n      swap2\n        /* \"#utility.yul\":1687:1705   */\n      add\n        /* \"https://github.com/OpenZeppelin/openzeppelin-contracts/blob/master/contracts/token/ERC20/ERC20.sol\":10835:10867  Approval(owner, spender, amount) */\n      mload(0x40)\n      dup1\n      swap2\n      sub\n      swap1\n      log3\n        /* \"https://github.com/OpenZeppelin/openzeppelin-contracts/blob/master/contracts/token/ERC20/ERC20.sol\":10504:10874  function _approve(... */\n      pop\n      pop\n      pop\n      jump\t// out\n        /* \"https://github.com/OpenZeppelin/openzeppelin-contracts/blob/master/contracts/token/ERC20/ERC20.sol\":11155:11596  function _spendAllowance(... */\n    tag_117:\n        /* \"https://github.com/OpenZeppelin/openzeppelin-contracts/blob/master/contracts/token/ERC20/ERC20.sol\":11285:11309  uint256 currentAllowance */\n      0x00\n        /* \"https://github.com/OpenZeppelin/openzeppelin-contracts/blob/master/contracts/token/ERC20/ERC20.sol\":11312:11337  allowance(owner, spender) */\n      tag_184\n        /* \"https://github.com/OpenZeppelin/openzeppelin-contracts/blob/master/contracts/token/ERC20/ERC20.sol\":11322:11327  owner */\n      dup5\n        /* \"https://github.com/OpenZeppelin/openzeppelin-contracts/blob/master/contracts/token/ERC20/ERC20.sol\":11329:11336  spender */\n      dup5\n        /* \"https://github.com/OpenZeppelin/openzeppelin-contracts/blob/master/contracts/token/ERC20/ERC20.sol\":11312:11321  allowance */\n      tag_98\n        /* \"https://github.com/OpenZeppelin/openzeppelin-contracts/blob/master/contracts/token/ERC20/ERC20.sol\":11312:11337  allowance(owner, spender) */\n      jump\t// in\n    tag_184:\n        /* \"https://github.com/OpenZeppelin/openzeppelin-contracts/blob/master/contracts/token/ERC20/ERC20.sol\":11285:11337  uint256 currentAllowance = allowance(owner, spender) */\n      swap1\n      pop\n      not(0x00)\n        /* \"https://github.com/OpenZeppelin/openzeppelin-contracts/blob/master/contracts/token/ERC20/ERC20.sol\":11351:11367  currentAllowance */\n      dup2\n        /* \"https://github.com/OpenZeppelin/openzeppelin-contracts/blob/master/contracts/token/ERC20/ERC20.sol\":11351:11388  currentAllowance != type(uint256).max */\n      eq\n        /* \"https://github.com/OpenZeppelin/openzeppelin-contracts/blob/master/contracts/token/ERC20/ERC20.sol\":11347:11590  if (currentAllowance != type(uint256).max) {... */\n      tag_189\n      jumpi\n        /* \"https://github.com/OpenZeppelin/openzeppelin-contracts/blob/master/contracts/token/ERC20/ERC20.sol\":11432:11438  amount */\n      dup2\n        /* \"https://github.com/OpenZeppelin/openzeppelin-contracts/blob/master/contracts/token/ERC20/ERC20.sol\":11412:11428  currentAllowance */\n      dup2\n        /* \"https://github.com/OpenZeppelin/openzeppelin-contracts/blob/master/contracts/token/ERC20/ERC20.sol\":11412:11438  currentAllowance >= amount */\n      lt\n      iszero\n        /* \"https://github.com/OpenZeppelin/openzeppelin-contracts/blob/master/contracts/token/ERC20/ERC20.sol\":11404:11472  require(currentAllowance >= amount, \"ERC20: insufficient allowance\") */\n      tag_186\n      jumpi\n      mload(0x40)\n      shl(0xe5, 0x461bcd)\n      dup2\n      mstore\n        /* \"#utility.yul\":6472:6474   */\n      0x20\n        /* \"https://github.com/OpenZeppelin/openzeppelin-contracts/blob/master/contracts/token/ERC20/ERC20.sol\":11404:11472  require(currentAllowance >= amount, \"ERC20: insufficient allowance\") */\n      0x04\n      dup3\n      add\n        /* \"#utility.yul\":6454:6475   */\n      mstore\n        /* \"#utility.yul\":6511:6513   */\n      0x1d\n        /* \"#utility.yul\":6491:6509   */\n      0x24\n      dup3\n      add\n        /* \"#utility.yul\":6484:6514   */\n      mstore\n        /* \"#utility.yul\":6550:6581   */\n      0x45524332303a20696e73756666696369656e7420616c6c6f77616e6365000000\n        /* \"#utility.yul\":6530:6548   */\n      0x44\n      dup3\n      add\n        /* \"#utility.yul\":6523:6582   */\n      mstore\n        /* \"#utility.yul\":6599:6617   */\n      0x64\n      add\n        /* \"https://github.com/OpenZeppelin/openzeppelin-contracts/blob/master/contracts/token/ERC20/ERC20.sol\":11404:11472  require(currentAllowance >= amount, \"ERC20: insufficient allowance\") */\n      tag_129\n        /* \"#utility.yul\":6270:6623   */\n      jump\n        /* \"https://github.com/OpenZeppelin/openzeppelin-contracts/blob/master/contracts/token/ERC20/ERC20.sol\":11404:11472  require(currentAllowance >= amount, \"ERC20: insufficient allowance\") */\n    tag_186:\n        /* \"https://github.com/OpenZeppelin/openzeppelin-contracts/blob/master/contracts/token/ERC20/ERC20.sol\":11514:11565  _approve(owner, spender, currentAllowance - amount) */\n      tag_189\n        /* \"https://github.com/OpenZeppelin/openzeppelin-contracts/blob/master/contracts/token/ERC20/ERC20.sol\":11523:11528  owner */\n      dup5\n        /* \"https://github.com/OpenZeppelin/openzeppelin-contracts/blob/master/contracts/token/ERC20/ERC20.sol\":11530:11537  spender */\n      dup5\n        /* \"https://github.com/OpenZeppelin/openzeppelin-contracts/blob/master/contracts/token/ERC20/ERC20.sol\":11558:11564  amount */\n      dup5\n        /* \"https://github.com/OpenZeppelin/openzeppelin-contracts/blob/master/contracts/token/ERC20/ERC20.sol\":11539:11555  currentAllowance */\n      dup5\n        /* \"https://github.com/OpenZeppelin/openzeppelin-contracts/blob/master/contracts/token/ERC20/ERC20.sol\":11539:11564  currentAllowance - amount */\n      sub\n        /* \"https://github.com/OpenZeppelin/openzeppelin-contracts/blob/master/contracts/token/ERC20/ERC20.sol\":11514:11522  _approve */\n      tag_111\n        /* \"https://github.com/OpenZeppelin/openzeppelin-contracts/blob/master/contracts/token/ERC20/ERC20.sol\":11514:11565  _approve(owner, spender, currentAllowance - amount) */\n      jump\t// in\n    tag_189:\n        /* \"https://github.com/OpenZeppelin/openzeppelin-contracts/blob/master/contracts/token/ERC20/ERC20.sol\":11275:11596  {... */\n      pop\n        /* \"https://github.com/OpenZeppelin/openzeppelin-contracts/blob/master/contracts/token/ERC20/ERC20.sol\":11155:11596  function _spendAllowance(... */\n      pop\n      pop\n      pop\n      jump\t// out\n        /* \"https://github.com/OpenZeppelin/openzeppelin-contracts/blob/master/contracts/token/ERC20/ERC20.sol\":7473:8291  function _transfer(... */\n    tag_119:\n      sub(shl(0xa0, 0x01), 0x01)\n        /* \"https://github.com/OpenZeppelin/openzeppelin-contracts/blob/master/contracts/token/ERC20/ERC20.sol\":7599:7617  from != address(0) */\n      dup4\n      and\n        /* \"https://github.com/OpenZeppelin/openzeppelin-contracts/blob/master/contracts/token/ERC20/ERC20.sol\":7591:7659  require(from != address(0), \"ERC20: transfer from the zero address\") */\n      tag_191\n      jumpi\n      mload(0x40)\n      shl(0xe5, 0x461bcd)\n      dup2\n      mstore\n        /* \"#utility.yul\":6830:6832   */\n      0x20\n        /* \"https://github.com/OpenZeppelin/openzeppelin-contracts/blob/master/contracts/token/ERC20/ERC20.sol\":7591:7659  require(from != address(0), \"ERC20: transfer from the zero address\") */\n      0x04\n      dup3\n      add\n        /* \"#utility.yul\":6812:6833   */\n      mstore\n        /* \"#utility.yul\":6869:6871   */\n      0x25\n        /* \"#utility.yul\":6849:6867   */\n      0x24\n      dup3\n      add\n        /* \"#utility.yul\":6842:6872   */\n      mstore\n        /* \"#utility.yul\":6908:6942   */\n      0x45524332303a207472616e736665722066726f6d20746865207a65726f206164\n        /* \"#utility.yul\":6888:6906   */\n      0x44\n      dup3\n      add\n        /* \"#utility.yul\":6881:6943   */\n      mstore\n      shl(0xd8, 0x6472657373)\n        /* \"#utility.yul\":6959:6977   */\n      0x64\n      dup3\n      add\n        /* \"#utility.yul\":6952:6987   */\n      mstore\n        /* \"#utility.yul\":7004:7023   */\n      0x84\n      add\n        /* \"https://github.com/OpenZeppelin/openzeppelin-contracts/blob/master/contracts/token/ERC20/ERC20.sol\":7591:7659  require(from != address(0), \"ERC20: transfer from the zero address\") */\n      tag_129\n        /* \"#utility.yul\":6628:7029   */\n      jump\n        /* \"https://github.com/OpenZeppelin/openzeppelin-contracts/blob/master/contracts/token/ERC20/ERC20.sol\":7591:7659  require(from != address(0), \"ERC20: transfer from the zero address\") */\n    tag_191:\n      sub(shl(0xa0, 0x01), 0x01)\n        /* \"https://github.com/OpenZeppelin/openzeppelin-contracts/blob/master/contracts/token/ERC20/ERC20.sol\":7677:7693  to != address(0) */\n      dup3\n      and\n        /* \"https://github.com/OpenZeppelin/openzeppelin-contracts/blob/master/contracts/token/ERC20/ERC20.sol\":7669:7733  require(to != address(0), \"ERC20: transfer to the zero address\") */\n      tag_194\n      jumpi\n      mload(0x40)\n      shl(0xe5, 0x461bcd)\n      dup2\n      mstore\n        /* \"#utility.yul\":7236:7238   */\n      0x20\n        /* \"https://github.com/OpenZeppelin/openzeppelin-contracts/blob/master/contracts/token/ERC20/ERC20.sol\":7669:7733  require(to != address(0), \"ERC20: transfer to the zero address\") */\n      0x04\n      dup3\n      add\n        /* \"#utility.yul\":7218:7239   */\n      mstore\n        /* \"#utility.yul\":7275:7277   */\n      0x23\n        /* \"#utility.yul\":7255:7273   */\n      0x24\n      dup3\n      add\n        /* \"#utility.yul\":7248:7278   */\n      mstore\n        /* \"#utility.yul\":7314:7348   */\n      0x45524332303a207472616e7366657220746f20746865207a65726f2061646472\n        /* \"#utility.yul\":7294:7312   */\n      0x44\n      dup3\n      add\n        /* \"#utility.yul\":7287:7349   */\n      mstore\n      shl(0xe8, 0x657373)\n        /* \"#utility.yul\":7365:7383   */\n      0x64\n      dup3\n      add\n        /* \"#utility.yul\":7358:7391   */\n      mstore\n        /* \"#utility.yul\":7408:7427   */\n      0x84\n      add\n        /* \"https://github.com/OpenZeppelin/openzeppelin-contracts/blob/master/contracts/token/ERC20/ERC20.sol\":7669:7733  require(to != address(0), \"ERC20: transfer to the zero address\") */\n      tag_129\n        /* \"#utility.yul\":7034:7433   */\n      jump\n        /* \"https://github.com/OpenZeppelin/openzeppelin-contracts/blob/master/contracts/token/ERC20/ERC20.sol\":7669:7733  require(to != address(0), \"ERC20: transfer to the zero address\") */\n    tag_194:\n      sub(shl(0xa0, 0x01), 0x01)\n        /* \"https://github.com/OpenZeppelin/openzeppelin-contracts/blob/master/contracts/token/ERC20/ERC20.sol\":7815:7830  _balances[from] */\n      dup4\n      and\n        /* \"https://github.com/OpenZeppelin/openzeppelin-contracts/blob/master/contracts/token/ERC20/ERC20.sol\":7793:7812  uint256 fromBalance */\n      0x00\n        /* \"https://github.com/OpenZeppelin/openzeppelin-contracts/blob/master/contracts/token/ERC20/ERC20.sol\":7815:7830  _balances[from] */\n      swap1\n      dup2\n      mstore\n      0x20\n      dup2\n      swap1\n      mstore\n      0x40\n      swap1\n      keccak256\n      sload\n        /* \"https://github.com/OpenZeppelin/openzeppelin-contracts/blob/master/contracts/token/ERC20/ERC20.sol\":7848:7869  fromBalance >= amount */\n      dup2\n      dup2\n      lt\n      iszero\n        /* \"https://github.com/OpenZeppelin/openzeppelin-contracts/blob/master/contracts/token/ERC20/ERC20.sol\":7840:7912  require(fromBalance >= amount, \"ERC20: transfer amount exceeds balance\") */\n      tag_199\n      jumpi\n      mload(0x40)\n      shl(0xe5, 0x461bcd)\n      dup2\n      mstore\n        /* \"#utility.yul\":7640:7642   */\n      0x20\n        /* \"https://github.com/OpenZeppelin/openzeppelin-contracts/blob/master/contracts/token/ERC20/ERC20.sol\":7840:7912  require(fromBalance >= amount, \"ERC20: transfer amount exceeds balance\") */\n      0x04\n      dup3\n      add\n        /* \"#utility.yul\":7622:7643   */\n      mstore\n        /* \"#utility.yul\":7679:7681   */\n      0x26\n        /* \"#utility.yul\":7659:7677   */\n      0x24\n      dup3\n      add\n        /* \"#utility.yul\":7652:7682   */\n      mstore\n        /* \"#utility.yul\":7718:7752   */\n      0x45524332303a207472616e7366657220616d6f756e7420657863656564732062\n        /* \"#utility.yul\":7698:7716   */\n      0x44\n      dup3\n      add\n        /* \"#utility.yul\":7691:7753   */\n      mstore\n      shl(0xd0, 0x616c616e6365)\n        /* \"#utility.yul\":7769:7787   */\n      0x64\n      dup3\n      add\n        /* \"#utility.yul\":7762:7798   */\n      mstore\n        /* \"#utility.yul\":7815:7834   */\n      0x84\n      add\n        /* \"https://github.com/OpenZeppelin/openzeppelin-contracts/blob/master/contracts/token/ERC20/ERC20.sol\":7840:7912  require(fromBalance >= amount, \"ERC20: transfer amount exceeds balance\") */\n      tag_129\n        /* \"#utility.yul\":7438:7840   */\n      jump\n        /* \"https://github.com/OpenZeppelin/openzeppelin-contracts/blob/master/contracts/token/ERC20/ERC20.sol\":7840:7912  require(fromBalance >= amount, \"ERC20: transfer amount exceeds balance\") */\n    tag_199:\n      sub(shl(0xa0, 0x01), 0x01)\n        /* \"https://github.com/OpenZeppelin/openzeppelin-contracts/blob/master/contracts/token/ERC20/ERC20.sol\":7946:7961  _balances[from] */\n      dup5\n      dup2\n      and\n        /* \"https://github.com/OpenZeppelin/openzeppelin-contracts/blob/master/contracts/token/ERC20/ERC20.sol\":7946:7955  _balances */\n      0x00\n        /* \"https://github.com/OpenZeppelin/openzeppelin-contracts/blob/master/contracts/token/ERC20/ERC20.sol\":7946:7961  _balances[from] */\n      dup2\n      dup2\n      mstore\n      0x20\n      dup2\n      dup2\n      mstore\n      0x40\n      dup1\n      dup4\n      keccak256\n        /* \"https://github.com/OpenZeppelin/openzeppelin-contracts/blob/master/contracts/token/ERC20/ERC20.sol\":7964:7984  fromBalance - amount */\n      dup8\n      dup8\n      sub\n        /* \"https://github.com/OpenZeppelin/openzeppelin-contracts/blob/master/contracts/token/ERC20/ERC20.sol\":7946:7984  _balances[from] = fromBalance - amount */\n      swap1\n      sstore\n        /* \"https://github.com/OpenZeppelin/openzeppelin-contracts/blob/master/contracts/token/ERC20/ERC20.sol\":8161:8174  _balances[to] */\n      swap4\n      dup8\n      and\n      dup1\n      dup4\n      mstore\n      swap2\n      dup5\n      swap1\n      keccak256\n        /* \"https://github.com/OpenZeppelin/openzeppelin-contracts/blob/master/contracts/token/ERC20/ERC20.sol\":8161:8184  _balances[to] += amount */\n      dup1\n      sload\n      dup8\n      add\n      swap1\n      sstore\n        /* \"https://github.com/OpenZeppelin/openzeppelin-contracts/blob/master/contracts/token/ERC20/ERC20.sol\":8210:8236  Transfer(from, to, amount) */\n      swap3\n      mload\n        /* \"#utility.yul\":1714:1739   */\n      dup6\n      dup2\n      mstore\n        /* \"https://github.com/OpenZeppelin/openzeppelin-contracts/blob/master/contracts/token/ERC20/ERC20.sol\":8161:8174  _balances[to] */\n      swap1\n      swap3\n        /* \"https://github.com/OpenZeppelin/openzeppelin-contracts/blob/master/contracts/token/ERC20/ERC20.sol\":8210:8236  Transfer(from, to, amount) */\n      0xddf252ad1be2c89b69c2b068fc378daa952ba7f163c4a11628f55a4df523b3ef\n      swap2\n        /* \"#utility.yul\":1687:1705   */\n      add\n        /* \"https://github.com/OpenZeppelin/openzeppelin-contracts/blob/master/contracts/token/ERC20/ERC20.sol\":8210:8236  Transfer(from, to, amount) */\n      mload(0x40)\n      dup1\n      swap2\n      sub\n      swap1\n      log3\n        /* \"https://github.com/OpenZeppelin/openzeppelin-contracts/blob/master/contracts/token/ERC20/ERC20.sol\":8247:8284  _afterTokenTransfer(from, to, amount) */\n      tag_189\n        /* \"Upgradable E1P 1822/Implementation1.sol\":1195:1484  function transferOut(address sendTo,uint amountOut) public onlyOwner {... */\n      jump\n        /* \"Upgradable E1P 1822/Proxible.sol\":220:621  function updateCodeAddress(address newAddress) internal {... */\n    tag_133:\n        /* \"Upgradable E1P 1822/Proxible.sol\":396:406  newAddress */\n      dup1\n      sub(shl(0xa0, 0x01), 0x01)\n        /* \"Upgradable E1P 1822/Proxible.sol\":386:421  Proxiable(newAddress).proxiableUUID */\n      and\n      0x52d1902d\n        /* \"Upgradable E1P 1822/Proxible.sol\":386:423  Proxiable(newAddress).proxiableUUID() */\n      mload(0x40)\n      dup2\n      0xffffffff\n      and\n      0xe0\n      shl\n      dup2\n      mstore\n      0x04\n      add\n      0x20\n      mload(0x40)\n      dup1\n      dup4\n      sub\n      dup2\n      dup7\n      gas\n      staticcall\n      iszero\n      dup1\n      iszero\n      tag_207\n      jumpi\n      returndatasize\n      0x00\n      dup1\n      returndatacopy\n      revert(0x00, returndatasize)\n    tag_207:\n      pop\n      pop\n      pop\n      pop\n      mload(0x40)\n      returndatasize\n      not(0x1f)\n      0x1f\n      dup3\n      add\n      and\n      dup3\n      add\n      dup1\n      0x40\n      mstore\n      pop\n      dup2\n      add\n      swap1\n      tag_208\n      swap2\n      swap1\n      tag_209\n      jump\t// in\n    tag_208:\n        /* \"Upgradable E1P 1822/Proxible.sol\":315:381  0xc5f16f0fcc639fa48a6947836d9850f504798523bf8c9a3a87d5876cf622bcf7 */\n      0xc5f16f0fcc639fa48a6947836d9850f504798523bf8c9a3a87d5876cf622bcf7\n        /* \"Upgradable E1P 1822/Proxible.sol\":307:423  bytes32(0xc5f16f0fcc639fa48a6947836d9850f504798523bf8c9a3a87d5876cf622bcf7) == Proxiable(newAddress).proxiableUUID() */\n      eq\n        /* \"Upgradable E1P 1822/Proxible.sol\":286:463  require(... */\n      tag_210\n      jumpi\n      mload(0x40)\n      shl(0xe5, 0x461bcd)\n      dup2\n      mstore\n        /* \"#utility.yul\":8236:8238   */\n      0x20\n        /* \"Upgradable E1P 1822/Proxible.sol\":286:463  require(... */\n      0x04\n      dup3\n      add\n        /* \"#utility.yul\":8218:8239   */\n      mstore\n        /* \"#utility.yul\":8275:8277   */\n      0x0e\n        /* \"#utility.yul\":8255:8273   */\n      0x24\n      dup3\n      add\n        /* \"#utility.yul\":8248:8278   */\n      mstore\n      shl(0x90, 0x4e6f7420636f6d70617469626c65)\n        /* \"#utility.yul\":8294:8312   */\n      0x44\n      dup3\n      add\n        /* \"#utility.yul\":8287:8331   */\n      mstore\n        /* \"#utility.yul\":8348:8366   */\n      0x64\n      add\n        /* \"Upgradable E1P 1822/Proxible.sol\":286:463  require(... */\n      tag_129\n        /* \"#utility.yul\":8034:8372   */\n      jump\n        /* \"Upgradable E1P 1822/Proxible.sol\":286:463  require(... */\n    tag_210:\n        /* \"Upgradable E1P 1822/Proxible.sol\":526:592  0xc5f16f0fcc639fa48a6947836d9850f504798523bf8c9a3a87d5876cf622bcf7 */\n      0xc5f16f0fcc639fa48a6947836d9850f504798523bf8c9a3a87d5876cf622bcf7\n        /* \"Upgradable E1P 1822/Proxible.sol\":519:605  sstore(0xc5f16f0fcc639fa48a6947836d9850f504798523bf8c9a3a87d5876cf622bcf7, newAddress) */\n      sstore\n        /* \"Upgradable E1P 1822/Proxible.sol\":220:621  function updateCodeAddress(address newAddress) internal {... */\n      jump\t// out\n        /* \"https://github.com/OpenZeppelin/openzeppelin-contracts/blob/master/contracts/token/ERC20/ERC20.sol\":8567:9102  function _mint(address account, uint256 amount) internal virtual {... */\n    tag_148:\n      sub(shl(0xa0, 0x01), 0x01)\n        /* \"https://github.com/OpenZeppelin/openzeppelin-contracts/blob/master/contracts/token/ERC20/ERC20.sol\":8650:8671  account != address(0) */\n      dup3\n      and\n        /* \"https://github.com/OpenZeppelin/openzeppelin-contracts/blob/master/contracts/token/ERC20/ERC20.sol\":8642:8707  require(account != address(0), \"ERC20: mint to the zero address\") */\n      tag_214\n      jumpi\n      mload(0x40)\n      shl(0xe5, 0x461bcd)\n      dup2\n      mstore\n        /* \"#utility.yul\":8579:8581   */\n      0x20\n        /* \"https://github.com/OpenZeppelin/openzeppelin-contracts/blob/master/contracts/token/ERC20/ERC20.sol\":8642:8707  require(account != address(0), \"ERC20: mint to the zero address\") */\n      0x04\n      dup3\n      add\n        /* \"#utility.yul\":8561:8582   */\n      mstore\n        /* \"#utility.yul\":8618:8620   */\n      0x1f\n        /* \"#utility.yul\":8598:8616   */\n      0x24\n      dup3\n      add\n        /* \"#utility.yul\":8591:8621   */\n      mstore\n        /* \"#utility.yul\":8657:8690   */\n      0x45524332303a206d696e7420746f20746865207a65726f206164647265737300\n        /* \"#utility.yul\":8637:8655   */\n      0x44\n      dup3\n      add\n        /* \"#utility.yul\":8630:8691   */\n      mstore\n        /* \"#utility.yul\":8708:8726   */\n      0x64\n      add\n        /* \"https://github.com/OpenZeppelin/openzeppelin-contracts/blob/master/contracts/token/ERC20/ERC20.sol\":8642:8707  require(account != address(0), \"ERC20: mint to the zero address\") */\n      tag_129\n        /* \"#utility.yul\":8377:8732   */\n      jump\n        /* \"https://github.com/OpenZeppelin/openzeppelin-contracts/blob/master/contracts/token/ERC20/ERC20.sol\":8642:8707  require(account != address(0), \"ERC20: mint to the zero address\") */\n    tag_214:\n        /* \"https://github.com/OpenZeppelin/openzeppelin-contracts/blob/master/contracts/token/ERC20/ERC20.sol\":8794:8800  amount */\n      dup1\n        /* \"https://github.com/OpenZeppelin/openzeppelin-contracts/blob/master/contracts/token/ERC20/ERC20.sol\":8778:8790  _totalSupply */\n      0x02\n      0x00\n        /* \"https://github.com/OpenZeppelin/openzeppelin-contracts/blob/master/contracts/token/ERC20/ERC20.sol\":8778:8800  _totalSupply += amount */\n      dup3\n      dup3\n      sload\n      tag_218\n      swap2\n      swap1\n      tag_126\n      jump\t// in\n    tag_218:\n      swap1\n      swap2\n      sstore\n      pop\n      pop\n      sub(shl(0xa0, 0x01), 0x01)\n        /* \"https://github.com/OpenZeppelin/openzeppelin-contracts/blob/master/contracts/token/ERC20/ERC20.sol\":8946:8964  _balances[account] */\n      dup3\n      and\n        /* \"https://github.com/OpenZeppelin/openzeppelin-contracts/blob/master/contracts/token/ERC20/ERC20.sol\":8946:8955  _balances */\n      0x00\n        /* \"https://github.com/OpenZeppelin/openzeppelin-contracts/blob/master/contracts/token/ERC20/ERC20.sol\":8946:8964  _balances[account] */\n      dup2\n      dup2\n      mstore\n      0x20\n      dup2\n      dup2\n      mstore\n      0x40\n      dup1\n      dup4\n      keccak256\n        /* \"https://github.com/OpenZeppelin/openzeppelin-contracts/blob/master/contracts/token/ERC20/ERC20.sol\":8946:8974  _balances[account] += amount */\n      dup1\n      sload\n      dup7\n      add\n      swap1\n      sstore\n        /* \"https://github.com/OpenZeppelin/openzeppelin-contracts/blob/master/contracts/token/ERC20/ERC20.sol\":8999:9036  Transfer(address(0), account, amount) */\n      mload\n        /* \"#utility.yul\":1714:1739   */\n      dup5\n      dup2\n      mstore\n        /* \"https://github.com/OpenZeppelin/openzeppelin-contracts/blob/master/contracts/token/ERC20/ERC20.sol\":8999:9036  Transfer(address(0), account, amount) */\n      0xddf252ad1be2c89b69c2b068fc378daa952ba7f163c4a11628f55a4df523b3ef\n      swap2\n        /* \"#utility.yul\":1687:1705   */\n      add\n        /* \"https://github.com/OpenZeppelin/openzeppelin-contracts/blob/master/contracts/token/ERC20/ERC20.sol\":8999:9036  Transfer(address(0), account, amount) */\n      mload(0x40)\n      dup1\n      swap2\n      sub\n      swap1\n      log3\n        /* \"Upgradable E1P 1822/Implementation1.sol\":1103:1189  function mintToken(uint amount, address _to) public {... */\n      pop\n      pop\n      jump\t// out\n    tag_153:\n      dup3\n      dup1\n      sload\n      tag_223\n      swap1\n      tag_102\n      jump\t// in\n    tag_223:\n      swap1\n      0x00\n      mstore\n      keccak256(0x00, 0x20)\n      swap1\n      0x1f\n      add\n      0x20\n      swap1\n      div\n      dup2\n      add\n      swap3\n      dup3\n      tag_225\n      jumpi\n      0x00\n      dup6\n      sstore\n      jump(tag_228)\n    tag_225:\n      dup3\n      0x1f\n      lt\n      tag_226\n      jumpi\n      dup1\n      mload\n      not(0xff)\n      and\n      dup4\n      dup1\n      add\n      or\n      dup6\n      sstore\n      jump(tag_228)\n    tag_226:\n      dup3\n      dup1\n      add\n      0x01\n      add\n      dup6\n      sstore\n      dup3\n      iszero\n      tag_228\n      jumpi\n      swap2\n      dup3\n      add\n    tag_227:\n      dup3\n      dup2\n      gt\n      iszero\n      tag_228\n      jumpi\n      dup3\n      mload\n      dup3\n      sstore\n      swap2\n      0x20\n      add\n      swap2\n      swap1\n      0x01\n      add\n      swap1\n      jump(tag_227)\n    tag_228:\n      pop\n      tag_229\n      swap3\n      swap2\n      pop\n      tag_230\n      jump\t// in\n    tag_229:\n      pop\n      swap1\n      jump\t// out\n    tag_230:\n    tag_231:\n      dup1\n      dup3\n      gt\n      iszero\n      tag_229\n      jumpi\n      0x00\n      dup2\n      sstore\n      0x01\n      add\n      jump(tag_231)\n        /* \"#utility.yul\":14:486   */\n    tag_233:\n        /* \"#utility.yul\":56:59   */\n      0x00\n        /* \"#utility.yul\":94:99   */\n      dup2\n        /* \"#utility.yul\":88:100   */\n      mload\n        /* \"#utility.yul\":121:127   */\n      dup1\n        /* \"#utility.yul\":116:119   */\n      dup5\n        /* \"#utility.yul\":109:128   */\n      mstore\n        /* \"#utility.yul\":146:147   */\n      0x00\n        /* \"#utility.yul\":156:318   */\n    tag_237:\n        /* \"#utility.yul\":170:176   */\n      dup2\n        /* \"#utility.yul\":167:168   */\n      dup2\n        /* \"#utility.yul\":164:177   */\n      lt\n        /* \"#utility.yul\":156:318   */\n      iszero\n      tag_239\n      jumpi\n        /* \"#utility.yul\":232:236   */\n      0x20\n        /* \"#utility.yul\":288:301   */\n      dup2\n      dup6\n      add\n        /* \"#utility.yul\":284:306   */\n      dup2\n      add\n        /* \"#utility.yul\":278:307   */\n      mload\n        /* \"#utility.yul\":260:271   */\n      dup7\n      dup4\n      add\n        /* \"#utility.yul\":256:276   */\n      dup3\n      add\n        /* \"#utility.yul\":249:308   */\n      mstore\n        /* \"#utility.yul\":185:197   */\n      add\n        /* \"#utility.yul\":156:318   */\n      jump(tag_237)\n    tag_239:\n        /* \"#utility.yul\":336:342   */\n      dup2\n        /* \"#utility.yul\":333:334   */\n      dup2\n        /* \"#utility.yul\":330:343   */\n      gt\n        /* \"#utility.yul\":327:414   */\n      iszero\n      tag_240\n      jumpi\n        /* \"#utility.yul\":402:403   */\n      0x00\n        /* \"#utility.yul\":395:399   */\n      0x20\n        /* \"#utility.yul\":386:392   */\n      dup4\n        /* \"#utility.yul\":381:384   */\n      dup8\n        /* \"#utility.yul\":377:393   */\n      add\n        /* \"#utility.yul\":373:400   */\n      add\n        /* \"#utility.yul\":366:404   */\n      mstore\n        /* \"#utility.yul\":327:414   */\n    tag_240:\n      pop\n        /* \"#utility.yul\":468:470   */\n      0x1f\n        /* \"#utility.yul\":447:462   */\n      add\n      not(0x1f)\n        /* \"#utility.yul\":443:472   */\n      and\n        /* \"#utility.yul\":434:473   */\n      swap3\n      swap1\n      swap3\n      add\n        /* \"#utility.yul\":475:479   */\n      0x20\n        /* \"#utility.yul\":430:480   */\n      add\n      swap3\n        /* \"#utility.yul\":14:486   */\n      swap2\n      pop\n      pop\n      jump\t// out\n        /* \"#utility.yul\":491:711   */\n    tag_28:\n        /* \"#utility.yul\":640:642   */\n      0x20\n        /* \"#utility.yul\":629:638   */\n      dup2\n        /* \"#utility.yul\":622:643   */\n      mstore\n        /* \"#utility.yul\":603:607   */\n      0x00\n        /* \"#utility.yul\":660:705   */\n      tag_242\n        /* \"#utility.yul\":701:703   */\n      0x20\n        /* \"#utility.yul\":690:699   */\n      dup4\n        /* \"#utility.yul\":686:704   */\n      add\n        /* \"#utility.yul\":678:684   */\n      dup5\n        /* \"#utility.yul\":660:705   */\n      tag_233\n      jump\t// in\n    tag_242:\n        /* \"#utility.yul\":652:705   */\n      swap4\n        /* \"#utility.yul\":491:711   */\n      swap3\n      pop\n      pop\n      pop\n      jump\t// out\n        /* \"#utility.yul\":716:889   */\n    tag_234:\n        /* \"#utility.yul\":784:804   */\n      dup1\n      calldataload\n      sub(shl(0xa0, 0x01), 0x01)\n        /* \"#utility.yul\":833:864   */\n      dup2\n      and\n        /* \"#utility.yul\":823:865   */\n      dup2\n      eq\n        /* \"#utility.yul\":813:883   */\n      tag_244\n      jumpi\n        /* \"#utility.yul\":879:880   */\n      0x00\n        /* \"#utility.yul\":876:877   */\n      dup1\n        /* \"#utility.yul\":869:881   */\n      revert\n        /* \"#utility.yul\":813:883   */\n    tag_244:\n        /* \"#utility.yul\":716:889   */\n      swap2\n      swap1\n      pop\n      jump\t// out\n        /* \"#utility.yul\":894:1148   */\n    tag_31:\n        /* \"#utility.yul\":962:968   */\n      0x00\n        /* \"#utility.yul\":970:976   */\n      dup1\n        /* \"#utility.yul\":1023:1025   */\n      0x40\n        /* \"#utility.yul\":1011:1020   */\n      dup4\n        /* \"#utility.yul\":1002:1009   */\n      dup6\n        /* \"#utility.yul\":998:1021   */\n      sub\n        /* \"#utility.yul\":994:1026   */\n      slt\n        /* \"#utility.yul\":991:1043   */\n      iszero\n      tag_246\n      jumpi\n        /* \"#utility.yul\":1039:1040   */\n      0x00\n        /* \"#utility.yul\":1036:1037   */\n      dup1\n        /* \"#utility.yul\":1029:1041   */\n      revert\n        /* \"#utility.yul\":991:1043   */\n    tag_246:\n        /* \"#utility.yul\":1062:1091   */\n      tag_247\n        /* \"#utility.yul\":1081:1090   */\n      dup4\n        /* \"#utility.yul\":1062:1091   */\n      tag_234\n      jump\t// in\n    tag_247:\n        /* \"#utility.yul\":1052:1091   */\n      swap5\n        /* \"#utility.yul\":1138:1140   */\n      0x20\n        /* \"#utility.yul\":1123:1141   */\n      swap4\n      swap1\n      swap4\n      add\n        /* \"#utility.yul\":1110:1142   */\n      calldataload\n      swap4\n      pop\n      pop\n      pop\n        /* \"#utility.yul\":894:1148   */\n      jump\t// out\n        /* \"#utility.yul\":1750:2078   */\n    tag_48:\n        /* \"#utility.yul\":1827:1833   */\n      0x00\n        /* \"#utility.yul\":1835:1841   */\n      dup1\n        /* \"#utility.yul\":1843:1849   */\n      0x00\n        /* \"#utility.yul\":1896:1898   */\n      0x60\n        /* \"#utility.yul\":1884:1893   */\n      dup5\n        /* \"#utility.yul\":1875:1882   */\n      dup7\n        /* \"#utility.yul\":1871:1894   */\n      sub\n        /* \"#utility.yul\":1867:1899   */\n      slt\n        /* \"#utility.yul\":1864:1916   */\n      iszero\n      tag_253\n      jumpi\n        /* \"#utility.yul\":1912:1913   */\n      0x00\n        /* \"#utility.yul\":1909:1910   */\n      dup1\n        /* \"#utility.yul\":1902:1914   */\n      revert\n        /* \"#utility.yul\":1864:1916   */\n    tag_253:\n        /* \"#utility.yul\":1935:1964   */\n      tag_254\n        /* \"#utility.yul\":1954:1963   */\n      dup5\n        /* \"#utility.yul\":1935:1964   */\n      tag_234\n      jump\t// in\n    tag_254:\n        /* \"#utility.yul\":1925:1964   */\n      swap3\n      pop\n        /* \"#utility.yul\":1983:2021   */\n      tag_255\n        /* \"#utility.yul\":2017:2019   */\n      0x20\n        /* \"#utility.yul\":2006:2015   */\n      dup6\n        /* \"#utility.yul\":2002:2020   */\n      add\n        /* \"#utility.yul\":1983:2021   */\n      tag_234\n      jump\t// in\n    tag_255:\n        /* \"#utility.yul\":1973:2021   */\n      swap2\n      pop\n        /* \"#utility.yul\":2068:2070   */\n      0x40\n        /* \"#utility.yul\":2057:2066   */\n      dup5\n        /* \"#utility.yul\":2053:2071   */\n      add\n        /* \"#utility.yul\":2040:2072   */\n      calldataload\n        /* \"#utility.yul\":2030:2072   */\n      swap1\n      pop\n        /* \"#utility.yul\":1750:2078   */\n      swap3\n      pop\n      swap3\n      pop\n      swap3\n      jump\t// out\n        /* \"#utility.yul\":2272:2458   */\n    tag_61:\n        /* \"#utility.yul\":2331:2337   */\n      0x00\n        /* \"#utility.yul\":2384:2386   */\n      0x20\n        /* \"#utility.yul\":2372:2381   */\n      dup3\n        /* \"#utility.yul\":2363:2370   */\n      dup5\n        /* \"#utility.yul\":2359:2382   */\n      sub\n        /* \"#utility.yul\":2355:2387   */\n      slt\n        /* \"#utility.yul\":2352:2404   */\n      iszero\n      tag_258\n      jumpi\n        /* \"#utility.yul\":2400:2401   */\n      0x00\n        /* \"#utility.yul\":2397:2398   */\n      dup1\n        /* \"#utility.yul\":2390:2402   */\n      revert\n        /* \"#utility.yul\":2352:2404   */\n    tag_258:\n        /* \"#utility.yul\":2423:2452   */\n      tag_242\n        /* \"#utility.yul\":2442:2451   */\n      dup3\n        /* \"#utility.yul\":2423:2452   */\n      tag_234\n      jump\t// in\n        /* \"#utility.yul\":2853:3107   */\n    tag_85:\n        /* \"#utility.yul\":2921:2927   */\n      0x00\n        /* \"#utility.yul\":2929:2935   */\n      dup1\n        /* \"#utility.yul\":2982:2984   */\n      0x40\n        /* \"#utility.yul\":2970:2979   */\n      dup4\n        /* \"#utility.yul\":2961:2968   */\n      dup6\n        /* \"#utility.yul\":2957:2980   */\n      sub\n        /* \"#utility.yul\":2953:2985   */\n      slt\n        /* \"#utility.yul\":2950:3002   */\n      iszero\n      tag_263\n      jumpi\n        /* \"#utility.yul\":2998:2999   */\n      0x00\n        /* \"#utility.yul\":2995:2996   */\n      dup1\n        /* \"#utility.yul\":2988:3000   */\n      revert\n        /* \"#utility.yul\":2950:3002   */\n    tag_263:\n        /* \"#utility.yul\":3034:3043   */\n      dup3\n        /* \"#utility.yul\":3021:3044   */\n      calldataload\n        /* \"#utility.yul\":3011:3044   */\n      swap2\n      pop\n        /* \"#utility.yul\":3063:3101   */\n      tag_264\n        /* \"#utility.yul\":3097:3099   */\n      0x20\n        /* \"#utility.yul\":3086:3095   */\n      dup5\n        /* \"#utility.yul\":3082:3100   */\n      add\n        /* \"#utility.yul\":3063:3101   */\n      tag_234\n      jump\t// in\n    tag_264:\n        /* \"#utility.yul\":3053:3101   */\n      swap1\n      pop\n        /* \"#utility.yul\":2853:3107   */\n      swap3\n      pop\n      swap3\n      swap1\n      pop\n      jump\t// out\n        /* \"#utility.yul\":3112:3372   */\n    tag_97:\n        /* \"#utility.yul\":3180:3186   */\n      0x00\n        /* \"#utility.yul\":3188:3194   */\n      dup1\n        /* \"#utility.yul\":3241:3243   */\n      0x40\n        /* \"#utility.yul\":3229:3238   */\n      dup4\n        /* \"#utility.yul\":3220:3227   */\n      dup6\n        /* \"#utility.yul\":3216:3239   */\n      sub\n        /* \"#utility.yul\":3212:3244   */\n      slt\n        /* \"#utility.yul\":3209:3261   */\n      iszero\n      tag_266\n      jumpi\n        /* \"#utility.yul\":3257:3258   */\n      0x00\n        /* \"#utility.yul\":3254:3255   */\n      dup1\n        /* \"#utility.yul\":3247:3259   */\n      revert\n        /* \"#utility.yul\":3209:3261   */\n    tag_266:\n        /* \"#utility.yul\":3280:3309   */\n      tag_267\n        /* \"#utility.yul\":3299:3308   */\n      dup4\n        /* \"#utility.yul\":3280:3309   */\n      tag_234\n      jump\t// in\n    tag_267:\n        /* \"#utility.yul\":3270:3309   */\n      swap2\n      pop\n        /* \"#utility.yul\":3328:3366   */\n      tag_264\n        /* \"#utility.yul\":3362:3364   */\n      0x20\n        /* \"#utility.yul\":3351:3360   */\n      dup5\n        /* \"#utility.yul\":3347:3365   */\n      add\n        /* \"#utility.yul\":3328:3366   */\n      tag_234\n      jump\t// in\n        /* \"#utility.yul\":3377:3757   */\n    tag_102:\n        /* \"#utility.yul\":3456:3457   */\n      0x01\n        /* \"#utility.yul\":3452:3464   */\n      dup2\n      dup2\n      shr\n      swap1\n        /* \"#utility.yul\":3499:3511   */\n      dup3\n      and\n      dup1\n        /* \"#utility.yul\":3520:3581   */\n      tag_270\n      jumpi\n        /* \"#utility.yul\":3574:3578   */\n      0x7f\n        /* \"#utility.yul\":3566:3572   */\n      dup3\n        /* \"#utility.yul\":3562:3579   */\n      and\n        /* \"#utility.yul\":3552:3579   */\n      swap2\n      pop\n        /* \"#utility.yul\":3520:3581   */\n    tag_270:\n        /* \"#utility.yul\":3627:3629   */\n      0x20\n        /* \"#utility.yul\":3619:3625   */\n      dup3\n        /* \"#utility.yul\":3616:3630   */\n      lt\n        /* \"#utility.yul\":3596:3614   */\n      dup2\n        /* \"#utility.yul\":3593:3631   */\n      eq\n        /* \"#utility.yul\":3590:3751   */\n      iszero\n      tag_271\n      jumpi\n        /* \"#utility.yul\":3673:3683   */\n      0x4e487b71\n        /* \"#utility.yul\":3668:3671   */\n      0xe0\n        /* \"#utility.yul\":3664:3684   */\n      shl\n        /* \"#utility.yul\":3661:3662   */\n      0x00\n        /* \"#utility.yul\":3654:3685   */\n      mstore\n        /* \"#utility.yul\":3708:3712   */\n      0x22\n        /* \"#utility.yul\":3705:3706   */\n      0x04\n        /* \"#utility.yul\":3698:3713   */\n      mstore\n        /* \"#utility.yul\":3736:3740   */\n      0x24\n        /* \"#utility.yul\":3733:3734   */\n      0x00\n        /* \"#utility.yul\":3726:3741   */\n      revert\n        /* \"#utility.yul\":3590:3751   */\n    tag_271:\n      pop\n        /* \"#utility.yul\":3377:3757   */\n      swap2\n      swap1\n      pop\n      jump\t// out\n        /* \"#utility.yul\":3762:3987   */\n    tag_126:\n        /* \"#utility.yul\":3802:3805   */\n      0x00\n        /* \"#utility.yul\":3833:3834   */\n      dup3\n        /* \"#utility.yul\":3829:3835   */\n      not\n        /* \"#utility.yul\":3826:3827   */\n      dup3\n        /* \"#utility.yul\":3823:3836   */\n      gt\n        /* \"#utility.yul\":3820:3956   */\n      iszero\n      tag_273\n      jumpi\n        /* \"#utility.yul\":3878:3888   */\n      0x4e487b71\n        /* \"#utility.yul\":3873:3876   */\n      0xe0\n        /* \"#utility.yul\":3869:3889   */\n      shl\n        /* \"#utility.yul\":3866:3867   */\n      0x00\n        /* \"#utility.yul\":3859:3890   */\n      mstore\n        /* \"#utility.yul\":3913:3917   */\n      0x11\n        /* \"#utility.yul\":3910:3911   */\n      0x04\n        /* \"#utility.yul\":3903:3918   */\n      mstore\n        /* \"#utility.yul\":3941:3945   */\n      0x24\n        /* \"#utility.yul\":3938:3939   */\n      0x00\n        /* \"#utility.yul\":3931:3946   */\n      revert\n        /* \"#utility.yul\":3820:3956   */\n    tag_273:\n      pop\n        /* \"#utility.yul\":3972:3981   */\n      add\n      swap1\n        /* \"#utility.yul\":3762:3987   */\n      jump\t// out\n        /* \"#utility.yul\":7845:8029   */\n    tag_209:\n        /* \"#utility.yul\":7915:7921   */\n      0x00\n        /* \"#utility.yul\":7968:7970   */\n      0x20\n        /* \"#utility.yul\":7956:7965   */\n      dup3\n        /* \"#utility.yul\":7947:7954   */\n      dup5\n        /* \"#utility.yul\":7943:7966   */\n      sub\n        /* \"#utility.yul\":7939:7971   */\n      slt\n        /* \"#utility.yul\":7936:7988   */\n      iszero\n      tag_285\n      jumpi\n        /* \"#utility.yul\":7984:7985   */\n      0x00\n        /* \"#utility.yul\":7981:7982   */\n      dup1\n        /* \"#utility.yul\":7974:7986   */\n      revert\n        /* \"#utility.yul\":7936:7988   */\n    tag_285:\n      pop\n        /* \"#utility.yul\":8007:8023   */\n      mload\n      swap2\n        /* \"#utility.yul\":7845:8029   */\n      swap1\n      pop\n      jump\t// out\n\n    auxdata: 0xa2646970667358221220b9cd963a3ee6e2a8d6d0192259e2092b4794fec18e4b14a6f15bd9d3f609cbe964736f6c634300080a0033\n}\n",
				"bytecode": {
					"linkReferences": {},
					"object": "60806040526005805460ff60a01b191690553480156200001e57600080fd5b50604080518082018252600881526722a4a816989c191960c11b6020808301918252835180850190945260048452634549504960e01b9084015281519192916200006b916003916200008a565b508051620000819060049060208401906200008a565b5050506200016d565b828054620000989062000130565b90600052602060002090601f016020900481019282620000bc576000855562000107565b82601f10620000d757805160ff191683800117855562000107565b8280016001018555821562000107579182015b8281111562000107578251825591602001919060010190620000ea565b506200011592915062000119565b5090565b5b808211156200011557600081556001016200011a565b600181811c908216806200014557607f821691505b602082108114156200016757634e487b7160e01b600052602260045260246000fd5b50919050565b610e5d806200017d6000396000f3fe608060405234801561001057600080fd5b50600436106101215760003560e01c806352d1902d116100ad57806395d89b411161007157806395d89b411461029b578063a140ae23146102a3578063a457c2d7146102b6578063a9059cbb146102c9578063dd62ed3e146102dc57600080fd5b806352d1902d1461020657806370a082311461022c57806376890c58146102555780638129fc1c146102685780638da5cb5b1461027057600080fd5b806318160ddd116100f457806318160ddd146101aa57806323b872dd146101bc578063313ce567146101cf57806339509351146101de57806346951954146101f157600080fd5b806306fdde0314610126578063095ea7b31461014457806311d7fe4d14610167578063158ef93e14610196575b600080fd5b61012e6102ef565b60405161013b9190610ca0565b60405180910390f35b610157610152366004610cd6565b610381565b604051901515815260200161013b565b61012e6040805160048152602481019091526020810180516001600160e01b031663204a7f0760e21b17905290565b60055461015790600160a01b900460ff1681565b6002545b60405190815260200161013b565b6101576101ca366004610d00565b610399565b6040516012815260200161013b565b6101576101ec366004610cd6565b6103bd565b6102046101ff366004610d3c565b6103df565b005b7fc5f16f0fcc639fa48a6947836d9850f504798523bf8c9a3a87d5876cf622bcf76101ae565b6101ae61023a366004610d3c565b6001600160a01b031660009081526020819052604090205490565b610204610263366004610cd6565b61044a565b610204610526565b600554610283906001600160a01b031681565b6040516001600160a01b03909116815260200161013b565b61012e610603565b6102046102b1366004610d57565b610612565b6101576102c4366004610cd6565b610620565b6101576102d7366004610cd6565b61069b565b6101ae6102ea366004610d83565b6106a9565b6060600680546102fe90610dad565b80601f016020809104026020016040519081016040528092919081815260200182805461032a90610dad565b80156103775780601f1061034c57610100808354040283529160200191610377565b820191906000526020600020905b81548152906001019060200180831161035a57829003601f168201915b5050505050905090565b60003361038f8185856106d4565b5060019392505050565b6000336103a78582856107f8565b6103b2858585610872565b506001949350505050565b60003361038f8185856103d083836106a9565b6103da9190610de8565b6106d4565b6005546001600160a01b0316331461043e5760405162461bcd60e51b815260206004820152601d60248201527f4e6f207065726d697373696f6e2065786365707420746f206f776e657200000060448201526064015b60405180910390fd5b61044781610a16565b50565b6005546001600160a01b031633146104a45760405162461bcd60e51b815260206004820152601d60248201527f4e6f207065726d697373696f6e2065786365707420746f206f776e65720000006044820152606401610435565b306000908152602081905260409020546001600160a01b03831661050a5760405162461bcd60e51b815260206004820152601e60248201527f596f752063616e74207472616e7366657220746f2061646472657373203000006044820152606401610435565b81811161051657600080fd5b610521308484610872565b505050565b61053930683635c9adc5dea00000610afb565b6005546001600160a01b0316156105875760405162461bcd60e51b8152602060048201526012602482015271105b1c9958591e481a5b9a5d185b1a5e995960721b6044820152606401610435565b6005805460ff60a01b1933166001600160a81b031990911617600160a01b1790556040805180820190915260088082526722a4a816989c191960c11b60209092019182526105d791600691610bba565b50604080518082019091526004808252634549504960e01b602090920191825261044791600791610bba565b6060600780546102fe90610dad565b61061c8183610afb565b5050565b6000338161062e82866106a9565b90508381101561068e5760405162461bcd60e51b815260206004820152602560248201527f45524332303a2064656372656173656420616c6c6f77616e63652062656c6f77604482015264207a65726f60d81b6064820152608401610435565b6103b282868684036106d4565b60003361038f818585610872565b6001600160a01b03918216600090815260016020908152604080832093909416825291909152205490565b6001600160a01b0383166107365760405162461bcd60e51b8152602060048201526024808201527f45524332303a20617070726f76652066726f6d20746865207a65726f206164646044820152637265737360e01b6064820152608401610435565b6001600160a01b0382166107975760405162461bcd60e51b815260206004820152602260248201527f45524332303a20617070726f766520746f20746865207a65726f206164647265604482015261737360f01b6064820152608401610435565b6001600160a01b0383811660008181526001602090815260408083209487168084529482529182902085905590518481527f8c5be1e5ebec7d5bd14f71427d1e84f3dd0314c0f7b2291e5b200ac8c7c3b925910160405180910390a3505050565b600061080484846106a9565b9050600019811461086c578181101561085f5760405162461bcd60e51b815260206004820152601d60248201527f45524332303a20696e73756666696369656e7420616c6c6f77616e63650000006044820152606401610435565b61086c84848484036106d4565b50505050565b6001600160a01b0383166108d65760405162461bcd60e51b815260206004820152602560248201527f45524332303a207472616e736665722066726f6d20746865207a65726f206164604482015264647265737360d81b6064820152608401610435565b6001600160a01b0382166109385760405162461bcd60e51b815260206004820152602360248201527f45524332303a207472616e7366657220746f20746865207a65726f206164647260448201526265737360e81b6064820152608401610435565b6001600160a01b038316600090815260208190526040902054818110156109b05760405162461bcd60e51b815260206004820152602660248201527f45524332303a207472616e7366657220616d6f756e7420657863656564732062604482015265616c616e636560d01b6064820152608401610435565b6001600160a01b03848116600081815260208181526040808320878703905593871680835291849020805487019055925185815290927fddf252ad1be2c89b69c2b068fc378daa952ba7f163c4a11628f55a4df523b3ef910160405180910390a361086c565b806001600160a01b03166352d1902d6040518163ffffffff1660e01b8152600401602060405180830381865afa158015610a54573d6000803e3d6000fd5b505050506040513d601f19601f82011682018060405250810190610a789190610e0e565b7fc5f16f0fcc639fa48a6947836d9850f504798523bf8c9a3a87d5876cf622bcf714610ad75760405162461bcd60e51b815260206004820152600e60248201526d4e6f7420636f6d70617469626c6560901b6044820152606401610435565b7fc5f16f0fcc639fa48a6947836d9850f504798523bf8c9a3a87d5876cf622bcf755565b6001600160a01b038216610b515760405162461bcd60e51b815260206004820152601f60248201527f45524332303a206d696e7420746f20746865207a65726f2061646472657373006044820152606401610435565b8060026000828254610b639190610de8565b90915550506001600160a01b038216600081815260208181526040808320805486019055518481527fddf252ad1be2c89b69c2b068fc378daa952ba7f163c4a11628f55a4df523b3ef910160405180910390a35050565b828054610bc690610dad565b90600052602060002090601f016020900481019282610be85760008555610c2e565b82601f10610c0157805160ff1916838001178555610c2e565b82800160010185558215610c2e579182015b82811115610c2e578251825591602001919060010190610c13565b50610c3a929150610c3e565b5090565b5b80821115610c3a5760008155600101610c3f565b6000815180845260005b81811015610c7957602081850181015186830182015201610c5d565b81811115610c8b576000602083870101525b50601f01601f19169290920160200192915050565b602081526000610cb36020830184610c53565b9392505050565b80356001600160a01b0381168114610cd157600080fd5b919050565b60008060408385031215610ce957600080fd5b610cf283610cba565b946020939093013593505050565b600080600060608486031215610d1557600080fd5b610d1e84610cba565b9250610d2c60208501610cba565b9150604084013590509250925092565b600060208284031215610d4e57600080fd5b610cb382610cba565b60008060408385031215610d6a57600080fd5b82359150610d7a60208401610cba565b90509250929050565b60008060408385031215610d9657600080fd5b610d9f83610cba565b9150610d7a60208401610cba565b600181811c90821680610dc157607f821691505b60208210811415610de257634e487b7160e01b600052602260045260246000fd5b50919050565b60008219821115610e0957634e487b7160e01b600052601160045260246000fd5b500190565b600060208284031215610e2057600080fd5b505191905056fea2646970667358221220b9cd963a3ee6e2a8d6d0192259e2092b4794fec18e4b14a6f15bd9d3f609cbe964736f6c634300080a0033",
					"opcodes": "PUSH1 0x80 PUSH1 0x40 MSTORE PUSH1 0x5 DUP1 SLOAD PUSH1 0xFF PUSH1 0xA0 SHL NOT AND SWAP1 SSTORE CALLVALUE DUP1 ISZERO PUSH3 0x1E JUMPI PUSH1 0x0 DUP1 REVERT JUMPDEST POP PUSH1 0x40 DUP1 MLOAD DUP1 DUP3 ADD DUP3 MSTORE PUSH1 0x8 DUP2 MSTORE PUSH8 0x22A4A816989C1919 PUSH1 0xC1 SHL PUSH1 0x20 DUP1 DUP4 ADD SWAP2 DUP3 MSTORE DUP4 MLOAD DUP1 DUP6 ADD SWAP1 SWAP5 MSTORE PUSH1 0x4 DUP5 MSTORE PUSH4 0x45495049 PUSH1 0xE0 SHL SWAP1 DUP5 ADD MSTORE DUP2 MLOAD SWAP2 SWAP3 SWAP2 PUSH3 0x6B SWAP2 PUSH1 0x3 SWAP2 PUSH3 0x8A JUMP JUMPDEST POP DUP1 MLOAD PUSH3 0x81 SWAP1 PUSH1 0x4 SWAP1 PUSH1 0x20 DUP5 ADD SWAP1 PUSH3 0x8A JUMP JUMPDEST POP POP POP PUSH3 0x16D JUMP JUMPDEST DUP3 DUP1 SLOAD PUSH3 0x98 SWAP1 PUSH3 0x130 JUMP JUMPDEST SWAP1 PUSH1 0x0 MSTORE PUSH1 0x20 PUSH1 0x0 KECCAK256 SWAP1 PUSH1 0x1F ADD PUSH1 0x20 SWAP1 DIV DUP2 ADD SWAP3 DUP3 PUSH3 0xBC JUMPI PUSH1 0x0 DUP6 SSTORE PUSH3 0x107 JUMP JUMPDEST DUP3 PUSH1 0x1F LT PUSH3 0xD7 JUMPI DUP1 MLOAD PUSH1 0xFF NOT AND DUP4 DUP1 ADD OR DUP6 SSTORE PUSH3 0x107 JUMP JUMPDEST DUP3 DUP1 ADD PUSH1 0x1 ADD DUP6 SSTORE DUP3 ISZERO PUSH3 0x107 JUMPI SWAP2 DUP3 ADD JUMPDEST DUP3 DUP2 GT ISZERO PUSH3 0x107 JUMPI DUP3 MLOAD DUP3 SSTORE SWAP2 PUSH1 0x20 ADD SWAP2 SWAP1 PUSH1 0x1 ADD SWAP1 PUSH3 0xEA JUMP JUMPDEST POP PUSH3 0x115 SWAP3 SWAP2 POP PUSH3 0x119 JUMP JUMPDEST POP SWAP1 JUMP JUMPDEST JUMPDEST DUP1 DUP3 GT ISZERO PUSH3 0x115 JUMPI PUSH1 0x0 DUP2 SSTORE PUSH1 0x1 ADD PUSH3 0x11A JUMP JUMPDEST PUSH1 0x1 DUP2 DUP2 SHR SWAP1 DUP3 AND DUP1 PUSH3 0x145 JUMPI PUSH1 0x7F DUP3 AND SWAP2 POP JUMPDEST PUSH1 0x20 DUP3 LT DUP2 EQ ISZERO PUSH3 0x167 JUMPI PUSH4 0x4E487B71 PUSH1 0xE0 SHL PUSH1 0x0 MSTORE PUSH1 0x22 PUSH1 0x4 MSTORE PUSH1 0x24 PUSH1 0x0 REVERT JUMPDEST POP SWAP2 SWAP1 POP JUMP JUMPDEST PUSH2 0xE5D DUP1 PUSH3 0x17D PUSH1 0x0 CODECOPY PUSH1 0x0 RETURN INVALID PUSH1 0x80 PUSH1 0x40 MSTORE CALLVALUE DUP1 ISZERO PUSH2 0x10 JUMPI PUSH1 0x0 DUP1 REVERT JUMPDEST POP PUSH1 0x4 CALLDATASIZE LT PUSH2 0x121 JUMPI PUSH1 0x0 CALLDATALOAD PUSH1 0xE0 SHR DUP1 PUSH4 0x52D1902D GT PUSH2 0xAD JUMPI DUP1 PUSH4 0x95D89B41 GT PUSH2 0x71 JUMPI DUP1 PUSH4 0x95D89B41 EQ PUSH2 0x29B JUMPI DUP1 PUSH4 0xA140AE23 EQ PUSH2 0x2A3 JUMPI DUP1 PUSH4 0xA457C2D7 EQ PUSH2 0x2B6 JUMPI DUP1 PUSH4 0xA9059CBB EQ PUSH2 0x2C9 JUMPI DUP1 PUSH4 0xDD62ED3E EQ PUSH2 0x2DC JUMPI PUSH1 0x0 DUP1 REVERT JUMPDEST DUP1 PUSH4 0x52D1902D EQ PUSH2 0x206 JUMPI DUP1 PUSH4 0x70A08231 EQ PUSH2 0x22C JUMPI DUP1 PUSH4 0x76890C58 EQ PUSH2 0x255 JUMPI DUP1 PUSH4 0x8129FC1C EQ PUSH2 0x268 JUMPI DUP1 PUSH4 0x8DA5CB5B EQ PUSH2 0x270 JUMPI PUSH1 0x0 DUP1 REVERT JUMPDEST DUP1 PUSH4 0x18160DDD GT PUSH2 0xF4 JUMPI DUP1 PUSH4 0x18160DDD EQ PUSH2 0x1AA JUMPI DUP1 PUSH4 0x23B872DD EQ PUSH2 0x1BC JUMPI DUP1 PUSH4 0x313CE567 EQ PUSH2 0x1CF JUMPI DUP1 PUSH4 0x39509351 EQ PUSH2 0x1DE JUMPI DUP1 PUSH4 0x46951954 EQ PUSH2 0x1F1 JUMPI PUSH1 0x0 DUP1 REVERT JUMPDEST DUP1 PUSH4 0x6FDDE03 EQ PUSH2 0x126 JUMPI DUP1 PUSH4 0x95EA7B3 EQ PUSH2 0x144 JUMPI DUP1 PUSH4 0x11D7FE4D EQ PUSH2 0x167 JUMPI DUP1 PUSH4 0x158EF93E EQ PUSH2 0x196 JUMPI JUMPDEST PUSH1 0x0 DUP1 REVERT JUMPDEST PUSH2 0x12E PUSH2 0x2EF JUMP JUMPDEST PUSH1 0x40 MLOAD PUSH2 0x13B SWAP2 SWAP1 PUSH2 0xCA0 JUMP JUMPDEST PUSH1 0x40 MLOAD DUP1 SWAP2 SUB SWAP1 RETURN JUMPDEST PUSH2 0x157 PUSH2 0x152 CALLDATASIZE PUSH1 0x4 PUSH2 0xCD6 JUMP JUMPDEST PUSH2 0x381 JUMP JUMPDEST PUSH1 0x40 MLOAD SWAP1 ISZERO ISZERO DUP2 MSTORE PUSH1 0x20 ADD PUSH2 0x13B JUMP JUMPDEST PUSH2 0x12E PUSH1 0x40 DUP1 MLOAD PUSH1 0x4 DUP2 MSTORE PUSH1 0x24 DUP2 ADD SWAP1 SWAP2 MSTORE PUSH1 0x20 DUP2 ADD DUP1 MLOAD PUSH1 0x1 PUSH1 0x1 PUSH1 0xE0 SHL SUB AND PUSH4 0x204A7F07 PUSH1 0xE2 SHL OR SWAP1 MSTORE SWAP1 JUMP JUMPDEST PUSH1 0x5 SLOAD PUSH2 0x157 SWAP1 PUSH1 0x1 PUSH1 0xA0 SHL SWAP1 DIV PUSH1 0xFF AND DUP2 JUMP JUMPDEST PUSH1 0x2 SLOAD JUMPDEST PUSH1 0x40 MLOAD SWAP1 DUP2 MSTORE PUSH1 0x20 ADD PUSH2 0x13B JUMP JUMPDEST PUSH2 0x157 PUSH2 0x1CA CALLDATASIZE PUSH1 0x4 PUSH2 0xD00 JUMP JUMPDEST PUSH2 0x399 JUMP JUMPDEST PUSH1 0x40 MLOAD PUSH1 0x12 DUP2 MSTORE PUSH1 0x20 ADD PUSH2 0x13B JUMP JUMPDEST PUSH2 0x157 PUSH2 0x1EC CALLDATASIZE PUSH1 0x4 PUSH2 0xCD6 JUMP JUMPDEST PUSH2 0x3BD JUMP JUMPDEST PUSH2 0x204 PUSH2 0x1FF CALLDATASIZE PUSH1 0x4 PUSH2 0xD3C JUMP JUMPDEST PUSH2 0x3DF JUMP JUMPDEST STOP JUMPDEST PUSH32 0xC5F16F0FCC639FA48A6947836D9850F504798523BF8C9A3A87D5876CF622BCF7 PUSH2 0x1AE JUMP JUMPDEST PUSH2 0x1AE PUSH2 0x23A CALLDATASIZE PUSH1 0x4 PUSH2 0xD3C JUMP JUMPDEST PUSH1 0x1 PUSH1 0x1 PUSH1 0xA0 SHL SUB AND PUSH1 0x0 SWAP1 DUP2 MSTORE PUSH1 0x20 DUP2 SWAP1 MSTORE PUSH1 0x40 SWAP1 KECCAK256 SLOAD SWAP1 JUMP JUMPDEST PUSH2 0x204 PUSH2 0x263 CALLDATASIZE PUSH1 0x4 PUSH2 0xCD6 JUMP JUMPDEST PUSH2 0x44A JUMP JUMPDEST PUSH2 0x204 PUSH2 0x526 JUMP JUMPDEST PUSH1 0x5 SLOAD PUSH2 0x283 SWAP1 PUSH1 0x1 PUSH1 0x1 PUSH1 0xA0 SHL SUB AND DUP2 JUMP JUMPDEST PUSH1 0x40 MLOAD PUSH1 0x1 PUSH1 0x1 PUSH1 0xA0 SHL SUB SWAP1 SWAP2 AND DUP2 MSTORE PUSH1 0x20 ADD PUSH2 0x13B JUMP JUMPDEST PUSH2 0x12E PUSH2 0x603 JUMP JUMPDEST PUSH2 0x204 PUSH2 0x2B1 CALLDATASIZE PUSH1 0x4 PUSH2 0xD57 JUMP JUMPDEST PUSH2 0x612 JUMP JUMPDEST PUSH2 0x157 PUSH2 0x2C4 CALLDATASIZE PUSH1 0x4 PUSH2 0xCD6 JUMP JUMPDEST PUSH2 0x620 JUMP JUMPDEST PUSH2 0x157 PUSH2 0x2D7 CALLDATASIZE PUSH1 0x4 PUSH2 0xCD6 JUMP JUMPDEST PUSH2 0x69B JUMP JUMPDEST PUSH2 0x1AE PUSH2 0x2EA CALLDATASIZE PUSH1 0x4 PUSH2 0xD83 JUMP JUMPDEST PUSH2 0x6A9 JUMP JUMPDEST PUSH1 0x60 PUSH1 0x6 DUP1 SLOAD PUSH2 0x2FE SWAP1 PUSH2 0xDAD JUMP JUMPDEST DUP1 PUSH1 0x1F ADD PUSH1 0x20 DUP1 SWAP2 DIV MUL PUSH1 0x20 ADD PUSH1 0x40 MLOAD SWAP1 DUP2 ADD PUSH1 0x40 MSTORE DUP1 SWAP3 SWAP2 SWAP1 DUP2 DUP2 MSTORE PUSH1 0x20 ADD DUP3 DUP1 SLOAD PUSH2 0x32A SWAP1 PUSH2 0xDAD JUMP JUMPDEST DUP1 ISZERO PUSH2 0x377 JUMPI DUP1 PUSH1 0x1F LT PUSH2 0x34C JUMPI PUSH2 0x100 DUP1 DUP4 SLOAD DIV MUL DUP4 MSTORE SWAP2 PUSH1 0x20 ADD SWAP2 PUSH2 0x377 JUMP JUMPDEST DUP3 ADD SWAP2 SWAP1 PUSH1 0x0 MSTORE PUSH1 0x20 PUSH1 0x0 KECCAK256 SWAP1 JUMPDEST DUP2 SLOAD DUP2 MSTORE SWAP1 PUSH1 0x1 ADD SWAP1 PUSH1 0x20 ADD DUP1 DUP4 GT PUSH2 0x35A JUMPI DUP3 SWAP1 SUB PUSH1 0x1F AND DUP3 ADD SWAP2 JUMPDEST POP POP POP POP POP SWAP1 POP SWAP1 JUMP JUMPDEST PUSH1 0x0 CALLER PUSH2 0x38F DUP2 DUP6 DUP6 PUSH2 0x6D4 JUMP JUMPDEST POP PUSH1 0x1 SWAP4 SWAP3 POP POP POP JUMP JUMPDEST PUSH1 0x0 CALLER PUSH2 0x3A7 DUP6 DUP3 DUP6 PUSH2 0x7F8 JUMP JUMPDEST PUSH2 0x3B2 DUP6 DUP6 DUP6 PUSH2 0x872 JUMP JUMPDEST POP PUSH1 0x1 SWAP5 SWAP4 POP POP POP POP JUMP JUMPDEST PUSH1 0x0 CALLER PUSH2 0x38F DUP2 DUP6 DUP6 PUSH2 0x3D0 DUP4 DUP4 PUSH2 0x6A9 JUMP JUMPDEST PUSH2 0x3DA SWAP2 SWAP1 PUSH2 0xDE8 JUMP JUMPDEST PUSH2 0x6D4 JUMP JUMPDEST PUSH1 0x5 SLOAD PUSH1 0x1 PUSH1 0x1 PUSH1 0xA0 SHL SUB AND CALLER EQ PUSH2 0x43E JUMPI PUSH1 0x40 MLOAD PUSH3 0x461BCD PUSH1 0xE5 SHL DUP2 MSTORE PUSH1 0x20 PUSH1 0x4 DUP3 ADD MSTORE PUSH1 0x1D PUSH1 0x24 DUP3 ADD MSTORE PUSH32 0x4E6F207065726D697373696F6E2065786365707420746F206F776E6572000000 PUSH1 0x44 DUP3 ADD MSTORE PUSH1 0x64 ADD JUMPDEST PUSH1 0x40 MLOAD DUP1 SWAP2 SUB SWAP1 REVERT JUMPDEST PUSH2 0x447 DUP2 PUSH2 0xA16 JUMP JUMPDEST POP JUMP JUMPDEST PUSH1 0x5 SLOAD PUSH1 0x1 PUSH1 0x1 PUSH1 0xA0 SHL SUB AND CALLER EQ PUSH2 0x4A4 JUMPI PUSH1 0x40 MLOAD PUSH3 0x461BCD PUSH1 0xE5 SHL DUP2 MSTORE PUSH1 0x20 PUSH1 0x4 DUP3 ADD MSTORE PUSH1 0x1D PUSH1 0x24 DUP3 ADD MSTORE PUSH32 0x4E6F207065726D697373696F6E2065786365707420746F206F776E6572000000 PUSH1 0x44 DUP3 ADD MSTORE PUSH1 0x64 ADD PUSH2 0x435 JUMP JUMPDEST ADDRESS PUSH1 0x0 SWAP1 DUP2 MSTORE PUSH1 0x20 DUP2 SWAP1 MSTORE PUSH1 0x40 SWAP1 KECCAK256 SLOAD PUSH1 0x1 PUSH1 0x1 PUSH1 0xA0 SHL SUB DUP4 AND PUSH2 0x50A JUMPI PUSH1 0x40 MLOAD PUSH3 0x461BCD PUSH1 0xE5 SHL DUP2 MSTORE PUSH1 0x20 PUSH1 0x4 DUP3 ADD MSTORE PUSH1 0x1E PUSH1 0x24 DUP3 ADD MSTORE PUSH32 0x596F752063616E74207472616E7366657220746F206164647265737320300000 PUSH1 0x44 DUP3 ADD MSTORE PUSH1 0x64 ADD PUSH2 0x435 JUMP JUMPDEST DUP2 DUP2 GT PUSH2 0x516 JUMPI PUSH1 0x0 DUP1 REVERT JUMPDEST PUSH2 0x521 ADDRESS DUP5 DUP5 PUSH2 0x872 JUMP JUMPDEST POP POP POP JUMP JUMPDEST PUSH2 0x539 ADDRESS PUSH9 0x3635C9ADC5DEA00000 PUSH2 0xAFB JUMP JUMPDEST PUSH1 0x5 SLOAD PUSH1 0x1 PUSH1 0x1 PUSH1 0xA0 SHL SUB AND ISZERO PUSH2 0x587 JUMPI PUSH1 0x40 MLOAD PUSH3 0x461BCD PUSH1 0xE5 SHL DUP2 MSTORE PUSH1 0x20 PUSH1 0x4 DUP3 ADD MSTORE PUSH1 0x12 PUSH1 0x24 DUP3 ADD MSTORE PUSH18 0x105B1C9958591E481A5B9A5D185B1A5E9959 PUSH1 0x72 SHL PUSH1 0x44 DUP3 ADD MSTORE PUSH1 0x64 ADD PUSH2 0x435 JUMP JUMPDEST PUSH1 0x5 DUP1 SLOAD PUSH1 0xFF PUSH1 0xA0 SHL NOT CALLER AND PUSH1 0x1 PUSH1 0x1 PUSH1 0xA8 SHL SUB NOT SWAP1 SWAP2 AND OR PUSH1 0x1 PUSH1 0xA0 SHL OR SWAP1 SSTORE PUSH1 0x40 DUP1 MLOAD DUP1 DUP3 ADD SWAP1 SWAP2 MSTORE PUSH1 0x8 DUP1 DUP3 MSTORE PUSH8 0x22A4A816989C1919 PUSH1 0xC1 SHL PUSH1 0x20 SWAP1 SWAP3 ADD SWAP2 DUP3 MSTORE PUSH2 0x5D7 SWAP2 PUSH1 0x6 SWAP2 PUSH2 0xBBA JUMP JUMPDEST POP PUSH1 0x40 DUP1 MLOAD DUP1 DUP3 ADD SWAP1 SWAP2 MSTORE PUSH1 0x4 DUP1 DUP3 MSTORE PUSH4 0x45495049 PUSH1 0xE0 SHL PUSH1 0x20 SWAP1 SWAP3 ADD SWAP2 DUP3 MSTORE PUSH2 0x447 SWAP2 PUSH1 0x7 SWAP2 PUSH2 0xBBA JUMP JUMPDEST PUSH1 0x60 PUSH1 0x7 DUP1 SLOAD PUSH2 0x2FE SWAP1 PUSH2 0xDAD JUMP JUMPDEST PUSH2 0x61C DUP2 DUP4 PUSH2 0xAFB JUMP JUMPDEST POP POP JUMP JUMPDEST PUSH1 0x0 CALLER DUP2 PUSH2 0x62E DUP3 DUP7 PUSH2 0x6A9 JUMP JUMPDEST SWAP1 POP DUP4 DUP2 LT ISZERO PUSH2 0x68E JUMPI PUSH1 0x40 MLOAD PUSH3 0x461BCD PUSH1 0xE5 SHL DUP2 MSTORE PUSH1 0x20 PUSH1 0x4 DUP3 ADD MSTORE PUSH1 0x25 PUSH1 0x24 DUP3 ADD MSTORE PUSH32 0x45524332303A2064656372656173656420616C6C6F77616E63652062656C6F77 PUSH1 0x44 DUP3 ADD MSTORE PUSH5 0x207A65726F PUSH1 0xD8 SHL PUSH1 0x64 DUP3 ADD MSTORE PUSH1 0x84 ADD PUSH2 0x435 JUMP JUMPDEST PUSH2 0x3B2 DUP3 DUP7 DUP7 DUP5 SUB PUSH2 0x6D4 JUMP JUMPDEST PUSH1 0x0 CALLER PUSH2 0x38F DUP2 DUP6 DUP6 PUSH2 0x872 JUMP JUMPDEST PUSH1 0x1 PUSH1 0x1 PUSH1 0xA0 SHL SUB SWAP2 DUP3 AND PUSH1 0x0 SWAP1 DUP2 MSTORE PUSH1 0x1 PUSH1 0x20 SWAP1 DUP2 MSTORE PUSH1 0x40 DUP1 DUP4 KECCAK256 SWAP4 SWAP1 SWAP5 AND DUP3 MSTORE SWAP2 SWAP1 SWAP2 MSTORE KECCAK256 SLOAD SWAP1 JUMP JUMPDEST PUSH1 0x1 PUSH1 0x1 PUSH1 0xA0 SHL SUB DUP4 AND PUSH2 0x736 JUMPI PUSH1 0x40 MLOAD PUSH3 0x461BCD PUSH1 0xE5 SHL DUP2 MSTORE PUSH1 0x20 PUSH1 0x4 DUP3 ADD MSTORE PUSH1 0x24 DUP1 DUP3 ADD MSTORE PUSH32 0x45524332303A20617070726F76652066726F6D20746865207A65726F20616464 PUSH1 0x44 DUP3 ADD MSTORE PUSH4 0x72657373 PUSH1 0xE0 SHL PUSH1 0x64 DUP3 ADD MSTORE PUSH1 0x84 ADD PUSH2 0x435 JUMP JUMPDEST PUSH1 0x1 PUSH1 0x1 PUSH1 0xA0 SHL SUB DUP3 AND PUSH2 0x797 JUMPI PUSH1 0x40 MLOAD PUSH3 0x461BCD PUSH1 0xE5 SHL DUP2 MSTORE PUSH1 0x20 PUSH1 0x4 DUP3 ADD MSTORE PUSH1 0x22 PUSH1 0x24 DUP3 ADD MSTORE PUSH32 0x45524332303A20617070726F766520746F20746865207A65726F206164647265 PUSH1 0x44 DUP3 ADD MSTORE PUSH2 0x7373 PUSH1 0xF0 SHL PUSH1 0x64 DUP3 ADD MSTORE PUSH1 0x84 ADD PUSH2 0x435 JUMP JUMPDEST PUSH1 0x1 PUSH1 0x1 PUSH1 0xA0 SHL SUB DUP4 DUP2 AND PUSH1 0x0 DUP2 DUP2 MSTORE PUSH1 0x1 PUSH1 0x20 SWAP1 DUP2 MSTORE PUSH1 0x40 DUP1 DUP4 KECCAK256 SWAP5 DUP8 AND DUP1 DUP5 MSTORE SWAP5 DUP3 MSTORE SWAP2 DUP3 SWAP1 KECCAK256 DUP6 SWAP1 SSTORE SWAP1 MLOAD DUP5 DUP2 MSTORE PUSH32 0x8C5BE1E5EBEC7D5BD14F71427D1E84F3DD0314C0F7B2291E5B200AC8C7C3B925 SWAP2 ADD PUSH1 0x40 MLOAD DUP1 SWAP2 SUB SWAP1 LOG3 POP POP POP JUMP JUMPDEST PUSH1 0x0 PUSH2 0x804 DUP5 DUP5 PUSH2 0x6A9 JUMP JUMPDEST SWAP1 POP PUSH1 0x0 NOT DUP2 EQ PUSH2 0x86C JUMPI DUP2 DUP2 LT ISZERO PUSH2 0x85F JUMPI PUSH1 0x40 MLOAD PUSH3 0x461BCD PUSH1 0xE5 SHL DUP2 MSTORE PUSH1 0x20 PUSH1 0x4 DUP3 ADD MSTORE PUSH1 0x1D PUSH1 0x24 DUP3 ADD MSTORE PUSH32 0x45524332303A20696E73756666696369656E7420616C6C6F77616E6365000000 PUSH1 0x44 DUP3 ADD MSTORE PUSH1 0x64 ADD PUSH2 0x435 JUMP JUMPDEST PUSH2 0x86C DUP5 DUP5 DUP5 DUP5 SUB PUSH2 0x6D4 JUMP JUMPDEST POP POP POP POP JUMP JUMPDEST PUSH1 0x1 PUSH1 0x1 PUSH1 0xA0 SHL SUB DUP4 AND PUSH2 0x8D6 JUMPI PUSH1 0x40 MLOAD PUSH3 0x461BCD PUSH1 0xE5 SHL DUP2 MSTORE PUSH1 0x20 PUSH1 0x4 DUP3 ADD MSTORE PUSH1 0x25 PUSH1 0x24 DUP3 ADD MSTORE PUSH32 0x45524332303A207472616E736665722066726F6D20746865207A65726F206164 PUSH1 0x44 DUP3 ADD MSTORE PUSH5 0x6472657373 PUSH1 0xD8 SHL PUSH1 0x64 DUP3 ADD MSTORE PUSH1 0x84 ADD PUSH2 0x435 JUMP JUMPDEST PUSH1 0x1 PUSH1 0x1 PUSH1 0xA0 SHL SUB DUP3 AND PUSH2 0x938 JUMPI PUSH1 0x40 MLOAD PUSH3 0x461BCD PUSH1 0xE5 SHL DUP2 MSTORE PUSH1 0x20 PUSH1 0x4 DUP3 ADD MSTORE PUSH1 0x23 PUSH1 0x24 DUP3 ADD MSTORE PUSH32 0x45524332303A207472616E7366657220746F20746865207A65726F2061646472 PUSH1 0x44 DUP3 ADD MSTORE PUSH3 0x657373 PUSH1 0xE8 SHL PUSH1 0x64 DUP3 ADD MSTORE PUSH1 0x84 ADD PUSH2 0x435 JUMP JUMPDEST PUSH1 0x1 PUSH1 0x1 PUSH1 0xA0 SHL SUB DUP4 AND PUSH1 0x0 SWAP1 DUP2 MSTORE PUSH1 0x20 DUP2 SWAP1 MSTORE PUSH1 0x40 SWAP1 KECCAK256 SLOAD DUP2 DUP2 LT ISZERO PUSH2 0x9B0 JUMPI PUSH1 0x40 MLOAD PUSH3 0x461BCD PUSH1 0xE5 SHL DUP2 MSTORE PUSH1 0x20 PUSH1 0x4 DUP3 ADD MSTORE PUSH1 0x26 PUSH1 0x24 DUP3 ADD MSTORE PUSH32 0x45524332303A207472616E7366657220616D6F756E7420657863656564732062 PUSH1 0x44 DUP3 ADD MSTORE PUSH6 0x616C616E6365 PUSH1 0xD0 SHL PUSH1 0x64 DUP3 ADD MSTORE PUSH1 0x84 ADD PUSH2 0x435 JUMP JUMPDEST PUSH1 0x1 PUSH1 0x1 PUSH1 0xA0 SHL SUB DUP5 DUP2 AND PUSH1 0x0 DUP2 DUP2 MSTORE PUSH1 0x20 DUP2 DUP2 MSTORE PUSH1 0x40 DUP1 DUP4 KECCAK256 DUP8 DUP8 SUB SWAP1 SSTORE SWAP4 DUP8 AND DUP1 DUP4 MSTORE SWAP2 DUP5 SWAP1 KECCAK256 DUP1 SLOAD DUP8 ADD SWAP1 SSTORE SWAP3 MLOAD DUP6 DUP2 MSTORE SWAP1 SWAP3 PUSH32 0xDDF252AD1BE2C89B69C2B068FC378DAA952BA7F163C4A11628F55A4DF523B3EF SWAP2 ADD PUSH1 0x40 MLOAD DUP1 SWAP2 SUB SWAP1 LOG3 PUSH2 0x86C JUMP JUMPDEST DUP1 PUSH1 0x1 PUSH1 0x1 PUSH1 0xA0 SHL SUB AND PUSH4 0x52D1902D PUSH1 0x40 MLOAD DUP2 PUSH4 0xFFFFFFFF AND PUSH1 0xE0 SHL DUP2 MSTORE PUSH1 0x4 ADD PUSH1 0x20 PUSH1 0x40 MLOAD DUP1 DUP4 SUB DUP2 DUP7 GAS STATICCALL ISZERO DUP1 ISZERO PUSH2 0xA54 JUMPI RETURNDATASIZE PUSH1 0x0 DUP1 RETURNDATACOPY RETURNDATASIZE PUSH1 0x0 REVERT JUMPDEST POP POP POP POP PUSH1 0x40 MLOAD RETURNDATASIZE PUSH1 0x1F NOT PUSH1 0x1F DUP3 ADD AND DUP3 ADD DUP1 PUSH1 0x40 MSTORE POP DUP2 ADD SWAP1 PUSH2 0xA78 SWAP2 SWAP1 PUSH2 0xE0E JUMP JUMPDEST PUSH32 0xC5F16F0FCC639FA48A6947836D9850F504798523BF8C9A3A87D5876CF622BCF7 EQ PUSH2 0xAD7 JUMPI PUSH1 0x40 MLOAD PUSH3 0x461BCD PUSH1 0xE5 SHL DUP2 MSTORE PUSH1 0x20 PUSH1 0x4 DUP3 ADD MSTORE PUSH1 0xE PUSH1 0x24 DUP3 ADD MSTORE PUSH14 0x4E6F7420636F6D70617469626C65 PUSH1 0x90 SHL PUSH1 0x44 DUP3 ADD MSTORE PUSH1 0x64 ADD PUSH2 0x435 JUMP JUMPDEST PUSH32 0xC5F16F0FCC639FA48A6947836D9850F504798523BF8C9A3A87D5876CF622BCF7 SSTORE JUMP JUMPDEST PUSH1 0x1 PUSH1 0x1 PUSH1 0xA0 SHL SUB DUP3 AND PUSH2 0xB51 JUMPI PUSH1 0x40 MLOAD PUSH3 0x461BCD PUSH1 0xE5 SHL DUP2 MSTORE PUSH1 0x20 PUSH1 0x4 DUP3 ADD MSTORE PUSH1 0x1F PUSH1 0x24 DUP3 ADD MSTORE PUSH32 0x45524332303A206D696E7420746F20746865207A65726F206164647265737300 PUSH1 0x44 DUP3 ADD MSTORE PUSH1 0x64 ADD PUSH2 0x435 JUMP JUMPDEST DUP1 PUSH1 0x2 PUSH1 0x0 DUP3 DUP3 SLOAD PUSH2 0xB63 SWAP2 SWAP1 PUSH2 0xDE8 JUMP JUMPDEST SWAP1 SWAP2 SSTORE POP POP PUSH1 0x1 PUSH1 0x1 PUSH1 0xA0 SHL SUB DUP3 AND PUSH1 0x0 DUP2 DUP2 MSTORE PUSH1 0x20 DUP2 DUP2 MSTORE PUSH1 0x40 DUP1 DUP4 KECCAK256 DUP1 SLOAD DUP7 ADD SWAP1 SSTORE MLOAD DUP5 DUP2 MSTORE PUSH32 0xDDF252AD1BE2C89B69C2B068FC378DAA952BA7F163C4A11628F55A4DF523B3EF SWAP2 ADD PUSH1 0x40 MLOAD DUP1 SWAP2 SUB SWAP1 LOG3 POP POP JUMP JUMPDEST DUP3 DUP1 SLOAD PUSH2 0xBC6 SWAP1 PUSH2 0xDAD JUMP JUMPDEST SWAP1 PUSH1 0x0 MSTORE PUSH1 0x20 PUSH1 0x0 KECCAK256 SWAP1 PUSH1 0x1F ADD PUSH1 0x20 SWAP1 DIV DUP2 ADD SWAP3 DUP3 PUSH2 0xBE8 JUMPI PUSH1 0x0 DUP6 SSTORE PUSH2 0xC2E JUMP JUMPDEST DUP3 PUSH1 0x1F LT PUSH2 0xC01 JUMPI DUP1 MLOAD PUSH1 0xFF NOT AND DUP4 DUP1 ADD OR DUP6 SSTORE PUSH2 0xC2E JUMP JUMPDEST DUP3 DUP1 ADD PUSH1 0x1 ADD DUP6 SSTORE DUP3 ISZERO PUSH2 0xC2E JUMPI SWAP2 DUP3 ADD JUMPDEST DUP3 DUP2 GT ISZERO PUSH2 0xC2E JUMPI DUP3 MLOAD DUP3 SSTORE SWAP2 PUSH1 0x20 ADD SWAP2 SWAP1 PUSH1 0x1 ADD SWAP1 PUSH2 0xC13 JUMP JUMPDEST POP PUSH2 0xC3A SWAP3 SWAP2 POP PUSH2 0xC3E JUMP JUMPDEST POP SWAP1 JUMP JUMPDEST JUMPDEST DUP1 DUP3 GT ISZERO PUSH2 0xC3A JUMPI PUSH1 0x0 DUP2 SSTORE PUSH1 0x1 ADD PUSH2 0xC3F JUMP JUMPDEST PUSH1 0x0 DUP2 MLOAD DUP1 DUP5 MSTORE PUSH1 0x0 JUMPDEST DUP2 DUP2 LT ISZERO PUSH2 0xC79 JUMPI PUSH1 0x20 DUP2 DUP6 ADD DUP2 ADD MLOAD DUP7 DUP4 ADD DUP3 ADD MSTORE ADD PUSH2 0xC5D JUMP JUMPDEST DUP2 DUP2 GT ISZERO PUSH2 0xC8B JUMPI PUSH1 0x0 PUSH1 0x20 DUP4 DUP8 ADD ADD MSTORE JUMPDEST POP PUSH1 0x1F ADD PUSH1 0x1F NOT AND SWAP3 SWAP1 SWAP3 ADD PUSH1 0x20 ADD SWAP3 SWAP2 POP POP JUMP JUMPDEST PUSH1 0x20 DUP2 MSTORE PUSH1 0x0 PUSH2 0xCB3 PUSH1 0x20 DUP4 ADD DUP5 PUSH2 0xC53 JUMP JUMPDEST SWAP4 SWAP3 POP POP POP JUMP JUMPDEST DUP1 CALLDATALOAD PUSH1 0x1 PUSH1 0x1 PUSH1 0xA0 SHL SUB DUP2 AND DUP2 EQ PUSH2 0xCD1 JUMPI PUSH1 0x0 DUP1 REVERT JUMPDEST SWAP2 SWAP1 POP JUMP JUMPDEST PUSH1 0x0 DUP1 PUSH1 0x40 DUP4 DUP6 SUB SLT ISZERO PUSH2 0xCE9 JUMPI PUSH1 0x0 DUP1 REVERT JUMPDEST PUSH2 0xCF2 DUP4 PUSH2 0xCBA JUMP JUMPDEST SWAP5 PUSH1 0x20 SWAP4 SWAP1 SWAP4 ADD CALLDATALOAD SWAP4 POP POP POP JUMP JUMPDEST PUSH1 0x0 DUP1 PUSH1 0x0 PUSH1 0x60 DUP5 DUP7 SUB SLT ISZERO PUSH2 0xD15 JUMPI PUSH1 0x0 DUP1 REVERT JUMPDEST PUSH2 0xD1E DUP5 PUSH2 0xCBA JUMP JUMPDEST SWAP3 POP PUSH2 0xD2C PUSH1 0x20 DUP6 ADD PUSH2 0xCBA JUMP JUMPDEST SWAP2 POP PUSH1 0x40 DUP5 ADD CALLDATALOAD SWAP1 POP SWAP3 POP SWAP3 POP SWAP3 JUMP JUMPDEST PUSH1 0x0 PUSH1 0x20 DUP3 DUP5 SUB SLT ISZERO PUSH2 0xD4E JUMPI PUSH1 0x0 DUP1 REVERT JUMPDEST PUSH2 0xCB3 DUP3 PUSH2 0xCBA JUMP JUMPDEST PUSH1 0x0 DUP1 PUSH1 0x40 DUP4 DUP6 SUB SLT ISZERO PUSH2 0xD6A JUMPI PUSH1 0x0 DUP1 REVERT JUMPDEST DUP3 CALLDATALOAD SWAP2 POP PUSH2 0xD7A PUSH1 0x20 DUP5 ADD PUSH2 0xCBA JUMP JUMPDEST SWAP1 POP SWAP3 POP SWAP3 SWAP1 POP JUMP JUMPDEST PUSH1 0x0 DUP1 PUSH1 0x40 DUP4 DUP6 SUB SLT ISZERO PUSH2 0xD96 JUMPI PUSH1 0x0 DUP1 REVERT JUMPDEST PUSH2 0xD9F DUP4 PUSH2 0xCBA JUMP JUMPDEST SWAP2 POP PUSH2 0xD7A PUSH1 0x20 DUP5 ADD PUSH2 0xCBA JUMP JUMPDEST PUSH1 0x1 DUP2 DUP2 SHR SWAP1 DUP3 AND DUP1 PUSH2 0xDC1 JUMPI PUSH1 0x7F DUP3 AND SWAP2 POP JUMPDEST PUSH1 0x20 DUP3 LT DUP2 EQ ISZERO PUSH2 0xDE2 JUMPI PUSH4 0x4E487B71 PUSH1 0xE0 SHL PUSH1 0x0 MSTORE PUSH1 0x22 PUSH1 0x4 MSTORE PUSH1 0x24 PUSH1 0x0 REVERT JUMPDEST POP SWAP2 SWAP1 POP JUMP JUMPDEST PUSH1 0x0 DUP3 NOT DUP3 GT ISZERO PUSH2 0xE09 JUMPI PUSH4 0x4E487B71 PUSH1 0xE0 SHL PUSH1 0x0 MSTORE PUSH1 0x11 PUSH1 0x4 MSTORE PUSH1 0x24 PUSH1 0x0 REVERT JUMPDEST POP ADD SWAP1 JUMP JUMPDEST PUSH1 0x0 PUSH1 0x20 DUP3 DUP5 SUB SLT ISZERO PUSH2 0xE20 JUMPI PUSH1 0x0 DUP1 REVERT JUMPDEST POP MLOAD SWAP2 SWAP1 POP JUMP INVALID LOG2 PUSH5 0x6970667358 0x22 SLT KECCAK256 0xB9 0xCD SWAP7 GASPRICE RETURNDATACOPY 0xE6 0xE2 0xA8 0xD6 0xD0 NOT 0x22 MSIZE 0xE2 MULMOD 0x2B SELFBALANCE SWAP5 INVALID 0xC1 DUP15 0x4B EQ 0xA6 CALL JUMPDEST 0xD9 0xD3 0xF6 MULMOD 0xCB 0xE9 PUSH5 0x736F6C6343 STOP ADDMOD EXP STOP CALLER "
				},
				"gasEstimates": {
					"creation": {
						"codeDepositCost": "735400",
						"executionCost": "infinite",
						"totalCost": "infinite"
					},
					"external": {
						"allowance(address,address)": "infinite",
						"approve(address,uint256)": "24647",
						"balanceOf(address)": "2585",
						"decimals()": "244",
						"decreaseAllowance(address,uint256)": "27016",
						"encodeer()": "infinite",
						"increaseAllowance(address,uint256)": "27067",
						"initialize()": "infinite",
						"initialized()": "2417",
						"mintToken(uint256,address)": "50849",
						"name()": "infinite",
						"owner()": "2448",
						"proxiableUUID()": "215",
						"symbol()": "infinite",
						"totalSupply()": "2304",
						"transfer(address,uint256)": "51134",
						"transferFrom(address,address,uint256)": "infinite",
						"transferOut(address,uint256)": "55411",
						"updateCode(address)": "infinite"
					}
				},
				"methodIdentifiers": {
					"allowance(address,address)": "dd62ed3e",
					"approve(address,uint256)": "095ea7b3",
					"balanceOf(address)": "70a08231",
					"decimals()": "313ce567",
					"decreaseAllowance(address,uint256)": "a457c2d7",
					"encodeer()": "11d7fe4d",
					"increaseAllowance(address,uint256)": "39509351",
					"initialize()": "8129fc1c",
					"initialized()": "158ef93e",
					"mintToken(uint256,address)": "a140ae23",
					"name()": "06fdde03",
					"owner()": "8da5cb5b",
					"proxiableUUID()": "52d1902d",
					"symbol()": "95d89b41",
					"totalSupply()": "18160ddd",
					"transfer(address,uint256)": "a9059cbb",
					"transferFrom(address,address,uint256)": "23b872dd",
					"transferOut(address,uint256)": "76890c58",
					"updateCode(address)": "46951954"
				}
			},
			"storageLayout": {
				"storage": [
					{
						"astId": 216,
						"contract": "Upgradable E1P 1822/Implementation1.sol:Implementation1",
						"label": "_balances",
						"offset": 0,
						"slot": "0",
						"type": "t_mapping(t_address,t_uint256)"
					},
					{
						"astId": 222,
						"contract": "Upgradable E1P 1822/Implementation1.sol:Implementation1",
						"label": "_allowances",
						"offset": 0,
						"slot": "1",
						"type": "t_mapping(t_address,t_mapping(t_address,t_uint256))"
					},
					{
						"astId": 224,
						"contract": "Upgradable E1P 1822/Implementation1.sol:Implementation1",
						"label": "_totalSupply",
						"offset": 0,
						"slot": "2",
						"type": "t_uint256"
					},
					{
						"astId": 226,
						"contract": "Upgradable E1P 1822/Implementation1.sol:Implementation1",
						"label": "_name",
						"offset": 0,
						"slot": "3",
						"type": "t_string_storage"
					},
					{
						"astId": 228,
						"contract": "Upgradable E1P 1822/Implementation1.sol:Implementation1",
						"label": "_symbol",
						"offset": 0,
						"slot": "4",
						"type": "t_string_storage"
					},
					{
						"astId": 11,
						"contract": "Upgradable E1P 1822/Implementation1.sol:Implementation1",
						"label": "owner",
						"offset": 0,
						"slot": "5",
						"type": "t_address"
					},
					{
						"astId": 14,
						"contract": "Upgradable E1P 1822/Implementation1.sol:Implementation1",
						"label": "initialized",
						"offset": 20,
						"slot": "5",
						"type": "t_bool"
					},
					{
						"astId": 16,
						"contract": "Upgradable E1P 1822/Implementation1.sol:Implementation1",
						"label": "tokenName",
						"offset": 0,
						"slot": "6",
						"type": "t_string_storage"
					},
					{
						"astId": 18,
						"contract": "Upgradable E1P 1822/Implementation1.sol:Implementation1",
						"label": "tokenSymbol",
						"offset": 0,
						"slot": "7",
						"type": "t_string_storage"
					}
				],
				"types": {
					"t_address": {
						"encoding": "inplace",
						"label": "address",
						"numberOfBytes": "20"
					},
					"t_bool": {
						"encoding": "inplace",
						"label": "bool",
						"numberOfBytes": "1"
					},
					"t_mapping(t_address,t_mapping(t_address,t_uint256))": {
						"encoding": "mapping",
						"key": "t_address",
						"label": "mapping(address => mapping(address => uint256))",
						"numberOfBytes": "32",
						"value": "t_mapping(t_address,t_uint256)"
					},
					"t_mapping(t_address,t_uint256)": {
						"encoding": "mapping",
						"key": "t_address",
						"label": "mapping(address => uint256)",
						"numberOfBytes": "32",
						"value": "t_uint256"
					},
					"t_string_storage": {
						"encoding": "bytes",
						"label": "string",
						"numberOfBytes": "32"
					},
					"t_uint256": {
						"encoding": "inplace",
						"label": "uint256",
						"numberOfBytes": "32"
					}
				}
			},
			"userdoc": {
				"kind": "user",
				"methods": {},
				"version": 1
			}
		}
	}
}