{
	"Upgradable E1P 1822/Implementation2.sol": {
		"Implementation2": {
			"abi": [
				{
					"anonymous": false,
					"inputs": [
						{
							"indexed": true,
							"internalType": "address",
							"name": "owner",
							"type": "address"
						},
						{
							"indexed": true,
							"internalType": "address",
							"name": "spender",
							"type": "address"
						},
						{
							"indexed": false,
							"internalType": "uint256",
							"name": "value",
							"type": "uint256"
						}
					],
					"name": "Approval",
					"type": "event"
				},
				{
					"anonymous": false,
					"inputs": [
						{
							"indexed": true,
							"internalType": "address",
							"name": "from",
							"type": "address"
						},
						{
							"indexed": true,
							"internalType": "address",
							"name": "to",
							"type": "address"
						},
						{
							"indexed": false,
							"internalType": "uint256",
							"name": "value",
							"type": "uint256"
						}
					],
					"name": "Transfer",
					"type": "event"
				},
				{
					"inputs": [
						{
							"internalType": "address",
							"name": "owner",
							"type": "address"
						},
						{
							"internalType": "address",
							"name": "spender",
							"type": "address"
						}
					],
					"name": "allowance",
					"outputs": [
						{
							"internalType": "uint256",
							"name": "",
							"type": "uint256"
						}
					],
					"stateMutability": "view",
					"type": "function"
				},
				{
					"inputs": [
						{
							"internalType": "address",
							"name": "spender",
							"type": "address"
						},
						{
							"internalType": "uint256",
							"name": "amount",
							"type": "uint256"
						}
					],
					"name": "approve",
					"outputs": [
						{
							"internalType": "bool",
							"name": "",
							"type": "bool"
						}
					],
					"stateMutability": "nonpayable",
					"type": "function"
				},
				{
					"inputs": [
						{
							"internalType": "address",
							"name": "account",
							"type": "address"
						}
					],
					"name": "balanceOf",
					"outputs": [
						{
							"internalType": "uint256",
							"name": "",
							"type": "uint256"
						}
					],
					"stateMutability": "view",
					"type": "function"
				},
				{
					"inputs": [
						{
							"internalType": "uint256",
							"name": "amount",
							"type": "uint256"
						}
					],
					"name": "calculateBurn",
					"outputs": [
						{
							"internalType": "uint256",
							"name": "burn",
							"type": "uint256"
						}
					],
					"stateMutability": "pure",
					"type": "function"
				},
				{
					"inputs": [],
					"name": "decimals",
					"outputs": [
						{
							"internalType": "uint8",
							"name": "",
							"type": "uint8"
						}
					],
					"stateMutability": "view",
					"type": "function"
				},
				{
					"inputs": [
						{
							"internalType": "address",
							"name": "spender",
							"type": "address"
						},
						{
							"internalType": "uint256",
							"name": "subtractedValue",
							"type": "uint256"
						}
					],
					"name": "decreaseAllowance",
					"outputs": [
						{
							"internalType": "bool",
							"name": "",
							"type": "bool"
						}
					],
					"stateMutability": "nonpayable",
					"type": "function"
				},
				{
					"inputs": [],
					"name": "encodeer",
					"outputs": [
						{
							"internalType": "bytes",
							"name": "",
							"type": "bytes"
						}
					],
					"stateMutability": "pure",
					"type": "function"
				},
				{
					"inputs": [
						{
							"internalType": "address",
							"name": "spender",
							"type": "address"
						},
						{
							"internalType": "uint256",
							"name": "addedValue",
							"type": "uint256"
						}
					],
					"name": "increaseAllowance",
					"outputs": [
						{
							"internalType": "bool",
							"name": "",
							"type": "bool"
						}
					],
					"stateMutability": "nonpayable",
					"type": "function"
				},
				{
					"inputs": [],
					"name": "initialize",
					"outputs": [],
					"stateMutability": "nonpayable",
					"type": "function"
				},
				{
					"inputs": [],
					"name": "initialized",
					"outputs": [
						{
							"internalType": "bool",
							"name": "",
							"type": "bool"
						}
					],
					"stateMutability": "view",
					"type": "function"
				},
				{
					"inputs": [
						{
							"internalType": "uint256",
							"name": "amount",
							"type": "uint256"
						},
						{
							"internalType": "address",
							"name": "_to",
							"type": "address"
						}
					],
					"name": "mintToken",
					"outputs": [],
					"stateMutability": "nonpayable",
					"type": "function"
				},
				{
					"inputs": [],
					"name": "name",
					"outputs": [
						{
							"internalType": "string",
							"name": "",
							"type": "string"
						}
					],
					"stateMutability": "view",
					"type": "function"
				},
				{
					"inputs": [],
					"name": "owner",
					"outputs": [
						{
							"internalType": "address",
							"name": "",
							"type": "address"
						}
					],
					"stateMutability": "view",
					"type": "function"
				},
				{
					"inputs": [],
					"name": "proxiableUUID",
					"outputs": [
						{
							"internalType": "bytes32",
							"name": "",
							"type": "bytes32"
						}
					],
					"stateMutability": "pure",
					"type": "function"
				},
				{
					"inputs": [],
					"name": "symbol",
					"outputs": [
						{
							"internalType": "string",
							"name": "",
							"type": "string"
						}
					],
					"stateMutability": "view",
					"type": "function"
				},
				{
					"inputs": [],
					"name": "totalSupply",
					"outputs": [
						{
							"internalType": "uint256",
							"name": "",
							"type": "uint256"
						}
					],
					"stateMutability": "view",
					"type": "function"
				},
				{
					"inputs": [
						{
							"internalType": "address",
							"name": "to",
							"type": "address"
						},
						{
							"internalType": "uint256",
							"name": "amount",
							"type": "uint256"
						}
					],
					"name": "transfer",
					"outputs": [
						{
							"internalType": "bool",
							"name": "",
							"type": "bool"
						}
					],
					"stateMutability": "nonpayable",
					"type": "function"
				},
				{
					"inputs": [
						{
							"internalType": "address",
							"name": "from",
							"type": "address"
						},
						{
							"internalType": "address",
							"name": "to",
							"type": "address"
						},
						{
							"internalType": "uint256",
							"name": "amount",
							"type": "uint256"
						}
					],
					"name": "transferFrom",
					"outputs": [
						{
							"internalType": "bool",
							"name": "",
							"type": "bool"
						}
					],
					"stateMutability": "nonpayable",
					"type": "function"
				},
				{
					"inputs": [
						{
							"internalType": "address",
							"name": "sendTo",
							"type": "address"
						},
						{
							"internalType": "uint256",
							"name": "amountOut",
							"type": "uint256"
						}
					],
					"name": "transferOut",
					"outputs": [],
					"stateMutability": "nonpayable",
					"type": "function"
				},
				{
					"inputs": [
						{
							"internalType": "address",
							"name": "newCode",
							"type": "address"
						}
					],
					"name": "updateCode",
					"outputs": [],
					"stateMutability": "nonpayable",
					"type": "function"
				}
			],
			"devdoc": {
				"kind": "dev",
				"methods": {
					"allowance(address,address)": {
						"details": "See {IERC20-allowance}."
					},
					"approve(address,uint256)": {
						"details": "See {IERC20-approve}. NOTE: If `amount` is the maximum `uint256`, the allowance is not updated on `transferFrom`. This is semantically equivalent to an infinite approval. Requirements: - `spender` cannot be the zero address."
					},
					"balanceOf(address)": {
						"details": "See {IERC20-balanceOf}."
					},
					"decimals()": {
						"details": "Returns the number of decimals used to get its user representation. For example, if `decimals` equals `2`, a balance of `505` tokens should be displayed to a user as `5.05` (`505 / 10 ** 2`). Tokens usually opt for a value of 18, imitating the relationship between Ether and Wei. This is the value {ERC20} uses, unless this function is overridden; NOTE: This information is only used for _display_ purposes: it in no way affects any of the arithmetic of the contract, including {IERC20-balanceOf} and {IERC20-transfer}."
					},
					"decreaseAllowance(address,uint256)": {
						"details": "Atomically decreases the allowance granted to `spender` by the caller. This is an alternative to {approve} that can be used as a mitigation for problems described in {IERC20-approve}. Emits an {Approval} event indicating the updated allowance. Requirements: - `spender` cannot be the zero address. - `spender` must have allowance for the caller of at least `subtractedValue`."
					},
					"increaseAllowance(address,uint256)": {
						"details": "Atomically increases the allowance granted to `spender` by the caller. This is an alternative to {approve} that can be used as a mitigation for problems described in {IERC20-approve}. Emits an {Approval} event indicating the updated allowance. Requirements: - `spender` cannot be the zero address."
					},
					"name()": {
						"details": "Returns the name of the token."
					},
					"symbol()": {
						"details": "Returns the symbol of the token, usually a shorter version of the name."
					},
					"totalSupply()": {
						"details": "See {IERC20-totalSupply}."
					},
					"transfer(address,uint256)": {
						"details": "See {IERC20-transfer}. Requirements: - `to` cannot be the zero address. - the caller must have a balance of at least `amount`."
					},
					"transferFrom(address,address,uint256)": {
						"details": "See {IERC20-transferFrom}. Emits an {Approval} event indicating the updated allowance. This is not required by the EIP. See the note at the beginning of {ERC20}. NOTE: Does not update the allowance if the current allowance is the maximum `uint256`. Requirements: - `from` and `to` cannot be the zero address. - `from` must have a balance of at least `amount`. - the caller must have allowance for ``from``'s tokens of at least `amount`."
					}
				},
				"version": 1
			},
			"evm": {
				"assembly": "    /* \"Upgradable E1P 1822/Implementation2.sol\":91:331  contract Implementation2 is Implementation1 {... */\n  mstore(0x40, 0x80)\n    /* \"Upgradable E1P 1822/Implementation1.sol\":296:327  bool public initialized = false */\n  0x05\n  dup1\n  sload\n  not(shl(0xa0, 0xff))\n  and\n  swap1\n  sstore\n    /* \"Upgradable E1P 1822/Implementation2.sol\":91:331  contract Implementation2 is Implementation1 {... */\n  callvalue\n  dup1\n  iszero\n  tag_1\n  jumpi\n  0x00\n  dup1\n  revert\ntag_1:\n  pop\n    /* \"https://github.com/OpenZeppelin/openzeppelin-contracts/blob/master/contracts/token/ERC20/ERC20.sol\":1976:2089  constructor(string memory name_, string memory symbol_) {... */\n  0x40\n  dup1\n  mload\n  dup1\n  dup3\n  add\n  dup3\n  mstore\n  0x08\n  dup2\n  mstore\n  shl(0xc1, 0x22a4a816989c1919)\n  0x20\n  dup1\n  dup4\n  add\n  swap2\n  dup3\n  mstore\n  dup4\n  mload\n  dup1\n  dup6\n  add\n  swap1\n  swap5\n  mstore\n  0x04\n  dup5\n  mstore\n  shl(0xe0, 0x45495049)\n  swap1\n  dup5\n  add\n  mstore\n    /* \"https://github.com/OpenZeppelin/openzeppelin-contracts/blob/master/contracts/token/ERC20/ERC20.sol\":2042:2055  _name = name_ */\n  dup2\n  mload\n    /* \"https://github.com/OpenZeppelin/openzeppelin-contracts/blob/master/contracts/token/ERC20/ERC20.sol\":1976:2089  constructor(string memory name_, string memory symbol_) {... */\n  swap2\n  swap3\n  swap2\n    /* \"https://github.com/OpenZeppelin/openzeppelin-contracts/blob/master/contracts/token/ERC20/ERC20.sol\":2042:2055  _name = name_ */\n  tag_4\n  swap2\n    /* \"https://github.com/OpenZeppelin/openzeppelin-contracts/blob/master/contracts/token/ERC20/ERC20.sol\":2042:2047  _name */\n  0x03\n  swap2\n    /* \"https://github.com/OpenZeppelin/openzeppelin-contracts/blob/master/contracts/token/ERC20/ERC20.sol\":2042:2055  _name = name_ */\n  tag_5\n  jump\t// in\ntag_4:\n  pop\n    /* \"https://github.com/OpenZeppelin/openzeppelin-contracts/blob/master/contracts/token/ERC20/ERC20.sol\":2065:2082  _symbol = symbol_ */\n  dup1\n  mload\n  tag_6\n  swap1\n    /* \"https://github.com/OpenZeppelin/openzeppelin-contracts/blob/master/contracts/token/ERC20/ERC20.sol\":2065:2072  _symbol */\n  0x04\n  swap1\n    /* \"https://github.com/OpenZeppelin/openzeppelin-contracts/blob/master/contracts/token/ERC20/ERC20.sol\":2065:2082  _symbol = symbol_ */\n  0x20\n  dup5\n  add\n  swap1\n  tag_5\n  jump\t// in\ntag_6:\n  pop\n    /* \"https://github.com/OpenZeppelin/openzeppelin-contracts/blob/master/contracts/token/ERC20/ERC20.sol\":1976:2089  constructor(string memory name_, string memory symbol_) {... */\n  pop\n  pop\n    /* \"Upgradable E1P 1822/Implementation2.sol\":91:331  contract Implementation2 is Implementation1 {... */\n  jump(tag_19)\ntag_5:\n  dup3\n  dup1\n  sload\n  tag_8\n  swap1\n  tag_9\n  jump\t// in\ntag_8:\n  swap1\n  0x00\n  mstore\n  keccak256(0x00, 0x20)\n  swap1\n  0x1f\n  add\n  0x20\n  swap1\n  div\n  dup2\n  add\n  swap3\n  dup3\n  tag_11\n  jumpi\n  0x00\n  dup6\n  sstore\n  jump(tag_14)\ntag_11:\n  dup3\n  0x1f\n  lt\n  tag_12\n  jumpi\n  dup1\n  mload\n  not(0xff)\n  and\n  dup4\n  dup1\n  add\n  or\n  dup6\n  sstore\n  jump(tag_14)\ntag_12:\n  dup3\n  dup1\n  add\n  0x01\n  add\n  dup6\n  sstore\n  dup3\n  iszero\n  tag_14\n  jumpi\n  swap2\n  dup3\n  add\ntag_13:\n  dup3\n  dup2\n  gt\n  iszero\n  tag_14\n  jumpi\n  dup3\n  mload\n  dup3\n  sstore\n  swap2\n  0x20\n  add\n  swap2\n  swap1\n  0x01\n  add\n  swap1\n  jump(tag_13)\ntag_14:\n  pop\n  tag_15\n  swap3\n  swap2\n  pop\n  tag_16\n  jump\t// in\ntag_15:\n  pop\n  swap1\n  jump\t// out\ntag_16:\ntag_17:\n  dup1\n  dup3\n  gt\n  iszero\n  tag_15\n  jumpi\n  0x00\n  dup2\n  sstore\n  0x01\n  add\n  jump(tag_17)\n    /* \"#utility.yul\":14:394   */\ntag_9:\n    /* \"#utility.yul\":93:94   */\n  0x01\n    /* \"#utility.yul\":89:101   */\n  dup2\n  dup2\n  shr\n  swap1\n    /* \"#utility.yul\":136:148   */\n  dup3\n  and\n  dup1\n    /* \"#utility.yul\":157:218   */\n  tag_21\n  jumpi\n    /* \"#utility.yul\":211:215   */\n  0x7f\n    /* \"#utility.yul\":203:209   */\n  dup3\n    /* \"#utility.yul\":199:216   */\n  and\n    /* \"#utility.yul\":189:216   */\n  swap2\n  pop\n    /* \"#utility.yul\":157:218   */\ntag_21:\n    /* \"#utility.yul\":264:266   */\n  0x20\n    /* \"#utility.yul\":256:262   */\n  dup3\n    /* \"#utility.yul\":253:267   */\n  lt\n    /* \"#utility.yul\":233:251   */\n  dup2\n    /* \"#utility.yul\":230:268   */\n  eq\n    /* \"#utility.yul\":227:388   */\n  iszero\n  tag_22\n  jumpi\n    /* \"#utility.yul\":310:320   */\n  0x4e487b71\n    /* \"#utility.yul\":305:308   */\n  0xe0\n    /* \"#utility.yul\":301:321   */\n  shl\n    /* \"#utility.yul\":298:299   */\n  0x00\n    /* \"#utility.yul\":291:322   */\n  mstore\n    /* \"#utility.yul\":345:349   */\n  0x22\n    /* \"#utility.yul\":342:343   */\n  0x04\n    /* \"#utility.yul\":335:350   */\n  mstore\n    /* \"#utility.yul\":373:377   */\n  0x24\n    /* \"#utility.yul\":370:371   */\n  0x00\n    /* \"#utility.yul\":363:378   */\n  revert\n    /* \"#utility.yul\":227:388   */\ntag_22:\n  pop\n    /* \"#utility.yul\":14:394   */\n  swap2\n  swap1\n  pop\n  jump\t// out\ntag_19:\n    /* \"Upgradable E1P 1822/Implementation2.sol\":91:331  contract Implementation2 is Implementation1 {... */\n  dataSize(sub_0)\n  dup1\n  dataOffset(sub_0)\n  0x00\n  codecopy\n  0x00\n  return\nstop\n\nsub_0: assembly {\n        /* \"Upgradable E1P 1822/Implementation2.sol\":91:331  contract Implementation2 is Implementation1 {... */\n      mstore(0x40, 0x80)\n      callvalue\n      dup1\n      iszero\n      tag_1\n      jumpi\n      0x00\n      dup1\n      revert\n    tag_1:\n      pop\n      jumpi(tag_2, lt(calldatasize, 0x04))\n      shr(0xe0, calldataload(0x00))\n      dup1\n      0x70a08231\n      gt\n      tag_23\n      jumpi\n      dup1\n      0xa140ae23\n      gt\n      tag_24\n      jumpi\n      dup1\n      0xa140ae23\n      eq\n      tag_18\n      jumpi\n      dup1\n      0xa457c2d7\n      eq\n      tag_19\n      jumpi\n      dup1\n      0xa9059cbb\n      eq\n      tag_20\n      jumpi\n      dup1\n      0xdc287c7e\n      eq\n      tag_21\n      jumpi\n      dup1\n      0xdd62ed3e\n      eq\n      tag_22\n      jumpi\n      0x00\n      dup1\n      revert\n    tag_24:\n      dup1\n      0x70a08231\n      eq\n      tag_13\n      jumpi\n      dup1\n      0x76890c58\n      eq\n      tag_14\n      jumpi\n      dup1\n      0x8129fc1c\n      eq\n      tag_15\n      jumpi\n      dup1\n      0x8da5cb5b\n      eq\n      tag_16\n      jumpi\n      dup1\n      0x95d89b41\n      eq\n      tag_17\n      jumpi\n      0x00\n      dup1\n      revert\n    tag_23:\n      dup1\n      0x23b872dd\n      gt\n      tag_25\n      jumpi\n      dup1\n      0x23b872dd\n      eq\n      tag_8\n      jumpi\n      dup1\n      0x313ce567\n      eq\n      tag_9\n      jumpi\n      dup1\n      0x39509351\n      eq\n      tag_10\n      jumpi\n      dup1\n      0x46951954\n      eq\n      tag_11\n      jumpi\n      dup1\n      0x52d1902d\n      eq\n      tag_12\n      jumpi\n      0x00\n      dup1\n      revert\n    tag_25:\n      dup1\n      0x06fdde03\n      eq\n      tag_3\n      jumpi\n      dup1\n      0x095ea7b3\n      eq\n      tag_4\n      jumpi\n      dup1\n      0x11d7fe4d\n      eq\n      tag_5\n      jumpi\n      dup1\n      0x158ef93e\n      eq\n      tag_6\n      jumpi\n      dup1\n      0x18160ddd\n      eq\n      tag_7\n      jumpi\n    tag_2:\n      0x00\n      dup1\n      revert\n        /* \"Upgradable E1P 1822/Implementation1.sol\":750:852  function name() public view virtual override returns (string memory) {... */\n    tag_3:\n      tag_26\n      tag_27\n      jump\t// in\n    tag_26:\n      mload(0x40)\n      tag_28\n      swap2\n      swap1\n      tag_29\n      jump\t// in\n    tag_28:\n      mload(0x40)\n      dup1\n      swap2\n      sub\n      swap1\n      return\n        /* \"https://github.com/OpenZeppelin/openzeppelin-contracts/blob/master/contracts/token/ERC20/ERC20.sol\":4431:4628  function approve(address spender, uint256 amount) public virtual override returns (bool) {... */\n    tag_4:\n      tag_30\n      tag_31\n      calldatasize\n      0x04\n      tag_32\n      jump\t// in\n    tag_31:\n      tag_33\n      jump\t// in\n    tag_30:\n      mload(0x40)\n        /* \"#utility.yul\":1318:1332   */\n      swap1\n      iszero\n        /* \"#utility.yul\":1311:1333   */\n      iszero\n        /* \"#utility.yul\":1293:1334   */\n      dup2\n      mstore\n        /* \"#utility.yul\":1281:1283   */\n      0x20\n        /* \"#utility.yul\":1266:1284   */\n      add\n        /* \"https://github.com/OpenZeppelin/openzeppelin-contracts/blob/master/contracts/token/ERC20/ERC20.sol\":4431:4628  function approve(address spender, uint256 amount) public virtual override returns (bool) {... */\n      tag_28\n        /* \"#utility.yul\":1153:1340   */\n      jump\n        /* \"Upgradable E1P 1822/Implementation1.sol\":974:1090  function encodeer() public pure returns(bytes memory){... */\n    tag_5:\n      tag_26\n        /* \"Upgradable E1P 1822/Implementation1.sol\":1044:1083  abi.encodeWithSignature(\"initialize()\") */\n      0x40\n      dup1\n      mload\n      0x04\n      dup2\n      mstore\n      0x24\n      dup2\n      add\n      swap1\n      swap2\n      mstore\n      0x20\n      dup2\n      add\n      dup1\n      mload\n      sub(shl(0xe0, 0x01), 0x01)\n      and\n      shl(0xe2, 0x204a7f07)\n      or\n      swap1\n      mstore\n      swap1\n        /* \"Upgradable E1P 1822/Implementation1.sol\":974:1090  function encodeer() public pure returns(bytes memory){... */\n      jump\n        /* \"Upgradable E1P 1822/Implementation1.sol\":296:327  bool public initialized = false */\n    tag_6:\n      sload(0x05)\n      tag_30\n      swap1\n      shl(0xa0, 0x01)\n      swap1\n      div\n      0xff\n      and\n      dup2\n      jump\n        /* \"https://github.com/OpenZeppelin/openzeppelin-contracts/blob/master/contracts/token/ERC20/ERC20.sol\":3242:3348  function totalSupply() public view virtual override returns (uint256) {... */\n    tag_7:\n        /* \"https://github.com/OpenZeppelin/openzeppelin-contracts/blob/master/contracts/token/ERC20/ERC20.sol\":3329:3341  _totalSupply */\n      sload(0x02)\n        /* \"https://github.com/OpenZeppelin/openzeppelin-contracts/blob/master/contracts/token/ERC20/ERC20.sol\":3242:3348  function totalSupply() public view virtual override returns (uint256) {... */\n    tag_43:\n      mload(0x40)\n        /* \"#utility.yul\":1714:1739   */\n      swap1\n      dup2\n      mstore\n        /* \"#utility.yul\":1702:1704   */\n      0x20\n        /* \"#utility.yul\":1687:1705   */\n      add\n        /* \"https://github.com/OpenZeppelin/openzeppelin-contracts/blob/master/contracts/token/ERC20/ERC20.sol\":3242:3348  function totalSupply() public view virtual override returns (uint256) {... */\n      tag_28\n        /* \"#utility.yul\":1568:1745   */\n      jump\n        /* \"https://github.com/OpenZeppelin/openzeppelin-contracts/blob/master/contracts/token/ERC20/ERC20.sol\":5190:5476  function transferFrom(... */\n    tag_8:\n      tag_30\n      tag_48\n      calldatasize\n      0x04\n      tag_49\n      jump\t// in\n    tag_48:\n      tag_50\n      jump\t// in\n        /* \"https://github.com/OpenZeppelin/openzeppelin-contracts/blob/master/contracts/token/ERC20/ERC20.sol\":3091:3182  function decimals() public view virtual override returns (uint8) {... */\n    tag_9:\n      mload(0x40)\n        /* \"https://github.com/OpenZeppelin/openzeppelin-contracts/blob/master/contracts/token/ERC20/ERC20.sol\":3173:3175  18 */\n      0x12\n        /* \"#utility.yul\":2225:2261   */\n      dup2\n      mstore\n        /* \"#utility.yul\":2213:2215   */\n      0x20\n        /* \"#utility.yul\":2198:2216   */\n      add\n        /* \"https://github.com/OpenZeppelin/openzeppelin-contracts/blob/master/contracts/token/ERC20/ERC20.sol\":3091:3182  function decimals() public view virtual override returns (uint8) {... */\n      tag_28\n        /* \"#utility.yul\":2083:2267   */\n      jump\n        /* \"https://github.com/OpenZeppelin/openzeppelin-contracts/blob/master/contracts/token/ERC20/ERC20.sol\":5871:6105  function increaseAllowance(address spender, uint256 addedValue) public virtual returns (bool) {... */\n    tag_10:\n      tag_30\n      tag_57\n      calldatasize\n      0x04\n      tag_32\n      jump\t// in\n    tag_57:\n      tag_58\n      jump\t// in\n        /* \"Upgradable E1P 1822/Implementation1.sol\":1516:1613  function updateCode(address newCode) onlyOwner public {... */\n    tag_11:\n      tag_60\n      tag_61\n      calldatasize\n      0x04\n      tag_62\n      jump\t// in\n    tag_61:\n      tag_63\n      jump\t// in\n    tag_60:\n      stop\n        /* \"Upgradable E1P 1822/Proxible.sol\":627:772  function proxiableUUID() public pure returns (bytes32) {... */\n    tag_12:\n        /* \"Upgradable E1P 1822/Proxible.sol\":699:765  0xc5f16f0fcc639fa48a6947836d9850f504798523bf8c9a3a87d5876cf622bcf7 */\n      0xc5f16f0fcc639fa48a6947836d9850f504798523bf8c9a3a87d5876cf622bcf7\n        /* \"Upgradable E1P 1822/Proxible.sol\":627:772  function proxiableUUID() public pure returns (bytes32) {... */\n      jump(tag_43)\n        /* \"https://github.com/OpenZeppelin/openzeppelin-contracts/blob/master/contracts/token/ERC20/ERC20.sol\":3406:3531  function balanceOf(address account) public view virtual override returns (uint256) {... */\n    tag_13:\n      tag_43\n      tag_69\n      calldatasize\n      0x04\n      tag_62\n      jump\t// in\n    tag_69:\n      sub(shl(0xa0, 0x01), 0x01)\n        /* \"https://github.com/OpenZeppelin/openzeppelin-contracts/blob/master/contracts/token/ERC20/ERC20.sol\":3506:3524  _balances[account] */\n      and\n        /* \"https://github.com/OpenZeppelin/openzeppelin-contracts/blob/master/contracts/token/ERC20/ERC20.sol\":3480:3487  uint256 */\n      0x00\n        /* \"https://github.com/OpenZeppelin/openzeppelin-contracts/blob/master/contracts/token/ERC20/ERC20.sol\":3506:3524  _balances[account] */\n      swap1\n      dup2\n      mstore\n      0x20\n      dup2\n      swap1\n      mstore\n      0x40\n      swap1\n      keccak256\n      sload\n      swap1\n        /* \"https://github.com/OpenZeppelin/openzeppelin-contracts/blob/master/contracts/token/ERC20/ERC20.sol\":3406:3531  function balanceOf(address account) public view virtual override returns (uint256) {... */\n      jump\n        /* \"Upgradable E1P 1822/Implementation1.sol\":1198:1510  function transferOut(address sendTo,uint amountOut) public onlyOwner {... */\n    tag_14:\n      tag_60\n      tag_73\n      calldatasize\n      0x04\n      tag_32\n      jump\t// in\n    tag_73:\n      tag_74\n      jump\t// in\n        /* \"Upgradable E1P 1822/Implementation1.sol\":492:745  function initialize() public {... */\n    tag_15:\n      tag_60\n      tag_76\n      jump\t// in\n        /* \"Upgradable E1P 1822/Implementation1.sol\":270:290  address public owner */\n    tag_16:\n      sload(0x05)\n      tag_77\n      swap1\n      sub(shl(0xa0, 0x01), 0x01)\n      and\n      dup2\n      jump\n    tag_77:\n      mload(0x40)\n      sub(shl(0xa0, 0x01), 0x01)\n        /* \"#utility.yul\":2809:2841   */\n      swap1\n      swap2\n      and\n        /* \"#utility.yul\":2791:2842   */\n      dup2\n      mstore\n        /* \"#utility.yul\":2779:2781   */\n      0x20\n        /* \"#utility.yul\":2764:2782   */\n      add\n        /* \"Upgradable E1P 1822/Implementation1.sol\":270:290  address public owner */\n      tag_28\n        /* \"#utility.yul\":2645:2848   */\n      jump\n        /* \"Upgradable E1P 1822/Implementation1.sol\":858:964  function symbol() public view virtual override returns (string memory) {... */\n    tag_17:\n      tag_26\n      tag_82\n      jump\t// in\n        /* \"Upgradable E1P 1822/Implementation1.sol\":1096:1192  function mintToken(uint amount, address _to) public onlyOwner {... */\n    tag_18:\n      tag_60\n      tag_85\n      calldatasize\n      0x04\n      tag_86\n      jump\t// in\n    tag_85:\n      tag_87\n      jump\t// in\n        /* \"https://github.com/OpenZeppelin/openzeppelin-contracts/blob/master/contracts/token/ERC20/ERC20.sol\":6592:7019  function decreaseAllowance(address spender, uint256 subtractedValue) public virtual returns (bool) {... */\n    tag_19:\n      tag_30\n      tag_89\n      calldatasize\n      0x04\n      tag_32\n      jump\t// in\n    tag_89:\n      tag_90\n      jump\t// in\n        /* \"https://github.com/OpenZeppelin/openzeppelin-contracts/blob/master/contracts/token/ERC20/ERC20.sol\":3727:3916  function transfer(address to, uint256 amount) public virtual override returns (bool) {... */\n    tag_20:\n      tag_30\n      tag_93\n      calldatasize\n      0x04\n      tag_32\n      jump\t// in\n    tag_93:\n      tag_94\n      jump\t// in\n        /* \"Upgradable E1P 1822/Implementation2.sol\":223:328  function calculateBurn(uint amount) public pure returns(uint burn){... */\n    tag_21:\n      tag_43\n      tag_97\n      calldatasize\n      0x04\n      tag_98\n      jump\t// in\n    tag_97:\n      tag_99\n      jump\t// in\n        /* \"https://github.com/OpenZeppelin/openzeppelin-contracts/blob/master/contracts/token/ERC20/ERC20.sol\":3974:4123  function allowance(address owner, address spender) public view virtual override returns (uint256) {... */\n    tag_22:\n      tag_43\n      tag_102\n      calldatasize\n      0x04\n      tag_103\n      jump\t// in\n    tag_102:\n      tag_104\n      jump\t// in\n        /* \"Upgradable E1P 1822/Implementation1.sol\":750:852  function name() public view virtual override returns (string memory) {... */\n    tag_27:\n        /* \"Upgradable E1P 1822/Implementation1.sol\":804:817  string memory */\n      0x60\n        /* \"Upgradable E1P 1822/Implementation1.sol\":836:845  tokenName */\n      0x06\n        /* \"Upgradable E1P 1822/Implementation1.sol\":829:845  return tokenName */\n      dup1\n      sload\n      tag_107\n      swap1\n      tag_108\n      jump\t// in\n    tag_107:\n      dup1\n      0x1f\n      add\n      0x20\n      dup1\n      swap2\n      div\n      mul\n      0x20\n      add\n      mload(0x40)\n      swap1\n      dup2\n      add\n      0x40\n      mstore\n      dup1\n      swap3\n      swap2\n      swap1\n      dup2\n      dup2\n      mstore\n      0x20\n      add\n      dup3\n      dup1\n      sload\n      tag_109\n      swap1\n      tag_108\n      jump\t// in\n    tag_109:\n      dup1\n      iszero\n      tag_110\n      jumpi\n      dup1\n      0x1f\n      lt\n      tag_111\n      jumpi\n      0x0100\n      dup1\n      dup4\n      sload\n      div\n      mul\n      dup4\n      mstore\n      swap2\n      0x20\n      add\n      swap2\n      jump(tag_110)\n    tag_111:\n      dup3\n      add\n      swap2\n      swap1\n      0x00\n      mstore\n      keccak256(0x00, 0x20)\n      swap1\n    tag_112:\n      dup2\n      sload\n      dup2\n      mstore\n      swap1\n      0x01\n      add\n      swap1\n      0x20\n      add\n      dup1\n      dup4\n      gt\n      tag_112\n      jumpi\n      dup3\n      swap1\n      sub\n      0x1f\n      and\n      dup3\n      add\n      swap2\n    tag_110:\n      pop\n      pop\n      pop\n      pop\n      pop\n      swap1\n      pop\n        /* \"Upgradable E1P 1822/Implementation1.sol\":750:852  function name() public view virtual override returns (string memory) {... */\n      swap1\n      jump\t// out\n        /* \"https://github.com/OpenZeppelin/openzeppelin-contracts/blob/master/contracts/token/ERC20/ERC20.sol\":4431:4628  function approve(address spender, uint256 amount) public virtual override returns (bool) {... */\n    tag_33:\n        /* \"https://github.com/OpenZeppelin/openzeppelin-contracts/blob/master/contracts/token/ERC20/ERC20.sol\":4514:4518  bool */\n      0x00\n        /* \"https://github.com/OpenZeppelin/openzeppelin-contracts/blob/master/contracts/utils/Context.sol\":719:729  msg.sender */\n      caller\n        /* \"https://github.com/OpenZeppelin/openzeppelin-contracts/blob/master/contracts/token/ERC20/ERC20.sol\":4568:4600  _approve(owner, spender, amount) */\n      tag_116\n        /* \"https://github.com/OpenZeppelin/openzeppelin-contracts/blob/master/contracts/utils/Context.sol\":719:729  msg.sender */\n      dup2\n        /* \"https://github.com/OpenZeppelin/openzeppelin-contracts/blob/master/contracts/token/ERC20/ERC20.sol\":4584:4591  spender */\n      dup6\n        /* \"https://github.com/OpenZeppelin/openzeppelin-contracts/blob/master/contracts/token/ERC20/ERC20.sol\":4593:4599  amount */\n      dup6\n        /* \"https://github.com/OpenZeppelin/openzeppelin-contracts/blob/master/contracts/token/ERC20/ERC20.sol\":4568:4576  _approve */\n      tag_117\n        /* \"https://github.com/OpenZeppelin/openzeppelin-contracts/blob/master/contracts/token/ERC20/ERC20.sol\":4568:4600  _approve(owner, spender, amount) */\n      jump\t// in\n    tag_116:\n      pop\n        /* \"https://github.com/OpenZeppelin/openzeppelin-contracts/blob/master/contracts/token/ERC20/ERC20.sol\":4617:4621  true */\n      0x01\n      swap4\n        /* \"https://github.com/OpenZeppelin/openzeppelin-contracts/blob/master/contracts/token/ERC20/ERC20.sol\":4431:4628  function approve(address spender, uint256 amount) public virtual override returns (bool) {... */\n      swap3\n      pop\n      pop\n      pop\n      jump\t// out\n        /* \"https://github.com/OpenZeppelin/openzeppelin-contracts/blob/master/contracts/token/ERC20/ERC20.sol\":5190:5476  function transferFrom(... */\n    tag_50:\n        /* \"https://github.com/OpenZeppelin/openzeppelin-contracts/blob/master/contracts/token/ERC20/ERC20.sol\":5317:5321  bool */\n      0x00\n        /* \"https://github.com/OpenZeppelin/openzeppelin-contracts/blob/master/contracts/utils/Context.sol\":719:729  msg.sender */\n      caller\n        /* \"https://github.com/OpenZeppelin/openzeppelin-contracts/blob/master/contracts/token/ERC20/ERC20.sol\":5373:5411  _spendAllowance(from, spender, amount) */\n      tag_122\n        /* \"https://github.com/OpenZeppelin/openzeppelin-contracts/blob/master/contracts/token/ERC20/ERC20.sol\":5389:5393  from */\n      dup6\n        /* \"https://github.com/OpenZeppelin/openzeppelin-contracts/blob/master/contracts/utils/Context.sol\":719:729  msg.sender */\n      dup3\n        /* \"https://github.com/OpenZeppelin/openzeppelin-contracts/blob/master/contracts/token/ERC20/ERC20.sol\":5404:5410  amount */\n      dup6\n        /* \"https://github.com/OpenZeppelin/openzeppelin-contracts/blob/master/contracts/token/ERC20/ERC20.sol\":5373:5388  _spendAllowance */\n      tag_123\n        /* \"https://github.com/OpenZeppelin/openzeppelin-contracts/blob/master/contracts/token/ERC20/ERC20.sol\":5373:5411  _spendAllowance(from, spender, amount) */\n      jump\t// in\n    tag_122:\n        /* \"https://github.com/OpenZeppelin/openzeppelin-contracts/blob/master/contracts/token/ERC20/ERC20.sol\":5421:5448  _transfer(from, to, amount) */\n      tag_124\n        /* \"https://github.com/OpenZeppelin/openzeppelin-contracts/blob/master/contracts/token/ERC20/ERC20.sol\":5431:5435  from */\n      dup6\n        /* \"https://github.com/OpenZeppelin/openzeppelin-contracts/blob/master/contracts/token/ERC20/ERC20.sol\":5437:5439  to */\n      dup6\n        /* \"https://github.com/OpenZeppelin/openzeppelin-contracts/blob/master/contracts/token/ERC20/ERC20.sol\":5441:5447  amount */\n      dup6\n        /* \"https://github.com/OpenZeppelin/openzeppelin-contracts/blob/master/contracts/token/ERC20/ERC20.sol\":5421:5430  _transfer */\n      tag_125\n        /* \"https://github.com/OpenZeppelin/openzeppelin-contracts/blob/master/contracts/token/ERC20/ERC20.sol\":5421:5448  _transfer(from, to, amount) */\n      jump\t// in\n    tag_124:\n      pop\n        /* \"https://github.com/OpenZeppelin/openzeppelin-contracts/blob/master/contracts/token/ERC20/ERC20.sol\":5465:5469  true */\n      0x01\n      swap5\n        /* \"https://github.com/OpenZeppelin/openzeppelin-contracts/blob/master/contracts/token/ERC20/ERC20.sol\":5190:5476  function transferFrom(... */\n      swap4\n      pop\n      pop\n      pop\n      pop\n      jump\t// out\n        /* \"https://github.com/OpenZeppelin/openzeppelin-contracts/blob/master/contracts/token/ERC20/ERC20.sol\":5871:6105  function increaseAllowance(address spender, uint256 addedValue) public virtual returns (bool) {... */\n    tag_58:\n        /* \"https://github.com/OpenZeppelin/openzeppelin-contracts/blob/master/contracts/token/ERC20/ERC20.sol\":5959:5963  bool */\n      0x00\n        /* \"https://github.com/OpenZeppelin/openzeppelin-contracts/blob/master/contracts/utils/Context.sol\":719:729  msg.sender */\n      caller\n        /* \"https://github.com/OpenZeppelin/openzeppelin-contracts/blob/master/contracts/token/ERC20/ERC20.sol\":6013:6077  _approve(owner, spender, allowance(owner, spender) + addedValue) */\n      tag_116\n        /* \"https://github.com/OpenZeppelin/openzeppelin-contracts/blob/master/contracts/utils/Context.sol\":719:729  msg.sender */\n      dup2\n        /* \"https://github.com/OpenZeppelin/openzeppelin-contracts/blob/master/contracts/token/ERC20/ERC20.sol\":6029:6036  spender */\n      dup6\n        /* \"https://github.com/OpenZeppelin/openzeppelin-contracts/blob/master/contracts/token/ERC20/ERC20.sol\":6066:6076  addedValue */\n      dup6\n        /* \"https://github.com/OpenZeppelin/openzeppelin-contracts/blob/master/contracts/token/ERC20/ERC20.sol\":6038:6063  allowance(owner, spender) */\n      tag_130\n        /* \"https://github.com/OpenZeppelin/openzeppelin-contracts/blob/master/contracts/utils/Context.sol\":719:729  msg.sender */\n      dup4\n        /* \"https://github.com/OpenZeppelin/openzeppelin-contracts/blob/master/contracts/token/ERC20/ERC20.sol\":6029:6036  spender */\n      dup4\n        /* \"https://github.com/OpenZeppelin/openzeppelin-contracts/blob/master/contracts/token/ERC20/ERC20.sol\":6038:6047  allowance */\n      tag_104\n        /* \"https://github.com/OpenZeppelin/openzeppelin-contracts/blob/master/contracts/token/ERC20/ERC20.sol\":6038:6063  allowance(owner, spender) */\n      jump\t// in\n    tag_130:\n        /* \"https://github.com/OpenZeppelin/openzeppelin-contracts/blob/master/contracts/token/ERC20/ERC20.sol\":6038:6076  allowance(owner, spender) + addedValue */\n      tag_131\n      swap2\n      swap1\n      tag_132\n      jump\t// in\n    tag_131:\n        /* \"https://github.com/OpenZeppelin/openzeppelin-contracts/blob/master/contracts/token/ERC20/ERC20.sol\":6013:6021  _approve */\n      tag_117\n        /* \"https://github.com/OpenZeppelin/openzeppelin-contracts/blob/master/contracts/token/ERC20/ERC20.sol\":6013:6077  _approve(owner, spender, allowance(owner, spender) + addedValue) */\n      jump\t// in\n        /* \"Upgradable E1P 1822/Implementation1.sol\":1516:1613  function updateCode(address newCode) onlyOwner public {... */\n    tag_63:\n        /* \"Upgradable E1P 1822/Implementation1.sol\":417:422  owner */\n      and(sub(shl(0xa0, 0x01), 0x01), sload(0x05))\n        /* \"Upgradable E1P 1822/Implementation1.sol\":426:436  msg.sender */\n      caller\n        /* \"Upgradable E1P 1822/Implementation1.sol\":417:436  owner == msg.sender */\n      eq\n        /* \"Upgradable E1P 1822/Implementation1.sol\":409:470  require(owner == msg.sender, \"No permission except to owner\") */\n      tag_134\n      jumpi\n      mload(0x40)\n      shl(0xe5, 0x461bcd)\n      dup2\n      mstore\n      0x04\n      add\n      tag_135\n      swap1\n      tag_136\n      jump\t// in\n    tag_135:\n      mload(0x40)\n      dup1\n      swap2\n      sub\n      swap1\n      revert\n    tag_134:\n        /* \"Upgradable E1P 1822/Implementation1.sol\":1580:1606  updateCodeAddress(newCode) */\n      tag_138\n        /* \"Upgradable E1P 1822/Implementation1.sol\":1598:1605  newCode */\n      dup2\n        /* \"Upgradable E1P 1822/Implementation1.sol\":1580:1597  updateCodeAddress */\n      tag_139\n        /* \"Upgradable E1P 1822/Implementation1.sol\":1580:1606  updateCodeAddress(newCode) */\n      jump\t// in\n    tag_138:\n        /* \"Upgradable E1P 1822/Implementation1.sol\":1516:1613  function updateCode(address newCode) onlyOwner public {... */\n      pop\n      jump\t// out\n        /* \"Upgradable E1P 1822/Implementation1.sol\":1198:1510  function transferOut(address sendTo,uint amountOut) public onlyOwner {... */\n    tag_74:\n        /* \"Upgradable E1P 1822/Implementation1.sol\":417:422  owner */\n      and(sub(shl(0xa0, 0x01), 0x01), sload(0x05))\n        /* \"Upgradable E1P 1822/Implementation1.sol\":426:436  msg.sender */\n      caller\n        /* \"Upgradable E1P 1822/Implementation1.sol\":417:436  owner == msg.sender */\n      eq\n        /* \"Upgradable E1P 1822/Implementation1.sol\":409:470  require(owner == msg.sender, \"No permission except to owner\") */\n      tag_143\n      jumpi\n      mload(0x40)\n      shl(0xe5, 0x461bcd)\n      dup2\n      mstore\n      0x04\n      add\n      tag_135\n      swap1\n      tag_136\n      jump\t// in\n    tag_143:\n        /* \"Upgradable E1P 1822/Implementation1.sol\":1312:1316  this */\n      address\n        /* \"Upgradable E1P 1822/Implementation1.sol\":1275:1291  uint contractBal */\n      0x00\n        /* \"https://github.com/OpenZeppelin/openzeppelin-contracts/blob/master/contracts/token/ERC20/ERC20.sol\":3506:3524  _balances[account] */\n      swap1\n      dup2\n      mstore\n      0x20\n      dup2\n      swap1\n      mstore\n      0x40\n      swap1\n      keccak256\n      sload\n      sub(shl(0xa0, 0x01), 0x01)\n        /* \"Upgradable E1P 1822/Implementation1.sol\":1334:1354  sendTo != address(0) */\n      dup4\n      and\n        /* \"Upgradable E1P 1822/Implementation1.sol\":1326:1389  require(sendTo != address(0), \"You cant transfer to address 0\") */\n      tag_147\n      jumpi\n      mload(0x40)\n      shl(0xe5, 0x461bcd)\n      dup2\n      mstore\n        /* \"#utility.yul\":4772:4774   */\n      0x20\n        /* \"Upgradable E1P 1822/Implementation1.sol\":1326:1389  require(sendTo != address(0), \"You cant transfer to address 0\") */\n      0x04\n      dup3\n      add\n        /* \"#utility.yul\":4754:4775   */\n      mstore\n        /* \"#utility.yul\":4811:4813   */\n      0x1e\n        /* \"#utility.yul\":4791:4809   */\n      0x24\n      dup3\n      add\n        /* \"#utility.yul\":4784:4814   */\n      mstore\n        /* \"#utility.yul\":4850:4882   */\n      0x596f752063616e74207472616e7366657220746f206164647265737320300000\n        /* \"#utility.yul\":4830:4848   */\n      0x44\n      dup3\n      add\n        /* \"#utility.yul\":4823:4883   */\n      mstore\n        /* \"#utility.yul\":4900:4918   */\n      0x64\n      add\n        /* \"Upgradable E1P 1822/Implementation1.sol\":1326:1389  require(sendTo != address(0), \"You cant transfer to address 0\") */\n      tag_135\n        /* \"#utility.yul\":4570:4924   */\n      jump\n        /* \"Upgradable E1P 1822/Implementation1.sol\":1326:1389  require(sendTo != address(0), \"You cant transfer to address 0\") */\n    tag_147:\n        /* \"Upgradable E1P 1822/Implementation1.sol\":1420:1429  amountOut */\n      dup2\n        /* \"Upgradable E1P 1822/Implementation1.sol\":1405:1416  contractBal */\n      dup2\n        /* \"Upgradable E1P 1822/Implementation1.sol\":1405:1429  contractBal >= amountOut */\n      lt\n      iszero\n        /* \"Upgradable E1P 1822/Implementation1.sol\":1397:1453  require(contractBal >= amountOut, \"Insufficient funds!\") */\n      tag_150\n      jumpi\n      mload(0x40)\n      shl(0xe5, 0x461bcd)\n      dup2\n      mstore\n        /* \"#utility.yul\":5131:5133   */\n      0x20\n        /* \"Upgradable E1P 1822/Implementation1.sol\":1397:1453  require(contractBal >= amountOut, \"Insufficient funds!\") */\n      0x04\n      dup3\n      add\n        /* \"#utility.yul\":5113:5134   */\n      mstore\n        /* \"#utility.yul\":5170:5172   */\n      0x13\n        /* \"#utility.yul\":5150:5168   */\n      0x24\n      dup3\n      add\n        /* \"#utility.yul\":5143:5173   */\n      mstore\n      shl(0x68, 0x496e73756666696369656e742066756e647321)\n        /* \"#utility.yul\":5189:5207   */\n      0x44\n      dup3\n      add\n        /* \"#utility.yul\":5182:5231   */\n      mstore\n        /* \"#utility.yul\":5248:5266   */\n      0x64\n      add\n        /* \"Upgradable E1P 1822/Implementation1.sol\":1397:1453  require(contractBal >= amountOut, \"Insufficient funds!\") */\n      tag_135\n        /* \"#utility.yul\":4929:5272   */\n      jump\n        /* \"Upgradable E1P 1822/Implementation1.sol\":1397:1453  require(contractBal >= amountOut, \"Insufficient funds!\") */\n    tag_150:\n        /* \"Upgradable E1P 1822/Implementation1.sol\":1460:1503  _transfer(address(this), sendTo, amountOut) */\n      tag_153\n        /* \"Upgradable E1P 1822/Implementation1.sol\":1478:1482  this */\n      address\n        /* \"Upgradable E1P 1822/Implementation1.sol\":1485:1491  sendTo */\n      dup5\n        /* \"Upgradable E1P 1822/Implementation1.sol\":1493:1502  amountOut */\n      dup5\n        /* \"Upgradable E1P 1822/Implementation1.sol\":1460:1469  _transfer */\n      tag_125\n        /* \"Upgradable E1P 1822/Implementation1.sol\":1460:1503  _transfer(address(this), sendTo, amountOut) */\n      jump\t// in\n    tag_153:\n        /* \"Upgradable E1P 1822/Implementation1.sol\":1267:1510  {... */\n      pop\n        /* \"Upgradable E1P 1822/Implementation1.sol\":1198:1510  function transferOut(address sendTo,uint amountOut) public onlyOwner {... */\n      pop\n      pop\n      jump\t// out\n        /* \"Upgradable E1P 1822/Implementation1.sol\":492:745  function initialize() public {... */\n    tag_76:\n        /* \"Upgradable E1P 1822/Implementation1.sol\":531:560  _mint(address(this), 1000e18) */\n      tag_155\n        /* \"Upgradable E1P 1822/Implementation1.sol\":545:549  this */\n      address\n        /* \"Upgradable E1P 1822/Implementation1.sol\":552:559  1000e18 */\n      0x3635c9adc5dea00000\n        /* \"Upgradable E1P 1822/Implementation1.sol\":531:536  _mint */\n      tag_156\n        /* \"Upgradable E1P 1822/Implementation1.sol\":531:560  _mint(address(this), 1000e18) */\n      jump\t// in\n    tag_155:\n        /* \"Upgradable E1P 1822/Implementation1.sol\":578:583  owner */\n      and(sub(shl(0xa0, 0x01), 0x01), sload(0x05))\n        /* \"Upgradable E1P 1822/Implementation1.sol\":578:597  owner == address(0) */\n      iszero\n        /* \"Upgradable E1P 1822/Implementation1.sol\":570:620  require(owner == address(0), \"Already initalized\") */\n      tag_157\n      jumpi\n      mload(0x40)\n      shl(0xe5, 0x461bcd)\n      dup2\n      mstore\n        /* \"#utility.yul\":5479:5481   */\n      0x20\n        /* \"Upgradable E1P 1822/Implementation1.sol\":570:620  require(owner == address(0), \"Already initalized\") */\n      0x04\n      dup3\n      add\n        /* \"#utility.yul\":5461:5482   */\n      mstore\n        /* \"#utility.yul\":5518:5520   */\n      0x12\n        /* \"#utility.yul\":5498:5516   */\n      0x24\n      dup3\n      add\n        /* \"#utility.yul\":5491:5521   */\n      mstore\n      shl(0x72, 0x105b1c9958591e481a5b9a5d185b1a5e9959)\n        /* \"#utility.yul\":5537:5555   */\n      0x44\n      dup3\n      add\n        /* \"#utility.yul\":5530:5578   */\n      mstore\n        /* \"#utility.yul\":5595:5613   */\n      0x64\n      add\n        /* \"Upgradable E1P 1822/Implementation1.sol\":570:620  require(owner == address(0), \"Already initalized\") */\n      tag_135\n        /* \"#utility.yul\":5277:5619   */\n      jump\n        /* \"Upgradable E1P 1822/Implementation1.sol\":570:620  require(owner == address(0), \"Already initalized\") */\n    tag_157:\n        /* \"Upgradable E1P 1822/Implementation1.sol\":630:635  owner */\n      0x05\n        /* \"Upgradable E1P 1822/Implementation1.sol\":630:648  owner = msg.sender */\n      dup1\n      sload\n      not(shl(0xa0, 0xff))\n        /* \"Upgradable E1P 1822/Implementation1.sol\":638:648  msg.sender */\n      caller\n        /* \"Upgradable E1P 1822/Implementation1.sol\":658:676  initialized = true */\n      and\n      not(sub(shl(0xa8, 0x01), 0x01))\n      swap1\n      swap2\n      and\n      or\n      shl(0xa0, 0x01)\n      or\n      swap1\n      sstore\n        /* \"Upgradable E1P 1822/Implementation1.sol\":686:708  tokenName = \"EIP-1822\" */\n      0x40\n      dup1\n      mload\n      dup1\n      dup3\n      add\n      swap1\n      swap2\n      mstore\n      0x08\n      dup1\n      dup3\n      mstore\n      shl(0xc1, 0x22a4a816989c1919)\n      0x20\n      swap1\n      swap3\n      add\n      swap2\n      dup3\n      mstore\n      tag_160\n      swap2\n        /* \"Upgradable E1P 1822/Implementation1.sol\":686:695  tokenName */\n      0x06\n      swap2\n        /* \"Upgradable E1P 1822/Implementation1.sol\":686:708  tokenName = \"EIP-1822\" */\n      tag_161\n      jump\t// in\n    tag_160:\n      pop\n        /* \"Upgradable E1P 1822/Implementation1.sol\":718:738  tokenSymbol = \"EIPI\" */\n      0x40\n      dup1\n      mload\n      dup1\n      dup3\n      add\n      swap1\n      swap2\n      mstore\n      0x04\n      dup1\n      dup3\n      mstore\n      shl(0xe0, 0x45495049)\n      0x20\n      swap1\n      swap3\n      add\n      swap2\n      dup3\n      mstore\n      tag_138\n      swap2\n        /* \"Upgradable E1P 1822/Implementation1.sol\":718:729  tokenSymbol */\n      0x07\n      swap2\n        /* \"Upgradable E1P 1822/Implementation1.sol\":718:738  tokenSymbol = \"EIPI\" */\n      tag_161\n      jump\t// in\n        /* \"Upgradable E1P 1822/Implementation1.sol\":858:964  function symbol() public view virtual override returns (string memory) {... */\n    tag_82:\n        /* \"Upgradable E1P 1822/Implementation1.sol\":914:927  string memory */\n      0x60\n        /* \"Upgradable E1P 1822/Implementation1.sol\":946:957  tokenSymbol */\n      0x07\n        /* \"Upgradable E1P 1822/Implementation1.sol\":939:957  return tokenSymbol */\n      dup1\n      sload\n      tag_107\n      swap1\n      tag_108\n      jump\t// in\n        /* \"Upgradable E1P 1822/Implementation1.sol\":1096:1192  function mintToken(uint amount, address _to) public onlyOwner {... */\n    tag_87:\n        /* \"Upgradable E1P 1822/Implementation1.sol\":417:422  owner */\n      and(sub(shl(0xa0, 0x01), 0x01), sload(0x05))\n        /* \"Upgradable E1P 1822/Implementation1.sol\":426:436  msg.sender */\n      caller\n        /* \"Upgradable E1P 1822/Implementation1.sol\":417:436  owner == msg.sender */\n      eq\n        /* \"Upgradable E1P 1822/Implementation1.sol\":409:470  require(owner == msg.sender, \"No permission except to owner\") */\n      tag_170\n      jumpi\n      mload(0x40)\n      shl(0xe5, 0x461bcd)\n      dup2\n      mstore\n      0x04\n      add\n      tag_135\n      swap1\n      tag_136\n      jump\t// in\n    tag_170:\n        /* \"Upgradable E1P 1822/Implementation1.sol\":1167:1185  _mint(_to, amount) */\n      tag_173\n        /* \"Upgradable E1P 1822/Implementation1.sol\":1173:1176  _to */\n      dup2\n        /* \"Upgradable E1P 1822/Implementation1.sol\":1178:1184  amount */\n      dup4\n        /* \"Upgradable E1P 1822/Implementation1.sol\":1167:1172  _mint */\n      tag_156\n        /* \"Upgradable E1P 1822/Implementation1.sol\":1167:1185  _mint(_to, amount) */\n      jump\t// in\n    tag_173:\n        /* \"Upgradable E1P 1822/Implementation1.sol\":1096:1192  function mintToken(uint amount, address _to) public onlyOwner {... */\n      pop\n      pop\n      jump\t// out\n        /* \"https://github.com/OpenZeppelin/openzeppelin-contracts/blob/master/contracts/token/ERC20/ERC20.sol\":6592:7019  function decreaseAllowance(address spender, uint256 subtractedValue) public virtual returns (bool) {... */\n    tag_90:\n        /* \"https://github.com/OpenZeppelin/openzeppelin-contracts/blob/master/contracts/token/ERC20/ERC20.sol\":6685:6689  bool */\n      0x00\n        /* \"https://github.com/OpenZeppelin/openzeppelin-contracts/blob/master/contracts/utils/Context.sol\":719:729  msg.sender */\n      caller\n        /* \"https://github.com/OpenZeppelin/openzeppelin-contracts/blob/master/contracts/token/ERC20/ERC20.sol\":6685:6689  bool */\n      dup2\n        /* \"https://github.com/OpenZeppelin/openzeppelin-contracts/blob/master/contracts/token/ERC20/ERC20.sol\":6766:6791  allowance(owner, spender) */\n      tag_176\n        /* \"https://github.com/OpenZeppelin/openzeppelin-contracts/blob/master/contracts/utils/Context.sol\":719:729  msg.sender */\n      dup3\n        /* \"https://github.com/OpenZeppelin/openzeppelin-contracts/blob/master/contracts/token/ERC20/ERC20.sol\":6783:6790  spender */\n      dup7\n        /* \"https://github.com/OpenZeppelin/openzeppelin-contracts/blob/master/contracts/token/ERC20/ERC20.sol\":6766:6775  allowance */\n      tag_104\n        /* \"https://github.com/OpenZeppelin/openzeppelin-contracts/blob/master/contracts/token/ERC20/ERC20.sol\":6766:6791  allowance(owner, spender) */\n      jump\t// in\n    tag_176:\n        /* \"https://github.com/OpenZeppelin/openzeppelin-contracts/blob/master/contracts/token/ERC20/ERC20.sol\":6739:6791  uint256 currentAllowance = allowance(owner, spender) */\n      swap1\n      pop\n        /* \"https://github.com/OpenZeppelin/openzeppelin-contracts/blob/master/contracts/token/ERC20/ERC20.sol\":6829:6844  subtractedValue */\n      dup4\n        /* \"https://github.com/OpenZeppelin/openzeppelin-contracts/blob/master/contracts/token/ERC20/ERC20.sol\":6809:6825  currentAllowance */\n      dup2\n        /* \"https://github.com/OpenZeppelin/openzeppelin-contracts/blob/master/contracts/token/ERC20/ERC20.sol\":6809:6844  currentAllowance >= subtractedValue */\n      lt\n      iszero\n        /* \"https://github.com/OpenZeppelin/openzeppelin-contracts/blob/master/contracts/token/ERC20/ERC20.sol\":6801:6886  require(currentAllowance >= subtractedValue, \"ERC20: decreased allowance below zero\") */\n      tag_177\n      jumpi\n      mload(0x40)\n      shl(0xe5, 0x461bcd)\n      dup2\n      mstore\n        /* \"#utility.yul\":5826:5828   */\n      0x20\n        /* \"https://github.com/OpenZeppelin/openzeppelin-contracts/blob/master/contracts/token/ERC20/ERC20.sol\":6801:6886  require(currentAllowance >= subtractedValue, \"ERC20: decreased allowance below zero\") */\n      0x04\n      dup3\n      add\n        /* \"#utility.yul\":5808:5829   */\n      mstore\n        /* \"#utility.yul\":5865:5867   */\n      0x25\n        /* \"#utility.yul\":5845:5863   */\n      0x24\n      dup3\n      add\n        /* \"#utility.yul\":5838:5868   */\n      mstore\n        /* \"#utility.yul\":5904:5938   */\n      0x45524332303a2064656372656173656420616c6c6f77616e63652062656c6f77\n        /* \"#utility.yul\":5884:5902   */\n      0x44\n      dup3\n      add\n        /* \"#utility.yul\":5877:5939   */\n      mstore\n      shl(0xd8, 0x207a65726f)\n        /* \"#utility.yul\":5955:5973   */\n      0x64\n      dup3\n      add\n        /* \"#utility.yul\":5948:5983   */\n      mstore\n        /* \"#utility.yul\":6000:6019   */\n      0x84\n      add\n        /* \"https://github.com/OpenZeppelin/openzeppelin-contracts/blob/master/contracts/token/ERC20/ERC20.sol\":6801:6886  require(currentAllowance >= subtractedValue, \"ERC20: decreased allowance below zero\") */\n      tag_135\n        /* \"#utility.yul\":5624:6025   */\n      jump\n        /* \"https://github.com/OpenZeppelin/openzeppelin-contracts/blob/master/contracts/token/ERC20/ERC20.sol\":6801:6886  require(currentAllowance >= subtractedValue, \"ERC20: decreased allowance below zero\") */\n    tag_177:\n        /* \"https://github.com/OpenZeppelin/openzeppelin-contracts/blob/master/contracts/token/ERC20/ERC20.sol\":6920:6980  _approve(owner, spender, currentAllowance - subtractedValue) */\n      tag_124\n        /* \"https://github.com/OpenZeppelin/openzeppelin-contracts/blob/master/contracts/token/ERC20/ERC20.sol\":6929:6934  owner */\n      dup3\n        /* \"https://github.com/OpenZeppelin/openzeppelin-contracts/blob/master/contracts/token/ERC20/ERC20.sol\":6936:6943  spender */\n      dup7\n        /* \"https://github.com/OpenZeppelin/openzeppelin-contracts/blob/master/contracts/token/ERC20/ERC20.sol\":6964:6979  subtractedValue */\n      dup7\n        /* \"https://github.com/OpenZeppelin/openzeppelin-contracts/blob/master/contracts/token/ERC20/ERC20.sol\":6945:6961  currentAllowance */\n      dup5\n        /* \"https://github.com/OpenZeppelin/openzeppelin-contracts/blob/master/contracts/token/ERC20/ERC20.sol\":6945:6979  currentAllowance - subtractedValue */\n      sub\n        /* \"https://github.com/OpenZeppelin/openzeppelin-contracts/blob/master/contracts/token/ERC20/ERC20.sol\":6920:6928  _approve */\n      tag_117\n        /* \"https://github.com/OpenZeppelin/openzeppelin-contracts/blob/master/contracts/token/ERC20/ERC20.sol\":6920:6980  _approve(owner, spender, currentAllowance - subtractedValue) */\n      jump\t// in\n        /* \"https://github.com/OpenZeppelin/openzeppelin-contracts/blob/master/contracts/token/ERC20/ERC20.sol\":3727:3916  function transfer(address to, uint256 amount) public virtual override returns (bool) {... */\n    tag_94:\n        /* \"https://github.com/OpenZeppelin/openzeppelin-contracts/blob/master/contracts/token/ERC20/ERC20.sol\":3806:3810  bool */\n      0x00\n        /* \"https://github.com/OpenZeppelin/openzeppelin-contracts/blob/master/contracts/utils/Context.sol\":719:729  msg.sender */\n      caller\n        /* \"https://github.com/OpenZeppelin/openzeppelin-contracts/blob/master/contracts/token/ERC20/ERC20.sol\":3860:3888  _transfer(owner, to, amount) */\n      tag_116\n        /* \"https://github.com/OpenZeppelin/openzeppelin-contracts/blob/master/contracts/utils/Context.sol\":719:729  msg.sender */\n      dup2\n        /* \"https://github.com/OpenZeppelin/openzeppelin-contracts/blob/master/contracts/token/ERC20/ERC20.sol\":3877:3879  to */\n      dup6\n        /* \"https://github.com/OpenZeppelin/openzeppelin-contracts/blob/master/contracts/token/ERC20/ERC20.sol\":3881:3887  amount */\n      dup6\n        /* \"https://github.com/OpenZeppelin/openzeppelin-contracts/blob/master/contracts/token/ERC20/ERC20.sol\":3860:3869  _transfer */\n      tag_125\n        /* \"https://github.com/OpenZeppelin/openzeppelin-contracts/blob/master/contracts/token/ERC20/ERC20.sol\":3860:3888  _transfer(owner, to, amount) */\n      jump\t// in\n        /* \"Upgradable E1P 1822/Implementation2.sol\":223:328  function calculateBurn(uint amount) public pure returns(uint burn){... */\n    tag_99:\n        /* \"Upgradable E1P 1822/Implementation2.sol\":279:288  uint burn */\n      0x00\n        /* \"Upgradable E1P 1822/Implementation2.sol\":318:321  100 */\n      0x64\n        /* \"Upgradable E1P 1822/Implementation2.sol\":305:316  amount * 10 */\n      tag_185\n        /* \"Upgradable E1P 1822/Implementation2.sol\":305:311  amount */\n      dup4\n        /* \"Upgradable E1P 1822/Implementation2.sol\":314:316  10 */\n      0x0a\n        /* \"Upgradable E1P 1822/Implementation2.sol\":305:316  amount * 10 */\n      tag_186\n      jump\t// in\n    tag_185:\n        /* \"Upgradable E1P 1822/Implementation2.sol\":304:321  (amount * 10)/100 */\n      tag_187\n      swap2\n      swap1\n      tag_188\n      jump\t// in\n    tag_187:\n        /* \"Upgradable E1P 1822/Implementation2.sol\":297:321  burn = (amount * 10)/100 */\n      swap3\n        /* \"Upgradable E1P 1822/Implementation2.sol\":223:328  function calculateBurn(uint amount) public pure returns(uint burn){... */\n      swap2\n      pop\n      pop\n      jump\t// out\n        /* \"https://github.com/OpenZeppelin/openzeppelin-contracts/blob/master/contracts/token/ERC20/ERC20.sol\":3974:4123  function allowance(address owner, address spender) public view virtual override returns (uint256) {... */\n    tag_104:\n      sub(shl(0xa0, 0x01), 0x01)\n        /* \"https://github.com/OpenZeppelin/openzeppelin-contracts/blob/master/contracts/token/ERC20/ERC20.sol\":4089:4107  _allowances[owner] */\n      swap2\n      dup3\n      and\n        /* \"https://github.com/OpenZeppelin/openzeppelin-contracts/blob/master/contracts/token/ERC20/ERC20.sol\":4063:4070  uint256 */\n      0x00\n        /* \"https://github.com/OpenZeppelin/openzeppelin-contracts/blob/master/contracts/token/ERC20/ERC20.sol\":4089:4107  _allowances[owner] */\n      swap1\n      dup2\n      mstore\n        /* \"https://github.com/OpenZeppelin/openzeppelin-contracts/blob/master/contracts/token/ERC20/ERC20.sol\":4089:4100  _allowances */\n      0x01\n        /* \"https://github.com/OpenZeppelin/openzeppelin-contracts/blob/master/contracts/token/ERC20/ERC20.sol\":4089:4107  _allowances[owner] */\n      0x20\n      swap1\n      dup2\n      mstore\n      0x40\n      dup1\n      dup4\n      keccak256\n        /* \"https://github.com/OpenZeppelin/openzeppelin-contracts/blob/master/contracts/token/ERC20/ERC20.sol\":4089:4116  _allowances[owner][spender] */\n      swap4\n      swap1\n      swap5\n      and\n      dup3\n      mstore\n      swap2\n      swap1\n      swap2\n      mstore\n      keccak256\n      sload\n      swap1\n        /* \"https://github.com/OpenZeppelin/openzeppelin-contracts/blob/master/contracts/token/ERC20/ERC20.sol\":3974:4123  function allowance(address owner, address spender) public view virtual override returns (uint256) {... */\n      jump\t// out\n        /* \"https://github.com/OpenZeppelin/openzeppelin-contracts/blob/master/contracts/token/ERC20/ERC20.sol\":10504:10874  function _approve(... */\n    tag_117:\n      sub(shl(0xa0, 0x01), 0x01)\n        /* \"https://github.com/OpenZeppelin/openzeppelin-contracts/blob/master/contracts/token/ERC20/ERC20.sol\":10635:10654  owner != address(0) */\n      dup4\n      and\n        /* \"https://github.com/OpenZeppelin/openzeppelin-contracts/blob/master/contracts/token/ERC20/ERC20.sol\":10627:10695  require(owner != address(0), \"ERC20: approve from the zero address\") */\n      tag_192\n      jumpi\n      mload(0x40)\n      shl(0xe5, 0x461bcd)\n      dup2\n      mstore\n        /* \"#utility.yul\":6627:6629   */\n      0x20\n        /* \"https://github.com/OpenZeppelin/openzeppelin-contracts/blob/master/contracts/token/ERC20/ERC20.sol\":10627:10695  require(owner != address(0), \"ERC20: approve from the zero address\") */\n      0x04\n      dup3\n      add\n        /* \"#utility.yul\":6609:6630   */\n      mstore\n        /* \"#utility.yul\":6666:6668   */\n      0x24\n        /* \"#utility.yul\":6646:6664   */\n      dup1\n      dup3\n      add\n        /* \"#utility.yul\":6639:6669   */\n      mstore\n        /* \"#utility.yul\":6705:6739   */\n      0x45524332303a20617070726f76652066726f6d20746865207a65726f20616464\n        /* \"#utility.yul\":6685:6703   */\n      0x44\n      dup3\n      add\n        /* \"#utility.yul\":6678:6740   */\n      mstore\n      shl(0xe0, 0x72657373)\n        /* \"#utility.yul\":6756:6774   */\n      0x64\n      dup3\n      add\n        /* \"#utility.yul\":6749:6783   */\n      mstore\n        /* \"#utility.yul\":6800:6819   */\n      0x84\n      add\n        /* \"https://github.com/OpenZeppelin/openzeppelin-contracts/blob/master/contracts/token/ERC20/ERC20.sol\":10627:10695  require(owner != address(0), \"ERC20: approve from the zero address\") */\n      tag_135\n        /* \"#utility.yul\":6425:6825   */\n      jump\n        /* \"https://github.com/OpenZeppelin/openzeppelin-contracts/blob/master/contracts/token/ERC20/ERC20.sol\":10627:10695  require(owner != address(0), \"ERC20: approve from the zero address\") */\n    tag_192:\n      sub(shl(0xa0, 0x01), 0x01)\n        /* \"https://github.com/OpenZeppelin/openzeppelin-contracts/blob/master/contracts/token/ERC20/ERC20.sol\":10713:10734  spender != address(0) */\n      dup3\n      and\n        /* \"https://github.com/OpenZeppelin/openzeppelin-contracts/blob/master/contracts/token/ERC20/ERC20.sol\":10705:10773  require(spender != address(0), \"ERC20: approve to the zero address\") */\n      tag_195\n      jumpi\n      mload(0x40)\n      shl(0xe5, 0x461bcd)\n      dup2\n      mstore\n        /* \"#utility.yul\":7032:7034   */\n      0x20\n        /* \"https://github.com/OpenZeppelin/openzeppelin-contracts/blob/master/contracts/token/ERC20/ERC20.sol\":10705:10773  require(spender != address(0), \"ERC20: approve to the zero address\") */\n      0x04\n      dup3\n      add\n        /* \"#utility.yul\":7014:7035   */\n      mstore\n        /* \"#utility.yul\":7071:7073   */\n      0x22\n        /* \"#utility.yul\":7051:7069   */\n      0x24\n      dup3\n      add\n        /* \"#utility.yul\":7044:7074   */\n      mstore\n        /* \"#utility.yul\":7110:7144   */\n      0x45524332303a20617070726f766520746f20746865207a65726f206164647265\n        /* \"#utility.yul\":7090:7108   */\n      0x44\n      dup3\n      add\n        /* \"#utility.yul\":7083:7145   */\n      mstore\n      shl(0xf0, 0x7373)\n        /* \"#utility.yul\":7161:7179   */\n      0x64\n      dup3\n      add\n        /* \"#utility.yul\":7154:7186   */\n      mstore\n        /* \"#utility.yul\":7203:7222   */\n      0x84\n      add\n        /* \"https://github.com/OpenZeppelin/openzeppelin-contracts/blob/master/contracts/token/ERC20/ERC20.sol\":10705:10773  require(spender != address(0), \"ERC20: approve to the zero address\") */\n      tag_135\n        /* \"#utility.yul\":6830:7228   */\n      jump\n        /* \"https://github.com/OpenZeppelin/openzeppelin-contracts/blob/master/contracts/token/ERC20/ERC20.sol\":10705:10773  require(spender != address(0), \"ERC20: approve to the zero address\") */\n    tag_195:\n      sub(shl(0xa0, 0x01), 0x01)\n        /* \"https://github.com/OpenZeppelin/openzeppelin-contracts/blob/master/contracts/token/ERC20/ERC20.sol\":10784:10802  _allowances[owner] */\n      dup4\n      dup2\n      and\n      0x00\n      dup2\n      dup2\n      mstore\n        /* \"https://github.com/OpenZeppelin/openzeppelin-contracts/blob/master/contracts/token/ERC20/ERC20.sol\":10784:10795  _allowances */\n      0x01\n        /* \"https://github.com/OpenZeppelin/openzeppelin-contracts/blob/master/contracts/token/ERC20/ERC20.sol\":10784:10802  _allowances[owner] */\n      0x20\n      swap1\n      dup2\n      mstore\n      0x40\n      dup1\n      dup4\n      keccak256\n        /* \"https://github.com/OpenZeppelin/openzeppelin-contracts/blob/master/contracts/token/ERC20/ERC20.sol\":10784:10811  _allowances[owner][spender] */\n      swap5\n      dup8\n      and\n      dup1\n      dup5\n      mstore\n      swap5\n      dup3\n      mstore\n      swap2\n      dup3\n      swap1\n      keccak256\n        /* \"https://github.com/OpenZeppelin/openzeppelin-contracts/blob/master/contracts/token/ERC20/ERC20.sol\":10784:10820  _allowances[owner][spender] = amount */\n      dup6\n      swap1\n      sstore\n        /* \"https://github.com/OpenZeppelin/openzeppelin-contracts/blob/master/contracts/token/ERC20/ERC20.sol\":10835:10867  Approval(owner, spender, amount) */\n      swap1\n      mload\n        /* \"#utility.yul\":1714:1739   */\n      dup5\n      dup2\n      mstore\n        /* \"https://github.com/OpenZeppelin/openzeppelin-contracts/blob/master/contracts/token/ERC20/ERC20.sol\":10835:10867  Approval(owner, spender, amount) */\n      0x8c5be1e5ebec7d5bd14f71427d1e84f3dd0314c0f7b2291e5b200ac8c7c3b925\n      swap2\n        /* \"#utility.yul\":1687:1705   */\n      add\n        /* \"https://github.com/OpenZeppelin/openzeppelin-contracts/blob/master/contracts/token/ERC20/ERC20.sol\":10835:10867  Approval(owner, spender, amount) */\n      mload(0x40)\n      dup1\n      swap2\n      sub\n      swap1\n      log3\n        /* \"https://github.com/OpenZeppelin/openzeppelin-contracts/blob/master/contracts/token/ERC20/ERC20.sol\":10504:10874  function _approve(... */\n      pop\n      pop\n      pop\n      jump\t// out\n        /* \"https://github.com/OpenZeppelin/openzeppelin-contracts/blob/master/contracts/token/ERC20/ERC20.sol\":11155:11596  function _spendAllowance(... */\n    tag_123:\n        /* \"https://github.com/OpenZeppelin/openzeppelin-contracts/blob/master/contracts/token/ERC20/ERC20.sol\":11285:11309  uint256 currentAllowance */\n      0x00\n        /* \"https://github.com/OpenZeppelin/openzeppelin-contracts/blob/master/contracts/token/ERC20/ERC20.sol\":11312:11337  allowance(owner, spender) */\n      tag_200\n        /* \"https://github.com/OpenZeppelin/openzeppelin-contracts/blob/master/contracts/token/ERC20/ERC20.sol\":11322:11327  owner */\n      dup5\n        /* \"https://github.com/OpenZeppelin/openzeppelin-contracts/blob/master/contracts/token/ERC20/ERC20.sol\":11329:11336  spender */\n      dup5\n        /* \"https://github.com/OpenZeppelin/openzeppelin-contracts/blob/master/contracts/token/ERC20/ERC20.sol\":11312:11321  allowance */\n      tag_104\n        /* \"https://github.com/OpenZeppelin/openzeppelin-contracts/blob/master/contracts/token/ERC20/ERC20.sol\":11312:11337  allowance(owner, spender) */\n      jump\t// in\n    tag_200:\n        /* \"https://github.com/OpenZeppelin/openzeppelin-contracts/blob/master/contracts/token/ERC20/ERC20.sol\":11285:11337  uint256 currentAllowance = allowance(owner, spender) */\n      swap1\n      pop\n      not(0x00)\n        /* \"https://github.com/OpenZeppelin/openzeppelin-contracts/blob/master/contracts/token/ERC20/ERC20.sol\":11351:11367  currentAllowance */\n      dup2\n        /* \"https://github.com/OpenZeppelin/openzeppelin-contracts/blob/master/contracts/token/ERC20/ERC20.sol\":11351:11388  currentAllowance != type(uint256).max */\n      eq\n        /* \"https://github.com/OpenZeppelin/openzeppelin-contracts/blob/master/contracts/token/ERC20/ERC20.sol\":11347:11590  if (currentAllowance != type(uint256).max) {... */\n      tag_205\n      jumpi\n        /* \"https://github.com/OpenZeppelin/openzeppelin-contracts/blob/master/contracts/token/ERC20/ERC20.sol\":11432:11438  amount */\n      dup2\n        /* \"https://github.com/OpenZeppelin/openzeppelin-contracts/blob/master/contracts/token/ERC20/ERC20.sol\":11412:11428  currentAllowance */\n      dup2\n        /* \"https://github.com/OpenZeppelin/openzeppelin-contracts/blob/master/contracts/token/ERC20/ERC20.sol\":11412:11438  currentAllowance >= amount */\n      lt\n      iszero\n        /* \"https://github.com/OpenZeppelin/openzeppelin-contracts/blob/master/contracts/token/ERC20/ERC20.sol\":11404:11472  require(currentAllowance >= amount, \"ERC20: insufficient allowance\") */\n      tag_202\n      jumpi\n      mload(0x40)\n      shl(0xe5, 0x461bcd)\n      dup2\n      mstore\n        /* \"#utility.yul\":7435:7437   */\n      0x20\n        /* \"https://github.com/OpenZeppelin/openzeppelin-contracts/blob/master/contracts/token/ERC20/ERC20.sol\":11404:11472  require(currentAllowance >= amount, \"ERC20: insufficient allowance\") */\n      0x04\n      dup3\n      add\n        /* \"#utility.yul\":7417:7438   */\n      mstore\n        /* \"#utility.yul\":7474:7476   */\n      0x1d\n        /* \"#utility.yul\":7454:7472   */\n      0x24\n      dup3\n      add\n        /* \"#utility.yul\":7447:7477   */\n      mstore\n        /* \"#utility.yul\":7513:7544   */\n      0x45524332303a20696e73756666696369656e7420616c6c6f77616e6365000000\n        /* \"#utility.yul\":7493:7511   */\n      0x44\n      dup3\n      add\n        /* \"#utility.yul\":7486:7545   */\n      mstore\n        /* \"#utility.yul\":7562:7580   */\n      0x64\n      add\n        /* \"https://github.com/OpenZeppelin/openzeppelin-contracts/blob/master/contracts/token/ERC20/ERC20.sol\":11404:11472  require(currentAllowance >= amount, \"ERC20: insufficient allowance\") */\n      tag_135\n        /* \"#utility.yul\":7233:7586   */\n      jump\n        /* \"https://github.com/OpenZeppelin/openzeppelin-contracts/blob/master/contracts/token/ERC20/ERC20.sol\":11404:11472  require(currentAllowance >= amount, \"ERC20: insufficient allowance\") */\n    tag_202:\n        /* \"https://github.com/OpenZeppelin/openzeppelin-contracts/blob/master/contracts/token/ERC20/ERC20.sol\":11514:11565  _approve(owner, spender, currentAllowance - amount) */\n      tag_205\n        /* \"https://github.com/OpenZeppelin/openzeppelin-contracts/blob/master/contracts/token/ERC20/ERC20.sol\":11523:11528  owner */\n      dup5\n        /* \"https://github.com/OpenZeppelin/openzeppelin-contracts/blob/master/contracts/token/ERC20/ERC20.sol\":11530:11537  spender */\n      dup5\n        /* \"https://github.com/OpenZeppelin/openzeppelin-contracts/blob/master/contracts/token/ERC20/ERC20.sol\":11558:11564  amount */\n      dup5\n        /* \"https://github.com/OpenZeppelin/openzeppelin-contracts/blob/master/contracts/token/ERC20/ERC20.sol\":11539:11555  currentAllowance */\n      dup5\n        /* \"https://github.com/OpenZeppelin/openzeppelin-contracts/blob/master/contracts/token/ERC20/ERC20.sol\":11539:11564  currentAllowance - amount */\n      sub\n        /* \"https://github.com/OpenZeppelin/openzeppelin-contracts/blob/master/contracts/token/ERC20/ERC20.sol\":11514:11522  _approve */\n      tag_117\n        /* \"https://github.com/OpenZeppelin/openzeppelin-contracts/blob/master/contracts/token/ERC20/ERC20.sol\":11514:11565  _approve(owner, spender, currentAllowance - amount) */\n      jump\t// in\n    tag_205:\n        /* \"https://github.com/OpenZeppelin/openzeppelin-contracts/blob/master/contracts/token/ERC20/ERC20.sol\":11275:11596  {... */\n      pop\n        /* \"https://github.com/OpenZeppelin/openzeppelin-contracts/blob/master/contracts/token/ERC20/ERC20.sol\":11155:11596  function _spendAllowance(... */\n      pop\n      pop\n      pop\n      jump\t// out\n        /* \"https://github.com/OpenZeppelin/openzeppelin-contracts/blob/master/contracts/token/ERC20/ERC20.sol\":7473:8291  function _transfer(... */\n    tag_125:\n      sub(shl(0xa0, 0x01), 0x01)\n        /* \"https://github.com/OpenZeppelin/openzeppelin-contracts/blob/master/contracts/token/ERC20/ERC20.sol\":7599:7617  from != address(0) */\n      dup4\n      and\n        /* \"https://github.com/OpenZeppelin/openzeppelin-contracts/blob/master/contracts/token/ERC20/ERC20.sol\":7591:7659  require(from != address(0), \"ERC20: transfer from the zero address\") */\n      tag_207\n      jumpi\n      mload(0x40)\n      shl(0xe5, 0x461bcd)\n      dup2\n      mstore\n        /* \"#utility.yul\":7793:7795   */\n      0x20\n        /* \"https://github.com/OpenZeppelin/openzeppelin-contracts/blob/master/contracts/token/ERC20/ERC20.sol\":7591:7659  require(from != address(0), \"ERC20: transfer from the zero address\") */\n      0x04\n      dup3\n      add\n        /* \"#utility.yul\":7775:7796   */\n      mstore\n        /* \"#utility.yul\":7832:7834   */\n      0x25\n        /* \"#utility.yul\":7812:7830   */\n      0x24\n      dup3\n      add\n        /* \"#utility.yul\":7805:7835   */\n      mstore\n        /* \"#utility.yul\":7871:7905   */\n      0x45524332303a207472616e736665722066726f6d20746865207a65726f206164\n        /* \"#utility.yul\":7851:7869   */\n      0x44\n      dup3\n      add\n        /* \"#utility.yul\":7844:7906   */\n      mstore\n      shl(0xd8, 0x6472657373)\n        /* \"#utility.yul\":7922:7940   */\n      0x64\n      dup3\n      add\n        /* \"#utility.yul\":7915:7950   */\n      mstore\n        /* \"#utility.yul\":7967:7986   */\n      0x84\n      add\n        /* \"https://github.com/OpenZeppelin/openzeppelin-contracts/blob/master/contracts/token/ERC20/ERC20.sol\":7591:7659  require(from != address(0), \"ERC20: transfer from the zero address\") */\n      tag_135\n        /* \"#utility.yul\":7591:7992   */\n      jump\n        /* \"https://github.com/OpenZeppelin/openzeppelin-contracts/blob/master/contracts/token/ERC20/ERC20.sol\":7591:7659  require(from != address(0), \"ERC20: transfer from the zero address\") */\n    tag_207:\n      sub(shl(0xa0, 0x01), 0x01)\n        /* \"https://github.com/OpenZeppelin/openzeppelin-contracts/blob/master/contracts/token/ERC20/ERC20.sol\":7677:7693  to != address(0) */\n      dup3\n      and\n        /* \"https://github.com/OpenZeppelin/openzeppelin-contracts/blob/master/contracts/token/ERC20/ERC20.sol\":7669:7733  require(to != address(0), \"ERC20: transfer to the zero address\") */\n      tag_210\n      jumpi\n      mload(0x40)\n      shl(0xe5, 0x461bcd)\n      dup2\n      mstore\n        /* \"#utility.yul\":8199:8201   */\n      0x20\n        /* \"https://github.com/OpenZeppelin/openzeppelin-contracts/blob/master/contracts/token/ERC20/ERC20.sol\":7669:7733  require(to != address(0), \"ERC20: transfer to the zero address\") */\n      0x04\n      dup3\n      add\n        /* \"#utility.yul\":8181:8202   */\n      mstore\n        /* \"#utility.yul\":8238:8240   */\n      0x23\n        /* \"#utility.yul\":8218:8236   */\n      0x24\n      dup3\n      add\n        /* \"#utility.yul\":8211:8241   */\n      mstore\n        /* \"#utility.yul\":8277:8311   */\n      0x45524332303a207472616e7366657220746f20746865207a65726f2061646472\n        /* \"#utility.yul\":8257:8275   */\n      0x44\n      dup3\n      add\n        /* \"#utility.yul\":8250:8312   */\n      mstore\n      shl(0xe8, 0x657373)\n        /* \"#utility.yul\":8328:8346   */\n      0x64\n      dup3\n      add\n        /* \"#utility.yul\":8321:8354   */\n      mstore\n        /* \"#utility.yul\":8371:8390   */\n      0x84\n      add\n        /* \"https://github.com/OpenZeppelin/openzeppelin-contracts/blob/master/contracts/token/ERC20/ERC20.sol\":7669:7733  require(to != address(0), \"ERC20: transfer to the zero address\") */\n      tag_135\n        /* \"#utility.yul\":7997:8396   */\n      jump\n        /* \"https://github.com/OpenZeppelin/openzeppelin-contracts/blob/master/contracts/token/ERC20/ERC20.sol\":7669:7733  require(to != address(0), \"ERC20: transfer to the zero address\") */\n    tag_210:\n      sub(shl(0xa0, 0x01), 0x01)\n        /* \"https://github.com/OpenZeppelin/openzeppelin-contracts/blob/master/contracts/token/ERC20/ERC20.sol\":7815:7830  _balances[from] */\n      dup4\n      and\n        /* \"https://github.com/OpenZeppelin/openzeppelin-contracts/blob/master/contracts/token/ERC20/ERC20.sol\":7793:7812  uint256 fromBalance */\n      0x00\n        /* \"https://github.com/OpenZeppelin/openzeppelin-contracts/blob/master/contracts/token/ERC20/ERC20.sol\":7815:7830  _balances[from] */\n      swap1\n      dup2\n      mstore\n      0x20\n      dup2\n      swap1\n      mstore\n      0x40\n      swap1\n      keccak256\n      sload\n        /* \"https://github.com/OpenZeppelin/openzeppelin-contracts/blob/master/contracts/token/ERC20/ERC20.sol\":7848:7869  fromBalance >= amount */\n      dup2\n      dup2\n      lt\n      iszero\n        /* \"https://github.com/OpenZeppelin/openzeppelin-contracts/blob/master/contracts/token/ERC20/ERC20.sol\":7840:7912  require(fromBalance >= amount, \"ERC20: transfer amount exceeds balance\") */\n      tag_215\n      jumpi\n      mload(0x40)\n      shl(0xe5, 0x461bcd)\n      dup2\n      mstore\n        /* \"#utility.yul\":8603:8605   */\n      0x20\n        /* \"https://github.com/OpenZeppelin/openzeppelin-contracts/blob/master/contracts/token/ERC20/ERC20.sol\":7840:7912  require(fromBalance >= amount, \"ERC20: transfer amount exceeds balance\") */\n      0x04\n      dup3\n      add\n        /* \"#utility.yul\":8585:8606   */\n      mstore\n        /* \"#utility.yul\":8642:8644   */\n      0x26\n        /* \"#utility.yul\":8622:8640   */\n      0x24\n      dup3\n      add\n        /* \"#utility.yul\":8615:8645   */\n      mstore\n        /* \"#utility.yul\":8681:8715   */\n      0x45524332303a207472616e7366657220616d6f756e7420657863656564732062\n        /* \"#utility.yul\":8661:8679   */\n      0x44\n      dup3\n      add\n        /* \"#utility.yul\":8654:8716   */\n      mstore\n      shl(0xd0, 0x616c616e6365)\n        /* \"#utility.yul\":8732:8750   */\n      0x64\n      dup3\n      add\n        /* \"#utility.yul\":8725:8761   */\n      mstore\n        /* \"#utility.yul\":8778:8797   */\n      0x84\n      add\n        /* \"https://github.com/OpenZeppelin/openzeppelin-contracts/blob/master/contracts/token/ERC20/ERC20.sol\":7840:7912  require(fromBalance >= amount, \"ERC20: transfer amount exceeds balance\") */\n      tag_135\n        /* \"#utility.yul\":8401:8803   */\n      jump\n        /* \"https://github.com/OpenZeppelin/openzeppelin-contracts/blob/master/contracts/token/ERC20/ERC20.sol\":7840:7912  require(fromBalance >= amount, \"ERC20: transfer amount exceeds balance\") */\n    tag_215:\n      sub(shl(0xa0, 0x01), 0x01)\n        /* \"https://github.com/OpenZeppelin/openzeppelin-contracts/blob/master/contracts/token/ERC20/ERC20.sol\":7946:7961  _balances[from] */\n      dup5\n      dup2\n      and\n        /* \"https://github.com/OpenZeppelin/openzeppelin-contracts/blob/master/contracts/token/ERC20/ERC20.sol\":7946:7955  _balances */\n      0x00\n        /* \"https://github.com/OpenZeppelin/openzeppelin-contracts/blob/master/contracts/token/ERC20/ERC20.sol\":7946:7961  _balances[from] */\n      dup2\n      dup2\n      mstore\n      0x20\n      dup2\n      dup2\n      mstore\n      0x40\n      dup1\n      dup4\n      keccak256\n        /* \"https://github.com/OpenZeppelin/openzeppelin-contracts/blob/master/contracts/token/ERC20/ERC20.sol\":7964:7984  fromBalance - amount */\n      dup8\n      dup8\n      sub\n        /* \"https://github.com/OpenZeppelin/openzeppelin-contracts/blob/master/contracts/token/ERC20/ERC20.sol\":7946:7984  _balances[from] = fromBalance - amount */\n      swap1\n      sstore\n        /* \"https://github.com/OpenZeppelin/openzeppelin-contracts/blob/master/contracts/token/ERC20/ERC20.sol\":8161:8174  _balances[to] */\n      swap4\n      dup8\n      and\n      dup1\n      dup4\n      mstore\n      swap2\n      dup5\n      swap1\n      keccak256\n        /* \"https://github.com/OpenZeppelin/openzeppelin-contracts/blob/master/contracts/token/ERC20/ERC20.sol\":8161:8184  _balances[to] += amount */\n      dup1\n      sload\n      dup8\n      add\n      swap1\n      sstore\n        /* \"https://github.com/OpenZeppelin/openzeppelin-contracts/blob/master/contracts/token/ERC20/ERC20.sol\":8210:8236  Transfer(from, to, amount) */\n      swap3\n      mload\n        /* \"#utility.yul\":1714:1739   */\n      dup6\n      dup2\n      mstore\n        /* \"https://github.com/OpenZeppelin/openzeppelin-contracts/blob/master/contracts/token/ERC20/ERC20.sol\":8161:8174  _balances[to] */\n      swap1\n      swap3\n        /* \"https://github.com/OpenZeppelin/openzeppelin-contracts/blob/master/contracts/token/ERC20/ERC20.sol\":8210:8236  Transfer(from, to, amount) */\n      0xddf252ad1be2c89b69c2b068fc378daa952ba7f163c4a11628f55a4df523b3ef\n      swap2\n        /* \"#utility.yul\":1687:1705   */\n      add\n        /* \"https://github.com/OpenZeppelin/openzeppelin-contracts/blob/master/contracts/token/ERC20/ERC20.sol\":8210:8236  Transfer(from, to, amount) */\n      mload(0x40)\n      dup1\n      swap2\n      sub\n      swap1\n      log3\n        /* \"https://github.com/OpenZeppelin/openzeppelin-contracts/blob/master/contracts/token/ERC20/ERC20.sol\":8247:8284  _afterTokenTransfer(from, to, amount) */\n      tag_205\n        /* \"Upgradable E1P 1822/Implementation1.sol\":1198:1510  function transferOut(address sendTo,uint amountOut) public onlyOwner {... */\n      jump\n        /* \"Upgradable E1P 1822/Proxible.sol\":220:621  function updateCodeAddress(address newAddress) internal {... */\n    tag_139:\n        /* \"Upgradable E1P 1822/Proxible.sol\":396:406  newAddress */\n      dup1\n      sub(shl(0xa0, 0x01), 0x01)\n        /* \"Upgradable E1P 1822/Proxible.sol\":386:421  Proxiable(newAddress).proxiableUUID */\n      and\n      0x52d1902d\n        /* \"Upgradable E1P 1822/Proxible.sol\":386:423  Proxiable(newAddress).proxiableUUID() */\n      mload(0x40)\n      dup2\n      0xffffffff\n      and\n      0xe0\n      shl\n      dup2\n      mstore\n      0x04\n      add\n      0x20\n      mload(0x40)\n      dup1\n      dup4\n      sub\n      dup2\n      dup7\n      gas\n      staticcall\n      iszero\n      dup1\n      iszero\n      tag_223\n      jumpi\n      returndatasize\n      0x00\n      dup1\n      returndatacopy\n      revert(0x00, returndatasize)\n    tag_223:\n      pop\n      pop\n      pop\n      pop\n      mload(0x40)\n      returndatasize\n      not(0x1f)\n      0x1f\n      dup3\n      add\n      and\n      dup3\n      add\n      dup1\n      0x40\n      mstore\n      pop\n      dup2\n      add\n      swap1\n      tag_224\n      swap2\n      swap1\n      tag_225\n      jump\t// in\n    tag_224:\n        /* \"Upgradable E1P 1822/Proxible.sol\":315:381  0xc5f16f0fcc639fa48a6947836d9850f504798523bf8c9a3a87d5876cf622bcf7 */\n      0xc5f16f0fcc639fa48a6947836d9850f504798523bf8c9a3a87d5876cf622bcf7\n        /* \"Upgradable E1P 1822/Proxible.sol\":307:423  bytes32(0xc5f16f0fcc639fa48a6947836d9850f504798523bf8c9a3a87d5876cf622bcf7) == Proxiable(newAddress).proxiableUUID() */\n      eq\n        /* \"Upgradable E1P 1822/Proxible.sol\":286:463  require(... */\n      tag_226\n      jumpi\n      mload(0x40)\n      shl(0xe5, 0x461bcd)\n      dup2\n      mstore\n        /* \"#utility.yul\":9199:9201   */\n      0x20\n        /* \"Upgradable E1P 1822/Proxible.sol\":286:463  require(... */\n      0x04\n      dup3\n      add\n        /* \"#utility.yul\":9181:9202   */\n      mstore\n        /* \"#utility.yul\":9238:9240   */\n      0x0e\n        /* \"#utility.yul\":9218:9236   */\n      0x24\n      dup3\n      add\n        /* \"#utility.yul\":9211:9241   */\n      mstore\n      shl(0x90, 0x4e6f7420636f6d70617469626c65)\n        /* \"#utility.yul\":9257:9275   */\n      0x44\n      dup3\n      add\n        /* \"#utility.yul\":9250:9294   */\n      mstore\n        /* \"#utility.yul\":9311:9329   */\n      0x64\n      add\n        /* \"Upgradable E1P 1822/Proxible.sol\":286:463  require(... */\n      tag_135\n        /* \"#utility.yul\":8997:9335   */\n      jump\n        /* \"Upgradable E1P 1822/Proxible.sol\":286:463  require(... */\n    tag_226:\n        /* \"Upgradable E1P 1822/Proxible.sol\":526:592  0xc5f16f0fcc639fa48a6947836d9850f504798523bf8c9a3a87d5876cf622bcf7 */\n      0xc5f16f0fcc639fa48a6947836d9850f504798523bf8c9a3a87d5876cf622bcf7\n        /* \"Upgradable E1P 1822/Proxible.sol\":519:605  sstore(0xc5f16f0fcc639fa48a6947836d9850f504798523bf8c9a3a87d5876cf622bcf7, newAddress) */\n      sstore\n        /* \"Upgradable E1P 1822/Proxible.sol\":220:621  function updateCodeAddress(address newAddress) internal {... */\n      jump\t// out\n        /* \"https://github.com/OpenZeppelin/openzeppelin-contracts/blob/master/contracts/token/ERC20/ERC20.sol\":8567:9102  function _mint(address account, uint256 amount) internal virtual {... */\n    tag_156:\n      sub(shl(0xa0, 0x01), 0x01)\n        /* \"https://github.com/OpenZeppelin/openzeppelin-contracts/blob/master/contracts/token/ERC20/ERC20.sol\":8650:8671  account != address(0) */\n      dup3\n      and\n        /* \"https://github.com/OpenZeppelin/openzeppelin-contracts/blob/master/contracts/token/ERC20/ERC20.sol\":8642:8707  require(account != address(0), \"ERC20: mint to the zero address\") */\n      tag_230\n      jumpi\n      mload(0x40)\n      shl(0xe5, 0x461bcd)\n      dup2\n      mstore\n        /* \"#utility.yul\":9542:9544   */\n      0x20\n        /* \"https://github.com/OpenZeppelin/openzeppelin-contracts/blob/master/contracts/token/ERC20/ERC20.sol\":8642:8707  require(account != address(0), \"ERC20: mint to the zero address\") */\n      0x04\n      dup3\n      add\n        /* \"#utility.yul\":9524:9545   */\n      mstore\n        /* \"#utility.yul\":9581:9583   */\n      0x1f\n        /* \"#utility.yul\":9561:9579   */\n      0x24\n      dup3\n      add\n        /* \"#utility.yul\":9554:9584   */\n      mstore\n        /* \"#utility.yul\":9620:9653   */\n      0x45524332303a206d696e7420746f20746865207a65726f206164647265737300\n        /* \"#utility.yul\":9600:9618   */\n      0x44\n      dup3\n      add\n        /* \"#utility.yul\":9593:9654   */\n      mstore\n        /* \"#utility.yul\":9671:9689   */\n      0x64\n      add\n        /* \"https://github.com/OpenZeppelin/openzeppelin-contracts/blob/master/contracts/token/ERC20/ERC20.sol\":8642:8707  require(account != address(0), \"ERC20: mint to the zero address\") */\n      tag_135\n        /* \"#utility.yul\":9340:9695   */\n      jump\n        /* \"https://github.com/OpenZeppelin/openzeppelin-contracts/blob/master/contracts/token/ERC20/ERC20.sol\":8642:8707  require(account != address(0), \"ERC20: mint to the zero address\") */\n    tag_230:\n        /* \"https://github.com/OpenZeppelin/openzeppelin-contracts/blob/master/contracts/token/ERC20/ERC20.sol\":8794:8800  amount */\n      dup1\n        /* \"https://github.com/OpenZeppelin/openzeppelin-contracts/blob/master/contracts/token/ERC20/ERC20.sol\":8778:8790  _totalSupply */\n      0x02\n      0x00\n        /* \"https://github.com/OpenZeppelin/openzeppelin-contracts/blob/master/contracts/token/ERC20/ERC20.sol\":8778:8800  _totalSupply += amount */\n      dup3\n      dup3\n      sload\n      tag_234\n      swap2\n      swap1\n      tag_132\n      jump\t// in\n    tag_234:\n      swap1\n      swap2\n      sstore\n      pop\n      pop\n      sub(shl(0xa0, 0x01), 0x01)\n        /* \"https://github.com/OpenZeppelin/openzeppelin-contracts/blob/master/contracts/token/ERC20/ERC20.sol\":8946:8964  _balances[account] */\n      dup3\n      and\n        /* \"https://github.com/OpenZeppelin/openzeppelin-contracts/blob/master/contracts/token/ERC20/ERC20.sol\":8946:8955  _balances */\n      0x00\n        /* \"https://github.com/OpenZeppelin/openzeppelin-contracts/blob/master/contracts/token/ERC20/ERC20.sol\":8946:8964  _balances[account] */\n      dup2\n      dup2\n      mstore\n      0x20\n      dup2\n      dup2\n      mstore\n      0x40\n      dup1\n      dup4\n      keccak256\n        /* \"https://github.com/OpenZeppelin/openzeppelin-contracts/blob/master/contracts/token/ERC20/ERC20.sol\":8946:8974  _balances[account] += amount */\n      dup1\n      sload\n      dup7\n      add\n      swap1\n      sstore\n        /* \"https://github.com/OpenZeppelin/openzeppelin-contracts/blob/master/contracts/token/ERC20/ERC20.sol\":8999:9036  Transfer(address(0), account, amount) */\n      mload\n        /* \"#utility.yul\":1714:1739   */\n      dup5\n      dup2\n      mstore\n        /* \"https://github.com/OpenZeppelin/openzeppelin-contracts/blob/master/contracts/token/ERC20/ERC20.sol\":8999:9036  Transfer(address(0), account, amount) */\n      0xddf252ad1be2c89b69c2b068fc378daa952ba7f163c4a11628f55a4df523b3ef\n      swap2\n        /* \"#utility.yul\":1687:1705   */\n      add\n        /* \"https://github.com/OpenZeppelin/openzeppelin-contracts/blob/master/contracts/token/ERC20/ERC20.sol\":8999:9036  Transfer(address(0), account, amount) */\n      mload(0x40)\n      dup1\n      swap2\n      sub\n      swap1\n      log3\n        /* \"Upgradable E1P 1822/Implementation1.sol\":1096:1192  function mintToken(uint amount, address _to) public onlyOwner {... */\n      pop\n      pop\n      jump\t// out\n    tag_161:\n      dup3\n      dup1\n      sload\n      tag_239\n      swap1\n      tag_108\n      jump\t// in\n    tag_239:\n      swap1\n      0x00\n      mstore\n      keccak256(0x00, 0x20)\n      swap1\n      0x1f\n      add\n      0x20\n      swap1\n      div\n      dup2\n      add\n      swap3\n      dup3\n      tag_241\n      jumpi\n      0x00\n      dup6\n      sstore\n      jump(tag_244)\n    tag_241:\n      dup3\n      0x1f\n      lt\n      tag_242\n      jumpi\n      dup1\n      mload\n      not(0xff)\n      and\n      dup4\n      dup1\n      add\n      or\n      dup6\n      sstore\n      jump(tag_244)\n    tag_242:\n      dup3\n      dup1\n      add\n      0x01\n      add\n      dup6\n      sstore\n      dup3\n      iszero\n      tag_244\n      jumpi\n      swap2\n      dup3\n      add\n    tag_243:\n      dup3\n      dup2\n      gt\n      iszero\n      tag_244\n      jumpi\n      dup3\n      mload\n      dup3\n      sstore\n      swap2\n      0x20\n      add\n      swap2\n      swap1\n      0x01\n      add\n      swap1\n      jump(tag_243)\n    tag_244:\n      pop\n      tag_245\n      swap3\n      swap2\n      pop\n      tag_246\n      jump\t// in\n    tag_245:\n      pop\n      swap1\n      jump\t// out\n    tag_246:\n    tag_247:\n      dup1\n      dup3\n      gt\n      iszero\n      tag_245\n      jumpi\n      0x00\n      dup2\n      sstore\n      0x01\n      add\n      jump(tag_247)\n        /* \"#utility.yul\":14:486   */\n    tag_249:\n        /* \"#utility.yul\":56:59   */\n      0x00\n        /* \"#utility.yul\":94:99   */\n      dup2\n        /* \"#utility.yul\":88:100   */\n      mload\n        /* \"#utility.yul\":121:127   */\n      dup1\n        /* \"#utility.yul\":116:119   */\n      dup5\n        /* \"#utility.yul\":109:128   */\n      mstore\n        /* \"#utility.yul\":146:147   */\n      0x00\n        /* \"#utility.yul\":156:318   */\n    tag_254:\n        /* \"#utility.yul\":170:176   */\n      dup2\n        /* \"#utility.yul\":167:168   */\n      dup2\n        /* \"#utility.yul\":164:177   */\n      lt\n        /* \"#utility.yul\":156:318   */\n      iszero\n      tag_256\n      jumpi\n        /* \"#utility.yul\":232:236   */\n      0x20\n        /* \"#utility.yul\":288:301   */\n      dup2\n      dup6\n      add\n        /* \"#utility.yul\":284:306   */\n      dup2\n      add\n        /* \"#utility.yul\":278:307   */\n      mload\n        /* \"#utility.yul\":260:271   */\n      dup7\n      dup4\n      add\n        /* \"#utility.yul\":256:276   */\n      dup3\n      add\n        /* \"#utility.yul\":249:308   */\n      mstore\n        /* \"#utility.yul\":185:197   */\n      add\n        /* \"#utility.yul\":156:318   */\n      jump(tag_254)\n    tag_256:\n        /* \"#utility.yul\":336:342   */\n      dup2\n        /* \"#utility.yul\":333:334   */\n      dup2\n        /* \"#utility.yul\":330:343   */\n      gt\n        /* \"#utility.yul\":327:414   */\n      iszero\n      tag_257\n      jumpi\n        /* \"#utility.yul\":402:403   */\n      0x00\n        /* \"#utility.yul\":395:399   */\n      0x20\n        /* \"#utility.yul\":386:392   */\n      dup4\n        /* \"#utility.yul\":381:384   */\n      dup8\n        /* \"#utility.yul\":377:393   */\n      add\n        /* \"#utility.yul\":373:400   */\n      add\n        /* \"#utility.yul\":366:404   */\n      mstore\n        /* \"#utility.yul\":327:414   */\n    tag_257:\n      pop\n        /* \"#utility.yul\":468:470   */\n      0x1f\n        /* \"#utility.yul\":447:462   */\n      add\n      not(0x1f)\n        /* \"#utility.yul\":443:472   */\n      and\n        /* \"#utility.yul\":434:473   */\n      swap3\n      swap1\n      swap3\n      add\n        /* \"#utility.yul\":475:479   */\n      0x20\n        /* \"#utility.yul\":430:480   */\n      add\n      swap3\n        /* \"#utility.yul\":14:486   */\n      swap2\n      pop\n      pop\n      jump\t// out\n        /* \"#utility.yul\":491:711   */\n    tag_29:\n        /* \"#utility.yul\":640:642   */\n      0x20\n        /* \"#utility.yul\":629:638   */\n      dup2\n        /* \"#utility.yul\":622:643   */\n      mstore\n        /* \"#utility.yul\":603:607   */\n      0x00\n        /* \"#utility.yul\":660:705   */\n      tag_259\n        /* \"#utility.yul\":701:703   */\n      0x20\n        /* \"#utility.yul\":690:699   */\n      dup4\n        /* \"#utility.yul\":686:704   */\n      add\n        /* \"#utility.yul\":678:684   */\n      dup5\n        /* \"#utility.yul\":660:705   */\n      tag_249\n      jump\t// in\n    tag_259:\n        /* \"#utility.yul\":652:705   */\n      swap4\n        /* \"#utility.yul\":491:711   */\n      swap3\n      pop\n      pop\n      pop\n      jump\t// out\n        /* \"#utility.yul\":716:889   */\n    tag_250:\n        /* \"#utility.yul\":784:804   */\n      dup1\n      calldataload\n      sub(shl(0xa0, 0x01), 0x01)\n        /* \"#utility.yul\":833:864   */\n      dup2\n      and\n        /* \"#utility.yul\":823:865   */\n      dup2\n      eq\n        /* \"#utility.yul\":813:883   */\n      tag_261\n      jumpi\n        /* \"#utility.yul\":879:880   */\n      0x00\n        /* \"#utility.yul\":876:877   */\n      dup1\n        /* \"#utility.yul\":869:881   */\n      revert\n        /* \"#utility.yul\":813:883   */\n    tag_261:\n        /* \"#utility.yul\":716:889   */\n      swap2\n      swap1\n      pop\n      jump\t// out\n        /* \"#utility.yul\":894:1148   */\n    tag_32:\n        /* \"#utility.yul\":962:968   */\n      0x00\n        /* \"#utility.yul\":970:976   */\n      dup1\n        /* \"#utility.yul\":1023:1025   */\n      0x40\n        /* \"#utility.yul\":1011:1020   */\n      dup4\n        /* \"#utility.yul\":1002:1009   */\n      dup6\n        /* \"#utility.yul\":998:1021   */\n      sub\n        /* \"#utility.yul\":994:1026   */\n      slt\n        /* \"#utility.yul\":991:1043   */\n      iszero\n      tag_263\n      jumpi\n        /* \"#utility.yul\":1039:1040   */\n      0x00\n        /* \"#utility.yul\":1036:1037   */\n      dup1\n        /* \"#utility.yul\":1029:1041   */\n      revert\n        /* \"#utility.yul\":991:1043   */\n    tag_263:\n        /* \"#utility.yul\":1062:1091   */\n      tag_264\n        /* \"#utility.yul\":1081:1090   */\n      dup4\n        /* \"#utility.yul\":1062:1091   */\n      tag_250\n      jump\t// in\n    tag_264:\n        /* \"#utility.yul\":1052:1091   */\n      swap5\n        /* \"#utility.yul\":1138:1140   */\n      0x20\n        /* \"#utility.yul\":1123:1141   */\n      swap4\n      swap1\n      swap4\n      add\n        /* \"#utility.yul\":1110:1142   */\n      calldataload\n      swap4\n      pop\n      pop\n      pop\n        /* \"#utility.yul\":894:1148   */\n      jump\t// out\n        /* \"#utility.yul\":1750:2078   */\n    tag_49:\n        /* \"#utility.yul\":1827:1833   */\n      0x00\n        /* \"#utility.yul\":1835:1841   */\n      dup1\n        /* \"#utility.yul\":1843:1849   */\n      0x00\n        /* \"#utility.yul\":1896:1898   */\n      0x60\n        /* \"#utility.yul\":1884:1893   */\n      dup5\n        /* \"#utility.yul\":1875:1882   */\n      dup7\n        /* \"#utility.yul\":1871:1894   */\n      sub\n        /* \"#utility.yul\":1867:1899   */\n      slt\n        /* \"#utility.yul\":1864:1916   */\n      iszero\n      tag_270\n      jumpi\n        /* \"#utility.yul\":1912:1913   */\n      0x00\n        /* \"#utility.yul\":1909:1910   */\n      dup1\n        /* \"#utility.yul\":1902:1914   */\n      revert\n        /* \"#utility.yul\":1864:1916   */\n    tag_270:\n        /* \"#utility.yul\":1935:1964   */\n      tag_271\n        /* \"#utility.yul\":1954:1963   */\n      dup5\n        /* \"#utility.yul\":1935:1964   */\n      tag_250\n      jump\t// in\n    tag_271:\n        /* \"#utility.yul\":1925:1964   */\n      swap3\n      pop\n        /* \"#utility.yul\":1983:2021   */\n      tag_272\n        /* \"#utility.yul\":2017:2019   */\n      0x20\n        /* \"#utility.yul\":2006:2015   */\n      dup6\n        /* \"#utility.yul\":2002:2020   */\n      add\n        /* \"#utility.yul\":1983:2021   */\n      tag_250\n      jump\t// in\n    tag_272:\n        /* \"#utility.yul\":1973:2021   */\n      swap2\n      pop\n        /* \"#utility.yul\":2068:2070   */\n      0x40\n        /* \"#utility.yul\":2057:2066   */\n      dup5\n        /* \"#utility.yul\":2053:2071   */\n      add\n        /* \"#utility.yul\":2040:2072   */\n      calldataload\n        /* \"#utility.yul\":2030:2072   */\n      swap1\n      pop\n        /* \"#utility.yul\":1750:2078   */\n      swap3\n      pop\n      swap3\n      pop\n      swap3\n      jump\t// out\n        /* \"#utility.yul\":2272:2458   */\n    tag_62:\n        /* \"#utility.yul\":2331:2337   */\n      0x00\n        /* \"#utility.yul\":2384:2386   */\n      0x20\n        /* \"#utility.yul\":2372:2381   */\n      dup3\n        /* \"#utility.yul\":2363:2370   */\n      dup5\n        /* \"#utility.yul\":2359:2382   */\n      sub\n        /* \"#utility.yul\":2355:2387   */\n      slt\n        /* \"#utility.yul\":2352:2404   */\n      iszero\n      tag_275\n      jumpi\n        /* \"#utility.yul\":2400:2401   */\n      0x00\n        /* \"#utility.yul\":2397:2398   */\n      dup1\n        /* \"#utility.yul\":2390:2402   */\n      revert\n        /* \"#utility.yul\":2352:2404   */\n    tag_275:\n        /* \"#utility.yul\":2423:2452   */\n      tag_259\n        /* \"#utility.yul\":2442:2451   */\n      dup3\n        /* \"#utility.yul\":2423:2452   */\n      tag_250\n      jump\t// in\n        /* \"#utility.yul\":2853:3107   */\n    tag_86:\n        /* \"#utility.yul\":2921:2927   */\n      0x00\n        /* \"#utility.yul\":2929:2935   */\n      dup1\n        /* \"#utility.yul\":2982:2984   */\n      0x40\n        /* \"#utility.yul\":2970:2979   */\n      dup4\n        /* \"#utility.yul\":2961:2968   */\n      dup6\n        /* \"#utility.yul\":2957:2980   */\n      sub\n        /* \"#utility.yul\":2953:2985   */\n      slt\n        /* \"#utility.yul\":2950:3002   */\n      iszero\n      tag_280\n      jumpi\n        /* \"#utility.yul\":2998:2999   */\n      0x00\n        /* \"#utility.yul\":2995:2996   */\n      dup1\n        /* \"#utility.yul\":2988:3000   */\n      revert\n        /* \"#utility.yul\":2950:3002   */\n    tag_280:\n        /* \"#utility.yul\":3034:3043   */\n      dup3\n        /* \"#utility.yul\":3021:3044   */\n      calldataload\n        /* \"#utility.yul\":3011:3044   */\n      swap2\n      pop\n        /* \"#utility.yul\":3063:3101   */\n      tag_281\n        /* \"#utility.yul\":3097:3099   */\n      0x20\n        /* \"#utility.yul\":3086:3095   */\n      dup5\n        /* \"#utility.yul\":3082:3100   */\n      add\n        /* \"#utility.yul\":3063:3101   */\n      tag_250\n      jump\t// in\n    tag_281:\n        /* \"#utility.yul\":3053:3101   */\n      swap1\n      pop\n        /* \"#utility.yul\":2853:3107   */\n      swap3\n      pop\n      swap3\n      swap1\n      pop\n      jump\t// out\n        /* \"#utility.yul\":3112:3292   */\n    tag_98:\n        /* \"#utility.yul\":3171:3177   */\n      0x00\n        /* \"#utility.yul\":3224:3226   */\n      0x20\n        /* \"#utility.yul\":3212:3221   */\n      dup3\n        /* \"#utility.yul\":3203:3210   */\n      dup5\n        /* \"#utility.yul\":3199:3222   */\n      sub\n        /* \"#utility.yul\":3195:3227   */\n      slt\n        /* \"#utility.yul\":3192:3244   */\n      iszero\n      tag_283\n      jumpi\n        /* \"#utility.yul\":3240:3241   */\n      0x00\n        /* \"#utility.yul\":3237:3238   */\n      dup1\n        /* \"#utility.yul\":3230:3242   */\n      revert\n        /* \"#utility.yul\":3192:3244   */\n    tag_283:\n      pop\n        /* \"#utility.yul\":3263:3286   */\n      calldataload\n      swap2\n        /* \"#utility.yul\":3112:3292   */\n      swap1\n      pop\n      jump\t// out\n        /* \"#utility.yul\":3297:3557   */\n    tag_103:\n        /* \"#utility.yul\":3365:3371   */\n      0x00\n        /* \"#utility.yul\":3373:3379   */\n      dup1\n        /* \"#utility.yul\":3426:3428   */\n      0x40\n        /* \"#utility.yul\":3414:3423   */\n      dup4\n        /* \"#utility.yul\":3405:3412   */\n      dup6\n        /* \"#utility.yul\":3401:3424   */\n      sub\n        /* \"#utility.yul\":3397:3429   */\n      slt\n        /* \"#utility.yul\":3394:3446   */\n      iszero\n      tag_285\n      jumpi\n        /* \"#utility.yul\":3442:3443   */\n      0x00\n        /* \"#utility.yul\":3439:3440   */\n      dup1\n        /* \"#utility.yul\":3432:3444   */\n      revert\n        /* \"#utility.yul\":3394:3446   */\n    tag_285:\n        /* \"#utility.yul\":3465:3494   */\n      tag_286\n        /* \"#utility.yul\":3484:3493   */\n      dup4\n        /* \"#utility.yul\":3465:3494   */\n      tag_250\n      jump\t// in\n    tag_286:\n        /* \"#utility.yul\":3455:3494   */\n      swap2\n      pop\n        /* \"#utility.yul\":3513:3551   */\n      tag_281\n        /* \"#utility.yul\":3547:3549   */\n      0x20\n        /* \"#utility.yul\":3536:3545   */\n      dup5\n        /* \"#utility.yul\":3532:3550   */\n      add\n        /* \"#utility.yul\":3513:3551   */\n      tag_250\n      jump\t// in\n        /* \"#utility.yul\":3562:3942   */\n    tag_108:\n        /* \"#utility.yul\":3641:3642   */\n      0x01\n        /* \"#utility.yul\":3637:3649   */\n      dup2\n      dup2\n      shr\n      swap1\n        /* \"#utility.yul\":3684:3696   */\n      dup3\n      and\n      dup1\n        /* \"#utility.yul\":3705:3766   */\n      tag_289\n      jumpi\n        /* \"#utility.yul\":3759:3763   */\n      0x7f\n        /* \"#utility.yul\":3751:3757   */\n      dup3\n        /* \"#utility.yul\":3747:3764   */\n      and\n        /* \"#utility.yul\":3737:3764   */\n      swap2\n      pop\n        /* \"#utility.yul\":3705:3766   */\n    tag_289:\n        /* \"#utility.yul\":3812:3814   */\n      0x20\n        /* \"#utility.yul\":3804:3810   */\n      dup3\n        /* \"#utility.yul\":3801:3815   */\n      lt\n        /* \"#utility.yul\":3781:3799   */\n      dup2\n        /* \"#utility.yul\":3778:3816   */\n      eq\n        /* \"#utility.yul\":3775:3936   */\n      iszero\n      tag_290\n      jumpi\n        /* \"#utility.yul\":3858:3868   */\n      0x4e487b71\n        /* \"#utility.yul\":3853:3856   */\n      0xe0\n        /* \"#utility.yul\":3849:3869   */\n      shl\n        /* \"#utility.yul\":3846:3847   */\n      0x00\n        /* \"#utility.yul\":3839:3870   */\n      mstore\n        /* \"#utility.yul\":3893:3897   */\n      0x22\n        /* \"#utility.yul\":3890:3891   */\n      0x04\n        /* \"#utility.yul\":3883:3898   */\n      mstore\n        /* \"#utility.yul\":3921:3925   */\n      0x24\n        /* \"#utility.yul\":3918:3919   */\n      0x00\n        /* \"#utility.yul\":3911:3926   */\n      revert\n        /* \"#utility.yul\":3775:3936   */\n    tag_290:\n      pop\n        /* \"#utility.yul\":3562:3942   */\n      swap2\n      swap1\n      pop\n      jump\t// out\n        /* \"#utility.yul\":3947:4074   */\n    tag_251:\n        /* \"#utility.yul\":4008:4018   */\n      0x4e487b71\n        /* \"#utility.yul\":4003:4006   */\n      0xe0\n        /* \"#utility.yul\":3999:4019   */\n      shl\n        /* \"#utility.yul\":3996:3997   */\n      0x00\n        /* \"#utility.yul\":3989:4020   */\n      mstore\n        /* \"#utility.yul\":4039:4043   */\n      0x11\n        /* \"#utility.yul\":4036:4037   */\n      0x04\n        /* \"#utility.yul\":4029:4044   */\n      mstore\n        /* \"#utility.yul\":4063:4067   */\n      0x24\n        /* \"#utility.yul\":4060:4061   */\n      0x00\n        /* \"#utility.yul\":4053:4068   */\n      revert\n        /* \"#utility.yul\":4079:4207   */\n    tag_132:\n        /* \"#utility.yul\":4119:4122   */\n      0x00\n        /* \"#utility.yul\":4150:4151   */\n      dup3\n        /* \"#utility.yul\":4146:4152   */\n      not\n        /* \"#utility.yul\":4143:4144   */\n      dup3\n        /* \"#utility.yul\":4140:4153   */\n      gt\n        /* \"#utility.yul\":4137:4176   */\n      iszero\n      tag_294\n      jumpi\n        /* \"#utility.yul\":4156:4174   */\n      tag_294\n      tag_251\n      jump\t// in\n    tag_294:\n      pop\n        /* \"#utility.yul\":4192:4201   */\n      add\n      swap1\n        /* \"#utility.yul\":4079:4207   */\n      jump\t// out\n        /* \"#utility.yul\":4212:4565   */\n    tag_136:\n        /* \"#utility.yul\":4414:4416   */\n      0x20\n        /* \"#utility.yul\":4396:4417   */\n      dup1\n      dup3\n      mstore\n        /* \"#utility.yul\":4453:4455   */\n      0x1d\n        /* \"#utility.yul\":4433:4451   */\n      swap1\n      dup3\n      add\n        /* \"#utility.yul\":4426:4456   */\n      mstore\n        /* \"#utility.yul\":4492:4523   */\n      0x4e6f207065726d697373696f6e2065786365707420746f206f776e6572000000\n        /* \"#utility.yul\":4487:4489   */\n      0x40\n        /* \"#utility.yul\":4472:4490   */\n      dup3\n      add\n        /* \"#utility.yul\":4465:4524   */\n      mstore\n        /* \"#utility.yul\":4556:4558   */\n      0x60\n        /* \"#utility.yul\":4541:4559   */\n      add\n      swap1\n        /* \"#utility.yul\":4212:4565   */\n      jump\t// out\n        /* \"#utility.yul\":6030:6198   */\n    tag_186:\n        /* \"#utility.yul\":6070:6077   */\n      0x00\n        /* \"#utility.yul\":6136:6137   */\n      dup2\n        /* \"#utility.yul\":6132:6133   */\n      0x00\n        /* \"#utility.yul\":6128:6134   */\n      not\n        /* \"#utility.yul\":6124:6138   */\n      div\n        /* \"#utility.yul\":6121:6122   */\n      dup4\n        /* \"#utility.yul\":6118:6139   */\n      gt\n        /* \"#utility.yul\":6113:6114   */\n      dup3\n        /* \"#utility.yul\":6106:6115   */\n      iszero\n        /* \"#utility.yul\":6099:6116   */\n      iszero\n        /* \"#utility.yul\":6095:6140   */\n      and\n        /* \"#utility.yul\":6092:6163   */\n      iszero\n      tag_302\n      jumpi\n        /* \"#utility.yul\":6143:6161   */\n      tag_302\n      tag_251\n      jump\t// in\n    tag_302:\n      pop\n        /* \"#utility.yul\":6183:6192   */\n      mul\n      swap1\n        /* \"#utility.yul\":6030:6198   */\n      jump\t// out\n        /* \"#utility.yul\":6203:6420   */\n    tag_188:\n        /* \"#utility.yul\":6243:6244   */\n      0x00\n        /* \"#utility.yul\":6269:6270   */\n      dup3\n        /* \"#utility.yul\":6259:6391   */\n      tag_304\n      jumpi\n        /* \"#utility.yul\":6313:6323   */\n      0x4e487b71\n        /* \"#utility.yul\":6308:6311   */\n      0xe0\n        /* \"#utility.yul\":6304:6324   */\n      shl\n        /* \"#utility.yul\":6301:6302   */\n      0x00\n        /* \"#utility.yul\":6294:6325   */\n      mstore\n        /* \"#utility.yul\":6348:6352   */\n      0x12\n        /* \"#utility.yul\":6345:6346   */\n      0x04\n        /* \"#utility.yul\":6338:6353   */\n      mstore\n        /* \"#utility.yul\":6376:6380   */\n      0x24\n        /* \"#utility.yul\":6373:6374   */\n      0x00\n        /* \"#utility.yul\":6366:6381   */\n      revert\n        /* \"#utility.yul\":6259:6391   */\n    tag_304:\n      pop\n        /* \"#utility.yul\":6405:6414   */\n      div\n      swap1\n        /* \"#utility.yul\":6203:6420   */\n      jump\t// out\n        /* \"#utility.yul\":8808:8992   */\n    tag_225:\n        /* \"#utility.yul\":8878:8884   */\n      0x00\n        /* \"#utility.yul\":8931:8933   */\n      0x20\n        /* \"#utility.yul\":8919:8928   */\n      dup3\n        /* \"#utility.yul\":8910:8917   */\n      dup5\n        /* \"#utility.yul\":8906:8929   */\n      sub\n        /* \"#utility.yul\":8902:8934   */\n      slt\n        /* \"#utility.yul\":8899:8951   */\n      iszero\n      tag_312\n      jumpi\n        /* \"#utility.yul\":8947:8948   */\n      0x00\n        /* \"#utility.yul\":8944:8945   */\n      dup1\n        /* \"#utility.yul\":8937:8949   */\n      revert\n        /* \"#utility.yul\":8899:8951   */\n    tag_312:\n      pop\n        /* \"#utility.yul\":8970:8986   */\n      mload\n      swap2\n        /* \"#utility.yul\":8808:8992   */\n      swap1\n      pop\n      jump\t// out\n\n    auxdata: 0xa2646970667358221220e067b21310abe85ffe1c8b426b3951d7288a4a9a470eb3710ca832a8e43a4bcb64736f6c634300080a0033\n}\n",
				"bytecode": {
					"linkReferences": {},
					"object": "60806040526005805460ff60a01b191690553480156200001e57600080fd5b50604080518082018252600881526722a4a816989c191960c11b6020808301918252835180850190945260048452634549504960e01b9084015281519192916200006b916003916200008a565b508051620000819060049060208401906200008a565b5050506200016d565b828054620000989062000130565b90600052602060002090601f016020900481019282620000bc576000855562000107565b82601f10620000d757805160ff191683800117855562000107565b8280016001018555821562000107579182015b8281111562000107578251825591602001919060010190620000ea565b506200011592915062000119565b5090565b5b808211156200011557600081556001016200011a565b600181811c908216806200014557607f821691505b602082108114156200016757634e487b7160e01b600052602260045260246000fd5b50919050565b610f3b806200017d6000396000f3fe608060405234801561001057600080fd5b506004361061012c5760003560e01c806370a08231116100ad578063a140ae2311610071578063a140ae23146102ae578063a457c2d7146102c1578063a9059cbb146102d4578063dc287c7e146102e7578063dd62ed3e146102fa57600080fd5b806370a082311461023757806376890c58146102605780638129fc1c146102735780638da5cb5b1461027b57806395d89b41146102a657600080fd5b806323b872dd116100f457806323b872dd146101c7578063313ce567146101da57806339509351146101e957806346951954146101fc57806352d1902d1461021157600080fd5b806306fdde0314610131578063095ea7b31461014f57806311d7fe4d14610172578063158ef93e146101a157806318160ddd146101b5575b600080fd5b61013961030d565b6040516101469190610ce5565b60405180910390f35b61016261015d366004610d1b565b61039f565b6040519015158152602001610146565b6101396040805160048152602481019091526020810180516001600160e01b031663204a7f0760e21b17905290565b60055461016290600160a01b900460ff1681565b6002545b604051908152602001610146565b6101626101d5366004610d45565b6103b7565b60405160128152602001610146565b6101626101f7366004610d1b565b6103db565b61020f61020a366004610d81565b6103fd565b005b7fc5f16f0fcc639fa48a6947836d9850f504798523bf8c9a3a87d5876cf622bcf76101b9565b6101b9610245366004610d81565b6001600160a01b031660009081526020819052604090205490565b61020f61026e366004610d1b565b61043c565b61020f610522565b60055461028e906001600160a01b031681565b6040516001600160a01b039091168152602001610146565b6101396105ff565b61020f6102bc366004610d9c565b61060e565b6101626102cf366004610d1b565b610646565b6101626102e2366004610d1b565b6106c1565b6101b96102f5366004610dc8565b6106cf565b6101b9610308366004610de1565b6106ee565b60606006805461031c90610e0b565b80601f016020809104026020016040519081016040528092919081815260200182805461034890610e0b565b80156103955780601f1061036a57610100808354040283529160200191610395565b820191906000526020600020905b81548152906001019060200180831161037857829003601f168201915b5050505050905090565b6000336103ad818585610719565b5060019392505050565b6000336103c585828561083d565b6103d08585856108b7565b506001949350505050565b6000336103ad8185856103ee83836106ee565b6103f89190610e5c565b610719565b6005546001600160a01b031633146104305760405162461bcd60e51b815260040161042790610e74565b60405180910390fd5b61043981610a5b565b50565b6005546001600160a01b031633146104665760405162461bcd60e51b815260040161042790610e74565b306000908152602081905260409020546001600160a01b0383166104cc5760405162461bcd60e51b815260206004820152601e60248201527f596f752063616e74207472616e7366657220746f2061646472657373203000006044820152606401610427565b818110156105125760405162461bcd60e51b8152602060048201526013602482015272496e73756666696369656e742066756e64732160681b6044820152606401610427565b61051d3084846108b7565b505050565b61053530683635c9adc5dea00000610b40565b6005546001600160a01b0316156105835760405162461bcd60e51b8152602060048201526012602482015271105b1c9958591e481a5b9a5d185b1a5e995960721b6044820152606401610427565b6005805460ff60a01b1933166001600160a81b031990911617600160a01b1790556040805180820190915260088082526722a4a816989c191960c11b60209092019182526105d391600691610bff565b50604080518082019091526004808252634549504960e01b602090920191825261043991600791610bff565b60606007805461031c90610e0b565b6005546001600160a01b031633146106385760405162461bcd60e51b815260040161042790610e74565b6106428183610b40565b5050565b6000338161065482866106ee565b9050838110156106b45760405162461bcd60e51b815260206004820152602560248201527f45524332303a2064656372656173656420616c6c6f77616e63652062656c6f77604482015264207a65726f60d81b6064820152608401610427565b6103d08286868403610719565b6000336103ad8185856108b7565b600060646106de83600a610eab565b6106e89190610eca565b92915050565b6001600160a01b03918216600090815260016020908152604080832093909416825291909152205490565b6001600160a01b03831661077b5760405162461bcd60e51b8152602060048201526024808201527f45524332303a20617070726f76652066726f6d20746865207a65726f206164646044820152637265737360e01b6064820152608401610427565b6001600160a01b0382166107dc5760405162461bcd60e51b815260206004820152602260248201527f45524332303a20617070726f766520746f20746865207a65726f206164647265604482015261737360f01b6064820152608401610427565b6001600160a01b0383811660008181526001602090815260408083209487168084529482529182902085905590518481527f8c5be1e5ebec7d5bd14f71427d1e84f3dd0314c0f7b2291e5b200ac8c7c3b925910160405180910390a3505050565b600061084984846106ee565b905060001981146108b157818110156108a45760405162461bcd60e51b815260206004820152601d60248201527f45524332303a20696e73756666696369656e7420616c6c6f77616e63650000006044820152606401610427565b6108b18484848403610719565b50505050565b6001600160a01b03831661091b5760405162461bcd60e51b815260206004820152602560248201527f45524332303a207472616e736665722066726f6d20746865207a65726f206164604482015264647265737360d81b6064820152608401610427565b6001600160a01b03821661097d5760405162461bcd60e51b815260206004820152602360248201527f45524332303a207472616e7366657220746f20746865207a65726f206164647260448201526265737360e81b6064820152608401610427565b6001600160a01b038316600090815260208190526040902054818110156109f55760405162461bcd60e51b815260206004820152602660248201527f45524332303a207472616e7366657220616d6f756e7420657863656564732062604482015265616c616e636560d01b6064820152608401610427565b6001600160a01b03848116600081815260208181526040808320878703905593871680835291849020805487019055925185815290927fddf252ad1be2c89b69c2b068fc378daa952ba7f163c4a11628f55a4df523b3ef910160405180910390a36108b1565b806001600160a01b03166352d1902d6040518163ffffffff1660e01b8152600401602060405180830381865afa158015610a99573d6000803e3d6000fd5b505050506040513d601f19601f82011682018060405250810190610abd9190610eec565b7fc5f16f0fcc639fa48a6947836d9850f504798523bf8c9a3a87d5876cf622bcf714610b1c5760405162461bcd60e51b815260206004820152600e60248201526d4e6f7420636f6d70617469626c6560901b6044820152606401610427565b7fc5f16f0fcc639fa48a6947836d9850f504798523bf8c9a3a87d5876cf622bcf755565b6001600160a01b038216610b965760405162461bcd60e51b815260206004820152601f60248201527f45524332303a206d696e7420746f20746865207a65726f2061646472657373006044820152606401610427565b8060026000828254610ba89190610e5c565b90915550506001600160a01b038216600081815260208181526040808320805486019055518481527fddf252ad1be2c89b69c2b068fc378daa952ba7f163c4a11628f55a4df523b3ef910160405180910390a35050565b828054610c0b90610e0b565b90600052602060002090601f016020900481019282610c2d5760008555610c73565b82601f10610c4657805160ff1916838001178555610c73565b82800160010185558215610c73579182015b82811115610c73578251825591602001919060010190610c58565b50610c7f929150610c83565b5090565b5b80821115610c7f5760008155600101610c84565b6000815180845260005b81811015610cbe57602081850181015186830182015201610ca2565b81811115610cd0576000602083870101525b50601f01601f19169290920160200192915050565b602081526000610cf86020830184610c98565b9392505050565b80356001600160a01b0381168114610d1657600080fd5b919050565b60008060408385031215610d2e57600080fd5b610d3783610cff565b946020939093013593505050565b600080600060608486031215610d5a57600080fd5b610d6384610cff565b9250610d7160208501610cff565b9150604084013590509250925092565b600060208284031215610d9357600080fd5b610cf882610cff565b60008060408385031215610daf57600080fd5b82359150610dbf60208401610cff565b90509250929050565b600060208284031215610dda57600080fd5b5035919050565b60008060408385031215610df457600080fd5b610dfd83610cff565b9150610dbf60208401610cff565b600181811c90821680610e1f57607f821691505b60208210811415610e4057634e487b7160e01b600052602260045260246000fd5b50919050565b634e487b7160e01b600052601160045260246000fd5b60008219821115610e6f57610e6f610e46565b500190565b6020808252601d908201527f4e6f207065726d697373696f6e2065786365707420746f206f776e6572000000604082015260600190565b6000816000190483118215151615610ec557610ec5610e46565b500290565b600082610ee757634e487b7160e01b600052601260045260246000fd5b500490565b600060208284031215610efe57600080fd5b505191905056fea2646970667358221220e067b21310abe85ffe1c8b426b3951d7288a4a9a470eb3710ca832a8e43a4bcb64736f6c634300080a0033",
					"opcodes": "PUSH1 0x80 PUSH1 0x40 MSTORE PUSH1 0x5 DUP1 SLOAD PUSH1 0xFF PUSH1 0xA0 SHL NOT AND SWAP1 SSTORE CALLVALUE DUP1 ISZERO PUSH3 0x1E JUMPI PUSH1 0x0 DUP1 REVERT JUMPDEST POP PUSH1 0x40 DUP1 MLOAD DUP1 DUP3 ADD DUP3 MSTORE PUSH1 0x8 DUP2 MSTORE PUSH8 0x22A4A816989C1919 PUSH1 0xC1 SHL PUSH1 0x20 DUP1 DUP4 ADD SWAP2 DUP3 MSTORE DUP4 MLOAD DUP1 DUP6 ADD SWAP1 SWAP5 MSTORE PUSH1 0x4 DUP5 MSTORE PUSH4 0x45495049 PUSH1 0xE0 SHL SWAP1 DUP5 ADD MSTORE DUP2 MLOAD SWAP2 SWAP3 SWAP2 PUSH3 0x6B SWAP2 PUSH1 0x3 SWAP2 PUSH3 0x8A JUMP JUMPDEST POP DUP1 MLOAD PUSH3 0x81 SWAP1 PUSH1 0x4 SWAP1 PUSH1 0x20 DUP5 ADD SWAP1 PUSH3 0x8A JUMP JUMPDEST POP POP POP PUSH3 0x16D JUMP JUMPDEST DUP3 DUP1 SLOAD PUSH3 0x98 SWAP1 PUSH3 0x130 JUMP JUMPDEST SWAP1 PUSH1 0x0 MSTORE PUSH1 0x20 PUSH1 0x0 KECCAK256 SWAP1 PUSH1 0x1F ADD PUSH1 0x20 SWAP1 DIV DUP2 ADD SWAP3 DUP3 PUSH3 0xBC JUMPI PUSH1 0x0 DUP6 SSTORE PUSH3 0x107 JUMP JUMPDEST DUP3 PUSH1 0x1F LT PUSH3 0xD7 JUMPI DUP1 MLOAD PUSH1 0xFF NOT AND DUP4 DUP1 ADD OR DUP6 SSTORE PUSH3 0x107 JUMP JUMPDEST DUP3 DUP1 ADD PUSH1 0x1 ADD DUP6 SSTORE DUP3 ISZERO PUSH3 0x107 JUMPI SWAP2 DUP3 ADD JUMPDEST DUP3 DUP2 GT ISZERO PUSH3 0x107 JUMPI DUP3 MLOAD DUP3 SSTORE SWAP2 PUSH1 0x20 ADD SWAP2 SWAP1 PUSH1 0x1 ADD SWAP1 PUSH3 0xEA JUMP JUMPDEST POP PUSH3 0x115 SWAP3 SWAP2 POP PUSH3 0x119 JUMP JUMPDEST POP SWAP1 JUMP JUMPDEST JUMPDEST DUP1 DUP3 GT ISZERO PUSH3 0x115 JUMPI PUSH1 0x0 DUP2 SSTORE PUSH1 0x1 ADD PUSH3 0x11A JUMP JUMPDEST PUSH1 0x1 DUP2 DUP2 SHR SWAP1 DUP3 AND DUP1 PUSH3 0x145 JUMPI PUSH1 0x7F DUP3 AND SWAP2 POP JUMPDEST PUSH1 0x20 DUP3 LT DUP2 EQ ISZERO PUSH3 0x167 JUMPI PUSH4 0x4E487B71 PUSH1 0xE0 SHL PUSH1 0x0 MSTORE PUSH1 0x22 PUSH1 0x4 MSTORE PUSH1 0x24 PUSH1 0x0 REVERT JUMPDEST POP SWAP2 SWAP1 POP JUMP JUMPDEST PUSH2 0xF3B DUP1 PUSH3 0x17D PUSH1 0x0 CODECOPY PUSH1 0x0 RETURN INVALID PUSH1 0x80 PUSH1 0x40 MSTORE CALLVALUE DUP1 ISZERO PUSH2 0x10 JUMPI PUSH1 0x0 DUP1 REVERT JUMPDEST POP PUSH1 0x4 CALLDATASIZE LT PUSH2 0x12C JUMPI PUSH1 0x0 CALLDATALOAD PUSH1 0xE0 SHR DUP1 PUSH4 0x70A08231 GT PUSH2 0xAD JUMPI DUP1 PUSH4 0xA140AE23 GT PUSH2 0x71 JUMPI DUP1 PUSH4 0xA140AE23 EQ PUSH2 0x2AE JUMPI DUP1 PUSH4 0xA457C2D7 EQ PUSH2 0x2C1 JUMPI DUP1 PUSH4 0xA9059CBB EQ PUSH2 0x2D4 JUMPI DUP1 PUSH4 0xDC287C7E EQ PUSH2 0x2E7 JUMPI DUP1 PUSH4 0xDD62ED3E EQ PUSH2 0x2FA JUMPI PUSH1 0x0 DUP1 REVERT JUMPDEST DUP1 PUSH4 0x70A08231 EQ PUSH2 0x237 JUMPI DUP1 PUSH4 0x76890C58 EQ PUSH2 0x260 JUMPI DUP1 PUSH4 0x8129FC1C EQ PUSH2 0x273 JUMPI DUP1 PUSH4 0x8DA5CB5B EQ PUSH2 0x27B JUMPI DUP1 PUSH4 0x95D89B41 EQ PUSH2 0x2A6 JUMPI PUSH1 0x0 DUP1 REVERT JUMPDEST DUP1 PUSH4 0x23B872DD GT PUSH2 0xF4 JUMPI DUP1 PUSH4 0x23B872DD EQ PUSH2 0x1C7 JUMPI DUP1 PUSH4 0x313CE567 EQ PUSH2 0x1DA JUMPI DUP1 PUSH4 0x39509351 EQ PUSH2 0x1E9 JUMPI DUP1 PUSH4 0x46951954 EQ PUSH2 0x1FC JUMPI DUP1 PUSH4 0x52D1902D EQ PUSH2 0x211 JUMPI PUSH1 0x0 DUP1 REVERT JUMPDEST DUP1 PUSH4 0x6FDDE03 EQ PUSH2 0x131 JUMPI DUP1 PUSH4 0x95EA7B3 EQ PUSH2 0x14F JUMPI DUP1 PUSH4 0x11D7FE4D EQ PUSH2 0x172 JUMPI DUP1 PUSH4 0x158EF93E EQ PUSH2 0x1A1 JUMPI DUP1 PUSH4 0x18160DDD EQ PUSH2 0x1B5 JUMPI JUMPDEST PUSH1 0x0 DUP1 REVERT JUMPDEST PUSH2 0x139 PUSH2 0x30D JUMP JUMPDEST PUSH1 0x40 MLOAD PUSH2 0x146 SWAP2 SWAP1 PUSH2 0xCE5 JUMP JUMPDEST PUSH1 0x40 MLOAD DUP1 SWAP2 SUB SWAP1 RETURN JUMPDEST PUSH2 0x162 PUSH2 0x15D CALLDATASIZE PUSH1 0x4 PUSH2 0xD1B JUMP JUMPDEST PUSH2 0x39F JUMP JUMPDEST PUSH1 0x40 MLOAD SWAP1 ISZERO ISZERO DUP2 MSTORE PUSH1 0x20 ADD PUSH2 0x146 JUMP JUMPDEST PUSH2 0x139 PUSH1 0x40 DUP1 MLOAD PUSH1 0x4 DUP2 MSTORE PUSH1 0x24 DUP2 ADD SWAP1 SWAP2 MSTORE PUSH1 0x20 DUP2 ADD DUP1 MLOAD PUSH1 0x1 PUSH1 0x1 PUSH1 0xE0 SHL SUB AND PUSH4 0x204A7F07 PUSH1 0xE2 SHL OR SWAP1 MSTORE SWAP1 JUMP JUMPDEST PUSH1 0x5 SLOAD PUSH2 0x162 SWAP1 PUSH1 0x1 PUSH1 0xA0 SHL SWAP1 DIV PUSH1 0xFF AND DUP2 JUMP JUMPDEST PUSH1 0x2 SLOAD JUMPDEST PUSH1 0x40 MLOAD SWAP1 DUP2 MSTORE PUSH1 0x20 ADD PUSH2 0x146 JUMP JUMPDEST PUSH2 0x162 PUSH2 0x1D5 CALLDATASIZE PUSH1 0x4 PUSH2 0xD45 JUMP JUMPDEST PUSH2 0x3B7 JUMP JUMPDEST PUSH1 0x40 MLOAD PUSH1 0x12 DUP2 MSTORE PUSH1 0x20 ADD PUSH2 0x146 JUMP JUMPDEST PUSH2 0x162 PUSH2 0x1F7 CALLDATASIZE PUSH1 0x4 PUSH2 0xD1B JUMP JUMPDEST PUSH2 0x3DB JUMP JUMPDEST PUSH2 0x20F PUSH2 0x20A CALLDATASIZE PUSH1 0x4 PUSH2 0xD81 JUMP JUMPDEST PUSH2 0x3FD JUMP JUMPDEST STOP JUMPDEST PUSH32 0xC5F16F0FCC639FA48A6947836D9850F504798523BF8C9A3A87D5876CF622BCF7 PUSH2 0x1B9 JUMP JUMPDEST PUSH2 0x1B9 PUSH2 0x245 CALLDATASIZE PUSH1 0x4 PUSH2 0xD81 JUMP JUMPDEST PUSH1 0x1 PUSH1 0x1 PUSH1 0xA0 SHL SUB AND PUSH1 0x0 SWAP1 DUP2 MSTORE PUSH1 0x20 DUP2 SWAP1 MSTORE PUSH1 0x40 SWAP1 KECCAK256 SLOAD SWAP1 JUMP JUMPDEST PUSH2 0x20F PUSH2 0x26E CALLDATASIZE PUSH1 0x4 PUSH2 0xD1B JUMP JUMPDEST PUSH2 0x43C JUMP JUMPDEST PUSH2 0x20F PUSH2 0x522 JUMP JUMPDEST PUSH1 0x5 SLOAD PUSH2 0x28E SWAP1 PUSH1 0x1 PUSH1 0x1 PUSH1 0xA0 SHL SUB AND DUP2 JUMP JUMPDEST PUSH1 0x40 MLOAD PUSH1 0x1 PUSH1 0x1 PUSH1 0xA0 SHL SUB SWAP1 SWAP2 AND DUP2 MSTORE PUSH1 0x20 ADD PUSH2 0x146 JUMP JUMPDEST PUSH2 0x139 PUSH2 0x5FF JUMP JUMPDEST PUSH2 0x20F PUSH2 0x2BC CALLDATASIZE PUSH1 0x4 PUSH2 0xD9C JUMP JUMPDEST PUSH2 0x60E JUMP JUMPDEST PUSH2 0x162 PUSH2 0x2CF CALLDATASIZE PUSH1 0x4 PUSH2 0xD1B JUMP JUMPDEST PUSH2 0x646 JUMP JUMPDEST PUSH2 0x162 PUSH2 0x2E2 CALLDATASIZE PUSH1 0x4 PUSH2 0xD1B JUMP JUMPDEST PUSH2 0x6C1 JUMP JUMPDEST PUSH2 0x1B9 PUSH2 0x2F5 CALLDATASIZE PUSH1 0x4 PUSH2 0xDC8 JUMP JUMPDEST PUSH2 0x6CF JUMP JUMPDEST PUSH2 0x1B9 PUSH2 0x308 CALLDATASIZE PUSH1 0x4 PUSH2 0xDE1 JUMP JUMPDEST PUSH2 0x6EE JUMP JUMPDEST PUSH1 0x60 PUSH1 0x6 DUP1 SLOAD PUSH2 0x31C SWAP1 PUSH2 0xE0B JUMP JUMPDEST DUP1 PUSH1 0x1F ADD PUSH1 0x20 DUP1 SWAP2 DIV MUL PUSH1 0x20 ADD PUSH1 0x40 MLOAD SWAP1 DUP2 ADD PUSH1 0x40 MSTORE DUP1 SWAP3 SWAP2 SWAP1 DUP2 DUP2 MSTORE PUSH1 0x20 ADD DUP3 DUP1 SLOAD PUSH2 0x348 SWAP1 PUSH2 0xE0B JUMP JUMPDEST DUP1 ISZERO PUSH2 0x395 JUMPI DUP1 PUSH1 0x1F LT PUSH2 0x36A JUMPI PUSH2 0x100 DUP1 DUP4 SLOAD DIV MUL DUP4 MSTORE SWAP2 PUSH1 0x20 ADD SWAP2 PUSH2 0x395 JUMP JUMPDEST DUP3 ADD SWAP2 SWAP1 PUSH1 0x0 MSTORE PUSH1 0x20 PUSH1 0x0 KECCAK256 SWAP1 JUMPDEST DUP2 SLOAD DUP2 MSTORE SWAP1 PUSH1 0x1 ADD SWAP1 PUSH1 0x20 ADD DUP1 DUP4 GT PUSH2 0x378 JUMPI DUP3 SWAP1 SUB PUSH1 0x1F AND DUP3 ADD SWAP2 JUMPDEST POP POP POP POP POP SWAP1 POP SWAP1 JUMP JUMPDEST PUSH1 0x0 CALLER PUSH2 0x3AD DUP2 DUP6 DUP6 PUSH2 0x719 JUMP JUMPDEST POP PUSH1 0x1 SWAP4 SWAP3 POP POP POP JUMP JUMPDEST PUSH1 0x0 CALLER PUSH2 0x3C5 DUP6 DUP3 DUP6 PUSH2 0x83D JUMP JUMPDEST PUSH2 0x3D0 DUP6 DUP6 DUP6 PUSH2 0x8B7 JUMP JUMPDEST POP PUSH1 0x1 SWAP5 SWAP4 POP POP POP POP JUMP JUMPDEST PUSH1 0x0 CALLER PUSH2 0x3AD DUP2 DUP6 DUP6 PUSH2 0x3EE DUP4 DUP4 PUSH2 0x6EE JUMP JUMPDEST PUSH2 0x3F8 SWAP2 SWAP1 PUSH2 0xE5C JUMP JUMPDEST PUSH2 0x719 JUMP JUMPDEST PUSH1 0x5 SLOAD PUSH1 0x1 PUSH1 0x1 PUSH1 0xA0 SHL SUB AND CALLER EQ PUSH2 0x430 JUMPI PUSH1 0x40 MLOAD PUSH3 0x461BCD PUSH1 0xE5 SHL DUP2 MSTORE PUSH1 0x4 ADD PUSH2 0x427 SWAP1 PUSH2 0xE74 JUMP JUMPDEST PUSH1 0x40 MLOAD DUP1 SWAP2 SUB SWAP1 REVERT JUMPDEST PUSH2 0x439 DUP2 PUSH2 0xA5B JUMP JUMPDEST POP JUMP JUMPDEST PUSH1 0x5 SLOAD PUSH1 0x1 PUSH1 0x1 PUSH1 0xA0 SHL SUB AND CALLER EQ PUSH2 0x466 JUMPI PUSH1 0x40 MLOAD PUSH3 0x461BCD PUSH1 0xE5 SHL DUP2 MSTORE PUSH1 0x4 ADD PUSH2 0x427 SWAP1 PUSH2 0xE74 JUMP JUMPDEST ADDRESS PUSH1 0x0 SWAP1 DUP2 MSTORE PUSH1 0x20 DUP2 SWAP1 MSTORE PUSH1 0x40 SWAP1 KECCAK256 SLOAD PUSH1 0x1 PUSH1 0x1 PUSH1 0xA0 SHL SUB DUP4 AND PUSH2 0x4CC JUMPI PUSH1 0x40 MLOAD PUSH3 0x461BCD PUSH1 0xE5 SHL DUP2 MSTORE PUSH1 0x20 PUSH1 0x4 DUP3 ADD MSTORE PUSH1 0x1E PUSH1 0x24 DUP3 ADD MSTORE PUSH32 0x596F752063616E74207472616E7366657220746F206164647265737320300000 PUSH1 0x44 DUP3 ADD MSTORE PUSH1 0x64 ADD PUSH2 0x427 JUMP JUMPDEST DUP2 DUP2 LT ISZERO PUSH2 0x512 JUMPI PUSH1 0x40 MLOAD PUSH3 0x461BCD PUSH1 0xE5 SHL DUP2 MSTORE PUSH1 0x20 PUSH1 0x4 DUP3 ADD MSTORE PUSH1 0x13 PUSH1 0x24 DUP3 ADD MSTORE PUSH19 0x496E73756666696369656E742066756E647321 PUSH1 0x68 SHL PUSH1 0x44 DUP3 ADD MSTORE PUSH1 0x64 ADD PUSH2 0x427 JUMP JUMPDEST PUSH2 0x51D ADDRESS DUP5 DUP5 PUSH2 0x8B7 JUMP JUMPDEST POP POP POP JUMP JUMPDEST PUSH2 0x535 ADDRESS PUSH9 0x3635C9ADC5DEA00000 PUSH2 0xB40 JUMP JUMPDEST PUSH1 0x5 SLOAD PUSH1 0x1 PUSH1 0x1 PUSH1 0xA0 SHL SUB AND ISZERO PUSH2 0x583 JUMPI PUSH1 0x40 MLOAD PUSH3 0x461BCD PUSH1 0xE5 SHL DUP2 MSTORE PUSH1 0x20 PUSH1 0x4 DUP3 ADD MSTORE PUSH1 0x12 PUSH1 0x24 DUP3 ADD MSTORE PUSH18 0x105B1C9958591E481A5B9A5D185B1A5E9959 PUSH1 0x72 SHL PUSH1 0x44 DUP3 ADD MSTORE PUSH1 0x64 ADD PUSH2 0x427 JUMP JUMPDEST PUSH1 0x5 DUP1 SLOAD PUSH1 0xFF PUSH1 0xA0 SHL NOT CALLER AND PUSH1 0x1 PUSH1 0x1 PUSH1 0xA8 SHL SUB NOT SWAP1 SWAP2 AND OR PUSH1 0x1 PUSH1 0xA0 SHL OR SWAP1 SSTORE PUSH1 0x40 DUP1 MLOAD DUP1 DUP3 ADD SWAP1 SWAP2 MSTORE PUSH1 0x8 DUP1 DUP3 MSTORE PUSH8 0x22A4A816989C1919 PUSH1 0xC1 SHL PUSH1 0x20 SWAP1 SWAP3 ADD SWAP2 DUP3 MSTORE PUSH2 0x5D3 SWAP2 PUSH1 0x6 SWAP2 PUSH2 0xBFF JUMP JUMPDEST POP PUSH1 0x40 DUP1 MLOAD DUP1 DUP3 ADD SWAP1 SWAP2 MSTORE PUSH1 0x4 DUP1 DUP3 MSTORE PUSH4 0x45495049 PUSH1 0xE0 SHL PUSH1 0x20 SWAP1 SWAP3 ADD SWAP2 DUP3 MSTORE PUSH2 0x439 SWAP2 PUSH1 0x7 SWAP2 PUSH2 0xBFF JUMP JUMPDEST PUSH1 0x60 PUSH1 0x7 DUP1 SLOAD PUSH2 0x31C SWAP1 PUSH2 0xE0B JUMP JUMPDEST PUSH1 0x5 SLOAD PUSH1 0x1 PUSH1 0x1 PUSH1 0xA0 SHL SUB AND CALLER EQ PUSH2 0x638 JUMPI PUSH1 0x40 MLOAD PUSH3 0x461BCD PUSH1 0xE5 SHL DUP2 MSTORE PUSH1 0x4 ADD PUSH2 0x427 SWAP1 PUSH2 0xE74 JUMP JUMPDEST PUSH2 0x642 DUP2 DUP4 PUSH2 0xB40 JUMP JUMPDEST POP POP JUMP JUMPDEST PUSH1 0x0 CALLER DUP2 PUSH2 0x654 DUP3 DUP7 PUSH2 0x6EE JUMP JUMPDEST SWAP1 POP DUP4 DUP2 LT ISZERO PUSH2 0x6B4 JUMPI PUSH1 0x40 MLOAD PUSH3 0x461BCD PUSH1 0xE5 SHL DUP2 MSTORE PUSH1 0x20 PUSH1 0x4 DUP3 ADD MSTORE PUSH1 0x25 PUSH1 0x24 DUP3 ADD MSTORE PUSH32 0x45524332303A2064656372656173656420616C6C6F77616E63652062656C6F77 PUSH1 0x44 DUP3 ADD MSTORE PUSH5 0x207A65726F PUSH1 0xD8 SHL PUSH1 0x64 DUP3 ADD MSTORE PUSH1 0x84 ADD PUSH2 0x427 JUMP JUMPDEST PUSH2 0x3D0 DUP3 DUP7 DUP7 DUP5 SUB PUSH2 0x719 JUMP JUMPDEST PUSH1 0x0 CALLER PUSH2 0x3AD DUP2 DUP6 DUP6 PUSH2 0x8B7 JUMP JUMPDEST PUSH1 0x0 PUSH1 0x64 PUSH2 0x6DE DUP4 PUSH1 0xA PUSH2 0xEAB JUMP JUMPDEST PUSH2 0x6E8 SWAP2 SWAP1 PUSH2 0xECA JUMP JUMPDEST SWAP3 SWAP2 POP POP JUMP JUMPDEST PUSH1 0x1 PUSH1 0x1 PUSH1 0xA0 SHL SUB SWAP2 DUP3 AND PUSH1 0x0 SWAP1 DUP2 MSTORE PUSH1 0x1 PUSH1 0x20 SWAP1 DUP2 MSTORE PUSH1 0x40 DUP1 DUP4 KECCAK256 SWAP4 SWAP1 SWAP5 AND DUP3 MSTORE SWAP2 SWAP1 SWAP2 MSTORE KECCAK256 SLOAD SWAP1 JUMP JUMPDEST PUSH1 0x1 PUSH1 0x1 PUSH1 0xA0 SHL SUB DUP4 AND PUSH2 0x77B JUMPI PUSH1 0x40 MLOAD PUSH3 0x461BCD PUSH1 0xE5 SHL DUP2 MSTORE PUSH1 0x20 PUSH1 0x4 DUP3 ADD MSTORE PUSH1 0x24 DUP1 DUP3 ADD MSTORE PUSH32 0x45524332303A20617070726F76652066726F6D20746865207A65726F20616464 PUSH1 0x44 DUP3 ADD MSTORE PUSH4 0x72657373 PUSH1 0xE0 SHL PUSH1 0x64 DUP3 ADD MSTORE PUSH1 0x84 ADD PUSH2 0x427 JUMP JUMPDEST PUSH1 0x1 PUSH1 0x1 PUSH1 0xA0 SHL SUB DUP3 AND PUSH2 0x7DC JUMPI PUSH1 0x40 MLOAD PUSH3 0x461BCD PUSH1 0xE5 SHL DUP2 MSTORE PUSH1 0x20 PUSH1 0x4 DUP3 ADD MSTORE PUSH1 0x22 PUSH1 0x24 DUP3 ADD MSTORE PUSH32 0x45524332303A20617070726F766520746F20746865207A65726F206164647265 PUSH1 0x44 DUP3 ADD MSTORE PUSH2 0x7373 PUSH1 0xF0 SHL PUSH1 0x64 DUP3 ADD MSTORE PUSH1 0x84 ADD PUSH2 0x427 JUMP JUMPDEST PUSH1 0x1 PUSH1 0x1 PUSH1 0xA0 SHL SUB DUP4 DUP2 AND PUSH1 0x0 DUP2 DUP2 MSTORE PUSH1 0x1 PUSH1 0x20 SWAP1 DUP2 MSTORE PUSH1 0x40 DUP1 DUP4 KECCAK256 SWAP5 DUP8 AND DUP1 DUP5 MSTORE SWAP5 DUP3 MSTORE SWAP2 DUP3 SWAP1 KECCAK256 DUP6 SWAP1 SSTORE SWAP1 MLOAD DUP5 DUP2 MSTORE PUSH32 0x8C5BE1E5EBEC7D5BD14F71427D1E84F3DD0314C0F7B2291E5B200AC8C7C3B925 SWAP2 ADD PUSH1 0x40 MLOAD DUP1 SWAP2 SUB SWAP1 LOG3 POP POP POP JUMP JUMPDEST PUSH1 0x0 PUSH2 0x849 DUP5 DUP5 PUSH2 0x6EE JUMP JUMPDEST SWAP1 POP PUSH1 0x0 NOT DUP2 EQ PUSH2 0x8B1 JUMPI DUP2 DUP2 LT ISZERO PUSH2 0x8A4 JUMPI PUSH1 0x40 MLOAD PUSH3 0x461BCD PUSH1 0xE5 SHL DUP2 MSTORE PUSH1 0x20 PUSH1 0x4 DUP3 ADD MSTORE PUSH1 0x1D PUSH1 0x24 DUP3 ADD MSTORE PUSH32 0x45524332303A20696E73756666696369656E7420616C6C6F77616E6365000000 PUSH1 0x44 DUP3 ADD MSTORE PUSH1 0x64 ADD PUSH2 0x427 JUMP JUMPDEST PUSH2 0x8B1 DUP5 DUP5 DUP5 DUP5 SUB PUSH2 0x719 JUMP JUMPDEST POP POP POP POP JUMP JUMPDEST PUSH1 0x1 PUSH1 0x1 PUSH1 0xA0 SHL SUB DUP4 AND PUSH2 0x91B JUMPI PUSH1 0x40 MLOAD PUSH3 0x461BCD PUSH1 0xE5 SHL DUP2 MSTORE PUSH1 0x20 PUSH1 0x4 DUP3 ADD MSTORE PUSH1 0x25 PUSH1 0x24 DUP3 ADD MSTORE PUSH32 0x45524332303A207472616E736665722066726F6D20746865207A65726F206164 PUSH1 0x44 DUP3 ADD MSTORE PUSH5 0x6472657373 PUSH1 0xD8 SHL PUSH1 0x64 DUP3 ADD MSTORE PUSH1 0x84 ADD PUSH2 0x427 JUMP JUMPDEST PUSH1 0x1 PUSH1 0x1 PUSH1 0xA0 SHL SUB DUP3 AND PUSH2 0x97D JUMPI PUSH1 0x40 MLOAD PUSH3 0x461BCD PUSH1 0xE5 SHL DUP2 MSTORE PUSH1 0x20 PUSH1 0x4 DUP3 ADD MSTORE PUSH1 0x23 PUSH1 0x24 DUP3 ADD MSTORE PUSH32 0x45524332303A207472616E7366657220746F20746865207A65726F2061646472 PUSH1 0x44 DUP3 ADD MSTORE PUSH3 0x657373 PUSH1 0xE8 SHL PUSH1 0x64 DUP3 ADD MSTORE PUSH1 0x84 ADD PUSH2 0x427 JUMP JUMPDEST PUSH1 0x1 PUSH1 0x1 PUSH1 0xA0 SHL SUB DUP4 AND PUSH1 0x0 SWAP1 DUP2 MSTORE PUSH1 0x20 DUP2 SWAP1 MSTORE PUSH1 0x40 SWAP1 KECCAK256 SLOAD DUP2 DUP2 LT ISZERO PUSH2 0x9F5 JUMPI PUSH1 0x40 MLOAD PUSH3 0x461BCD PUSH1 0xE5 SHL DUP2 MSTORE PUSH1 0x20 PUSH1 0x4 DUP3 ADD MSTORE PUSH1 0x26 PUSH1 0x24 DUP3 ADD MSTORE PUSH32 0x45524332303A207472616E7366657220616D6F756E7420657863656564732062 PUSH1 0x44 DUP3 ADD MSTORE PUSH6 0x616C616E6365 PUSH1 0xD0 SHL PUSH1 0x64 DUP3 ADD MSTORE PUSH1 0x84 ADD PUSH2 0x427 JUMP JUMPDEST PUSH1 0x1 PUSH1 0x1 PUSH1 0xA0 SHL SUB DUP5 DUP2 AND PUSH1 0x0 DUP2 DUP2 MSTORE PUSH1 0x20 DUP2 DUP2 MSTORE PUSH1 0x40 DUP1 DUP4 KECCAK256 DUP8 DUP8 SUB SWAP1 SSTORE SWAP4 DUP8 AND DUP1 DUP4 MSTORE SWAP2 DUP5 SWAP1 KECCAK256 DUP1 SLOAD DUP8 ADD SWAP1 SSTORE SWAP3 MLOAD DUP6 DUP2 MSTORE SWAP1 SWAP3 PUSH32 0xDDF252AD1BE2C89B69C2B068FC378DAA952BA7F163C4A11628F55A4DF523B3EF SWAP2 ADD PUSH1 0x40 MLOAD DUP1 SWAP2 SUB SWAP1 LOG3 PUSH2 0x8B1 JUMP JUMPDEST DUP1 PUSH1 0x1 PUSH1 0x1 PUSH1 0xA0 SHL SUB AND PUSH4 0x52D1902D PUSH1 0x40 MLOAD DUP2 PUSH4 0xFFFFFFFF AND PUSH1 0xE0 SHL DUP2 MSTORE PUSH1 0x4 ADD PUSH1 0x20 PUSH1 0x40 MLOAD DUP1 DUP4 SUB DUP2 DUP7 GAS STATICCALL ISZERO DUP1 ISZERO PUSH2 0xA99 JUMPI RETURNDATASIZE PUSH1 0x0 DUP1 RETURNDATACOPY RETURNDATASIZE PUSH1 0x0 REVERT JUMPDEST POP POP POP POP PUSH1 0x40 MLOAD RETURNDATASIZE PUSH1 0x1F NOT PUSH1 0x1F DUP3 ADD AND DUP3 ADD DUP1 PUSH1 0x40 MSTORE POP DUP2 ADD SWAP1 PUSH2 0xABD SWAP2 SWAP1 PUSH2 0xEEC JUMP JUMPDEST PUSH32 0xC5F16F0FCC639FA48A6947836D9850F504798523BF8C9A3A87D5876CF622BCF7 EQ PUSH2 0xB1C JUMPI PUSH1 0x40 MLOAD PUSH3 0x461BCD PUSH1 0xE5 SHL DUP2 MSTORE PUSH1 0x20 PUSH1 0x4 DUP3 ADD MSTORE PUSH1 0xE PUSH1 0x24 DUP3 ADD MSTORE PUSH14 0x4E6F7420636F6D70617469626C65 PUSH1 0x90 SHL PUSH1 0x44 DUP3 ADD MSTORE PUSH1 0x64 ADD PUSH2 0x427 JUMP JUMPDEST PUSH32 0xC5F16F0FCC639FA48A6947836D9850F504798523BF8C9A3A87D5876CF622BCF7 SSTORE JUMP JUMPDEST PUSH1 0x1 PUSH1 0x1 PUSH1 0xA0 SHL SUB DUP3 AND PUSH2 0xB96 JUMPI PUSH1 0x40 MLOAD PUSH3 0x461BCD PUSH1 0xE5 SHL DUP2 MSTORE PUSH1 0x20 PUSH1 0x4 DUP3 ADD MSTORE PUSH1 0x1F PUSH1 0x24 DUP3 ADD MSTORE PUSH32 0x45524332303A206D696E7420746F20746865207A65726F206164647265737300 PUSH1 0x44 DUP3 ADD MSTORE PUSH1 0x64 ADD PUSH2 0x427 JUMP JUMPDEST DUP1 PUSH1 0x2 PUSH1 0x0 DUP3 DUP3 SLOAD PUSH2 0xBA8 SWAP2 SWAP1 PUSH2 0xE5C JUMP JUMPDEST SWAP1 SWAP2 SSTORE POP POP PUSH1 0x1 PUSH1 0x1 PUSH1 0xA0 SHL SUB DUP3 AND PUSH1 0x0 DUP2 DUP2 MSTORE PUSH1 0x20 DUP2 DUP2 MSTORE PUSH1 0x40 DUP1 DUP4 KECCAK256 DUP1 SLOAD DUP7 ADD SWAP1 SSTORE MLOAD DUP5 DUP2 MSTORE PUSH32 0xDDF252AD1BE2C89B69C2B068FC378DAA952BA7F163C4A11628F55A4DF523B3EF SWAP2 ADD PUSH1 0x40 MLOAD DUP1 SWAP2 SUB SWAP1 LOG3 POP POP JUMP JUMPDEST DUP3 DUP1 SLOAD PUSH2 0xC0B SWAP1 PUSH2 0xE0B JUMP JUMPDEST SWAP1 PUSH1 0x0 MSTORE PUSH1 0x20 PUSH1 0x0 KECCAK256 SWAP1 PUSH1 0x1F ADD PUSH1 0x20 SWAP1 DIV DUP2 ADD SWAP3 DUP3 PUSH2 0xC2D JUMPI PUSH1 0x0 DUP6 SSTORE PUSH2 0xC73 JUMP JUMPDEST DUP3 PUSH1 0x1F LT PUSH2 0xC46 JUMPI DUP1 MLOAD PUSH1 0xFF NOT AND DUP4 DUP1 ADD OR DUP6 SSTORE PUSH2 0xC73 JUMP JUMPDEST DUP3 DUP1 ADD PUSH1 0x1 ADD DUP6 SSTORE DUP3 ISZERO PUSH2 0xC73 JUMPI SWAP2 DUP3 ADD JUMPDEST DUP3 DUP2 GT ISZERO PUSH2 0xC73 JUMPI DUP3 MLOAD DUP3 SSTORE SWAP2 PUSH1 0x20 ADD SWAP2 SWAP1 PUSH1 0x1 ADD SWAP1 PUSH2 0xC58 JUMP JUMPDEST POP PUSH2 0xC7F SWAP3 SWAP2 POP PUSH2 0xC83 JUMP JUMPDEST POP SWAP1 JUMP JUMPDEST JUMPDEST DUP1 DUP3 GT ISZERO PUSH2 0xC7F JUMPI PUSH1 0x0 DUP2 SSTORE PUSH1 0x1 ADD PUSH2 0xC84 JUMP JUMPDEST PUSH1 0x0 DUP2 MLOAD DUP1 DUP5 MSTORE PUSH1 0x0 JUMPDEST DUP2 DUP2 LT ISZERO PUSH2 0xCBE JUMPI PUSH1 0x20 DUP2 DUP6 ADD DUP2 ADD MLOAD DUP7 DUP4 ADD DUP3 ADD MSTORE ADD PUSH2 0xCA2 JUMP JUMPDEST DUP2 DUP2 GT ISZERO PUSH2 0xCD0 JUMPI PUSH1 0x0 PUSH1 0x20 DUP4 DUP8 ADD ADD MSTORE JUMPDEST POP PUSH1 0x1F ADD PUSH1 0x1F NOT AND SWAP3 SWAP1 SWAP3 ADD PUSH1 0x20 ADD SWAP3 SWAP2 POP POP JUMP JUMPDEST PUSH1 0x20 DUP2 MSTORE PUSH1 0x0 PUSH2 0xCF8 PUSH1 0x20 DUP4 ADD DUP5 PUSH2 0xC98 JUMP JUMPDEST SWAP4 SWAP3 POP POP POP JUMP JUMPDEST DUP1 CALLDATALOAD PUSH1 0x1 PUSH1 0x1 PUSH1 0xA0 SHL SUB DUP2 AND DUP2 EQ PUSH2 0xD16 JUMPI PUSH1 0x0 DUP1 REVERT JUMPDEST SWAP2 SWAP1 POP JUMP JUMPDEST PUSH1 0x0 DUP1 PUSH1 0x40 DUP4 DUP6 SUB SLT ISZERO PUSH2 0xD2E JUMPI PUSH1 0x0 DUP1 REVERT JUMPDEST PUSH2 0xD37 DUP4 PUSH2 0xCFF JUMP JUMPDEST SWAP5 PUSH1 0x20 SWAP4 SWAP1 SWAP4 ADD CALLDATALOAD SWAP4 POP POP POP JUMP JUMPDEST PUSH1 0x0 DUP1 PUSH1 0x0 PUSH1 0x60 DUP5 DUP7 SUB SLT ISZERO PUSH2 0xD5A JUMPI PUSH1 0x0 DUP1 REVERT JUMPDEST PUSH2 0xD63 DUP5 PUSH2 0xCFF JUMP JUMPDEST SWAP3 POP PUSH2 0xD71 PUSH1 0x20 DUP6 ADD PUSH2 0xCFF JUMP JUMPDEST SWAP2 POP PUSH1 0x40 DUP5 ADD CALLDATALOAD SWAP1 POP SWAP3 POP SWAP3 POP SWAP3 JUMP JUMPDEST PUSH1 0x0 PUSH1 0x20 DUP3 DUP5 SUB SLT ISZERO PUSH2 0xD93 JUMPI PUSH1 0x0 DUP1 REVERT JUMPDEST PUSH2 0xCF8 DUP3 PUSH2 0xCFF JUMP JUMPDEST PUSH1 0x0 DUP1 PUSH1 0x40 DUP4 DUP6 SUB SLT ISZERO PUSH2 0xDAF JUMPI PUSH1 0x0 DUP1 REVERT JUMPDEST DUP3 CALLDATALOAD SWAP2 POP PUSH2 0xDBF PUSH1 0x20 DUP5 ADD PUSH2 0xCFF JUMP JUMPDEST SWAP1 POP SWAP3 POP SWAP3 SWAP1 POP JUMP JUMPDEST PUSH1 0x0 PUSH1 0x20 DUP3 DUP5 SUB SLT ISZERO PUSH2 0xDDA JUMPI PUSH1 0x0 DUP1 REVERT JUMPDEST POP CALLDATALOAD SWAP2 SWAP1 POP JUMP JUMPDEST PUSH1 0x0 DUP1 PUSH1 0x40 DUP4 DUP6 SUB SLT ISZERO PUSH2 0xDF4 JUMPI PUSH1 0x0 DUP1 REVERT JUMPDEST PUSH2 0xDFD DUP4 PUSH2 0xCFF JUMP JUMPDEST SWAP2 POP PUSH2 0xDBF PUSH1 0x20 DUP5 ADD PUSH2 0xCFF JUMP JUMPDEST PUSH1 0x1 DUP2 DUP2 SHR SWAP1 DUP3 AND DUP1 PUSH2 0xE1F JUMPI PUSH1 0x7F DUP3 AND SWAP2 POP JUMPDEST PUSH1 0x20 DUP3 LT DUP2 EQ ISZERO PUSH2 0xE40 JUMPI PUSH4 0x4E487B71 PUSH1 0xE0 SHL PUSH1 0x0 MSTORE PUSH1 0x22 PUSH1 0x4 MSTORE PUSH1 0x24 PUSH1 0x0 REVERT JUMPDEST POP SWAP2 SWAP1 POP JUMP JUMPDEST PUSH4 0x4E487B71 PUSH1 0xE0 SHL PUSH1 0x0 MSTORE PUSH1 0x11 PUSH1 0x4 MSTORE PUSH1 0x24 PUSH1 0x0 REVERT JUMPDEST PUSH1 0x0 DUP3 NOT DUP3 GT ISZERO PUSH2 0xE6F JUMPI PUSH2 0xE6F PUSH2 0xE46 JUMP JUMPDEST POP ADD SWAP1 JUMP JUMPDEST PUSH1 0x20 DUP1 DUP3 MSTORE PUSH1 0x1D SWAP1 DUP3 ADD MSTORE PUSH32 0x4E6F207065726D697373696F6E2065786365707420746F206F776E6572000000 PUSH1 0x40 DUP3 ADD MSTORE PUSH1 0x60 ADD SWAP1 JUMP JUMPDEST PUSH1 0x0 DUP2 PUSH1 0x0 NOT DIV DUP4 GT DUP3 ISZERO ISZERO AND ISZERO PUSH2 0xEC5 JUMPI PUSH2 0xEC5 PUSH2 0xE46 JUMP JUMPDEST POP MUL SWAP1 JUMP JUMPDEST PUSH1 0x0 DUP3 PUSH2 0xEE7 JUMPI PUSH4 0x4E487B71 PUSH1 0xE0 SHL PUSH1 0x0 MSTORE PUSH1 0x12 PUSH1 0x4 MSTORE PUSH1 0x24 PUSH1 0x0 REVERT JUMPDEST POP DIV SWAP1 JUMP JUMPDEST PUSH1 0x0 PUSH1 0x20 DUP3 DUP5 SUB SLT ISZERO PUSH2 0xEFE JUMPI PUSH1 0x0 DUP1 REVERT JUMPDEST POP MLOAD SWAP2 SWAP1 POP JUMP INVALID LOG2 PUSH5 0x6970667358 0x22 SLT KECCAK256 0xE0 PUSH8 0xB21310ABE85FFE1C DUP12 TIMESTAMP PUSH12 0x3951D7288A4A9A470EB3710C 0xA8 ORIGIN 0xA8 0xE4 GASPRICE 0x4B 0xCB PUSH5 0x736F6C6343 STOP ADDMOD EXP STOP CALLER "
				},
				"gasEstimates": {
					"creation": {
						"codeDepositCost": "779800",
						"executionCost": "infinite",
						"totalCost": "infinite"
					},
					"external": {
						"allowance(address,address)": "infinite",
						"approve(address,uint256)": "24647",
						"balanceOf(address)": "2563",
						"calculateBurn(uint256)": "534",
						"decimals()": "222",
						"decreaseAllowance(address,uint256)": "26994",
						"encodeer()": "infinite",
						"increaseAllowance(address,uint256)": "27045",
						"initialize()": "infinite",
						"initialized()": "2417",
						"mintToken(uint256,address)": "52967",
						"name()": "infinite",
						"owner()": "2426",
						"proxiableUUID()": "303",
						"symbol()": "infinite",
						"totalSupply()": "2393",
						"transfer(address,uint256)": "51112",
						"transferFrom(address,address,uint256)": "infinite",
						"transferOut(address,uint256)": "55392",
						"updateCode(address)": "infinite"
					},
					"internal": {
						"_burn(uint256)": "infinite"
					}
				},
				"methodIdentifiers": {
					"allowance(address,address)": "dd62ed3e",
					"approve(address,uint256)": "095ea7b3",
					"balanceOf(address)": "70a08231",
					"calculateBurn(uint256)": "dc287c7e",
					"decimals()": "313ce567",
					"decreaseAllowance(address,uint256)": "a457c2d7",
					"encodeer()": "11d7fe4d",
					"increaseAllowance(address,uint256)": "39509351",
					"initialize()": "8129fc1c",
					"initialized()": "158ef93e",
					"mintToken(uint256,address)": "a140ae23",
					"name()": "06fdde03",
					"owner()": "8da5cb5b",
					"proxiableUUID()": "52d1902d",
					"symbol()": "95d89b41",
					"totalSupply()": "18160ddd",
					"transfer(address,uint256)": "a9059cbb",
					"transferFrom(address,address,uint256)": "23b872dd",
					"transferOut(address,uint256)": "76890c58",
					"updateCode(address)": "46951954"
				}
			},
			"storageLayout": {
				"storage": [
					{
						"astId": 250,
						"contract": "Upgradable E1P 1822/Implementation2.sol:Implementation2",
						"label": "_balances",
						"offset": 0,
						"slot": "0",
						"type": "t_mapping(t_address,t_uint256)"
					},
					{
						"astId": 256,
						"contract": "Upgradable E1P 1822/Implementation2.sol:Implementation2",
						"label": "_allowances",
						"offset": 0,
						"slot": "1",
						"type": "t_mapping(t_address,t_mapping(t_address,t_uint256))"
					},
					{
						"astId": 258,
						"contract": "Upgradable E1P 1822/Implementation2.sol:Implementation2",
						"label": "_totalSupply",
						"offset": 0,
						"slot": "2",
						"type": "t_uint256"
					},
					{
						"astId": 260,
						"contract": "Upgradable E1P 1822/Implementation2.sol:Implementation2",
						"label": "_name",
						"offset": 0,
						"slot": "3",
						"type": "t_string_storage"
					},
					{
						"astId": 262,
						"contract": "Upgradable E1P 1822/Implementation2.sol:Implementation2",
						"label": "_symbol",
						"offset": 0,
						"slot": "4",
						"type": "t_string_storage"
					},
					{
						"astId": 11,
						"contract": "Upgradable E1P 1822/Implementation2.sol:Implementation2",
						"label": "owner",
						"offset": 0,
						"slot": "5",
						"type": "t_address"
					},
					{
						"astId": 14,
						"contract": "Upgradable E1P 1822/Implementation2.sol:Implementation2",
						"label": "initialized",
						"offset": 20,
						"slot": "5",
						"type": "t_bool"
					},
					{
						"astId": 16,
						"contract": "Upgradable E1P 1822/Implementation2.sol:Implementation2",
						"label": "tokenName",
						"offset": 0,
						"slot": "6",
						"type": "t_string_storage"
					},
					{
						"astId": 18,
						"contract": "Upgradable E1P 1822/Implementation2.sol:Implementation2",
						"label": "tokenSymbol",
						"offset": 0,
						"slot": "7",
						"type": "t_string_storage"
					}
				],
				"types": {
					"t_address": {
						"encoding": "inplace",
						"label": "address",
						"numberOfBytes": "20"
					},
					"t_bool": {
						"encoding": "inplace",
						"label": "bool",
						"numberOfBytes": "1"
					},
					"t_mapping(t_address,t_mapping(t_address,t_uint256))": {
						"encoding": "mapping",
						"key": "t_address",
						"label": "mapping(address => mapping(address => uint256))",
						"numberOfBytes": "32",
						"value": "t_mapping(t_address,t_uint256)"
					},
					"t_mapping(t_address,t_uint256)": {
						"encoding": "mapping",
						"key": "t_address",
						"label": "mapping(address => uint256)",
						"numberOfBytes": "32",
						"value": "t_uint256"
					},
					"t_string_storage": {
						"encoding": "bytes",
						"label": "string",
						"numberOfBytes": "32"
					},
					"t_uint256": {
						"encoding": "inplace",
						"label": "uint256",
						"numberOfBytes": "32"
					}
				}
			},
			"userdoc": {
				"kind": "user",
				"methods": {},
				"version": 1
			}
		}
	}
}