{
	"Upgradable E1P 1822/Implementation2.sol": {
		"Implementation2": {
			"abi": [
				{
					"anonymous": false,
					"inputs": [
						{
							"indexed": false,
							"internalType": "address",
							"name": "from",
							"type": "address"
						},
						{
							"indexed": false,
							"internalType": "address",
							"name": "to",
							"type": "address"
						},
						{
							"indexed": false,
							"internalType": "uint256",
							"name": "amount",
							"type": "uint256"
						}
					],
					"name": "_transfer",
					"type": "event"
				},
				{
					"anonymous": false,
					"inputs": [
						{
							"indexed": false,
							"internalType": "address",
							"name": "_to",
							"type": "address"
						},
						{
							"indexed": false,
							"internalType": "uint256",
							"name": "amount",
							"type": "uint256"
						}
					],
					"name": "tokenMint",
					"type": "event"
				},
				{
					"inputs": [
						{
							"internalType": "address",
							"name": "",
							"type": "address"
						}
					],
					"name": "_balance",
					"outputs": [
						{
							"internalType": "uint256",
							"name": "",
							"type": "uint256"
						}
					],
					"stateMutability": "view",
					"type": "function"
				},
				{
					"inputs": [],
					"name": "_decimal",
					"outputs": [
						{
							"internalType": "uint256",
							"name": "",
							"type": "uint256"
						}
					],
					"stateMutability": "pure",
					"type": "function"
				},
				{
					"inputs": [],
					"name": "_name",
					"outputs": [
						{
							"internalType": "string",
							"name": "",
							"type": "string"
						}
					],
					"stateMutability": "pure",
					"type": "function"
				},
				{
					"inputs": [],
					"name": "_symbol",
					"outputs": [
						{
							"internalType": "string",
							"name": "",
							"type": "string"
						}
					],
					"stateMutability": "pure",
					"type": "function"
				},
				{
					"inputs": [],
					"name": "_totalSupply",
					"outputs": [
						{
							"internalType": "uint256",
							"name": "",
							"type": "uint256"
						}
					],
					"stateMutability": "pure",
					"type": "function"
				},
				{
					"inputs": [
						{
							"internalType": "address",
							"name": "spender",
							"type": "address"
						},
						{
							"internalType": "uint256",
							"name": "amount",
							"type": "uint256"
						}
					],
					"name": "approve",
					"outputs": [],
					"stateMutability": "nonpayable",
					"type": "function"
				},
				{
					"inputs": [
						{
							"internalType": "address",
							"name": "who",
							"type": "address"
						}
					],
					"name": "balanceOfAddress",
					"outputs": [
						{
							"internalType": "uint256",
							"name": "",
							"type": "uint256"
						}
					],
					"stateMutability": "view",
					"type": "function"
				},
				{
					"inputs": [
						{
							"internalType": "uint256",
							"name": "amount",
							"type": "uint256"
						}
					],
					"name": "calculateBurn",
					"outputs": [
						{
							"internalType": "uint256",
							"name": "burn",
							"type": "uint256"
						}
					],
					"stateMutability": "pure",
					"type": "function"
				},
				{
					"inputs": [],
					"name": "initialized",
					"outputs": [
						{
							"internalType": "bool",
							"name": "",
							"type": "bool"
						}
					],
					"stateMutability": "view",
					"type": "function"
				},
				{
					"inputs": [
						{
							"internalType": "uint256",
							"name": "amount",
							"type": "uint256"
						},
						{
							"internalType": "address",
							"name": "_to",
							"type": "address"
						}
					],
					"name": "mint",
					"outputs": [
						{
							"internalType": "uint256",
							"name": "",
							"type": "uint256"
						}
					],
					"stateMutability": "nonpayable",
					"type": "function"
				},
				{
					"inputs": [],
					"name": "owner",
					"outputs": [
						{
							"internalType": "address",
							"name": "",
							"type": "address"
						}
					],
					"stateMutability": "view",
					"type": "function"
				},
				{
					"inputs": [],
					"name": "proxiableUUID",
					"outputs": [
						{
							"internalType": "bytes32",
							"name": "",
							"type": "bytes32"
						}
					],
					"stateMutability": "pure",
					"type": "function"
				},
				{
					"inputs": [
						{
							"internalType": "address",
							"name": "_to",
							"type": "address"
						},
						{
							"internalType": "uint256",
							"name": "amount",
							"type": "uint256"
						}
					],
					"name": "transfer",
					"outputs": [],
					"stateMutability": "nonpayable",
					"type": "function"
				},
				{
					"inputs": [
						{
							"internalType": "address",
							"name": "from",
							"type": "address"
						},
						{
							"internalType": "address",
							"name": "_to",
							"type": "address"
						},
						{
							"internalType": "uint256",
							"name": "amount",
							"type": "uint256"
						}
					],
					"name": "transferFrom",
					"outputs": [],
					"stateMutability": "nonpayable",
					"type": "function"
				},
				{
					"inputs": [
						{
							"internalType": "address",
							"name": "newCode",
							"type": "address"
						}
					],
					"name": "updateCode",
					"outputs": [],
					"stateMutability": "nonpayable",
					"type": "function"
				}
			],
			"devdoc": {
				"kind": "dev",
				"methods": {},
				"version": 1
			},
			"evm": {
				"assembly": "    /* \"Upgradable E1P 1822/Implementation2.sol\":97:1380  contract Implementation2 is Implementation1 {... */\n  mstore(0x40, 0x80)\n    /* \"Upgradable E1P 1822/Implementation1.sol\":382:387  false */\n  0x00\n    /* \"Upgradable E1P 1822/Implementation1.sol\":356:387  bool public initialized = false */\n  0x01\n  exp(0x0100, 0x14)\n  dup2\n  sload\n  dup2\n  0xff\n  mul\n  not\n  and\n  swap1\n  dup4\n  iszero\n  iszero\n  mul\n  or\n  swap1\n  sstore\n  pop\n    /* \"Upgradable E1P 1822/Implementation2.sol\":97:1380  contract Implementation2 is Implementation1 {... */\n  callvalue\n  dup1\n  iszero\n  tag_1\n  jumpi\n  0x00\n  dup1\n  revert\ntag_1:\n  pop\n  dataSize(sub_0)\n  dup1\n  dataOffset(sub_0)\n  0x00\n  codecopy\n  0x00\n  return\nstop\n\nsub_0: assembly {\n        /* \"Upgradable E1P 1822/Implementation2.sol\":97:1380  contract Implementation2 is Implementation1 {... */\n      mstore(0x40, 0x80)\n      callvalue\n      dup1\n      iszero\n      tag_1\n      jumpi\n      0x00\n      dup1\n      revert\n    tag_1:\n      pop\n      jumpi(tag_2, lt(calldatasize, 0x04))\n      shr(0xe0, calldataload(0x00))\n      dup1\n      0x86212b8f\n      gt\n      tag_18\n      jumpi\n      dup1\n      0xb09f1266\n      gt\n      tag_19\n      jumpi\n      dup1\n      0xb09f1266\n      eq\n      tag_14\n      jumpi\n      dup1\n      0xd28d8852\n      eq\n      tag_15\n      jumpi\n      dup1\n      0xd3aceae2\n      eq\n      tag_16\n      jumpi\n      dup1\n      0xdc287c7e\n      eq\n      tag_17\n      jumpi\n      jump(tag_2)\n    tag_19:\n      dup1\n      0x86212b8f\n      eq\n      tag_10\n      jumpi\n      dup1\n      0x8da5cb5b\n      eq\n      tag_11\n      jumpi\n      dup1\n      0x94bf804d\n      eq\n      tag_12\n      jumpi\n      dup1\n      0xa9059cbb\n      eq\n      tag_13\n      jumpi\n      jump(tag_2)\n    tag_18:\n      dup1\n      0x2f0e3120\n      gt\n      tag_20\n      jumpi\n      dup1\n      0x2f0e3120\n      eq\n      tag_6\n      jumpi\n      dup1\n      0x3eaaf86b\n      eq\n      tag_7\n      jumpi\n      dup1\n      0x46951954\n      eq\n      tag_8\n      jumpi\n      dup1\n      0x52d1902d\n      eq\n      tag_9\n      jumpi\n      jump(tag_2)\n    tag_20:\n      dup1\n      0x095ea7b3\n      eq\n      tag_3\n      jumpi\n      dup1\n      0x158ef93e\n      eq\n      tag_4\n      jumpi\n      dup1\n      0x23b872dd\n      eq\n      tag_5\n      jumpi\n    tag_2:\n      0x00\n      dup1\n      revert\n        /* \"Upgradable E1P 1822/Implementation1.sol\":1758:2092  function approve(address spender, uint amount)  external  checkBalance(msg.sender, amount) {... */\n    tag_3:\n      tag_21\n      0x04\n      dup1\n      calldatasize\n      sub\n      dup2\n      add\n      swap1\n      tag_22\n      swap2\n      swap1\n      tag_23\n      jump\t// in\n    tag_22:\n      tag_24\n      jump\t// in\n    tag_21:\n      stop\n        /* \"Upgradable E1P 1822/Implementation1.sol\":356:387  bool public initialized = false */\n    tag_4:\n      tag_25\n      tag_26\n      jump\t// in\n    tag_25:\n      mload(0x40)\n      tag_27\n      swap2\n      swap1\n      tag_28\n      jump\t// in\n    tag_27:\n      mload(0x40)\n      dup1\n      swap2\n      sub\n      swap1\n      return\n        /* \"Upgradable E1P 1822/Implementation2.sol\":886:1377  function transferFrom(address from, address _to, uint amount) external checkBalance(from, amount){... */\n    tag_5:\n      tag_29\n      0x04\n      dup1\n      calldatasize\n      sub\n      dup2\n      add\n      swap1\n      tag_30\n      swap2\n      swap1\n      tag_31\n      jump\t// in\n    tag_30:\n      tag_32\n      jump\t// in\n    tag_29:\n      stop\n        /* \"Upgradable E1P 1822/Implementation1.sol\":1084:1160  function _decimal() pure public returns(uint){... */\n    tag_6:\n      tag_33\n      tag_34\n      jump\t// in\n    tag_33:\n      mload(0x40)\n      tag_35\n      swap2\n      swap1\n      tag_36\n      jump\t// in\n    tag_35:\n      mload(0x40)\n      dup1\n      swap2\n      sub\n      swap1\n      return\n        /* \"Upgradable E1P 1822/Implementation1.sol\":1166:1250  function _totalSupply() pure public returns(uint){... */\n    tag_7:\n      tag_37\n      tag_38\n      jump\t// in\n    tag_37:\n      mload(0x40)\n      tag_39\n      swap2\n      swap1\n      tag_36\n      jump\t// in\n    tag_39:\n      mload(0x40)\n      dup1\n      swap2\n      sub\n      swap1\n      return\n        /* \"Upgradable E1P 1822/Implementation1.sol\":2262:2359  function updateCode(address newCode) onlyOwner public {... */\n    tag_8:\n      tag_40\n      0x04\n      dup1\n      calldatasize\n      sub\n      dup2\n      add\n      swap1\n      tag_41\n      swap2\n      swap1\n      tag_42\n      jump\t// in\n    tag_41:\n      tag_43\n      jump\t// in\n    tag_40:\n      stop\n        /* \"Upgradable E1P 1822/Proxible.sol\":627:772  function proxiableUUID() public pure returns (bytes32) {... */\n    tag_9:\n      tag_44\n      tag_45\n      jump\t// in\n    tag_44:\n      mload(0x40)\n      tag_46\n      swap2\n      swap1\n      tag_47\n      jump\t// in\n    tag_46:\n      mload(0x40)\n      dup1\n      swap2\n      sub\n      swap1\n      return\n        /* \"Upgradable E1P 1822/Implementation1.sol\":1652:1752  function balanceOfAddress(address who) public view returns(uint) {... */\n    tag_10:\n      tag_48\n      0x04\n      dup1\n      calldatasize\n      sub\n      dup2\n      add\n      swap1\n      tag_49\n      swap2\n      swap1\n      tag_42\n      jump\t// in\n    tag_49:\n      tag_50\n      jump\t// in\n    tag_48:\n      mload(0x40)\n      tag_51\n      swap2\n      swap1\n      tag_36\n      jump\t// in\n    tag_51:\n      mload(0x40)\n      dup1\n      swap2\n      sub\n      swap1\n      return\n        /* \"Upgradable E1P 1822/Implementation1.sol\":330:350  address public owner */\n    tag_11:\n      tag_52\n      tag_53\n      jump\t// in\n    tag_52:\n      mload(0x40)\n      tag_54\n      swap2\n      swap1\n      tag_55\n      jump\t// in\n    tag_54:\n      mload(0x40)\n      dup1\n      swap2\n      sub\n      swap1\n      return\n        /* \"Upgradable E1P 1822/Implementation1.sol\":1256:1642  function mint(uint amount, address _to) public onlyOwner returns(uint){... */\n    tag_12:\n      tag_56\n      0x04\n      dup1\n      calldatasize\n      sub\n      dup2\n      add\n      swap1\n      tag_57\n      swap2\n      swap1\n      tag_58\n      jump\t// in\n    tag_57:\n      tag_59\n      jump\t// in\n    tag_56:\n      mload(0x40)\n      tag_60\n      swap2\n      swap1\n      tag_36\n      jump\t// in\n    tag_60:\n      mload(0x40)\n      dup1\n      swap2\n      sub\n      swap1\n      return\n        /* \"Upgradable E1P 1822/Implementation2.sol\":435:879  function transfer(address _to, uint amount) external {... */\n    tag_13:\n      tag_61\n      0x04\n      dup1\n      calldatasize\n      sub\n      dup2\n      add\n      swap1\n      tag_62\n      swap2\n      swap1\n      tag_23\n      jump\t// in\n    tag_62:\n      tag_63\n      jump\t// in\n    tag_61:\n      stop\n        /* \"Upgradable E1P 1822/Implementation1.sol\":995:1078  function _symbol() pure public returns(string memory){... */\n    tag_14:\n      tag_64\n      tag_65\n      jump\t// in\n    tag_64:\n      mload(0x40)\n      tag_66\n      swap2\n      swap1\n      tag_67\n      jump\t// in\n    tag_66:\n      mload(0x40)\n      dup1\n      swap2\n      sub\n      swap1\n      return\n        /* \"Upgradable E1P 1822/Implementation1.sol\":910:989  function _name() pure public returns(string memory){... */\n    tag_15:\n      tag_68\n      tag_69\n      jump\t// in\n    tag_68:\n      mload(0x40)\n      tag_70\n      swap2\n      swap1\n      tag_67\n      jump\t// in\n    tag_70:\n      mload(0x40)\n      dup1\n      swap2\n      sub\n      swap1\n      return\n        /* \"Upgradable E1P 1822/Implementation1.sol\":396:436  mapping(address => uint) public _balance */\n    tag_16:\n      tag_71\n      0x04\n      dup1\n      calldatasize\n      sub\n      dup2\n      add\n      swap1\n      tag_72\n      swap2\n      swap1\n      tag_42\n      jump\t// in\n    tag_72:\n      tag_73\n      jump\t// in\n    tag_71:\n      mload(0x40)\n      tag_74\n      swap2\n      swap1\n      tag_36\n      jump\t// in\n    tag_74:\n      mload(0x40)\n      dup1\n      swap2\n      sub\n      swap1\n      return\n        /* \"Upgradable E1P 1822/Implementation2.sol\":325:430  function calculateBurn(uint amount) public pure returns(uint burn){... */\n    tag_17:\n      tag_75\n      0x04\n      dup1\n      calldatasize\n      sub\n      dup2\n      add\n      swap1\n      tag_76\n      swap2\n      swap1\n      tag_77\n      jump\t// in\n    tag_76:\n      tag_78\n      jump\t// in\n    tag_75:\n      mload(0x40)\n      tag_79\n      swap2\n      swap1\n      tag_36\n      jump\t// in\n    tag_79:\n      mload(0x40)\n      dup1\n      swap2\n      sub\n      swap1\n      return\n        /* \"Upgradable E1P 1822/Implementation1.sol\":1758:2092  function approve(address spender, uint amount)  external  checkBalance(msg.sender, amount) {... */\n    tag_24:\n        /* \"Upgradable E1P 1822/Implementation1.sol\":1829:1839  msg.sender */\n      caller\n        /* \"Upgradable E1P 1822/Implementation1.sol\":1841:1847  amount */\n      dup2\n        /* \"Upgradable E1P 1822/Implementation1.sol\":793:805  uint balance */\n      0x00\n        /* \"Upgradable E1P 1822/Implementation1.sol\":808:832  balanceOfAddress(_owner) */\n      tag_81\n        /* \"Upgradable E1P 1822/Implementation1.sol\":825:831  _owner */\n      dup4\n        /* \"Upgradable E1P 1822/Implementation1.sol\":808:824  balanceOfAddress */\n      tag_50\n        /* \"Upgradable E1P 1822/Implementation1.sol\":808:832  balanceOfAddress(_owner) */\n      jump\t// in\n    tag_81:\n        /* \"Upgradable E1P 1822/Implementation1.sol\":793:832  uint balance = balanceOfAddress(_owner) */\n      swap1\n      pop\n        /* \"Upgradable E1P 1822/Implementation1.sol\":859:865  amount */\n      dup2\n        /* \"Upgradable E1P 1822/Implementation1.sol\":848:855  balance */\n      dup2\n        /* \"Upgradable E1P 1822/Implementation1.sol\":848:865  balance >= amount */\n      lt\n      iszero\n        /* \"Upgradable E1P 1822/Implementation1.sol\":840:888  require(balance >= amount, \"Insufficient funds\") */\n      tag_82\n      jumpi\n      mload(0x40)\n      0x08c379a000000000000000000000000000000000000000000000000000000000\n      dup2\n      mstore\n      0x04\n      add\n      tag_83\n      swap1\n      tag_84\n      jump\t// in\n    tag_83:\n      mload(0x40)\n      dup1\n      swap2\n      sub\n      swap1\n      revert\n    tag_82:\n        /* \"Upgradable E1P 1822/Implementation1.sol\":1884:1885  0 */\n      0x00\n        /* \"Upgradable E1P 1822/Implementation1.sol\":1865:1886  spender != address(0) */\n      0xffffffffffffffffffffffffffffffffffffffff\n      and\n        /* \"Upgradable E1P 1822/Implementation1.sol\":1865:1872  spender */\n      dup6\n        /* \"Upgradable E1P 1822/Implementation1.sol\":1865:1886  spender != address(0) */\n      0xffffffffffffffffffffffffffffffffffffffff\n      and\n      sub\n        /* \"Upgradable E1P 1822/Implementation1.sol\":1857:1887  require(spender != address(0)) */\n      tag_86\n      jumpi\n      0x00\n      dup1\n      revert\n    tag_86:\n        /* \"Upgradable E1P 1822/Implementation1.sol\":1895:1905  uint allow */\n      0x00\n        /* \"Upgradable E1P 1822/Implementation1.sol\":1908:1918  _allowance */\n      0x03\n        /* \"Upgradable E1P 1822/Implementation1.sol\":1908:1930  _allowance[msg.sender] */\n      0x00\n        /* \"Upgradable E1P 1822/Implementation1.sol\":1919:1929  msg.sender */\n      caller\n        /* \"Upgradable E1P 1822/Implementation1.sol\":1908:1930  _allowance[msg.sender] */\n      0xffffffffffffffffffffffffffffffffffffffff\n      and\n      0xffffffffffffffffffffffffffffffffffffffff\n      and\n      dup2\n      mstore\n      0x20\n      add\n      swap1\n      dup2\n      mstore\n      0x20\n      add\n      0x00\n      keccak256\n        /* \"Upgradable E1P 1822/Implementation1.sol\":1908:1939  _allowance[msg.sender][spender] */\n      0x00\n        /* \"Upgradable E1P 1822/Implementation1.sol\":1931:1938  spender */\n      dup8\n        /* \"Upgradable E1P 1822/Implementation1.sol\":1908:1939  _allowance[msg.sender][spender] */\n      0xffffffffffffffffffffffffffffffffffffffff\n      and\n      0xffffffffffffffffffffffffffffffffffffffff\n      and\n      dup2\n      mstore\n      0x20\n      add\n      swap1\n      dup2\n      mstore\n      0x20\n      add\n      0x00\n      keccak256\n      sload\n        /* \"Upgradable E1P 1822/Implementation1.sol\":1895:1939  uint allow = _allowance[msg.sender][spender] */\n      swap1\n      pop\n        /* \"Upgradable E1P 1822/Implementation1.sol\":1959:1960  0 */\n      0x00\n        /* \"Upgradable E1P 1822/Implementation1.sol\":1950:1955  allow */\n      dup2\n        /* \"Upgradable E1P 1822/Implementation1.sol\":1950:1960  allow == 0 */\n      sub\n        /* \"Upgradable E1P 1822/Implementation1.sol\":1947:2086  if(allow == 0){... */\n      tag_87\n      jumpi\n        /* \"Upgradable E1P 1822/Implementation1.sol\":2005:2011  amount */\n      dup5\n        /* \"Upgradable E1P 1822/Implementation1.sol\":1971:1981  _allowance */\n      0x03\n        /* \"Upgradable E1P 1822/Implementation1.sol\":1971:1993  _allowance[msg.sender] */\n      0x00\n        /* \"Upgradable E1P 1822/Implementation1.sol\":1982:1992  msg.sender */\n      caller\n        /* \"Upgradable E1P 1822/Implementation1.sol\":1971:1993  _allowance[msg.sender] */\n      0xffffffffffffffffffffffffffffffffffffffff\n      and\n      0xffffffffffffffffffffffffffffffffffffffff\n      and\n      dup2\n      mstore\n      0x20\n      add\n      swap1\n      dup2\n      mstore\n      0x20\n      add\n      0x00\n      keccak256\n        /* \"Upgradable E1P 1822/Implementation1.sol\":1971:2003  _allowance[msg.sender] [spender] */\n      0x00\n        /* \"Upgradable E1P 1822/Implementation1.sol\":1995:2002  spender */\n      dup9\n        /* \"Upgradable E1P 1822/Implementation1.sol\":1971:2003  _allowance[msg.sender] [spender] */\n      0xffffffffffffffffffffffffffffffffffffffff\n      and\n      0xffffffffffffffffffffffffffffffffffffffff\n      and\n      dup2\n      mstore\n      0x20\n      add\n      swap1\n      dup2\n      mstore\n      0x20\n      add\n      0x00\n      keccak256\n        /* \"Upgradable E1P 1822/Implementation1.sol\":1971:2011  _allowance[msg.sender] [spender]= amount */\n      dup2\n      swap1\n      sstore\n      pop\n        /* \"Upgradable E1P 1822/Implementation1.sol\":1947:2086  if(allow == 0){... */\n      jump(tag_88)\n    tag_87:\n        /* \"Upgradable E1P 1822/Implementation1.sol\":2071:2077  amount */\n      dup5\n        /* \"Upgradable E1P 1822/Implementation1.sol\":2036:2046  _allowance */\n      0x03\n        /* \"Upgradable E1P 1822/Implementation1.sol\":2036:2058  _allowance[msg.sender] */\n      0x00\n        /* \"Upgradable E1P 1822/Implementation1.sol\":2047:2057  msg.sender */\n      caller\n        /* \"Upgradable E1P 1822/Implementation1.sol\":2036:2058  _allowance[msg.sender] */\n      0xffffffffffffffffffffffffffffffffffffffff\n      and\n      0xffffffffffffffffffffffffffffffffffffffff\n      and\n      dup2\n      mstore\n      0x20\n      add\n      swap1\n      dup2\n      mstore\n      0x20\n      add\n      0x00\n      keccak256\n        /* \"Upgradable E1P 1822/Implementation1.sol\":2036:2067  _allowance[msg.sender][spender] */\n      0x00\n        /* \"Upgradable E1P 1822/Implementation1.sol\":2059:2066  spender */\n      dup9\n        /* \"Upgradable E1P 1822/Implementation1.sol\":2036:2067  _allowance[msg.sender][spender] */\n      0xffffffffffffffffffffffffffffffffffffffff\n      and\n      0xffffffffffffffffffffffffffffffffffffffff\n      and\n      dup2\n      mstore\n      0x20\n      add\n      swap1\n      dup2\n      mstore\n      0x20\n      add\n      0x00\n      keccak256\n      0x00\n        /* \"Upgradable E1P 1822/Implementation1.sol\":2036:2077  _allowance[msg.sender][spender] += amount */\n      dup3\n      dup3\n      sload\n      tag_89\n      swap2\n      swap1\n      tag_90\n      jump\t// in\n    tag_89:\n      swap3\n      pop\n      pop\n      dup2\n      swap1\n      sstore\n      pop\n        /* \"Upgradable E1P 1822/Implementation1.sol\":1947:2086  if(allow == 0){... */\n    tag_88:\n        /* \"Upgradable E1P 1822/Implementation1.sol\":1849:2092  {... */\n      pop\n        /* \"Upgradable E1P 1822/Implementation1.sol\":785:904  {... */\n      pop\n        /* \"Upgradable E1P 1822/Implementation1.sol\":1758:2092  function approve(address spender, uint amount)  external  checkBalance(msg.sender, amount) {... */\n      pop\n      pop\n      pop\n      pop\n      jump\t// out\n        /* \"Upgradable E1P 1822/Implementation1.sol\":356:387  bool public initialized = false */\n    tag_26:\n      0x01\n      0x14\n      swap1\n      sload\n      swap1\n      0x0100\n      exp\n      swap1\n      div\n      0xff\n      and\n      dup2\n      jump\t// out\n        /* \"Upgradable E1P 1822/Implementation2.sol\":886:1377  function transferFrom(address from, address _to, uint amount) external checkBalance(from, amount){... */\n    tag_32:\n        /* \"Upgradable E1P 1822/Implementation2.sol\":970:974  from */\n      dup3\n        /* \"Upgradable E1P 1822/Implementation2.sol\":976:982  amount */\n      dup2\n        /* \"Upgradable E1P 1822/Implementation1.sol\":793:805  uint balance */\n      0x00\n        /* \"Upgradable E1P 1822/Implementation1.sol\":808:832  balanceOfAddress(_owner) */\n      tag_92\n        /* \"Upgradable E1P 1822/Implementation1.sol\":825:831  _owner */\n      dup4\n        /* \"Upgradable E1P 1822/Implementation1.sol\":808:824  balanceOfAddress */\n      tag_50\n        /* \"Upgradable E1P 1822/Implementation1.sol\":808:832  balanceOfAddress(_owner) */\n      jump\t// in\n    tag_92:\n        /* \"Upgradable E1P 1822/Implementation1.sol\":793:832  uint balance = balanceOfAddress(_owner) */\n      swap1\n      pop\n        /* \"Upgradable E1P 1822/Implementation1.sol\":859:865  amount */\n      dup2\n        /* \"Upgradable E1P 1822/Implementation1.sol\":848:855  balance */\n      dup2\n        /* \"Upgradable E1P 1822/Implementation1.sol\":848:865  balance >= amount */\n      lt\n      iszero\n        /* \"Upgradable E1P 1822/Implementation1.sol\":840:888  require(balance >= amount, \"Insufficient funds\") */\n      tag_93\n      jumpi\n      mload(0x40)\n      0x08c379a000000000000000000000000000000000000000000000000000000000\n      dup2\n      mstore\n      0x04\n      add\n      tag_94\n      swap1\n      tag_84\n      jump\t// in\n    tag_94:\n      mload(0x40)\n      dup1\n      swap2\n      sub\n      swap1\n      revert\n    tag_93:\n        /* \"Upgradable E1P 1822/Implementation2.sol\":1006:1016  msg.sender */\n      caller\n        /* \"Upgradable E1P 1822/Implementation2.sol\":999:1016  _to == msg.sender */\n      0xffffffffffffffffffffffffffffffffffffffff\n      and\n        /* \"Upgradable E1P 1822/Implementation2.sol\":999:1002  _to */\n      dup6\n        /* \"Upgradable E1P 1822/Implementation2.sol\":999:1016  _to == msg.sender */\n      0xffffffffffffffffffffffffffffffffffffffff\n      and\n      eq\n        /* \"Upgradable E1P 1822/Implementation2.sol\":991:1044  require(_to == msg.sender, \"Not an approved spender\") */\n      tag_96\n      jumpi\n      mload(0x40)\n      0x08c379a000000000000000000000000000000000000000000000000000000000\n      dup2\n      mstore\n      0x04\n      add\n      tag_97\n      swap1\n      tag_98\n      jump\t// in\n    tag_97:\n      mload(0x40)\n      dup1\n      swap2\n      sub\n      swap1\n      revert\n    tag_96:\n        /* \"Upgradable E1P 1822/Implementation2.sol\":1052:1073  uint allowanceBalance */\n      0x00\n        /* \"Upgradable E1P 1822/Implementation2.sol\":1076:1086  _allowance */\n      0x03\n        /* \"Upgradable E1P 1822/Implementation2.sol\":1076:1092  _allowance[from] */\n      0x00\n        /* \"Upgradable E1P 1822/Implementation2.sol\":1087:1091  from */\n      dup9\n        /* \"Upgradable E1P 1822/Implementation2.sol\":1076:1092  _allowance[from] */\n      0xffffffffffffffffffffffffffffffffffffffff\n      and\n      0xffffffffffffffffffffffffffffffffffffffff\n      and\n      dup2\n      mstore\n      0x20\n      add\n      swap1\n      dup2\n      mstore\n      0x20\n      add\n      0x00\n      keccak256\n        /* \"Upgradable E1P 1822/Implementation2.sol\":1076:1097  _allowance[from][_to] */\n      0x00\n        /* \"Upgradable E1P 1822/Implementation2.sol\":1093:1096  _to */\n      dup8\n        /* \"Upgradable E1P 1822/Implementation2.sol\":1076:1097  _allowance[from][_to] */\n      0xffffffffffffffffffffffffffffffffffffffff\n      and\n      0xffffffffffffffffffffffffffffffffffffffff\n      and\n      dup2\n      mstore\n      0x20\n      add\n      swap1\n      dup2\n      mstore\n      0x20\n      add\n      0x00\n      keccak256\n      sload\n        /* \"Upgradable E1P 1822/Implementation2.sol\":1052:1097  uint allowanceBalance = _allowance[from][_to] */\n      swap1\n      pop\n        /* \"Upgradable E1P 1822/Implementation2.sol\":1133:1139  amount */\n      dup5\n        /* \"Upgradable E1P 1822/Implementation2.sol\":1113:1129  allowanceBalance */\n      dup2\n        /* \"Upgradable E1P 1822/Implementation2.sol\":1113:1139  allowanceBalance >= amount */\n      lt\n      iszero\n        /* \"Upgradable E1P 1822/Implementation2.sol\":1105:1164  require(allowanceBalance >= amount, \"no allowance for you\") */\n      tag_99\n      jumpi\n      mload(0x40)\n      0x08c379a000000000000000000000000000000000000000000000000000000000\n      dup2\n      mstore\n      0x04\n      add\n      tag_100\n      swap1\n      tag_101\n      jump\t// in\n    tag_100:\n      mload(0x40)\n      dup1\n      swap2\n      sub\n      swap1\n      revert\n    tag_99:\n        /* \"Upgradable E1P 1822/Implementation2.sol\":1173:1191  uint burnableToken */\n      0x00\n        /* \"Upgradable E1P 1822/Implementation2.sol\":1194:1207  _burn(amount) */\n      tag_102\n        /* \"Upgradable E1P 1822/Implementation2.sol\":1200:1206  amount */\n      dup7\n        /* \"Upgradable E1P 1822/Implementation2.sol\":1194:1199  _burn */\n      tag_103\n        /* \"Upgradable E1P 1822/Implementation2.sol\":1194:1207  _burn(amount) */\n      jump\t// in\n    tag_102:\n        /* \"Upgradable E1P 1822/Implementation2.sol\":1173:1207  uint burnableToken = _burn(amount) */\n      swap1\n      pop\n        /* \"Upgradable E1P 1822/Implementation2.sol\":1215:1233  uint transferrable */\n      0x00\n        /* \"Upgradable E1P 1822/Implementation2.sol\":1245:1258  burnableToken */\n      dup2\n        /* \"Upgradable E1P 1822/Implementation2.sol\":1236:1242  amount */\n      dup8\n        /* \"Upgradable E1P 1822/Implementation2.sol\":1236:1258  amount - burnableToken */\n      tag_104\n      swap2\n      swap1\n      tag_105\n      jump\t// in\n    tag_104:\n        /* \"Upgradable E1P 1822/Implementation2.sol\":1215:1258  uint transferrable = amount - burnableToken */\n      swap1\n      pop\n        /* \"Upgradable E1P 1822/Implementation2.sol\":1293:1306  transferrable */\n      dup1\n        /* \"Upgradable E1P 1822/Implementation2.sol\":1268:1278  _allowance */\n      0x03\n        /* \"Upgradable E1P 1822/Implementation2.sol\":1268:1284  _allowance[from] */\n      0x00\n        /* \"Upgradable E1P 1822/Implementation2.sol\":1279:1283  from */\n      dup12\n        /* \"Upgradable E1P 1822/Implementation2.sol\":1268:1284  _allowance[from] */\n      0xffffffffffffffffffffffffffffffffffffffff\n      and\n      0xffffffffffffffffffffffffffffffffffffffff\n      and\n      dup2\n      mstore\n      0x20\n      add\n      swap1\n      dup2\n      mstore\n      0x20\n      add\n      0x00\n      keccak256\n        /* \"Upgradable E1P 1822/Implementation2.sol\":1268:1289  _allowance[from][_to] */\n      0x00\n        /* \"Upgradable E1P 1822/Implementation2.sol\":1285:1288  _to */\n      dup11\n        /* \"Upgradable E1P 1822/Implementation2.sol\":1268:1289  _allowance[from][_to] */\n      0xffffffffffffffffffffffffffffffffffffffff\n      and\n      0xffffffffffffffffffffffffffffffffffffffff\n      and\n      dup2\n      mstore\n      0x20\n      add\n      swap1\n      dup2\n      mstore\n      0x20\n      add\n      0x00\n      keccak256\n      0x00\n        /* \"Upgradable E1P 1822/Implementation2.sol\":1268:1306  _allowance[from][_to] -= transferrable */\n      dup3\n      dup3\n      sload\n      tag_106\n      swap2\n      swap1\n      tag_105\n      jump\t// in\n    tag_106:\n      swap3\n      pop\n      pop\n      dup2\n      swap1\n      sstore\n      pop\n        /* \"Upgradable E1P 1822/Implementation2.sol\":1333:1339  amount */\n      dup7\n        /* \"Upgradable E1P 1822/Implementation2.sol\":1315:1323  _balance */\n      0x02\n        /* \"Upgradable E1P 1822/Implementation2.sol\":1315:1329  _balance[from] */\n      0x00\n        /* \"Upgradable E1P 1822/Implementation2.sol\":1324:1328  from */\n      dup12\n        /* \"Upgradable E1P 1822/Implementation2.sol\":1315:1329  _balance[from] */\n      0xffffffffffffffffffffffffffffffffffffffff\n      and\n      0xffffffffffffffffffffffffffffffffffffffff\n      and\n      dup2\n      mstore\n      0x20\n      add\n      swap1\n      dup2\n      mstore\n      0x20\n      add\n      0x00\n      keccak256\n      0x00\n        /* \"Upgradable E1P 1822/Implementation2.sol\":1315:1339  _balance[from] -= amount */\n      dup3\n      dup3\n      sload\n      tag_107\n      swap2\n      swap1\n      tag_105\n      jump\t// in\n    tag_107:\n      swap3\n      pop\n      pop\n      dup2\n      swap1\n      sstore\n      pop\n        /* \"Upgradable E1P 1822/Implementation2.sol\":1364:1370  amount */\n      dup7\n        /* \"Upgradable E1P 1822/Implementation2.sol\":1347:1355  _balance */\n      0x02\n        /* \"Upgradable E1P 1822/Implementation2.sol\":1347:1360  _balance[_to] */\n      0x00\n        /* \"Upgradable E1P 1822/Implementation2.sol\":1356:1359  _to */\n      dup11\n        /* \"Upgradable E1P 1822/Implementation2.sol\":1347:1360  _balance[_to] */\n      0xffffffffffffffffffffffffffffffffffffffff\n      and\n      0xffffffffffffffffffffffffffffffffffffffff\n      and\n      dup2\n      mstore\n      0x20\n      add\n      swap1\n      dup2\n      mstore\n      0x20\n      add\n      0x00\n      keccak256\n      0x00\n        /* \"Upgradable E1P 1822/Implementation2.sol\":1347:1370  _balance[_to] += amount */\n      dup3\n      dup3\n      sload\n      tag_108\n      swap2\n      swap1\n      tag_90\n      jump\t// in\n    tag_108:\n      swap3\n      pop\n      pop\n      dup2\n      swap1\n      sstore\n      pop\n        /* \"Upgradable E1P 1822/Implementation2.sol\":983:1377  {... */\n      pop\n      pop\n      pop\n        /* \"Upgradable E1P 1822/Implementation1.sol\":785:904  {... */\n      pop\n        /* \"Upgradable E1P 1822/Implementation2.sol\":886:1377  function transferFrom(address from, address _to, uint amount) external checkBalance(from, amount){... */\n      pop\n      pop\n      pop\n      pop\n      pop\n      jump\t// out\n        /* \"Upgradable E1P 1822/Implementation1.sol\":1084:1160  function _decimal() pure public returns(uint){... */\n    tag_34:\n        /* \"Upgradable E1P 1822/Implementation1.sol\":1124:1128  uint */\n      0x00\n        /* \"Upgradable E1P 1822/Implementation1.sol\":320:324  1e18 */\n      0x0de0b6b3a7640000\n        /* \"Upgradable E1P 1822/Implementation1.sol\":1139:1153  return decimal */\n      swap1\n      pop\n        /* \"Upgradable E1P 1822/Implementation1.sol\":1084:1160  function _decimal() pure public returns(uint){... */\n      swap1\n      jump\t// out\n        /* \"Upgradable E1P 1822/Implementation1.sol\":1166:1250  function _totalSupply() pure public returns(uint){... */\n    tag_38:\n        /* \"Upgradable E1P 1822/Implementation1.sol\":1210:1214  uint */\n      0x00\n        /* \"Upgradable E1P 1822/Implementation1.sol\":167:172  10000 */\n      0x2710\n        /* \"Upgradable E1P 1822/Implementation1.sol\":1225:1243  return totalSupply */\n      swap1\n      pop\n        /* \"Upgradable E1P 1822/Implementation1.sol\":1166:1250  function _totalSupply() pure public returns(uint){... */\n      swap1\n      jump\t// out\n        /* \"Upgradable E1P 1822/Implementation1.sol\":2262:2359  function updateCode(address newCode) onlyOwner public {... */\n    tag_43:\n        /* \"Upgradable E1P 1822/Implementation1.sol\":660:670  msg.sender */\n      caller\n        /* \"Upgradable E1P 1822/Implementation1.sol\":651:670  owner == msg.sender */\n      0xffffffffffffffffffffffffffffffffffffffff\n      and\n        /* \"Upgradable E1P 1822/Implementation1.sol\":651:656  owner */\n      0x01\n      0x00\n      swap1\n      sload\n      swap1\n      0x0100\n      exp\n      swap1\n      div\n      0xffffffffffffffffffffffffffffffffffffffff\n      and\n        /* \"Upgradable E1P 1822/Implementation1.sol\":651:670  owner == msg.sender */\n      0xffffffffffffffffffffffffffffffffffffffff\n      and\n      eq\n        /* \"Upgradable E1P 1822/Implementation1.sol\":643:704  require(owner == msg.sender, \"No permission except to owner\") */\n      tag_112\n      jumpi\n      mload(0x40)\n      0x08c379a000000000000000000000000000000000000000000000000000000000\n      dup2\n      mstore\n      0x04\n      add\n      tag_113\n      swap1\n      tag_114\n      jump\t// in\n    tag_113:\n      mload(0x40)\n      dup1\n      swap2\n      sub\n      swap1\n      revert\n    tag_112:\n        /* \"Upgradable E1P 1822/Implementation1.sol\":2326:2352  updateCodeAddress(newCode) */\n      tag_116\n        /* \"Upgradable E1P 1822/Implementation1.sol\":2344:2351  newCode */\n      dup2\n        /* \"Upgradable E1P 1822/Implementation1.sol\":2326:2343  updateCodeAddress */\n      tag_117\n        /* \"Upgradable E1P 1822/Implementation1.sol\":2326:2352  updateCodeAddress(newCode) */\n      jump\t// in\n    tag_116:\n        /* \"Upgradable E1P 1822/Implementation1.sol\":2262:2359  function updateCode(address newCode) onlyOwner public {... */\n      pop\n      jump\t// out\n        /* \"Upgradable E1P 1822/Proxible.sol\":627:772  function proxiableUUID() public pure returns (bytes32) {... */\n    tag_45:\n        /* \"Upgradable E1P 1822/Proxible.sol\":673:680  bytes32 */\n      0x00\n        /* \"Upgradable E1P 1822/Proxible.sol\":699:765  0xc5f16f0fcc639fa48a6947836d9850f504798523bf8c9a3a87d5876cf622bcf7 */\n      0xc5f16f0fcc639fa48a6947836d9850f504798523bf8c9a3a87d5876cf622bcf7\n        /* \"Upgradable E1P 1822/Proxible.sol\":692:765  return 0xc5f16f0fcc639fa48a6947836d9850f504798523bf8c9a3a87d5876cf622bcf7 */\n      0x00\n      shl\n      swap1\n      pop\n        /* \"Upgradable E1P 1822/Proxible.sol\":627:772  function proxiableUUID() public pure returns (bytes32) {... */\n      swap1\n      jump\t// out\n        /* \"Upgradable E1P 1822/Implementation1.sol\":1652:1752  function balanceOfAddress(address who) public view returns(uint) {... */\n    tag_50:\n        /* \"Upgradable E1P 1822/Implementation1.sol\":1711:1715  uint */\n      0x00\n        /* \"Upgradable E1P 1822/Implementation1.sol\":1732:1740  _balance */\n      0x02\n        /* \"Upgradable E1P 1822/Implementation1.sol\":1732:1745  _balance[who] */\n      0x00\n        /* \"Upgradable E1P 1822/Implementation1.sol\":1741:1744  who */\n      dup4\n        /* \"Upgradable E1P 1822/Implementation1.sol\":1732:1745  _balance[who] */\n      0xffffffffffffffffffffffffffffffffffffffff\n      and\n      0xffffffffffffffffffffffffffffffffffffffff\n      and\n      dup2\n      mstore\n      0x20\n      add\n      swap1\n      dup2\n      mstore\n      0x20\n      add\n      0x00\n      keccak256\n      sload\n        /* \"Upgradable E1P 1822/Implementation1.sol\":1725:1745  return _balance[who] */\n      swap1\n      pop\n        /* \"Upgradable E1P 1822/Implementation1.sol\":1652:1752  function balanceOfAddress(address who) public view returns(uint) {... */\n      swap2\n      swap1\n      pop\n      jump\t// out\n        /* \"Upgradable E1P 1822/Implementation1.sol\":330:350  address public owner */\n    tag_53:\n      0x01\n      0x00\n      swap1\n      sload\n      swap1\n      0x0100\n      exp\n      swap1\n      div\n      0xffffffffffffffffffffffffffffffffffffffff\n      and\n      dup2\n      jump\t// out\n        /* \"Upgradable E1P 1822/Implementation1.sol\":1256:1642  function mint(uint amount, address _to) public onlyOwner returns(uint){... */\n    tag_59:\n        /* \"Upgradable E1P 1822/Implementation1.sol\":1321:1325  uint */\n      0x00\n        /* \"Upgradable E1P 1822/Implementation1.sol\":660:670  msg.sender */\n      caller\n        /* \"Upgradable E1P 1822/Implementation1.sol\":651:670  owner == msg.sender */\n      0xffffffffffffffffffffffffffffffffffffffff\n      and\n        /* \"Upgradable E1P 1822/Implementation1.sol\":651:656  owner */\n      0x01\n      0x00\n      swap1\n      sload\n      swap1\n      0x0100\n      exp\n      swap1\n      div\n      0xffffffffffffffffffffffffffffffffffffffff\n      and\n        /* \"Upgradable E1P 1822/Implementation1.sol\":651:670  owner == msg.sender */\n      0xffffffffffffffffffffffffffffffffffffffff\n      and\n      eq\n        /* \"Upgradable E1P 1822/Implementation1.sol\":643:704  require(owner == msg.sender, \"No permission except to owner\") */\n      tag_121\n      jumpi\n      mload(0x40)\n      0x08c379a000000000000000000000000000000000000000000000000000000000\n      dup2\n      mstore\n      0x04\n      add\n      tag_122\n      swap1\n      tag_114\n      jump\t// in\n    tag_122:\n      mload(0x40)\n      dup1\n      swap2\n      sub\n      swap1\n      revert\n    tag_121:\n        /* \"Upgradable E1P 1822/Implementation1.sol\":1356:1362  amount */\n      dup3\n        /* \"Upgradable E1P 1822/Implementation1.sol\":1336:1352  circulatingSuppy */\n      0x00\n      dup1\n        /* \"Upgradable E1P 1822/Implementation1.sol\":1336:1362  circulatingSuppy += amount */\n      dup3\n      dup3\n      sload\n      tag_124\n      swap2\n      swap1\n      tag_90\n      jump\t// in\n    tag_124:\n      swap3\n      pop\n      pop\n      dup2\n      swap1\n      sstore\n      pop\n        /* \"Upgradable E1P 1822/Implementation1.sol\":167:172  10000 */\n      0x2710\n        /* \"Upgradable E1P 1822/Implementation1.sol\":1380:1396  circulatingSuppy */\n      sload(0x00)\n        /* \"Upgradable E1P 1822/Implementation1.sol\":1380:1411  circulatingSuppy <= totalSupply */\n      gt\n      iszero\n        /* \"Upgradable E1P 1822/Implementation1.sol\":1372:1446  require(circulatingSuppy <= totalSupply, \"Total supply of token exceeded\") */\n      tag_125\n      jumpi\n      mload(0x40)\n      0x08c379a000000000000000000000000000000000000000000000000000000000\n      dup2\n      mstore\n      0x04\n      add\n      tag_126\n      swap1\n      tag_127\n      jump\t// in\n    tag_126:\n      mload(0x40)\n      dup1\n      swap2\n      sub\n      swap1\n      revert\n    tag_125:\n        /* \"Upgradable E1P 1822/Implementation1.sol\":1479:1480  0 */\n      0x00\n        /* \"Upgradable E1P 1822/Implementation1.sol\":1464:1481  _to != address(0) */\n      0xffffffffffffffffffffffffffffffffffffffff\n      and\n        /* \"Upgradable E1P 1822/Implementation1.sol\":1464:1467  _to */\n      dup3\n        /* \"Upgradable E1P 1822/Implementation1.sol\":1464:1481  _to != address(0) */\n      0xffffffffffffffffffffffffffffffffffffffff\n      and\n      sub\n        /* \"Upgradable E1P 1822/Implementation1.sol\":1456:1506  require(_to != address(0), \"mint to address zero\") */\n      tag_128\n      jumpi\n      mload(0x40)\n      0x08c379a000000000000000000000000000000000000000000000000000000000\n      dup2\n      mstore\n      0x04\n      add\n      tag_129\n      swap1\n      tag_130\n      jump\t// in\n    tag_129:\n      mload(0x40)\n      dup1\n      swap2\n      sub\n      swap1\n      revert\n    tag_128:\n        /* \"Upgradable E1P 1822/Implementation1.sol\":1516:1526  uint value */\n      0x00\n        /* \"Upgradable E1P 1822/Implementation1.sol\":320:324  1e18 */\n      0x0de0b6b3a7640000\n        /* \"Upgradable E1P 1822/Implementation1.sol\":1529:1535  amount */\n      dup5\n        /* \"Upgradable E1P 1822/Implementation1.sol\":1529:1545  amount * decimal */\n      tag_131\n      swap2\n      swap1\n      tag_132\n      jump\t// in\n    tag_131:\n        /* \"Upgradable E1P 1822/Implementation1.sol\":1516:1545  uint value = amount * decimal */\n      swap1\n      pop\n        /* \"Upgradable E1P 1822/Implementation1.sol\":1572:1577  value */\n      dup1\n        /* \"Upgradable E1P 1822/Implementation1.sol\":1555:1563  _balance */\n      0x02\n        /* \"Upgradable E1P 1822/Implementation1.sol\":1555:1568  _balance[_to] */\n      0x00\n        /* \"Upgradable E1P 1822/Implementation1.sol\":1564:1567  _to */\n      dup6\n        /* \"Upgradable E1P 1822/Implementation1.sol\":1555:1568  _balance[_to] */\n      0xffffffffffffffffffffffffffffffffffffffff\n      and\n      0xffffffffffffffffffffffffffffffffffffffff\n      and\n      dup2\n      mstore\n      0x20\n      add\n      swap1\n      dup2\n      mstore\n      0x20\n      add\n      0x00\n      keccak256\n      0x00\n        /* \"Upgradable E1P 1822/Implementation1.sol\":1555:1577  _balance[_to] += value */\n      dup3\n      dup3\n      sload\n      tag_133\n      swap2\n      swap1\n      tag_90\n      jump\t// in\n    tag_133:\n      swap3\n      pop\n      pop\n      dup2\n      swap1\n      sstore\n      pop\n        /* \"Upgradable E1P 1822/Implementation1.sol\":1592:1613  tokenMint(_to, value) */\n      0xeef892aa26c4762fad30f87b912a95ed5b6ff48d8ea3521783c84679e23d2ae2\n        /* \"Upgradable E1P 1822/Implementation1.sol\":1602:1605  _to */\n      dup4\n        /* \"Upgradable E1P 1822/Implementation1.sol\":1607:1612  value */\n      dup3\n        /* \"Upgradable E1P 1822/Implementation1.sol\":1592:1613  tokenMint(_to, value) */\n      mload(0x40)\n      tag_134\n      swap3\n      swap2\n      swap1\n      tag_135\n      jump\t// in\n    tag_134:\n      mload(0x40)\n      dup1\n      swap2\n      sub\n      swap1\n      log1\n        /* \"Upgradable E1P 1822/Implementation1.sol\":1630:1635  value */\n      dup1\n        /* \"Upgradable E1P 1822/Implementation1.sol\":1623:1635  return value */\n      swap2\n      pop\n      pop\n        /* \"Upgradable E1P 1822/Implementation1.sol\":1256:1642  function mint(uint amount, address _to) public onlyOwner returns(uint){... */\n      swap3\n      swap2\n      pop\n      pop\n      jump\t// out\n        /* \"Upgradable E1P 1822/Implementation2.sol\":435:879  function transfer(address _to, uint amount) external {... */\n    tag_63:\n        /* \"Upgradable E1P 1822/Implementation2.sol\":519:520  0 */\n      0x00\n        /* \"Upgradable E1P 1822/Implementation2.sol\":504:521  _to != address(0) */\n      0xffffffffffffffffffffffffffffffffffffffff\n      and\n        /* \"Upgradable E1P 1822/Implementation2.sol\":504:507  _to */\n      dup3\n        /* \"Upgradable E1P 1822/Implementation2.sol\":504:521  _to != address(0) */\n      0xffffffffffffffffffffffffffffffffffffffff\n      and\n      sub\n        /* \"Upgradable E1P 1822/Implementation2.sol\":496:546  require(_to != address(0), \"mint to address zero\") */\n      tag_137\n      jumpi\n      mload(0x40)\n      0x08c379a000000000000000000000000000000000000000000000000000000000\n      dup2\n      mstore\n      0x04\n      add\n      tag_138\n      swap1\n      tag_130\n      jump\t// in\n    tag_138:\n      mload(0x40)\n      dup1\n      swap2\n      sub\n      swap1\n      revert\n    tag_137:\n        /* \"Upgradable E1P 1822/Implementation2.sol\":554:570  uint userBalance */\n      0x00\n        /* \"Upgradable E1P 1822/Implementation2.sol\":573:581  _balance */\n      0x02\n        /* \"Upgradable E1P 1822/Implementation2.sol\":573:593  _balance[msg.sender] */\n      0x00\n        /* \"Upgradable E1P 1822/Implementation2.sol\":582:592  msg.sender */\n      caller\n        /* \"Upgradable E1P 1822/Implementation2.sol\":573:593  _balance[msg.sender] */\n      0xffffffffffffffffffffffffffffffffffffffff\n      and\n      0xffffffffffffffffffffffffffffffffffffffff\n      and\n      dup2\n      mstore\n      0x20\n      add\n      swap1\n      dup2\n      mstore\n      0x20\n      add\n      0x00\n      keccak256\n      sload\n        /* \"Upgradable E1P 1822/Implementation2.sol\":554:593  uint userBalance = _balance[msg.sender] */\n      swap1\n      pop\n        /* \"Upgradable E1P 1822/Implementation2.sol\":624:630  amount */\n      dup2\n        /* \"Upgradable E1P 1822/Implementation2.sol\":609:620  userBalance */\n      dup2\n        /* \"Upgradable E1P 1822/Implementation2.sol\":609:630  userBalance >= amount */\n      lt\n      iszero\n        /* \"Upgradable E1P 1822/Implementation2.sol\":601:652  require(userBalance >= amount, \"Insufficient fund\") */\n      tag_139\n      jumpi\n      mload(0x40)\n      0x08c379a000000000000000000000000000000000000000000000000000000000\n      dup2\n      mstore\n      0x04\n      add\n      tag_140\n      swap1\n      tag_141\n      jump\t// in\n    tag_140:\n      mload(0x40)\n      dup1\n      swap2\n      sub\n      swap1\n      revert\n    tag_139:\n        /* \"Upgradable E1P 1822/Implementation2.sol\":661:679  uint burnableToken */\n      0x00\n        /* \"Upgradable E1P 1822/Implementation2.sol\":682:695  _burn(amount) */\n      tag_142\n        /* \"Upgradable E1P 1822/Implementation2.sol\":688:694  amount */\n      dup4\n        /* \"Upgradable E1P 1822/Implementation2.sol\":682:687  _burn */\n      tag_103\n        /* \"Upgradable E1P 1822/Implementation2.sol\":682:695  _burn(amount) */\n      jump\t// in\n    tag_142:\n        /* \"Upgradable E1P 1822/Implementation2.sol\":661:695  uint burnableToken = _burn(amount) */\n      swap1\n      pop\n        /* \"Upgradable E1P 1822/Implementation2.sol\":703:721  uint transferrable */\n      0x00\n        /* \"Upgradable E1P 1822/Implementation2.sol\":733:746  burnableToken */\n      dup2\n        /* \"Upgradable E1P 1822/Implementation2.sol\":724:730  amount */\n      dup5\n        /* \"Upgradable E1P 1822/Implementation2.sol\":724:746  amount - burnableToken */\n      tag_143\n      swap2\n      swap1\n      tag_105\n      jump\t// in\n    tag_143:\n        /* \"Upgradable E1P 1822/Implementation2.sol\":703:746  uint transferrable = amount - burnableToken */\n      swap1\n      pop\n        /* \"Upgradable E1P 1822/Implementation2.sol\":779:785  amount */\n      dup4\n        /* \"Upgradable E1P 1822/Implementation2.sol\":755:763  _balance */\n      0x02\n        /* \"Upgradable E1P 1822/Implementation2.sol\":755:775  _balance[msg.sender] */\n      0x00\n        /* \"Upgradable E1P 1822/Implementation2.sol\":764:774  msg.sender */\n      caller\n        /* \"Upgradable E1P 1822/Implementation2.sol\":755:775  _balance[msg.sender] */\n      0xffffffffffffffffffffffffffffffffffffffff\n      and\n      0xffffffffffffffffffffffffffffffffffffffff\n      and\n      dup2\n      mstore\n      0x20\n      add\n      swap1\n      dup2\n      mstore\n      0x20\n      add\n      0x00\n      keccak256\n      0x00\n        /* \"Upgradable E1P 1822/Implementation2.sol\":755:785  _balance[msg.sender] -= amount */\n      dup3\n      dup3\n      sload\n      tag_144\n      swap2\n      swap1\n      tag_105\n      jump\t// in\n    tag_144:\n      swap3\n      pop\n      pop\n      dup2\n      swap1\n      sstore\n      pop\n        /* \"Upgradable E1P 1822/Implementation2.sol\":810:823  transferrable */\n      dup1\n        /* \"Upgradable E1P 1822/Implementation2.sol\":793:801  _balance */\n      0x02\n        /* \"Upgradable E1P 1822/Implementation2.sol\":793:806  _balance[_to] */\n      0x00\n        /* \"Upgradable E1P 1822/Implementation2.sol\":802:805  _to */\n      dup8\n        /* \"Upgradable E1P 1822/Implementation2.sol\":793:806  _balance[_to] */\n      0xffffffffffffffffffffffffffffffffffffffff\n      and\n      0xffffffffffffffffffffffffffffffffffffffff\n      and\n      dup2\n      mstore\n      0x20\n      add\n      swap1\n      dup2\n      mstore\n      0x20\n      add\n      0x00\n      keccak256\n      0x00\n        /* \"Upgradable E1P 1822/Implementation2.sol\":793:823  _balance[_to] += transferrable */\n      dup3\n      dup3\n      sload\n      tag_145\n      swap2\n      swap1\n      tag_90\n      jump\t// in\n    tag_145:\n      swap3\n      pop\n      pop\n      dup2\n      swap1\n      sstore\n      pop\n        /* \"Upgradable E1P 1822/Implementation2.sol\":837:871  _transfer(msg.sender, _to, amount) */\n      0x30e0789ed23094f42b5810cbdf4e48a0478aec0b37810e24e912443dd0032b3c\n        /* \"Upgradable E1P 1822/Implementation2.sol\":847:857  msg.sender */\n      caller\n        /* \"Upgradable E1P 1822/Implementation2.sol\":859:862  _to */\n      dup7\n        /* \"Upgradable E1P 1822/Implementation2.sol\":864:870  amount */\n      dup7\n        /* \"Upgradable E1P 1822/Implementation2.sol\":837:871  _transfer(msg.sender, _to, amount) */\n      mload(0x40)\n      tag_146\n      swap4\n      swap3\n      swap2\n      swap1\n      tag_147\n      jump\t// in\n    tag_146:\n      mload(0x40)\n      dup1\n      swap2\n      sub\n      swap1\n      log1\n        /* \"Upgradable E1P 1822/Implementation2.sol\":488:879  {... */\n      pop\n      pop\n      pop\n        /* \"Upgradable E1P 1822/Implementation2.sol\":435:879  function transfer(address _to, uint amount) external {... */\n      pop\n      pop\n      jump\t// out\n        /* \"Upgradable E1P 1822/Implementation1.sol\":995:1078  function _symbol() pure public returns(string memory){... */\n    tag_65:\n        /* \"Upgradable E1P 1822/Implementation1.sol\":1034:1047  string memory */\n      0x60\n        /* \"Upgradable E1P 1822/Implementation1.sol\":1065:1071  symbol */\n      mload(0x40)\n      dup1\n      0x40\n      add\n      0x40\n      mstore\n      dup1\n      0x04\n      dup2\n      mstore\n      0x20\n      add\n      0x4549504900000000000000000000000000000000000000000000000000000000\n      dup2\n      mstore\n      pop\n        /* \"Upgradable E1P 1822/Implementation1.sol\":1058:1071  return symbol */\n      swap1\n      pop\n        /* \"Upgradable E1P 1822/Implementation1.sol\":995:1078  function _symbol() pure public returns(string memory){... */\n      swap1\n      jump\t// out\n        /* \"Upgradable E1P 1822/Implementation1.sol\":910:989  function _name() pure public returns(string memory){... */\n    tag_69:\n        /* \"Upgradable E1P 1822/Implementation1.sol\":947:960  string memory */\n      0x60\n        /* \"Upgradable E1P 1822/Implementation1.sol\":978:982  name */\n      mload(0x40)\n      dup1\n      0x40\n      add\n      0x40\n      mstore\n      dup1\n      0x17\n      dup2\n      mstore\n      0x20\n      add\n      0x4549502d3138323220496d706c656d656e746174696f6e000000000000000000\n      dup2\n      mstore\n      pop\n        /* \"Upgradable E1P 1822/Implementation1.sol\":971:982  return name */\n      swap1\n      pop\n        /* \"Upgradable E1P 1822/Implementation1.sol\":910:989  function _name() pure public returns(string memory){... */\n      swap1\n      jump\t// out\n        /* \"Upgradable E1P 1822/Implementation1.sol\":396:436  mapping(address => uint) public _balance */\n    tag_73:\n      mstore(0x20, 0x02)\n      dup1\n      0x00\n      mstore\n      keccak256(0x00, 0x40)\n      0x00\n      swap2\n      pop\n      swap1\n      pop\n      sload\n      dup2\n      jump\t// out\n        /* \"Upgradable E1P 1822/Implementation2.sol\":325:430  function calculateBurn(uint amount) public pure returns(uint burn){... */\n    tag_78:\n        /* \"Upgradable E1P 1822/Implementation2.sol\":381:390  uint burn */\n      0x00\n        /* \"Upgradable E1P 1822/Implementation2.sol\":420:423  100 */\n      0x64\n        /* \"Upgradable E1P 1822/Implementation2.sol\":416:418  10 */\n      0x0a\n        /* \"Upgradable E1P 1822/Implementation2.sol\":407:413  amount */\n      dup4\n        /* \"Upgradable E1P 1822/Implementation2.sol\":407:418  amount * 10 */\n      tag_151\n      swap2\n      swap1\n      tag_132\n      jump\t// in\n    tag_151:\n        /* \"Upgradable E1P 1822/Implementation2.sol\":406:423  (amount * 10)/100 */\n      tag_152\n      swap2\n      swap1\n      tag_153\n      jump\t// in\n    tag_152:\n        /* \"Upgradable E1P 1822/Implementation2.sol\":399:423  burn = (amount * 10)/100 */\n      swap1\n      pop\n        /* \"Upgradable E1P 1822/Implementation2.sol\":325:430  function calculateBurn(uint amount) public pure returns(uint burn){... */\n      swap2\n      swap1\n      pop\n      jump\t// out\n        /* \"Upgradable E1P 1822/Implementation2.sol\":153:319  function _burn(uint amount) private returns(uint burnableToken){... */\n    tag_103:\n        /* \"Upgradable E1P 1822/Implementation2.sol\":197:215  uint burnableToken */\n      0x00\n        /* \"Upgradable E1P 1822/Implementation2.sol\":240:261  calculateBurn(amount) */\n      tag_155\n        /* \"Upgradable E1P 1822/Implementation2.sol\":254:260  amount */\n      dup3\n        /* \"Upgradable E1P 1822/Implementation2.sol\":240:253  calculateBurn */\n      tag_78\n        /* \"Upgradable E1P 1822/Implementation2.sol\":240:261  calculateBurn(amount) */\n      jump\t// in\n    tag_155:\n        /* \"Upgradable E1P 1822/Implementation2.sol\":224:261  burnableToken = calculateBurn(amount) */\n      swap1\n      pop\n        /* \"Upgradable E1P 1822/Implementation1.sol\":320:324  1e18 */\n      0x0de0b6b3a7640000\n        /* \"Upgradable E1P 1822/Implementation2.sol\":290:303  burnableToken */\n      dup2\n        /* \"Upgradable E1P 1822/Implementation2.sol\":290:312  burnableToken/ decimal */\n      tag_156\n      swap2\n      swap1\n      tag_153\n      jump\t// in\n    tag_156:\n        /* \"Upgradable E1P 1822/Implementation2.sol\":270:286  circulatingSuppy */\n      0x00\n      dup1\n        /* \"Upgradable E1P 1822/Implementation2.sol\":270:312  circulatingSuppy -= burnableToken/ decimal */\n      dup3\n      dup3\n      sload\n      tag_157\n      swap2\n      swap1\n      tag_105\n      jump\t// in\n    tag_157:\n      swap3\n      pop\n      pop\n      dup2\n      swap1\n      sstore\n      pop\n        /* \"Upgradable E1P 1822/Implementation2.sol\":153:319  function _burn(uint amount) private returns(uint burnableToken){... */\n      swap2\n      swap1\n      pop\n      jump\t// out\n        /* \"Upgradable E1P 1822/Proxible.sol\":220:621  function updateCodeAddress(address newAddress) internal {... */\n    tag_117:\n        /* \"Upgradable E1P 1822/Proxible.sol\":396:406  newAddress */\n      dup1\n        /* \"Upgradable E1P 1822/Proxible.sol\":386:421  Proxiable(newAddress).proxiableUUID */\n      0xffffffffffffffffffffffffffffffffffffffff\n      and\n      0x52d1902d\n        /* \"Upgradable E1P 1822/Proxible.sol\":386:423  Proxiable(newAddress).proxiableUUID() */\n      mload(0x40)\n      dup2\n      0xffffffff\n      and\n      0xe0\n      shl\n      dup2\n      mstore\n      0x04\n      add\n      0x20\n      mload(0x40)\n      dup1\n      dup4\n      sub\n      dup2\n      dup7\n      gas\n      staticcall\n      iszero\n      dup1\n      iszero\n      tag_160\n      jumpi\n      returndatasize\n      0x00\n      dup1\n      returndatacopy\n      revert(0x00, returndatasize)\n    tag_160:\n      pop\n      pop\n      pop\n      pop\n      mload(0x40)\n      returndatasize\n      not(0x1f)\n      0x1f\n      dup3\n      add\n      and\n      dup3\n      add\n      dup1\n      0x40\n      mstore\n      pop\n      dup2\n      add\n      swap1\n      tag_161\n      swap2\n      swap1\n      tag_162\n      jump\t// in\n    tag_161:\n        /* \"Upgradable E1P 1822/Proxible.sol\":315:381  0xc5f16f0fcc639fa48a6947836d9850f504798523bf8c9a3a87d5876cf622bcf7 */\n      0xc5f16f0fcc639fa48a6947836d9850f504798523bf8c9a3a87d5876cf622bcf7\n        /* \"Upgradable E1P 1822/Proxible.sol\":307:382  bytes32(0xc5f16f0fcc639fa48a6947836d9850f504798523bf8c9a3a87d5876cf622bcf7) */\n      0x00\n      shl\n        /* \"Upgradable E1P 1822/Proxible.sol\":307:423  bytes32(0xc5f16f0fcc639fa48a6947836d9850f504798523bf8c9a3a87d5876cf622bcf7) == Proxiable(newAddress).proxiableUUID() */\n      eq\n        /* \"Upgradable E1P 1822/Proxible.sol\":286:463  require(... */\n      tag_163\n      jumpi\n      mload(0x40)\n      0x08c379a000000000000000000000000000000000000000000000000000000000\n      dup2\n      mstore\n      0x04\n      add\n      tag_164\n      swap1\n      tag_165\n      jump\t// in\n    tag_164:\n      mload(0x40)\n      dup1\n      swap2\n      sub\n      swap1\n      revert\n    tag_163:\n        /* \"Upgradable E1P 1822/Proxible.sol\":594:604  newAddress */\n      dup1\n        /* \"Upgradable E1P 1822/Proxible.sol\":526:592  0xc5f16f0fcc639fa48a6947836d9850f504798523bf8c9a3a87d5876cf622bcf7 */\n      0xc5f16f0fcc639fa48a6947836d9850f504798523bf8c9a3a87d5876cf622bcf7\n        /* \"Upgradable E1P 1822/Proxible.sol\":519:605  sstore(0xc5f16f0fcc639fa48a6947836d9850f504798523bf8c9a3a87d5876cf622bcf7, newAddress) */\n      sstore\n        /* \"Upgradable E1P 1822/Proxible.sol\":220:621  function updateCodeAddress(address newAddress) internal {... */\n      pop\n      jump\t// out\n        /* \"#utility.yul\":88:205   */\n    tag_167:\n        /* \"#utility.yul\":197:198   */\n      0x00\n        /* \"#utility.yul\":194:195   */\n      dup1\n        /* \"#utility.yul\":187:199   */\n      revert\n        /* \"#utility.yul\":334:460   */\n    tag_169:\n        /* \"#utility.yul\":371:378   */\n      0x00\n        /* \"#utility.yul\":411:453   */\n      0xffffffffffffffffffffffffffffffffffffffff\n        /* \"#utility.yul\":404:409   */\n      dup3\n        /* \"#utility.yul\":400:454   */\n      and\n        /* \"#utility.yul\":389:454   */\n      swap1\n      pop\n        /* \"#utility.yul\":334:460   */\n      swap2\n      swap1\n      pop\n      jump\t// out\n        /* \"#utility.yul\":466:562   */\n    tag_170:\n        /* \"#utility.yul\":503:510   */\n      0x00\n        /* \"#utility.yul\":532:556   */\n      tag_213\n        /* \"#utility.yul\":550:555   */\n      dup3\n        /* \"#utility.yul\":532:556   */\n      tag_169\n      jump\t// in\n    tag_213:\n        /* \"#utility.yul\":521:556   */\n      swap1\n      pop\n        /* \"#utility.yul\":466:562   */\n      swap2\n      swap1\n      pop\n      jump\t// out\n        /* \"#utility.yul\":568:690   */\n    tag_171:\n        /* \"#utility.yul\":641:665   */\n      tag_215\n        /* \"#utility.yul\":659:664   */\n      dup2\n        /* \"#utility.yul\":641:665   */\n      tag_170\n      jump\t// in\n    tag_215:\n        /* \"#utility.yul\":634:639   */\n      dup2\n        /* \"#utility.yul\":631:666   */\n      eq\n        /* \"#utility.yul\":621:684   */\n      tag_216\n      jumpi\n        /* \"#utility.yul\":680:681   */\n      0x00\n        /* \"#utility.yul\":677:678   */\n      dup1\n        /* \"#utility.yul\":670:682   */\n      revert\n        /* \"#utility.yul\":621:684   */\n    tag_216:\n        /* \"#utility.yul\":568:690   */\n      pop\n      jump\t// out\n        /* \"#utility.yul\":696:835   */\n    tag_172:\n        /* \"#utility.yul\":742:747   */\n      0x00\n        /* \"#utility.yul\":780:786   */\n      dup2\n        /* \"#utility.yul\":767:787   */\n      calldataload\n        /* \"#utility.yul\":758:787   */\n      swap1\n      pop\n        /* \"#utility.yul\":796:829   */\n      tag_218\n        /* \"#utility.yul\":823:828   */\n      dup2\n        /* \"#utility.yul\":796:829   */\n      tag_171\n      jump\t// in\n    tag_218:\n        /* \"#utility.yul\":696:835   */\n      swap3\n      swap2\n      pop\n      pop\n      jump\t// out\n        /* \"#utility.yul\":841:918   */\n    tag_173:\n        /* \"#utility.yul\":878:885   */\n      0x00\n        /* \"#utility.yul\":907:912   */\n      dup2\n        /* \"#utility.yul\":896:912   */\n      swap1\n      pop\n        /* \"#utility.yul\":841:918   */\n      swap2\n      swap1\n      pop\n      jump\t// out\n        /* \"#utility.yul\":924:1046   */\n    tag_174:\n        /* \"#utility.yul\":997:1021   */\n      tag_221\n        /* \"#utility.yul\":1015:1020   */\n      dup2\n        /* \"#utility.yul\":997:1021   */\n      tag_173\n      jump\t// in\n    tag_221:\n        /* \"#utility.yul\":990:995   */\n      dup2\n        /* \"#utility.yul\":987:1022   */\n      eq\n        /* \"#utility.yul\":977:1040   */\n      tag_222\n      jumpi\n        /* \"#utility.yul\":1036:1037   */\n      0x00\n        /* \"#utility.yul\":1033:1034   */\n      dup1\n        /* \"#utility.yul\":1026:1038   */\n      revert\n        /* \"#utility.yul\":977:1040   */\n    tag_222:\n        /* \"#utility.yul\":924:1046   */\n      pop\n      jump\t// out\n        /* \"#utility.yul\":1052:1191   */\n    tag_175:\n        /* \"#utility.yul\":1098:1103   */\n      0x00\n        /* \"#utility.yul\":1136:1142   */\n      dup2\n        /* \"#utility.yul\":1123:1143   */\n      calldataload\n        /* \"#utility.yul\":1114:1143   */\n      swap1\n      pop\n        /* \"#utility.yul\":1152:1185   */\n      tag_224\n        /* \"#utility.yul\":1179:1184   */\n      dup2\n        /* \"#utility.yul\":1152:1185   */\n      tag_174\n      jump\t// in\n    tag_224:\n        /* \"#utility.yul\":1052:1191   */\n      swap3\n      swap2\n      pop\n      pop\n      jump\t// out\n        /* \"#utility.yul\":1197:1671   */\n    tag_23:\n        /* \"#utility.yul\":1265:1271   */\n      0x00\n        /* \"#utility.yul\":1273:1279   */\n      dup1\n        /* \"#utility.yul\":1322:1324   */\n      0x40\n        /* \"#utility.yul\":1310:1319   */\n      dup4\n        /* \"#utility.yul\":1301:1308   */\n      dup6\n        /* \"#utility.yul\":1297:1320   */\n      sub\n        /* \"#utility.yul\":1293:1325   */\n      slt\n        /* \"#utility.yul\":1290:1409   */\n      iszero\n      tag_226\n      jumpi\n        /* \"#utility.yul\":1328:1407   */\n      tag_227\n      tag_167\n      jump\t// in\n    tag_227:\n        /* \"#utility.yul\":1290:1409   */\n    tag_226:\n        /* \"#utility.yul\":1448:1449   */\n      0x00\n        /* \"#utility.yul\":1473:1526   */\n      tag_228\n        /* \"#utility.yul\":1518:1525   */\n      dup6\n        /* \"#utility.yul\":1509:1515   */\n      dup3\n        /* \"#utility.yul\":1498:1507   */\n      dup7\n        /* \"#utility.yul\":1494:1516   */\n      add\n        /* \"#utility.yul\":1473:1526   */\n      tag_172\n      jump\t// in\n    tag_228:\n        /* \"#utility.yul\":1463:1526   */\n      swap3\n      pop\n        /* \"#utility.yul\":1419:1536   */\n      pop\n        /* \"#utility.yul\":1575:1577   */\n      0x20\n        /* \"#utility.yul\":1601:1654   */\n      tag_229\n        /* \"#utility.yul\":1646:1653   */\n      dup6\n        /* \"#utility.yul\":1637:1643   */\n      dup3\n        /* \"#utility.yul\":1626:1635   */\n      dup7\n        /* \"#utility.yul\":1622:1644   */\n      add\n        /* \"#utility.yul\":1601:1654   */\n      tag_175\n      jump\t// in\n    tag_229:\n        /* \"#utility.yul\":1591:1654   */\n      swap2\n      pop\n        /* \"#utility.yul\":1546:1664   */\n      pop\n        /* \"#utility.yul\":1197:1671   */\n      swap3\n      pop\n      swap3\n      swap1\n      pop\n      jump\t// out\n        /* \"#utility.yul\":1677:1767   */\n    tag_176:\n        /* \"#utility.yul\":1711:1718   */\n      0x00\n        /* \"#utility.yul\":1754:1759   */\n      dup2\n        /* \"#utility.yul\":1747:1760   */\n      iszero\n        /* \"#utility.yul\":1740:1761   */\n      iszero\n        /* \"#utility.yul\":1729:1761   */\n      swap1\n      pop\n        /* \"#utility.yul\":1677:1767   */\n      swap2\n      swap1\n      pop\n      jump\t// out\n        /* \"#utility.yul\":1773:1882   */\n    tag_177:\n        /* \"#utility.yul\":1854:1875   */\n      tag_232\n        /* \"#utility.yul\":1869:1874   */\n      dup2\n        /* \"#utility.yul\":1854:1875   */\n      tag_176\n      jump\t// in\n    tag_232:\n        /* \"#utility.yul\":1849:1852   */\n      dup3\n        /* \"#utility.yul\":1842:1876   */\n      mstore\n        /* \"#utility.yul\":1773:1882   */\n      pop\n      pop\n      jump\t// out\n        /* \"#utility.yul\":1888:2098   */\n    tag_28:\n        /* \"#utility.yul\":1975:1979   */\n      0x00\n        /* \"#utility.yul\":2013:2015   */\n      0x20\n        /* \"#utility.yul\":2002:2011   */\n      dup3\n        /* \"#utility.yul\":1998:2016   */\n      add\n        /* \"#utility.yul\":1990:2016   */\n      swap1\n      pop\n        /* \"#utility.yul\":2026:2091   */\n      tag_234\n        /* \"#utility.yul\":2088:2089   */\n      0x00\n        /* \"#utility.yul\":2077:2086   */\n      dup4\n        /* \"#utility.yul\":2073:2090   */\n      add\n        /* \"#utility.yul\":2064:2070   */\n      dup5\n        /* \"#utility.yul\":2026:2091   */\n      tag_177\n      jump\t// in\n    tag_234:\n        /* \"#utility.yul\":1888:2098   */\n      swap3\n      swap2\n      pop\n      pop\n      jump\t// out\n        /* \"#utility.yul\":2104:2723   */\n    tag_31:\n        /* \"#utility.yul\":2181:2187   */\n      0x00\n        /* \"#utility.yul\":2189:2195   */\n      dup1\n        /* \"#utility.yul\":2197:2203   */\n      0x00\n        /* \"#utility.yul\":2246:2248   */\n      0x60\n        /* \"#utility.yul\":2234:2243   */\n      dup5\n        /* \"#utility.yul\":2225:2232   */\n      dup7\n        /* \"#utility.yul\":2221:2244   */\n      sub\n        /* \"#utility.yul\":2217:2249   */\n      slt\n        /* \"#utility.yul\":2214:2333   */\n      iszero\n      tag_236\n      jumpi\n        /* \"#utility.yul\":2252:2331   */\n      tag_237\n      tag_167\n      jump\t// in\n    tag_237:\n        /* \"#utility.yul\":2214:2333   */\n    tag_236:\n        /* \"#utility.yul\":2372:2373   */\n      0x00\n        /* \"#utility.yul\":2397:2450   */\n      tag_238\n        /* \"#utility.yul\":2442:2449   */\n      dup7\n        /* \"#utility.yul\":2433:2439   */\n      dup3\n        /* \"#utility.yul\":2422:2431   */\n      dup8\n        /* \"#utility.yul\":2418:2440   */\n      add\n        /* \"#utility.yul\":2397:2450   */\n      tag_172\n      jump\t// in\n    tag_238:\n        /* \"#utility.yul\":2387:2450   */\n      swap4\n      pop\n        /* \"#utility.yul\":2343:2460   */\n      pop\n        /* \"#utility.yul\":2499:2501   */\n      0x20\n        /* \"#utility.yul\":2525:2578   */\n      tag_239\n        /* \"#utility.yul\":2570:2577   */\n      dup7\n        /* \"#utility.yul\":2561:2567   */\n      dup3\n        /* \"#utility.yul\":2550:2559   */\n      dup8\n        /* \"#utility.yul\":2546:2568   */\n      add\n        /* \"#utility.yul\":2525:2578   */\n      tag_172\n      jump\t// in\n    tag_239:\n        /* \"#utility.yul\":2515:2578   */\n      swap3\n      pop\n        /* \"#utility.yul\":2470:2588   */\n      pop\n        /* \"#utility.yul\":2627:2629   */\n      0x40\n        /* \"#utility.yul\":2653:2706   */\n      tag_240\n        /* \"#utility.yul\":2698:2705   */\n      dup7\n        /* \"#utility.yul\":2689:2695   */\n      dup3\n        /* \"#utility.yul\":2678:2687   */\n      dup8\n        /* \"#utility.yul\":2674:2696   */\n      add\n        /* \"#utility.yul\":2653:2706   */\n      tag_175\n      jump\t// in\n    tag_240:\n        /* \"#utility.yul\":2643:2706   */\n      swap2\n      pop\n        /* \"#utility.yul\":2598:2716   */\n      pop\n        /* \"#utility.yul\":2104:2723   */\n      swap3\n      pop\n      swap3\n      pop\n      swap3\n      jump\t// out\n        /* \"#utility.yul\":2729:2847   */\n    tag_178:\n        /* \"#utility.yul\":2816:2840   */\n      tag_242\n        /* \"#utility.yul\":2834:2839   */\n      dup2\n        /* \"#utility.yul\":2816:2840   */\n      tag_173\n      jump\t// in\n    tag_242:\n        /* \"#utility.yul\":2811:2814   */\n      dup3\n        /* \"#utility.yul\":2804:2841   */\n      mstore\n        /* \"#utility.yul\":2729:2847   */\n      pop\n      pop\n      jump\t// out\n        /* \"#utility.yul\":2853:3075   */\n    tag_36:\n        /* \"#utility.yul\":2946:2950   */\n      0x00\n        /* \"#utility.yul\":2984:2986   */\n      0x20\n        /* \"#utility.yul\":2973:2982   */\n      dup3\n        /* \"#utility.yul\":2969:2987   */\n      add\n        /* \"#utility.yul\":2961:2987   */\n      swap1\n      pop\n        /* \"#utility.yul\":2997:3068   */\n      tag_244\n        /* \"#utility.yul\":3065:3066   */\n      0x00\n        /* \"#utility.yul\":3054:3063   */\n      dup4\n        /* \"#utility.yul\":3050:3067   */\n      add\n        /* \"#utility.yul\":3041:3047   */\n      dup5\n        /* \"#utility.yul\":2997:3068   */\n      tag_178\n      jump\t// in\n    tag_244:\n        /* \"#utility.yul\":2853:3075   */\n      swap3\n      swap2\n      pop\n      pop\n      jump\t// out\n        /* \"#utility.yul\":3081:3410   */\n    tag_42:\n        /* \"#utility.yul\":3140:3146   */\n      0x00\n        /* \"#utility.yul\":3189:3191   */\n      0x20\n        /* \"#utility.yul\":3177:3186   */\n      dup3\n        /* \"#utility.yul\":3168:3175   */\n      dup5\n        /* \"#utility.yul\":3164:3187   */\n      sub\n        /* \"#utility.yul\":3160:3192   */\n      slt\n        /* \"#utility.yul\":3157:3276   */\n      iszero\n      tag_246\n      jumpi\n        /* \"#utility.yul\":3195:3274   */\n      tag_247\n      tag_167\n      jump\t// in\n    tag_247:\n        /* \"#utility.yul\":3157:3276   */\n    tag_246:\n        /* \"#utility.yul\":3315:3316   */\n      0x00\n        /* \"#utility.yul\":3340:3393   */\n      tag_248\n        /* \"#utility.yul\":3385:3392   */\n      dup5\n        /* \"#utility.yul\":3376:3382   */\n      dup3\n        /* \"#utility.yul\":3365:3374   */\n      dup6\n        /* \"#utility.yul\":3361:3383   */\n      add\n        /* \"#utility.yul\":3340:3393   */\n      tag_172\n      jump\t// in\n    tag_248:\n        /* \"#utility.yul\":3330:3393   */\n      swap2\n      pop\n        /* \"#utility.yul\":3286:3403   */\n      pop\n        /* \"#utility.yul\":3081:3410   */\n      swap3\n      swap2\n      pop\n      pop\n      jump\t// out\n        /* \"#utility.yul\":3416:3493   */\n    tag_179:\n        /* \"#utility.yul\":3453:3460   */\n      0x00\n        /* \"#utility.yul\":3482:3487   */\n      dup2\n        /* \"#utility.yul\":3471:3487   */\n      swap1\n      pop\n        /* \"#utility.yul\":3416:3493   */\n      swap2\n      swap1\n      pop\n      jump\t// out\n        /* \"#utility.yul\":3499:3617   */\n    tag_180:\n        /* \"#utility.yul\":3586:3610   */\n      tag_251\n        /* \"#utility.yul\":3604:3609   */\n      dup2\n        /* \"#utility.yul\":3586:3610   */\n      tag_179\n      jump\t// in\n    tag_251:\n        /* \"#utility.yul\":3581:3584   */\n      dup3\n        /* \"#utility.yul\":3574:3611   */\n      mstore\n        /* \"#utility.yul\":3499:3617   */\n      pop\n      pop\n      jump\t// out\n        /* \"#utility.yul\":3623:3845   */\n    tag_47:\n        /* \"#utility.yul\":3716:3720   */\n      0x00\n        /* \"#utility.yul\":3754:3756   */\n      0x20\n        /* \"#utility.yul\":3743:3752   */\n      dup3\n        /* \"#utility.yul\":3739:3757   */\n      add\n        /* \"#utility.yul\":3731:3757   */\n      swap1\n      pop\n        /* \"#utility.yul\":3767:3838   */\n      tag_253\n        /* \"#utility.yul\":3835:3836   */\n      0x00\n        /* \"#utility.yul\":3824:3833   */\n      dup4\n        /* \"#utility.yul\":3820:3837   */\n      add\n        /* \"#utility.yul\":3811:3817   */\n      dup5\n        /* \"#utility.yul\":3767:3838   */\n      tag_180\n      jump\t// in\n    tag_253:\n        /* \"#utility.yul\":3623:3845   */\n      swap3\n      swap2\n      pop\n      pop\n      jump\t// out\n        /* \"#utility.yul\":3851:3969   */\n    tag_181:\n        /* \"#utility.yul\":3938:3962   */\n      tag_255\n        /* \"#utility.yul\":3956:3961   */\n      dup2\n        /* \"#utility.yul\":3938:3962   */\n      tag_170\n      jump\t// in\n    tag_255:\n        /* \"#utility.yul\":3933:3936   */\n      dup3\n        /* \"#utility.yul\":3926:3963   */\n      mstore\n        /* \"#utility.yul\":3851:3969   */\n      pop\n      pop\n      jump\t// out\n        /* \"#utility.yul\":3975:4197   */\n    tag_55:\n        /* \"#utility.yul\":4068:4072   */\n      0x00\n        /* \"#utility.yul\":4106:4108   */\n      0x20\n        /* \"#utility.yul\":4095:4104   */\n      dup3\n        /* \"#utility.yul\":4091:4109   */\n      add\n        /* \"#utility.yul\":4083:4109   */\n      swap1\n      pop\n        /* \"#utility.yul\":4119:4190   */\n      tag_257\n        /* \"#utility.yul\":4187:4188   */\n      0x00\n        /* \"#utility.yul\":4176:4185   */\n      dup4\n        /* \"#utility.yul\":4172:4189   */\n      add\n        /* \"#utility.yul\":4163:4169   */\n      dup5\n        /* \"#utility.yul\":4119:4190   */\n      tag_181\n      jump\t// in\n    tag_257:\n        /* \"#utility.yul\":3975:4197   */\n      swap3\n      swap2\n      pop\n      pop\n      jump\t// out\n        /* \"#utility.yul\":4203:4677   */\n    tag_58:\n        /* \"#utility.yul\":4271:4277   */\n      0x00\n        /* \"#utility.yul\":4279:4285   */\n      dup1\n        /* \"#utility.yul\":4328:4330   */\n      0x40\n        /* \"#utility.yul\":4316:4325   */\n      dup4\n        /* \"#utility.yul\":4307:4314   */\n      dup6\n        /* \"#utility.yul\":4303:4326   */\n      sub\n        /* \"#utility.yul\":4299:4331   */\n      slt\n        /* \"#utility.yul\":4296:4415   */\n      iszero\n      tag_259\n      jumpi\n        /* \"#utility.yul\":4334:4413   */\n      tag_260\n      tag_167\n      jump\t// in\n    tag_260:\n        /* \"#utility.yul\":4296:4415   */\n    tag_259:\n        /* \"#utility.yul\":4454:4455   */\n      0x00\n        /* \"#utility.yul\":4479:4532   */\n      tag_261\n        /* \"#utility.yul\":4524:4531   */\n      dup6\n        /* \"#utility.yul\":4515:4521   */\n      dup3\n        /* \"#utility.yul\":4504:4513   */\n      dup7\n        /* \"#utility.yul\":4500:4522   */\n      add\n        /* \"#utility.yul\":4479:4532   */\n      tag_175\n      jump\t// in\n    tag_261:\n        /* \"#utility.yul\":4469:4532   */\n      swap3\n      pop\n        /* \"#utility.yul\":4425:4542   */\n      pop\n        /* \"#utility.yul\":4581:4583   */\n      0x20\n        /* \"#utility.yul\":4607:4660   */\n      tag_262\n        /* \"#utility.yul\":4652:4659   */\n      dup6\n        /* \"#utility.yul\":4643:4649   */\n      dup3\n        /* \"#utility.yul\":4632:4641   */\n      dup7\n        /* \"#utility.yul\":4628:4650   */\n      add\n        /* \"#utility.yul\":4607:4660   */\n      tag_172\n      jump\t// in\n    tag_262:\n        /* \"#utility.yul\":4597:4660   */\n      swap2\n      pop\n        /* \"#utility.yul\":4552:4670   */\n      pop\n        /* \"#utility.yul\":4203:4677   */\n      swap3\n      pop\n      swap3\n      swap1\n      pop\n      jump\t// out\n        /* \"#utility.yul\":4683:4782   */\n    tag_182:\n        /* \"#utility.yul\":4735:4741   */\n      0x00\n        /* \"#utility.yul\":4769:4774   */\n      dup2\n        /* \"#utility.yul\":4763:4775   */\n      mload\n        /* \"#utility.yul\":4753:4775   */\n      swap1\n      pop\n        /* \"#utility.yul\":4683:4782   */\n      swap2\n      swap1\n      pop\n      jump\t// out\n        /* \"#utility.yul\":4788:4957   */\n    tag_183:\n        /* \"#utility.yul\":4872:4883   */\n      0x00\n        /* \"#utility.yul\":4906:4912   */\n      dup3\n        /* \"#utility.yul\":4901:4904   */\n      dup3\n        /* \"#utility.yul\":4894:4913   */\n      mstore\n        /* \"#utility.yul\":4946:4950   */\n      0x20\n        /* \"#utility.yul\":4941:4944   */\n      dup3\n        /* \"#utility.yul\":4937:4951   */\n      add\n        /* \"#utility.yul\":4922:4951   */\n      swap1\n      pop\n        /* \"#utility.yul\":4788:4957   */\n      swap3\n      swap2\n      pop\n      pop\n      jump\t// out\n        /* \"#utility.yul\":4963:5209   */\n    tag_184:\n        /* \"#utility.yul\":5044:5045   */\n      0x00\n        /* \"#utility.yul\":5054:5167   */\n    tag_266:\n        /* \"#utility.yul\":5068:5074   */\n      dup4\n        /* \"#utility.yul\":5065:5066   */\n      dup2\n        /* \"#utility.yul\":5062:5075   */\n      lt\n        /* \"#utility.yul\":5054:5167   */\n      iszero\n      tag_268\n      jumpi\n        /* \"#utility.yul\":5153:5154   */\n      dup1\n        /* \"#utility.yul\":5148:5151   */\n      dup3\n        /* \"#utility.yul\":5144:5155   */\n      add\n        /* \"#utility.yul\":5138:5156   */\n      mload\n        /* \"#utility.yul\":5134:5135   */\n      dup2\n        /* \"#utility.yul\":5129:5132   */\n      dup5\n        /* \"#utility.yul\":5125:5136   */\n      add\n        /* \"#utility.yul\":5118:5157   */\n      mstore\n        /* \"#utility.yul\":5090:5092   */\n      0x20\n        /* \"#utility.yul\":5087:5088   */\n      dup2\n        /* \"#utility.yul\":5083:5093   */\n      add\n        /* \"#utility.yul\":5078:5093   */\n      swap1\n      pop\n        /* \"#utility.yul\":5054:5167   */\n      jump(tag_266)\n    tag_268:\n        /* \"#utility.yul\":5201:5202   */\n      0x00\n        /* \"#utility.yul\":5192:5198   */\n      dup5\n        /* \"#utility.yul\":5187:5190   */\n      dup5\n        /* \"#utility.yul\":5183:5199   */\n      add\n        /* \"#utility.yul\":5176:5203   */\n      mstore\n        /* \"#utility.yul\":5025:5209   */\n      pop\n        /* \"#utility.yul\":4963:5209   */\n      pop\n      pop\n      pop\n      jump\t// out\n        /* \"#utility.yul\":5215:5317   */\n    tag_185:\n        /* \"#utility.yul\":5256:5262   */\n      0x00\n        /* \"#utility.yul\":5307:5309   */\n      0x1f\n        /* \"#utility.yul\":5303:5310   */\n      not\n        /* \"#utility.yul\":5298:5300   */\n      0x1f\n        /* \"#utility.yul\":5291:5296   */\n      dup4\n        /* \"#utility.yul\":5287:5301   */\n      add\n        /* \"#utility.yul\":5283:5311   */\n      and\n        /* \"#utility.yul\":5273:5311   */\n      swap1\n      pop\n        /* \"#utility.yul\":5215:5317   */\n      swap2\n      swap1\n      pop\n      jump\t// out\n        /* \"#utility.yul\":5323:5700   */\n    tag_186:\n        /* \"#utility.yul\":5411:5414   */\n      0x00\n        /* \"#utility.yul\":5439:5478   */\n      tag_271\n        /* \"#utility.yul\":5472:5477   */\n      dup3\n        /* \"#utility.yul\":5439:5478   */\n      tag_182\n      jump\t// in\n    tag_271:\n        /* \"#utility.yul\":5494:5565   */\n      tag_272\n        /* \"#utility.yul\":5558:5564   */\n      dup2\n        /* \"#utility.yul\":5553:5556   */\n      dup6\n        /* \"#utility.yul\":5494:5565   */\n      tag_183\n      jump\t// in\n    tag_272:\n        /* \"#utility.yul\":5487:5565   */\n      swap4\n      pop\n        /* \"#utility.yul\":5574:5639   */\n      tag_273\n        /* \"#utility.yul\":5632:5638   */\n      dup2\n        /* \"#utility.yul\":5627:5630   */\n      dup6\n        /* \"#utility.yul\":5620:5624   */\n      0x20\n        /* \"#utility.yul\":5613:5618   */\n      dup7\n        /* \"#utility.yul\":5609:5625   */\n      add\n        /* \"#utility.yul\":5574:5639   */\n      tag_184\n      jump\t// in\n    tag_273:\n        /* \"#utility.yul\":5664:5693   */\n      tag_274\n        /* \"#utility.yul\":5686:5692   */\n      dup2\n        /* \"#utility.yul\":5664:5693   */\n      tag_185\n      jump\t// in\n    tag_274:\n        /* \"#utility.yul\":5659:5662   */\n      dup5\n        /* \"#utility.yul\":5655:5694   */\n      add\n        /* \"#utility.yul\":5648:5694   */\n      swap2\n      pop\n        /* \"#utility.yul\":5415:5700   */\n      pop\n        /* \"#utility.yul\":5323:5700   */\n      swap3\n      swap2\n      pop\n      pop\n      jump\t// out\n        /* \"#utility.yul\":5706:6019   */\n    tag_67:\n        /* \"#utility.yul\":5819:5823   */\n      0x00\n        /* \"#utility.yul\":5857:5859   */\n      0x20\n        /* \"#utility.yul\":5846:5855   */\n      dup3\n        /* \"#utility.yul\":5842:5860   */\n      add\n        /* \"#utility.yul\":5834:5860   */\n      swap1\n      pop\n        /* \"#utility.yul\":5906:5915   */\n      dup2\n        /* \"#utility.yul\":5900:5904   */\n      dup2\n        /* \"#utility.yul\":5896:5916   */\n      sub\n        /* \"#utility.yul\":5892:5893   */\n      0x00\n        /* \"#utility.yul\":5881:5890   */\n      dup4\n        /* \"#utility.yul\":5877:5894   */\n      add\n        /* \"#utility.yul\":5870:5917   */\n      mstore\n        /* \"#utility.yul\":5934:6012   */\n      tag_276\n        /* \"#utility.yul\":6007:6011   */\n      dup2\n        /* \"#utility.yul\":5998:6004   */\n      dup5\n        /* \"#utility.yul\":5934:6012   */\n      tag_186\n      jump\t// in\n    tag_276:\n        /* \"#utility.yul\":5926:6012   */\n      swap1\n      pop\n        /* \"#utility.yul\":5706:6019   */\n      swap3\n      swap2\n      pop\n      pop\n      jump\t// out\n        /* \"#utility.yul\":6025:6354   */\n    tag_77:\n        /* \"#utility.yul\":6084:6090   */\n      0x00\n        /* \"#utility.yul\":6133:6135   */\n      0x20\n        /* \"#utility.yul\":6121:6130   */\n      dup3\n        /* \"#utility.yul\":6112:6119   */\n      dup5\n        /* \"#utility.yul\":6108:6131   */\n      sub\n        /* \"#utility.yul\":6104:6136   */\n      slt\n        /* \"#utility.yul\":6101:6220   */\n      iszero\n      tag_278\n      jumpi\n        /* \"#utility.yul\":6139:6218   */\n      tag_279\n      tag_167\n      jump\t// in\n    tag_279:\n        /* \"#utility.yul\":6101:6220   */\n    tag_278:\n        /* \"#utility.yul\":6259:6260   */\n      0x00\n        /* \"#utility.yul\":6284:6337   */\n      tag_280\n        /* \"#utility.yul\":6329:6336   */\n      dup5\n        /* \"#utility.yul\":6320:6326   */\n      dup3\n        /* \"#utility.yul\":6309:6318   */\n      dup6\n        /* \"#utility.yul\":6305:6327   */\n      add\n        /* \"#utility.yul\":6284:6337   */\n      tag_175\n      jump\t// in\n    tag_280:\n        /* \"#utility.yul\":6274:6337   */\n      swap2\n      pop\n        /* \"#utility.yul\":6230:6347   */\n      pop\n        /* \"#utility.yul\":6025:6354   */\n      swap3\n      swap2\n      pop\n      pop\n      jump\t// out\n        /* \"#utility.yul\":6360:6528   */\n    tag_187:\n        /* \"#utility.yul\":6500:6520   */\n      0x496e73756666696369656e742066756e64730000000000000000000000000000\n        /* \"#utility.yul\":6496:6497   */\n      0x00\n        /* \"#utility.yul\":6488:6494   */\n      dup3\n        /* \"#utility.yul\":6484:6498   */\n      add\n        /* \"#utility.yul\":6477:6521   */\n      mstore\n        /* \"#utility.yul\":6360:6528   */\n      pop\n      jump\t// out\n        /* \"#utility.yul\":6534:6900   */\n    tag_188:\n        /* \"#utility.yul\":6676:6679   */\n      0x00\n        /* \"#utility.yul\":6697:6764   */\n      tag_283\n        /* \"#utility.yul\":6761:6763   */\n      0x12\n        /* \"#utility.yul\":6756:6759   */\n      dup4\n        /* \"#utility.yul\":6697:6764   */\n      tag_183\n      jump\t// in\n    tag_283:\n        /* \"#utility.yul\":6690:6764   */\n      swap2\n      pop\n        /* \"#utility.yul\":6773:6866   */\n      tag_284\n        /* \"#utility.yul\":6862:6865   */\n      dup3\n        /* \"#utility.yul\":6773:6866   */\n      tag_187\n      jump\t// in\n    tag_284:\n        /* \"#utility.yul\":6891:6893   */\n      0x20\n        /* \"#utility.yul\":6886:6889   */\n      dup3\n        /* \"#utility.yul\":6882:6894   */\n      add\n        /* \"#utility.yul\":6875:6894   */\n      swap1\n      pop\n        /* \"#utility.yul\":6534:6900   */\n      swap2\n      swap1\n      pop\n      jump\t// out\n        /* \"#utility.yul\":6906:7325   */\n    tag_84:\n        /* \"#utility.yul\":7072:7076   */\n      0x00\n        /* \"#utility.yul\":7110:7112   */\n      0x20\n        /* \"#utility.yul\":7099:7108   */\n      dup3\n        /* \"#utility.yul\":7095:7113   */\n      add\n        /* \"#utility.yul\":7087:7113   */\n      swap1\n      pop\n        /* \"#utility.yul\":7159:7168   */\n      dup2\n        /* \"#utility.yul\":7153:7157   */\n      dup2\n        /* \"#utility.yul\":7149:7169   */\n      sub\n        /* \"#utility.yul\":7145:7146   */\n      0x00\n        /* \"#utility.yul\":7134:7143   */\n      dup4\n        /* \"#utility.yul\":7130:7147   */\n      add\n        /* \"#utility.yul\":7123:7170   */\n      mstore\n        /* \"#utility.yul\":7187:7318   */\n      tag_286\n        /* \"#utility.yul\":7313:7317   */\n      dup2\n        /* \"#utility.yul\":7187:7318   */\n      tag_188\n      jump\t// in\n    tag_286:\n        /* \"#utility.yul\":7179:7318   */\n      swap1\n      pop\n        /* \"#utility.yul\":6906:7325   */\n      swap2\n      swap1\n      pop\n      jump\t// out\n        /* \"#utility.yul\":7331:7511   */\n    tag_189:\n        /* \"#utility.yul\":7379:7456   */\n      0x4e487b7100000000000000000000000000000000000000000000000000000000\n        /* \"#utility.yul\":7376:7377   */\n      0x00\n        /* \"#utility.yul\":7369:7457   */\n      mstore\n        /* \"#utility.yul\":7476:7480   */\n      0x11\n        /* \"#utility.yul\":7473:7474   */\n      0x04\n        /* \"#utility.yul\":7466:7481   */\n      mstore\n        /* \"#utility.yul\":7500:7504   */\n      0x24\n        /* \"#utility.yul\":7497:7498   */\n      0x00\n        /* \"#utility.yul\":7490:7505   */\n      revert\n        /* \"#utility.yul\":7517:7708   */\n    tag_90:\n        /* \"#utility.yul\":7557:7560   */\n      0x00\n        /* \"#utility.yul\":7576:7596   */\n      tag_289\n        /* \"#utility.yul\":7594:7595   */\n      dup3\n        /* \"#utility.yul\":7576:7596   */\n      tag_173\n      jump\t// in\n    tag_289:\n        /* \"#utility.yul\":7571:7596   */\n      swap2\n      pop\n        /* \"#utility.yul\":7610:7630   */\n      tag_290\n        /* \"#utility.yul\":7628:7629   */\n      dup4\n        /* \"#utility.yul\":7610:7630   */\n      tag_173\n      jump\t// in\n    tag_290:\n        /* \"#utility.yul\":7605:7630   */\n      swap3\n      pop\n        /* \"#utility.yul\":7653:7654   */\n      dup3\n        /* \"#utility.yul\":7650:7651   */\n      dup3\n        /* \"#utility.yul\":7646:7655   */\n      add\n        /* \"#utility.yul\":7639:7655   */\n      swap1\n      pop\n        /* \"#utility.yul\":7674:7677   */\n      dup1\n        /* \"#utility.yul\":7671:7672   */\n      dup3\n        /* \"#utility.yul\":7668:7678   */\n      gt\n        /* \"#utility.yul\":7665:7701   */\n      iszero\n      tag_291\n      jumpi\n        /* \"#utility.yul\":7681:7699   */\n      tag_292\n      tag_189\n      jump\t// in\n    tag_292:\n        /* \"#utility.yul\":7665:7701   */\n    tag_291:\n        /* \"#utility.yul\":7517:7708   */\n      swap3\n      swap2\n      pop\n      pop\n      jump\t// out\n        /* \"#utility.yul\":7714:7887   */\n    tag_190:\n        /* \"#utility.yul\":7854:7879   */\n      0x4e6f7420616e20617070726f766564207370656e646572000000000000000000\n        /* \"#utility.yul\":7850:7851   */\n      0x00\n        /* \"#utility.yul\":7842:7848   */\n      dup3\n        /* \"#utility.yul\":7838:7852   */\n      add\n        /* \"#utility.yul\":7831:7880   */\n      mstore\n        /* \"#utility.yul\":7714:7887   */\n      pop\n      jump\t// out\n        /* \"#utility.yul\":7893:8259   */\n    tag_191:\n        /* \"#utility.yul\":8035:8038   */\n      0x00\n        /* \"#utility.yul\":8056:8123   */\n      tag_295\n        /* \"#utility.yul\":8120:8122   */\n      0x17\n        /* \"#utility.yul\":8115:8118   */\n      dup4\n        /* \"#utility.yul\":8056:8123   */\n      tag_183\n      jump\t// in\n    tag_295:\n        /* \"#utility.yul\":8049:8123   */\n      swap2\n      pop\n        /* \"#utility.yul\":8132:8225   */\n      tag_296\n        /* \"#utility.yul\":8221:8224   */\n      dup3\n        /* \"#utility.yul\":8132:8225   */\n      tag_190\n      jump\t// in\n    tag_296:\n        /* \"#utility.yul\":8250:8252   */\n      0x20\n        /* \"#utility.yul\":8245:8248   */\n      dup3\n        /* \"#utility.yul\":8241:8253   */\n      add\n        /* \"#utility.yul\":8234:8253   */\n      swap1\n      pop\n        /* \"#utility.yul\":7893:8259   */\n      swap2\n      swap1\n      pop\n      jump\t// out\n        /* \"#utility.yul\":8265:8684   */\n    tag_98:\n        /* \"#utility.yul\":8431:8435   */\n      0x00\n        /* \"#utility.yul\":8469:8471   */\n      0x20\n        /* \"#utility.yul\":8458:8467   */\n      dup3\n        /* \"#utility.yul\":8454:8472   */\n      add\n        /* \"#utility.yul\":8446:8472   */\n      swap1\n      pop\n        /* \"#utility.yul\":8518:8527   */\n      dup2\n        /* \"#utility.yul\":8512:8516   */\n      dup2\n        /* \"#utility.yul\":8508:8528   */\n      sub\n        /* \"#utility.yul\":8504:8505   */\n      0x00\n        /* \"#utility.yul\":8493:8502   */\n      dup4\n        /* \"#utility.yul\":8489:8506   */\n      add\n        /* \"#utility.yul\":8482:8529   */\n      mstore\n        /* \"#utility.yul\":8546:8677   */\n      tag_298\n        /* \"#utility.yul\":8672:8676   */\n      dup2\n        /* \"#utility.yul\":8546:8677   */\n      tag_191\n      jump\t// in\n    tag_298:\n        /* \"#utility.yul\":8538:8677   */\n      swap1\n      pop\n        /* \"#utility.yul\":8265:8684   */\n      swap2\n      swap1\n      pop\n      jump\t// out\n        /* \"#utility.yul\":8690:8860   */\n    tag_192:\n        /* \"#utility.yul\":8830:8852   */\n      0x6e6f20616c6c6f77616e636520666f7220796f75000000000000000000000000\n        /* \"#utility.yul\":8826:8827   */\n      0x00\n        /* \"#utility.yul\":8818:8824   */\n      dup3\n        /* \"#utility.yul\":8814:8828   */\n      add\n        /* \"#utility.yul\":8807:8853   */\n      mstore\n        /* \"#utility.yul\":8690:8860   */\n      pop\n      jump\t// out\n        /* \"#utility.yul\":8866:9232   */\n    tag_193:\n        /* \"#utility.yul\":9008:9011   */\n      0x00\n        /* \"#utility.yul\":9029:9096   */\n      tag_301\n        /* \"#utility.yul\":9093:9095   */\n      0x14\n        /* \"#utility.yul\":9088:9091   */\n      dup4\n        /* \"#utility.yul\":9029:9096   */\n      tag_183\n      jump\t// in\n    tag_301:\n        /* \"#utility.yul\":9022:9096   */\n      swap2\n      pop\n        /* \"#utility.yul\":9105:9198   */\n      tag_302\n        /* \"#utility.yul\":9194:9197   */\n      dup3\n        /* \"#utility.yul\":9105:9198   */\n      tag_192\n      jump\t// in\n    tag_302:\n        /* \"#utility.yul\":9223:9225   */\n      0x20\n        /* \"#utility.yul\":9218:9221   */\n      dup3\n        /* \"#utility.yul\":9214:9226   */\n      add\n        /* \"#utility.yul\":9207:9226   */\n      swap1\n      pop\n        /* \"#utility.yul\":8866:9232   */\n      swap2\n      swap1\n      pop\n      jump\t// out\n        /* \"#utility.yul\":9238:9657   */\n    tag_101:\n        /* \"#utility.yul\":9404:9408   */\n      0x00\n        /* \"#utility.yul\":9442:9444   */\n      0x20\n        /* \"#utility.yul\":9431:9440   */\n      dup3\n        /* \"#utility.yul\":9427:9445   */\n      add\n        /* \"#utility.yul\":9419:9445   */\n      swap1\n      pop\n        /* \"#utility.yul\":9491:9500   */\n      dup2\n        /* \"#utility.yul\":9485:9489   */\n      dup2\n        /* \"#utility.yul\":9481:9501   */\n      sub\n        /* \"#utility.yul\":9477:9478   */\n      0x00\n        /* \"#utility.yul\":9466:9475   */\n      dup4\n        /* \"#utility.yul\":9462:9479   */\n      add\n        /* \"#utility.yul\":9455:9502   */\n      mstore\n        /* \"#utility.yul\":9519:9650   */\n      tag_304\n        /* \"#utility.yul\":9645:9649   */\n      dup2\n        /* \"#utility.yul\":9519:9650   */\n      tag_193\n      jump\t// in\n    tag_304:\n        /* \"#utility.yul\":9511:9650   */\n      swap1\n      pop\n        /* \"#utility.yul\":9238:9657   */\n      swap2\n      swap1\n      pop\n      jump\t// out\n        /* \"#utility.yul\":9663:9857   */\n    tag_105:\n        /* \"#utility.yul\":9703:9707   */\n      0x00\n        /* \"#utility.yul\":9723:9743   */\n      tag_306\n        /* \"#utility.yul\":9741:9742   */\n      dup3\n        /* \"#utility.yul\":9723:9743   */\n      tag_173\n      jump\t// in\n    tag_306:\n        /* \"#utility.yul\":9718:9743   */\n      swap2\n      pop\n        /* \"#utility.yul\":9757:9777   */\n      tag_307\n        /* \"#utility.yul\":9775:9776   */\n      dup4\n        /* \"#utility.yul\":9757:9777   */\n      tag_173\n      jump\t// in\n    tag_307:\n        /* \"#utility.yul\":9752:9777   */\n      swap3\n      pop\n        /* \"#utility.yul\":9801:9802   */\n      dup3\n        /* \"#utility.yul\":9798:9799   */\n      dup3\n        /* \"#utility.yul\":9794:9803   */\n      sub\n        /* \"#utility.yul\":9786:9803   */\n      swap1\n      pop\n        /* \"#utility.yul\":9825:9826   */\n      dup2\n        /* \"#utility.yul\":9819:9823   */\n      dup2\n        /* \"#utility.yul\":9816:9827   */\n      gt\n        /* \"#utility.yul\":9813:9850   */\n      iszero\n      tag_308\n      jumpi\n        /* \"#utility.yul\":9830:9848   */\n      tag_309\n      tag_189\n      jump\t// in\n    tag_309:\n        /* \"#utility.yul\":9813:9850   */\n    tag_308:\n        /* \"#utility.yul\":9663:9857   */\n      swap3\n      swap2\n      pop\n      pop\n      jump\t// out\n        /* \"#utility.yul\":9863:10042   */\n    tag_194:\n        /* \"#utility.yul\":10003:10034   */\n      0x4e6f207065726d697373696f6e2065786365707420746f206f776e6572000000\n        /* \"#utility.yul\":9999:10000   */\n      0x00\n        /* \"#utility.yul\":9991:9997   */\n      dup3\n        /* \"#utility.yul\":9987:10001   */\n      add\n        /* \"#utility.yul\":9980:10035   */\n      mstore\n        /* \"#utility.yul\":9863:10042   */\n      pop\n      jump\t// out\n        /* \"#utility.yul\":10048:10414   */\n    tag_195:\n        /* \"#utility.yul\":10190:10193   */\n      0x00\n        /* \"#utility.yul\":10211:10278   */\n      tag_312\n        /* \"#utility.yul\":10275:10277   */\n      0x1d\n        /* \"#utility.yul\":10270:10273   */\n      dup4\n        /* \"#utility.yul\":10211:10278   */\n      tag_183\n      jump\t// in\n    tag_312:\n        /* \"#utility.yul\":10204:10278   */\n      swap2\n      pop\n        /* \"#utility.yul\":10287:10380   */\n      tag_313\n        /* \"#utility.yul\":10376:10379   */\n      dup3\n        /* \"#utility.yul\":10287:10380   */\n      tag_194\n      jump\t// in\n    tag_313:\n        /* \"#utility.yul\":10405:10407   */\n      0x20\n        /* \"#utility.yul\":10400:10403   */\n      dup3\n        /* \"#utility.yul\":10396:10408   */\n      add\n        /* \"#utility.yul\":10389:10408   */\n      swap1\n      pop\n        /* \"#utility.yul\":10048:10414   */\n      swap2\n      swap1\n      pop\n      jump\t// out\n        /* \"#utility.yul\":10420:10839   */\n    tag_114:\n        /* \"#utility.yul\":10586:10590   */\n      0x00\n        /* \"#utility.yul\":10624:10626   */\n      0x20\n        /* \"#utility.yul\":10613:10622   */\n      dup3\n        /* \"#utility.yul\":10609:10627   */\n      add\n        /* \"#utility.yul\":10601:10627   */\n      swap1\n      pop\n        /* \"#utility.yul\":10673:10682   */\n      dup2\n        /* \"#utility.yul\":10667:10671   */\n      dup2\n        /* \"#utility.yul\":10663:10683   */\n      sub\n        /* \"#utility.yul\":10659:10660   */\n      0x00\n        /* \"#utility.yul\":10648:10657   */\n      dup4\n        /* \"#utility.yul\":10644:10661   */\n      add\n        /* \"#utility.yul\":10637:10684   */\n      mstore\n        /* \"#utility.yul\":10701:10832   */\n      tag_315\n        /* \"#utility.yul\":10827:10831   */\n      dup2\n        /* \"#utility.yul\":10701:10832   */\n      tag_195\n      jump\t// in\n    tag_315:\n        /* \"#utility.yul\":10693:10832   */\n      swap1\n      pop\n        /* \"#utility.yul\":10420:10839   */\n      swap2\n      swap1\n      pop\n      jump\t// out\n        /* \"#utility.yul\":10845:11025   */\n    tag_196:\n        /* \"#utility.yul\":10985:11017   */\n      0x546f74616c20737570706c79206f6620746f6b656e2065786365656465640000\n        /* \"#utility.yul\":10981:10982   */\n      0x00\n        /* \"#utility.yul\":10973:10979   */\n      dup3\n        /* \"#utility.yul\":10969:10983   */\n      add\n        /* \"#utility.yul\":10962:11018   */\n      mstore\n        /* \"#utility.yul\":10845:11025   */\n      pop\n      jump\t// out\n        /* \"#utility.yul\":11031:11397   */\n    tag_197:\n        /* \"#utility.yul\":11173:11176   */\n      0x00\n        /* \"#utility.yul\":11194:11261   */\n      tag_318\n        /* \"#utility.yul\":11258:11260   */\n      0x1e\n        /* \"#utility.yul\":11253:11256   */\n      dup4\n        /* \"#utility.yul\":11194:11261   */\n      tag_183\n      jump\t// in\n    tag_318:\n        /* \"#utility.yul\":11187:11261   */\n      swap2\n      pop\n        /* \"#utility.yul\":11270:11363   */\n      tag_319\n        /* \"#utility.yul\":11359:11362   */\n      dup3\n        /* \"#utility.yul\":11270:11363   */\n      tag_196\n      jump\t// in\n    tag_319:\n        /* \"#utility.yul\":11388:11390   */\n      0x20\n        /* \"#utility.yul\":11383:11386   */\n      dup3\n        /* \"#utility.yul\":11379:11391   */\n      add\n        /* \"#utility.yul\":11372:11391   */\n      swap1\n      pop\n        /* \"#utility.yul\":11031:11397   */\n      swap2\n      swap1\n      pop\n      jump\t// out\n        /* \"#utility.yul\":11403:11822   */\n    tag_127:\n        /* \"#utility.yul\":11569:11573   */\n      0x00\n        /* \"#utility.yul\":11607:11609   */\n      0x20\n        /* \"#utility.yul\":11596:11605   */\n      dup3\n        /* \"#utility.yul\":11592:11610   */\n      add\n        /* \"#utility.yul\":11584:11610   */\n      swap1\n      pop\n        /* \"#utility.yul\":11656:11665   */\n      dup2\n        /* \"#utility.yul\":11650:11654   */\n      dup2\n        /* \"#utility.yul\":11646:11666   */\n      sub\n        /* \"#utility.yul\":11642:11643   */\n      0x00\n        /* \"#utility.yul\":11631:11640   */\n      dup4\n        /* \"#utility.yul\":11627:11644   */\n      add\n        /* \"#utility.yul\":11620:11667   */\n      mstore\n        /* \"#utility.yul\":11684:11815   */\n      tag_321\n        /* \"#utility.yul\":11810:11814   */\n      dup2\n        /* \"#utility.yul\":11684:11815   */\n      tag_197\n      jump\t// in\n    tag_321:\n        /* \"#utility.yul\":11676:11815   */\n      swap1\n      pop\n        /* \"#utility.yul\":11403:11822   */\n      swap2\n      swap1\n      pop\n      jump\t// out\n        /* \"#utility.yul\":11828:11998   */\n    tag_198:\n        /* \"#utility.yul\":11968:11990   */\n      0x6d696e7420746f2061646472657373207a65726f000000000000000000000000\n        /* \"#utility.yul\":11964:11965   */\n      0x00\n        /* \"#utility.yul\":11956:11962   */\n      dup3\n        /* \"#utility.yul\":11952:11966   */\n      add\n        /* \"#utility.yul\":11945:11991   */\n      mstore\n        /* \"#utility.yul\":11828:11998   */\n      pop\n      jump\t// out\n        /* \"#utility.yul\":12004:12370   */\n    tag_199:\n        /* \"#utility.yul\":12146:12149   */\n      0x00\n        /* \"#utility.yul\":12167:12234   */\n      tag_324\n        /* \"#utility.yul\":12231:12233   */\n      0x14\n        /* \"#utility.yul\":12226:12229   */\n      dup4\n        /* \"#utility.yul\":12167:12234   */\n      tag_183\n      jump\t// in\n    tag_324:\n        /* \"#utility.yul\":12160:12234   */\n      swap2\n      pop\n        /* \"#utility.yul\":12243:12336   */\n      tag_325\n        /* \"#utility.yul\":12332:12335   */\n      dup3\n        /* \"#utility.yul\":12243:12336   */\n      tag_198\n      jump\t// in\n    tag_325:\n        /* \"#utility.yul\":12361:12363   */\n      0x20\n        /* \"#utility.yul\":12356:12359   */\n      dup3\n        /* \"#utility.yul\":12352:12364   */\n      add\n        /* \"#utility.yul\":12345:12364   */\n      swap1\n      pop\n        /* \"#utility.yul\":12004:12370   */\n      swap2\n      swap1\n      pop\n      jump\t// out\n        /* \"#utility.yul\":12376:12795   */\n    tag_130:\n        /* \"#utility.yul\":12542:12546   */\n      0x00\n        /* \"#utility.yul\":12580:12582   */\n      0x20\n        /* \"#utility.yul\":12569:12578   */\n      dup3\n        /* \"#utility.yul\":12565:12583   */\n      add\n        /* \"#utility.yul\":12557:12583   */\n      swap1\n      pop\n        /* \"#utility.yul\":12629:12638   */\n      dup2\n        /* \"#utility.yul\":12623:12627   */\n      dup2\n        /* \"#utility.yul\":12619:12639   */\n      sub\n        /* \"#utility.yul\":12615:12616   */\n      0x00\n        /* \"#utility.yul\":12604:12613   */\n      dup4\n        /* \"#utility.yul\":12600:12617   */\n      add\n        /* \"#utility.yul\":12593:12640   */\n      mstore\n        /* \"#utility.yul\":12657:12788   */\n      tag_327\n        /* \"#utility.yul\":12783:12787   */\n      dup2\n        /* \"#utility.yul\":12657:12788   */\n      tag_199\n      jump\t// in\n    tag_327:\n        /* \"#utility.yul\":12649:12788   */\n      swap1\n      pop\n        /* \"#utility.yul\":12376:12795   */\n      swap2\n      swap1\n      pop\n      jump\t// out\n        /* \"#utility.yul\":12801:13211   */\n    tag_132:\n        /* \"#utility.yul\":12841:12848   */\n      0x00\n        /* \"#utility.yul\":12864:12884   */\n      tag_329\n        /* \"#utility.yul\":12882:12883   */\n      dup3\n        /* \"#utility.yul\":12864:12884   */\n      tag_173\n      jump\t// in\n    tag_329:\n        /* \"#utility.yul\":12859:12884   */\n      swap2\n      pop\n        /* \"#utility.yul\":12898:12918   */\n      tag_330\n        /* \"#utility.yul\":12916:12917   */\n      dup4\n        /* \"#utility.yul\":12898:12918   */\n      tag_173\n      jump\t// in\n    tag_330:\n        /* \"#utility.yul\":12893:12918   */\n      swap3\n      pop\n        /* \"#utility.yul\":12953:12954   */\n      dup3\n        /* \"#utility.yul\":12950:12951   */\n      dup3\n        /* \"#utility.yul\":12946:12955   */\n      mul\n        /* \"#utility.yul\":12975:13005   */\n      tag_331\n        /* \"#utility.yul\":12993:13004   */\n      dup2\n        /* \"#utility.yul\":12975:13005   */\n      tag_173\n      jump\t// in\n    tag_331:\n        /* \"#utility.yul\":12964:13005   */\n      swap2\n      pop\n        /* \"#utility.yul\":13154:13155   */\n      dup3\n        /* \"#utility.yul\":13145:13152   */\n      dup3\n        /* \"#utility.yul\":13141:13156   */\n      div\n        /* \"#utility.yul\":13138:13139   */\n      dup5\n        /* \"#utility.yul\":13135:13157   */\n      eq\n        /* \"#utility.yul\":13115:13116   */\n      dup4\n        /* \"#utility.yul\":13108:13117   */\n      iszero\n        /* \"#utility.yul\":13088:13171   */\n      or\n        /* \"#utility.yul\":13065:13204   */\n      tag_332\n      jumpi\n        /* \"#utility.yul\":13184:13202   */\n      tag_333\n      tag_189\n      jump\t// in\n    tag_333:\n        /* \"#utility.yul\":13065:13204   */\n    tag_332:\n        /* \"#utility.yul\":12849:13211   */\n      pop\n        /* \"#utility.yul\":12801:13211   */\n      swap3\n      swap2\n      pop\n      pop\n      jump\t// out\n        /* \"#utility.yul\":13217:13549   */\n    tag_135:\n        /* \"#utility.yul\":13338:13342   */\n      0x00\n        /* \"#utility.yul\":13376:13378   */\n      0x40\n        /* \"#utility.yul\":13365:13374   */\n      dup3\n        /* \"#utility.yul\":13361:13379   */\n      add\n        /* \"#utility.yul\":13353:13379   */\n      swap1\n      pop\n        /* \"#utility.yul\":13389:13460   */\n      tag_335\n        /* \"#utility.yul\":13457:13458   */\n      0x00\n        /* \"#utility.yul\":13446:13455   */\n      dup4\n        /* \"#utility.yul\":13442:13459   */\n      add\n        /* \"#utility.yul\":13433:13439   */\n      dup6\n        /* \"#utility.yul\":13389:13460   */\n      tag_181\n      jump\t// in\n    tag_335:\n        /* \"#utility.yul\":13470:13542   */\n      tag_336\n        /* \"#utility.yul\":13538:13540   */\n      0x20\n        /* \"#utility.yul\":13527:13536   */\n      dup4\n        /* \"#utility.yul\":13523:13541   */\n      add\n        /* \"#utility.yul\":13514:13520   */\n      dup5\n        /* \"#utility.yul\":13470:13542   */\n      tag_178\n      jump\t// in\n    tag_336:\n        /* \"#utility.yul\":13217:13549   */\n      swap4\n      swap3\n      pop\n      pop\n      pop\n      jump\t// out\n        /* \"#utility.yul\":13555:13722   */\n    tag_200:\n        /* \"#utility.yul\":13695:13714   */\n      0x496e73756666696369656e742066756e64000000000000000000000000000000\n        /* \"#utility.yul\":13691:13692   */\n      0x00\n        /* \"#utility.yul\":13683:13689   */\n      dup3\n        /* \"#utility.yul\":13679:13693   */\n      add\n        /* \"#utility.yul\":13672:13715   */\n      mstore\n        /* \"#utility.yul\":13555:13722   */\n      pop\n      jump\t// out\n        /* \"#utility.yul\":13728:14094   */\n    tag_201:\n        /* \"#utility.yul\":13870:13873   */\n      0x00\n        /* \"#utility.yul\":13891:13958   */\n      tag_339\n        /* \"#utility.yul\":13955:13957   */\n      0x11\n        /* \"#utility.yul\":13950:13953   */\n      dup4\n        /* \"#utility.yul\":13891:13958   */\n      tag_183\n      jump\t// in\n    tag_339:\n        /* \"#utility.yul\":13884:13958   */\n      swap2\n      pop\n        /* \"#utility.yul\":13967:14060   */\n      tag_340\n        /* \"#utility.yul\":14056:14059   */\n      dup3\n        /* \"#utility.yul\":13967:14060   */\n      tag_200\n      jump\t// in\n    tag_340:\n        /* \"#utility.yul\":14085:14087   */\n      0x20\n        /* \"#utility.yul\":14080:14083   */\n      dup3\n        /* \"#utility.yul\":14076:14088   */\n      add\n        /* \"#utility.yul\":14069:14088   */\n      swap1\n      pop\n        /* \"#utility.yul\":13728:14094   */\n      swap2\n      swap1\n      pop\n      jump\t// out\n        /* \"#utility.yul\":14100:14519   */\n    tag_141:\n        /* \"#utility.yul\":14266:14270   */\n      0x00\n        /* \"#utility.yul\":14304:14306   */\n      0x20\n        /* \"#utility.yul\":14293:14302   */\n      dup3\n        /* \"#utility.yul\":14289:14307   */\n      add\n        /* \"#utility.yul\":14281:14307   */\n      swap1\n      pop\n        /* \"#utility.yul\":14353:14362   */\n      dup2\n        /* \"#utility.yul\":14347:14351   */\n      dup2\n        /* \"#utility.yul\":14343:14363   */\n      sub\n        /* \"#utility.yul\":14339:14340   */\n      0x00\n        /* \"#utility.yul\":14328:14337   */\n      dup4\n        /* \"#utility.yul\":14324:14341   */\n      add\n        /* \"#utility.yul\":14317:14364   */\n      mstore\n        /* \"#utility.yul\":14381:14512   */\n      tag_342\n        /* \"#utility.yul\":14507:14511   */\n      dup2\n        /* \"#utility.yul\":14381:14512   */\n      tag_201\n      jump\t// in\n    tag_342:\n        /* \"#utility.yul\":14373:14512   */\n      swap1\n      pop\n        /* \"#utility.yul\":14100:14519   */\n      swap2\n      swap1\n      pop\n      jump\t// out\n        /* \"#utility.yul\":14525:14967   */\n    tag_147:\n        /* \"#utility.yul\":14674:14678   */\n      0x00\n        /* \"#utility.yul\":14712:14714   */\n      0x60\n        /* \"#utility.yul\":14701:14710   */\n      dup3\n        /* \"#utility.yul\":14697:14715   */\n      add\n        /* \"#utility.yul\":14689:14715   */\n      swap1\n      pop\n        /* \"#utility.yul\":14725:14796   */\n      tag_344\n        /* \"#utility.yul\":14793:14794   */\n      0x00\n        /* \"#utility.yul\":14782:14791   */\n      dup4\n        /* \"#utility.yul\":14778:14795   */\n      add\n        /* \"#utility.yul\":14769:14775   */\n      dup7\n        /* \"#utility.yul\":14725:14796   */\n      tag_181\n      jump\t// in\n    tag_344:\n        /* \"#utility.yul\":14806:14878   */\n      tag_345\n        /* \"#utility.yul\":14874:14876   */\n      0x20\n        /* \"#utility.yul\":14863:14872   */\n      dup4\n        /* \"#utility.yul\":14859:14877   */\n      add\n        /* \"#utility.yul\":14850:14856   */\n      dup6\n        /* \"#utility.yul\":14806:14878   */\n      tag_181\n      jump\t// in\n    tag_345:\n        /* \"#utility.yul\":14888:14960   */\n      tag_346\n        /* \"#utility.yul\":14956:14958   */\n      0x40\n        /* \"#utility.yul\":14945:14954   */\n      dup4\n        /* \"#utility.yul\":14941:14959   */\n      add\n        /* \"#utility.yul\":14932:14938   */\n      dup5\n        /* \"#utility.yul\":14888:14960   */\n      tag_178\n      jump\t// in\n    tag_346:\n        /* \"#utility.yul\":14525:14967   */\n      swap5\n      swap4\n      pop\n      pop\n      pop\n      pop\n      jump\t// out\n        /* \"#utility.yul\":14973:15153   */\n    tag_202:\n        /* \"#utility.yul\":15021:15098   */\n      0x4e487b7100000000000000000000000000000000000000000000000000000000\n        /* \"#utility.yul\":15018:15019   */\n      0x00\n        /* \"#utility.yul\":15011:15099   */\n      mstore\n        /* \"#utility.yul\":15118:15122   */\n      0x12\n        /* \"#utility.yul\":15115:15116   */\n      0x04\n        /* \"#utility.yul\":15108:15123   */\n      mstore\n        /* \"#utility.yul\":15142:15146   */\n      0x24\n        /* \"#utility.yul\":15139:15140   */\n      0x00\n        /* \"#utility.yul\":15132:15147   */\n      revert\n        /* \"#utility.yul\":15159:15344   */\n    tag_153:\n        /* \"#utility.yul\":15199:15200   */\n      0x00\n        /* \"#utility.yul\":15216:15236   */\n      tag_349\n        /* \"#utility.yul\":15234:15235   */\n      dup3\n        /* \"#utility.yul\":15216:15236   */\n      tag_173\n      jump\t// in\n    tag_349:\n        /* \"#utility.yul\":15211:15236   */\n      swap2\n      pop\n        /* \"#utility.yul\":15250:15270   */\n      tag_350\n        /* \"#utility.yul\":15268:15269   */\n      dup4\n        /* \"#utility.yul\":15250:15270   */\n      tag_173\n      jump\t// in\n    tag_350:\n        /* \"#utility.yul\":15245:15270   */\n      swap3\n      pop\n        /* \"#utility.yul\":15289:15290   */\n      dup3\n        /* \"#utility.yul\":15279:15314   */\n      tag_351\n      jumpi\n        /* \"#utility.yul\":15294:15312   */\n      tag_352\n      tag_202\n      jump\t// in\n    tag_352:\n        /* \"#utility.yul\":15279:15314   */\n    tag_351:\n        /* \"#utility.yul\":15336:15337   */\n      dup3\n        /* \"#utility.yul\":15333:15334   */\n      dup3\n        /* \"#utility.yul\":15329:15338   */\n      div\n        /* \"#utility.yul\":15324:15338   */\n      swap1\n      pop\n        /* \"#utility.yul\":15159:15344   */\n      swap3\n      swap2\n      pop\n      pop\n      jump\t// out\n        /* \"#utility.yul\":15350:15472   */\n    tag_203:\n        /* \"#utility.yul\":15423:15447   */\n      tag_354\n        /* \"#utility.yul\":15441:15446   */\n      dup2\n        /* \"#utility.yul\":15423:15447   */\n      tag_179\n      jump\t// in\n    tag_354:\n        /* \"#utility.yul\":15416:15421   */\n      dup2\n        /* \"#utility.yul\":15413:15448   */\n      eq\n        /* \"#utility.yul\":15403:15466   */\n      tag_355\n      jumpi\n        /* \"#utility.yul\":15462:15463   */\n      0x00\n        /* \"#utility.yul\":15459:15460   */\n      dup1\n        /* \"#utility.yul\":15452:15464   */\n      revert\n        /* \"#utility.yul\":15403:15466   */\n    tag_355:\n        /* \"#utility.yul\":15350:15472   */\n      pop\n      jump\t// out\n        /* \"#utility.yul\":15478:15621   */\n    tag_204:\n        /* \"#utility.yul\":15535:15540   */\n      0x00\n        /* \"#utility.yul\":15566:15572   */\n      dup2\n        /* \"#utility.yul\":15560:15573   */\n      mload\n        /* \"#utility.yul\":15551:15573   */\n      swap1\n      pop\n        /* \"#utility.yul\":15582:15615   */\n      tag_357\n        /* \"#utility.yul\":15609:15614   */\n      dup2\n        /* \"#utility.yul\":15582:15615   */\n      tag_203\n      jump\t// in\n    tag_357:\n        /* \"#utility.yul\":15478:15621   */\n      swap3\n      swap2\n      pop\n      pop\n      jump\t// out\n        /* \"#utility.yul\":15627:15978   */\n    tag_162:\n        /* \"#utility.yul\":15697:15703   */\n      0x00\n        /* \"#utility.yul\":15746:15748   */\n      0x20\n        /* \"#utility.yul\":15734:15743   */\n      dup3\n        /* \"#utility.yul\":15725:15732   */\n      dup5\n        /* \"#utility.yul\":15721:15744   */\n      sub\n        /* \"#utility.yul\":15717:15749   */\n      slt\n        /* \"#utility.yul\":15714:15833   */\n      iszero\n      tag_359\n      jumpi\n        /* \"#utility.yul\":15752:15831   */\n      tag_360\n      tag_167\n      jump\t// in\n    tag_360:\n        /* \"#utility.yul\":15714:15833   */\n    tag_359:\n        /* \"#utility.yul\":15872:15873   */\n      0x00\n        /* \"#utility.yul\":15897:15961   */\n      tag_361\n        /* \"#utility.yul\":15953:15960   */\n      dup5\n        /* \"#utility.yul\":15944:15950   */\n      dup3\n        /* \"#utility.yul\":15933:15942   */\n      dup6\n        /* \"#utility.yul\":15929:15951   */\n      add\n        /* \"#utility.yul\":15897:15961   */\n      tag_204\n      jump\t// in\n    tag_361:\n        /* \"#utility.yul\":15887:15961   */\n      swap2\n      pop\n        /* \"#utility.yul\":15843:15971   */\n      pop\n        /* \"#utility.yul\":15627:15978   */\n      swap3\n      swap2\n      pop\n      pop\n      jump\t// out\n        /* \"#utility.yul\":15984:16148   */\n    tag_205:\n        /* \"#utility.yul\":16124:16140   */\n      0x4e6f7420636f6d70617469626c65000000000000000000000000000000000000\n        /* \"#utility.yul\":16120:16121   */\n      0x00\n        /* \"#utility.yul\":16112:16118   */\n      dup3\n        /* \"#utility.yul\":16108:16122   */\n      add\n        /* \"#utility.yul\":16101:16141   */\n      mstore\n        /* \"#utility.yul\":15984:16148   */\n      pop\n      jump\t// out\n        /* \"#utility.yul\":16154:16520   */\n    tag_206:\n        /* \"#utility.yul\":16296:16299   */\n      0x00\n        /* \"#utility.yul\":16317:16384   */\n      tag_364\n        /* \"#utility.yul\":16381:16383   */\n      0x0e\n        /* \"#utility.yul\":16376:16379   */\n      dup4\n        /* \"#utility.yul\":16317:16384   */\n      tag_183\n      jump\t// in\n    tag_364:\n        /* \"#utility.yul\":16310:16384   */\n      swap2\n      pop\n        /* \"#utility.yul\":16393:16486   */\n      tag_365\n        /* \"#utility.yul\":16482:16485   */\n      dup3\n        /* \"#utility.yul\":16393:16486   */\n      tag_205\n      jump\t// in\n    tag_365:\n        /* \"#utility.yul\":16511:16513   */\n      0x20\n        /* \"#utility.yul\":16506:16509   */\n      dup3\n        /* \"#utility.yul\":16502:16514   */\n      add\n        /* \"#utility.yul\":16495:16514   */\n      swap1\n      pop\n        /* \"#utility.yul\":16154:16520   */\n      swap2\n      swap1\n      pop\n      jump\t// out\n        /* \"#utility.yul\":16526:16945   */\n    tag_165:\n        /* \"#utility.yul\":16692:16696   */\n      0x00\n        /* \"#utility.yul\":16730:16732   */\n      0x20\n        /* \"#utility.yul\":16719:16728   */\n      dup3\n        /* \"#utility.yul\":16715:16733   */\n      add\n        /* \"#utility.yul\":16707:16733   */\n      swap1\n      pop\n        /* \"#utility.yul\":16779:16788   */\n      dup2\n        /* \"#utility.yul\":16773:16777   */\n      dup2\n        /* \"#utility.yul\":16769:16789   */\n      sub\n        /* \"#utility.yul\":16765:16766   */\n      0x00\n        /* \"#utility.yul\":16754:16763   */\n      dup4\n        /* \"#utility.yul\":16750:16767   */\n      add\n        /* \"#utility.yul\":16743:16790   */\n      mstore\n        /* \"#utility.yul\":16807:16938   */\n      tag_367\n        /* \"#utility.yul\":16933:16937   */\n      dup2\n        /* \"#utility.yul\":16807:16938   */\n      tag_206\n      jump\t// in\n    tag_367:\n        /* \"#utility.yul\":16799:16938   */\n      swap1\n      pop\n        /* \"#utility.yul\":16526:16945   */\n      swap2\n      swap1\n      pop\n      jump\t// out\n\n    auxdata: 0xa2646970667358221220db1ef5b181edb272258a9d4196d892c5ac4a751a191718560c64aa29044f7c1a64736f6c63430008110033\n}\n",
				"bytecode": {
					"linkReferences": {},
					"object": "60806040526000600160146101000a81548160ff02191690831515021790555034801561002b57600080fd5b5061183a8061003b6000396000f3fe608060405234801561001057600080fd5b50600436106100f55760003560e01c806386212b8f11610097578063b09f126611610066578063b09f126614610260578063d28d88521461027e578063d3aceae21461029c578063dc287c7e146102cc576100f5565b806386212b8f146101c65780638da5cb5b146101f657806394bf804d14610214578063a9059cbb14610244576100f5565b80632f0e3120116100d35780632f0e3120146101505780633eaaf86b1461016e578063469519541461018c57806352d1902d146101a8576100f5565b8063095ea7b3146100fa578063158ef93e1461011657806323b872dd14610134575b600080fd5b610114600480360381019061010f9190611015565b6102fc565b005b61011e610532565b60405161012b9190611070565b60405180910390f35b61014e6004803603810190610149919061108b565b610545565b005b610158610830565b60405161016591906110ed565b60405180910390f35b610176610840565b60405161018391906110ed565b60405180910390f35b6101a660048036038101906101a19190611108565b61084a565b005b6101b06108e6565b6040516101bd919061114e565b60405180910390f35b6101e060048036038101906101db9190611108565b610911565b6040516101ed91906110ed565b60405180910390f35b6101fe61095a565b60405161020b9190611178565b60405180910390f35b61022e60048036038101906102299190611193565b610980565b60405161023b91906110ed565b60405180910390f35b61025e60048036038101906102599190611015565b610b91565b005b610268610d92565b6040516102759190611263565b60405180910390f35b610286610dcf565b6040516102939190611263565b60405180910390f35b6102b660048036038101906102b19190611108565b610e0c565b6040516102c391906110ed565b60405180910390f35b6102e660048036038101906102e19190611285565b610e24565b6040516102f391906110ed565b60405180910390f35b3381600061030983610911565b90508181101561034e576040517f08c379a0000000000000000000000000000000000000000000000000000000008152600401610345906112fe565b60405180910390fd5b600073ffffffffffffffffffffffffffffffffffffffff168573ffffffffffffffffffffffffffffffffffffffff160361038757600080fd5b6000600360003373ffffffffffffffffffffffffffffffffffffffff1673ffffffffffffffffffffffffffffffffffffffff16815260200190815260200160002060008773ffffffffffffffffffffffffffffffffffffffff1673ffffffffffffffffffffffffffffffffffffffff168152602001908152602001600020549050600081036104965784600360003373ffffffffffffffffffffffffffffffffffffffff1673ffffffffffffffffffffffffffffffffffffffff16815260200190815260200160002060008873ffffffffffffffffffffffffffffffffffffffff1673ffffffffffffffffffffffffffffffffffffffff1681526020019081526020016000208190555061052a565b84600360003373ffffffffffffffffffffffffffffffffffffffff1673ffffffffffffffffffffffffffffffffffffffff16815260200190815260200160002060008873ffffffffffffffffffffffffffffffffffffffff1673ffffffffffffffffffffffffffffffffffffffff1681526020019081526020016000206000828254610522919061134d565b925050819055505b505050505050565b600160149054906101000a900460ff1681565b8281600061055283610911565b905081811015610597576040517f08c379a000000000000000000000000000000000000000000000000000000000815260040161058e906112fe565b60405180910390fd5b3373ffffffffffffffffffffffffffffffffffffffff168573ffffffffffffffffffffffffffffffffffffffff1614610605576040517f08c379a00000000000000000000000000000000000000000000000000000000081526004016105fc906113cd565b60405180910390fd5b6000600360008873ffffffffffffffffffffffffffffffffffffffff1673ffffffffffffffffffffffffffffffffffffffff16815260200190815260200160002060008773ffffffffffffffffffffffffffffffffffffffff1673ffffffffffffffffffffffffffffffffffffffff168152602001908152602001600020549050848110156106c9576040517f08c379a00000000000000000000000000000000000000000000000000000000081526004016106c090611439565b60405180910390fd5b60006106d486610e46565b9050600081876106e49190611459565b905080600360008b73ffffffffffffffffffffffffffffffffffffffff1673ffffffffffffffffffffffffffffffffffffffff16815260200190815260200160002060008a73ffffffffffffffffffffffffffffffffffffffff1673ffffffffffffffffffffffffffffffffffffffff16815260200190815260200160002060008282546107729190611459565b9250508190555086600260008b73ffffffffffffffffffffffffffffffffffffffff1673ffffffffffffffffffffffffffffffffffffffff16815260200190815260200160002060008282546107c89190611459565b9250508190555086600260008a73ffffffffffffffffffffffffffffffffffffffff1673ffffffffffffffffffffffffffffffffffffffff168152602001908152602001600020600082825461081e919061134d565b92505081905550505050505050505050565b6000670de0b6b3a7640000905090565b6000612710905090565b3373ffffffffffffffffffffffffffffffffffffffff16600160009054906101000a900473ffffffffffffffffffffffffffffffffffffffff1673ffffffffffffffffffffffffffffffffffffffff16146108da576040517f08c379a00000000000000000000000000000000000000000000000000000000081526004016108d1906114d9565b60405180910390fd5b6108e381610e83565b50565b60007fc5f16f0fcc639fa48a6947836d9850f504798523bf8c9a3a87d5876cf622bcf760001b905090565b6000600260008373ffffffffffffffffffffffffffffffffffffffff1673ffffffffffffffffffffffffffffffffffffffff168152602001908152602001600020549050919050565b600160009054906101000a900473ffffffffffffffffffffffffffffffffffffffff1681565b60003373ffffffffffffffffffffffffffffffffffffffff16600160009054906101000a900473ffffffffffffffffffffffffffffffffffffffff1673ffffffffffffffffffffffffffffffffffffffff1614610a12576040517f08c379a0000000000000000000000000000000000000000000000000000000008152600401610a09906114d9565b60405180910390fd5b82600080828254610a23919061134d565b925050819055506127106000541115610a71576040517f08c379a0000000000000000000000000000000000000000000000000000000008152600401610a6890611545565b60405180910390fd5b600073ffffffffffffffffffffffffffffffffffffffff168273ffffffffffffffffffffffffffffffffffffffff1603610ae0576040517f08c379a0000000000000000000000000000000000000000000000000000000008152600401610ad7906115b1565b60405180910390fd5b6000670de0b6b3a764000084610af691906115d1565b905080600260008573ffffffffffffffffffffffffffffffffffffffff1673ffffffffffffffffffffffffffffffffffffffff1681526020019081526020016000206000828254610b47919061134d565b925050819055507feef892aa26c4762fad30f87b912a95ed5b6ff48d8ea3521783c84679e23d2ae28382604051610b7f929190611613565b60405180910390a18091505092915050565b600073ffffffffffffffffffffffffffffffffffffffff168273ffffffffffffffffffffffffffffffffffffffff1603610c00576040517f08c379a0000000000000000000000000000000000000000000000000000000008152600401610bf7906115b1565b60405180910390fd5b6000600260003373ffffffffffffffffffffffffffffffffffffffff1673ffffffffffffffffffffffffffffffffffffffff16815260200190815260200160002054905081811015610c87576040517f08c379a0000000000000000000000000000000000000000000000000000000008152600401610c7e90611688565b60405180910390fd5b6000610c9283610e46565b905060008184610ca29190611459565b905083600260003373ffffffffffffffffffffffffffffffffffffffff1673ffffffffffffffffffffffffffffffffffffffff1681526020019081526020016000206000828254610cf39190611459565b9250508190555080600260008773ffffffffffffffffffffffffffffffffffffffff1673ffffffffffffffffffffffffffffffffffffffff1681526020019081526020016000206000828254610d49919061134d565b925050819055507f30e0789ed23094f42b5810cbdf4e48a0478aec0b37810e24e912443dd0032b3c338686604051610d83939291906116a8565b60405180910390a15050505050565b60606040518060400160405280600481526020017f4549504900000000000000000000000000000000000000000000000000000000815250905090565b60606040518060400160405280601781526020017f4549502d3138323220496d706c656d656e746174696f6e000000000000000000815250905090565b60026020528060005260406000206000915090505481565b60006064600a83610e3591906115d1565b610e3f919061170e565b9050919050565b6000610e5182610e24565b9050670de0b6b3a764000081610e67919061170e565b600080828254610e779190611459565b92505081905550919050565b8073ffffffffffffffffffffffffffffffffffffffff166352d1902d6040518163ffffffff1660e01b8152600401602060405180830381865afa158015610ece573d6000803e3d6000fd5b505050506040513d601f19601f82011682018060405250810190610ef2919061176b565b7fc5f16f0fcc639fa48a6947836d9850f504798523bf8c9a3a87d5876cf622bcf760001b14610f56576040517f08c379a0000000000000000000000000000000000000000000000000000000008152600401610f4d906117e4565b60405180910390fd5b807fc5f16f0fcc639fa48a6947836d9850f504798523bf8c9a3a87d5876cf622bcf75550565b600080fd5b600073ffffffffffffffffffffffffffffffffffffffff82169050919050565b6000610fac82610f81565b9050919050565b610fbc81610fa1565b8114610fc757600080fd5b50565b600081359050610fd981610fb3565b92915050565b6000819050919050565b610ff281610fdf565b8114610ffd57600080fd5b50565b60008135905061100f81610fe9565b92915050565b6000806040838503121561102c5761102b610f7c565b5b600061103a85828601610fca565b925050602061104b85828601611000565b9150509250929050565b60008115159050919050565b61106a81611055565b82525050565b60006020820190506110856000830184611061565b92915050565b6000806000606084860312156110a4576110a3610f7c565b5b60006110b286828701610fca565b93505060206110c386828701610fca565b92505060406110d486828701611000565b9150509250925092565b6110e781610fdf565b82525050565b600060208201905061110260008301846110de565b92915050565b60006020828403121561111e5761111d610f7c565b5b600061112c84828501610fca565b91505092915050565b6000819050919050565b61114881611135565b82525050565b6000602082019050611163600083018461113f565b92915050565b61117281610fa1565b82525050565b600060208201905061118d6000830184611169565b92915050565b600080604083850312156111aa576111a9610f7c565b5b60006111b885828601611000565b92505060206111c985828601610fca565b9150509250929050565b600081519050919050565b600082825260208201905092915050565b60005b8381101561120d5780820151818401526020810190506111f2565b60008484015250505050565b6000601f19601f8301169050919050565b6000611235826111d3565b61123f81856111de565b935061124f8185602086016111ef565b61125881611219565b840191505092915050565b6000602082019050818103600083015261127d818461122a565b905092915050565b60006020828403121561129b5761129a610f7c565b5b60006112a984828501611000565b91505092915050565b7f496e73756666696369656e742066756e64730000000000000000000000000000600082015250565b60006112e86012836111de565b91506112f3826112b2565b602082019050919050565b60006020820190508181036000830152611317816112db565b9050919050565b7f4e487b7100000000000000000000000000000000000000000000000000000000600052601160045260246000fd5b600061135882610fdf565b915061136383610fdf565b925082820190508082111561137b5761137a61131e565b5b92915050565b7f4e6f7420616e20617070726f766564207370656e646572000000000000000000600082015250565b60006113b76017836111de565b91506113c282611381565b602082019050919050565b600060208201905081810360008301526113e6816113aa565b9050919050565b7f6e6f20616c6c6f77616e636520666f7220796f75000000000000000000000000600082015250565b60006114236014836111de565b915061142e826113ed565b602082019050919050565b6000602082019050818103600083015261145281611416565b9050919050565b600061146482610fdf565b915061146f83610fdf565b92508282039050818111156114875761148661131e565b5b92915050565b7f4e6f207065726d697373696f6e2065786365707420746f206f776e6572000000600082015250565b60006114c3601d836111de565b91506114ce8261148d565b602082019050919050565b600060208201905081810360008301526114f2816114b6565b9050919050565b7f546f74616c20737570706c79206f6620746f6b656e2065786365656465640000600082015250565b600061152f601e836111de565b915061153a826114f9565b602082019050919050565b6000602082019050818103600083015261155e81611522565b9050919050565b7f6d696e7420746f2061646472657373207a65726f000000000000000000000000600082015250565b600061159b6014836111de565b91506115a682611565565b602082019050919050565b600060208201905081810360008301526115ca8161158e565b9050919050565b60006115dc82610fdf565b91506115e783610fdf565b92508282026115f581610fdf565b9150828204841483151761160c5761160b61131e565b5b5092915050565b60006040820190506116286000830185611169565b61163560208301846110de565b9392505050565b7f496e73756666696369656e742066756e64000000000000000000000000000000600082015250565b60006116726011836111de565b915061167d8261163c565b602082019050919050565b600060208201905081810360008301526116a181611665565b9050919050565b60006060820190506116bd6000830186611169565b6116ca6020830185611169565b6116d760408301846110de565b949350505050565b7f4e487b7100000000000000000000000000000000000000000000000000000000600052601260045260246000fd5b600061171982610fdf565b915061172483610fdf565b925082611734576117336116df565b5b828204905092915050565b61174881611135565b811461175357600080fd5b50565b6000815190506117658161173f565b92915050565b60006020828403121561178157611780610f7c565b5b600061178f84828501611756565b91505092915050565b7f4e6f7420636f6d70617469626c65000000000000000000000000000000000000600082015250565b60006117ce600e836111de565b91506117d982611798565b602082019050919050565b600060208201905081810360008301526117fd816117c1565b905091905056fea2646970667358221220db1ef5b181edb272258a9d4196d892c5ac4a751a191718560c64aa29044f7c1a64736f6c63430008110033",
					"opcodes": "PUSH1 0x80 PUSH1 0x40 MSTORE PUSH1 0x0 PUSH1 0x1 PUSH1 0x14 PUSH2 0x100 EXP DUP2 SLOAD DUP2 PUSH1 0xFF MUL NOT AND SWAP1 DUP4 ISZERO ISZERO MUL OR SWAP1 SSTORE POP CALLVALUE DUP1 ISZERO PUSH2 0x2B JUMPI PUSH1 0x0 DUP1 REVERT JUMPDEST POP PUSH2 0x183A DUP1 PUSH2 0x3B PUSH1 0x0 CODECOPY PUSH1 0x0 RETURN INVALID PUSH1 0x80 PUSH1 0x40 MSTORE CALLVALUE DUP1 ISZERO PUSH2 0x10 JUMPI PUSH1 0x0 DUP1 REVERT JUMPDEST POP PUSH1 0x4 CALLDATASIZE LT PUSH2 0xF5 JUMPI PUSH1 0x0 CALLDATALOAD PUSH1 0xE0 SHR DUP1 PUSH4 0x86212B8F GT PUSH2 0x97 JUMPI DUP1 PUSH4 0xB09F1266 GT PUSH2 0x66 JUMPI DUP1 PUSH4 0xB09F1266 EQ PUSH2 0x260 JUMPI DUP1 PUSH4 0xD28D8852 EQ PUSH2 0x27E JUMPI DUP1 PUSH4 0xD3ACEAE2 EQ PUSH2 0x29C JUMPI DUP1 PUSH4 0xDC287C7E EQ PUSH2 0x2CC JUMPI PUSH2 0xF5 JUMP JUMPDEST DUP1 PUSH4 0x86212B8F EQ PUSH2 0x1C6 JUMPI DUP1 PUSH4 0x8DA5CB5B EQ PUSH2 0x1F6 JUMPI DUP1 PUSH4 0x94BF804D EQ PUSH2 0x214 JUMPI DUP1 PUSH4 0xA9059CBB EQ PUSH2 0x244 JUMPI PUSH2 0xF5 JUMP JUMPDEST DUP1 PUSH4 0x2F0E3120 GT PUSH2 0xD3 JUMPI DUP1 PUSH4 0x2F0E3120 EQ PUSH2 0x150 JUMPI DUP1 PUSH4 0x3EAAF86B EQ PUSH2 0x16E JUMPI DUP1 PUSH4 0x46951954 EQ PUSH2 0x18C JUMPI DUP1 PUSH4 0x52D1902D EQ PUSH2 0x1A8 JUMPI PUSH2 0xF5 JUMP JUMPDEST DUP1 PUSH4 0x95EA7B3 EQ PUSH2 0xFA JUMPI DUP1 PUSH4 0x158EF93E EQ PUSH2 0x116 JUMPI DUP1 PUSH4 0x23B872DD EQ PUSH2 0x134 JUMPI JUMPDEST PUSH1 0x0 DUP1 REVERT JUMPDEST PUSH2 0x114 PUSH1 0x4 DUP1 CALLDATASIZE SUB DUP2 ADD SWAP1 PUSH2 0x10F SWAP2 SWAP1 PUSH2 0x1015 JUMP JUMPDEST PUSH2 0x2FC JUMP JUMPDEST STOP JUMPDEST PUSH2 0x11E PUSH2 0x532 JUMP JUMPDEST PUSH1 0x40 MLOAD PUSH2 0x12B SWAP2 SWAP1 PUSH2 0x1070 JUMP JUMPDEST PUSH1 0x40 MLOAD DUP1 SWAP2 SUB SWAP1 RETURN JUMPDEST PUSH2 0x14E PUSH1 0x4 DUP1 CALLDATASIZE SUB DUP2 ADD SWAP1 PUSH2 0x149 SWAP2 SWAP1 PUSH2 0x108B JUMP JUMPDEST PUSH2 0x545 JUMP JUMPDEST STOP JUMPDEST PUSH2 0x158 PUSH2 0x830 JUMP JUMPDEST PUSH1 0x40 MLOAD PUSH2 0x165 SWAP2 SWAP1 PUSH2 0x10ED JUMP JUMPDEST PUSH1 0x40 MLOAD DUP1 SWAP2 SUB SWAP1 RETURN JUMPDEST PUSH2 0x176 PUSH2 0x840 JUMP JUMPDEST PUSH1 0x40 MLOAD PUSH2 0x183 SWAP2 SWAP1 PUSH2 0x10ED JUMP JUMPDEST PUSH1 0x40 MLOAD DUP1 SWAP2 SUB SWAP1 RETURN JUMPDEST PUSH2 0x1A6 PUSH1 0x4 DUP1 CALLDATASIZE SUB DUP2 ADD SWAP1 PUSH2 0x1A1 SWAP2 SWAP1 PUSH2 0x1108 JUMP JUMPDEST PUSH2 0x84A JUMP JUMPDEST STOP JUMPDEST PUSH2 0x1B0 PUSH2 0x8E6 JUMP JUMPDEST PUSH1 0x40 MLOAD PUSH2 0x1BD SWAP2 SWAP1 PUSH2 0x114E JUMP JUMPDEST PUSH1 0x40 MLOAD DUP1 SWAP2 SUB SWAP1 RETURN JUMPDEST PUSH2 0x1E0 PUSH1 0x4 DUP1 CALLDATASIZE SUB DUP2 ADD SWAP1 PUSH2 0x1DB SWAP2 SWAP1 PUSH2 0x1108 JUMP JUMPDEST PUSH2 0x911 JUMP JUMPDEST PUSH1 0x40 MLOAD PUSH2 0x1ED SWAP2 SWAP1 PUSH2 0x10ED JUMP JUMPDEST PUSH1 0x40 MLOAD DUP1 SWAP2 SUB SWAP1 RETURN JUMPDEST PUSH2 0x1FE PUSH2 0x95A JUMP JUMPDEST PUSH1 0x40 MLOAD PUSH2 0x20B SWAP2 SWAP1 PUSH2 0x1178 JUMP JUMPDEST PUSH1 0x40 MLOAD DUP1 SWAP2 SUB SWAP1 RETURN JUMPDEST PUSH2 0x22E PUSH1 0x4 DUP1 CALLDATASIZE SUB DUP2 ADD SWAP1 PUSH2 0x229 SWAP2 SWAP1 PUSH2 0x1193 JUMP JUMPDEST PUSH2 0x980 JUMP JUMPDEST PUSH1 0x40 MLOAD PUSH2 0x23B SWAP2 SWAP1 PUSH2 0x10ED JUMP JUMPDEST PUSH1 0x40 MLOAD DUP1 SWAP2 SUB SWAP1 RETURN JUMPDEST PUSH2 0x25E PUSH1 0x4 DUP1 CALLDATASIZE SUB DUP2 ADD SWAP1 PUSH2 0x259 SWAP2 SWAP1 PUSH2 0x1015 JUMP JUMPDEST PUSH2 0xB91 JUMP JUMPDEST STOP JUMPDEST PUSH2 0x268 PUSH2 0xD92 JUMP JUMPDEST PUSH1 0x40 MLOAD PUSH2 0x275 SWAP2 SWAP1 PUSH2 0x1263 JUMP JUMPDEST PUSH1 0x40 MLOAD DUP1 SWAP2 SUB SWAP1 RETURN JUMPDEST PUSH2 0x286 PUSH2 0xDCF JUMP JUMPDEST PUSH1 0x40 MLOAD PUSH2 0x293 SWAP2 SWAP1 PUSH2 0x1263 JUMP JUMPDEST PUSH1 0x40 MLOAD DUP1 SWAP2 SUB SWAP1 RETURN JUMPDEST PUSH2 0x2B6 PUSH1 0x4 DUP1 CALLDATASIZE SUB DUP2 ADD SWAP1 PUSH2 0x2B1 SWAP2 SWAP1 PUSH2 0x1108 JUMP JUMPDEST PUSH2 0xE0C JUMP JUMPDEST PUSH1 0x40 MLOAD PUSH2 0x2C3 SWAP2 SWAP1 PUSH2 0x10ED JUMP JUMPDEST PUSH1 0x40 MLOAD DUP1 SWAP2 SUB SWAP1 RETURN JUMPDEST PUSH2 0x2E6 PUSH1 0x4 DUP1 CALLDATASIZE SUB DUP2 ADD SWAP1 PUSH2 0x2E1 SWAP2 SWAP1 PUSH2 0x1285 JUMP JUMPDEST PUSH2 0xE24 JUMP JUMPDEST PUSH1 0x40 MLOAD PUSH2 0x2F3 SWAP2 SWAP1 PUSH2 0x10ED JUMP JUMPDEST PUSH1 0x40 MLOAD DUP1 SWAP2 SUB SWAP1 RETURN JUMPDEST CALLER DUP2 PUSH1 0x0 PUSH2 0x309 DUP4 PUSH2 0x911 JUMP JUMPDEST SWAP1 POP DUP2 DUP2 LT ISZERO PUSH2 0x34E JUMPI PUSH1 0x40 MLOAD PUSH32 0x8C379A000000000000000000000000000000000000000000000000000000000 DUP2 MSTORE PUSH1 0x4 ADD PUSH2 0x345 SWAP1 PUSH2 0x12FE JUMP JUMPDEST PUSH1 0x40 MLOAD DUP1 SWAP2 SUB SWAP1 REVERT JUMPDEST PUSH1 0x0 PUSH20 0xFFFFFFFFFFFFFFFFFFFFFFFFFFFFFFFFFFFFFFFF AND DUP6 PUSH20 0xFFFFFFFFFFFFFFFFFFFFFFFFFFFFFFFFFFFFFFFF AND SUB PUSH2 0x387 JUMPI PUSH1 0x0 DUP1 REVERT JUMPDEST PUSH1 0x0 PUSH1 0x3 PUSH1 0x0 CALLER PUSH20 0xFFFFFFFFFFFFFFFFFFFFFFFFFFFFFFFFFFFFFFFF AND PUSH20 0xFFFFFFFFFFFFFFFFFFFFFFFFFFFFFFFFFFFFFFFF AND DUP2 MSTORE PUSH1 0x20 ADD SWAP1 DUP2 MSTORE PUSH1 0x20 ADD PUSH1 0x0 KECCAK256 PUSH1 0x0 DUP8 PUSH20 0xFFFFFFFFFFFFFFFFFFFFFFFFFFFFFFFFFFFFFFFF AND PUSH20 0xFFFFFFFFFFFFFFFFFFFFFFFFFFFFFFFFFFFFFFFF AND DUP2 MSTORE PUSH1 0x20 ADD SWAP1 DUP2 MSTORE PUSH1 0x20 ADD PUSH1 0x0 KECCAK256 SLOAD SWAP1 POP PUSH1 0x0 DUP2 SUB PUSH2 0x496 JUMPI DUP5 PUSH1 0x3 PUSH1 0x0 CALLER PUSH20 0xFFFFFFFFFFFFFFFFFFFFFFFFFFFFFFFFFFFFFFFF AND PUSH20 0xFFFFFFFFFFFFFFFFFFFFFFFFFFFFFFFFFFFFFFFF AND DUP2 MSTORE PUSH1 0x20 ADD SWAP1 DUP2 MSTORE PUSH1 0x20 ADD PUSH1 0x0 KECCAK256 PUSH1 0x0 DUP9 PUSH20 0xFFFFFFFFFFFFFFFFFFFFFFFFFFFFFFFFFFFFFFFF AND PUSH20 0xFFFFFFFFFFFFFFFFFFFFFFFFFFFFFFFFFFFFFFFF AND DUP2 MSTORE PUSH1 0x20 ADD SWAP1 DUP2 MSTORE PUSH1 0x20 ADD PUSH1 0x0 KECCAK256 DUP2 SWAP1 SSTORE POP PUSH2 0x52A JUMP JUMPDEST DUP5 PUSH1 0x3 PUSH1 0x0 CALLER PUSH20 0xFFFFFFFFFFFFFFFFFFFFFFFFFFFFFFFFFFFFFFFF AND PUSH20 0xFFFFFFFFFFFFFFFFFFFFFFFFFFFFFFFFFFFFFFFF AND DUP2 MSTORE PUSH1 0x20 ADD SWAP1 DUP2 MSTORE PUSH1 0x20 ADD PUSH1 0x0 KECCAK256 PUSH1 0x0 DUP9 PUSH20 0xFFFFFFFFFFFFFFFFFFFFFFFFFFFFFFFFFFFFFFFF AND PUSH20 0xFFFFFFFFFFFFFFFFFFFFFFFFFFFFFFFFFFFFFFFF AND DUP2 MSTORE PUSH1 0x20 ADD SWAP1 DUP2 MSTORE PUSH1 0x20 ADD PUSH1 0x0 KECCAK256 PUSH1 0x0 DUP3 DUP3 SLOAD PUSH2 0x522 SWAP2 SWAP1 PUSH2 0x134D JUMP JUMPDEST SWAP3 POP POP DUP2 SWAP1 SSTORE POP JUMPDEST POP POP POP POP POP POP JUMP JUMPDEST PUSH1 0x1 PUSH1 0x14 SWAP1 SLOAD SWAP1 PUSH2 0x100 EXP SWAP1 DIV PUSH1 0xFF AND DUP2 JUMP JUMPDEST DUP3 DUP2 PUSH1 0x0 PUSH2 0x552 DUP4 PUSH2 0x911 JUMP JUMPDEST SWAP1 POP DUP2 DUP2 LT ISZERO PUSH2 0x597 JUMPI PUSH1 0x40 MLOAD PUSH32 0x8C379A000000000000000000000000000000000000000000000000000000000 DUP2 MSTORE PUSH1 0x4 ADD PUSH2 0x58E SWAP1 PUSH2 0x12FE JUMP JUMPDEST PUSH1 0x40 MLOAD DUP1 SWAP2 SUB SWAP1 REVERT JUMPDEST CALLER PUSH20 0xFFFFFFFFFFFFFFFFFFFFFFFFFFFFFFFFFFFFFFFF AND DUP6 PUSH20 0xFFFFFFFFFFFFFFFFFFFFFFFFFFFFFFFFFFFFFFFF AND EQ PUSH2 0x605 JUMPI PUSH1 0x40 MLOAD PUSH32 0x8C379A000000000000000000000000000000000000000000000000000000000 DUP2 MSTORE PUSH1 0x4 ADD PUSH2 0x5FC SWAP1 PUSH2 0x13CD JUMP JUMPDEST PUSH1 0x40 MLOAD DUP1 SWAP2 SUB SWAP1 REVERT JUMPDEST PUSH1 0x0 PUSH1 0x3 PUSH1 0x0 DUP9 PUSH20 0xFFFFFFFFFFFFFFFFFFFFFFFFFFFFFFFFFFFFFFFF AND PUSH20 0xFFFFFFFFFFFFFFFFFFFFFFFFFFFFFFFFFFFFFFFF AND DUP2 MSTORE PUSH1 0x20 ADD SWAP1 DUP2 MSTORE PUSH1 0x20 ADD PUSH1 0x0 KECCAK256 PUSH1 0x0 DUP8 PUSH20 0xFFFFFFFFFFFFFFFFFFFFFFFFFFFFFFFFFFFFFFFF AND PUSH20 0xFFFFFFFFFFFFFFFFFFFFFFFFFFFFFFFFFFFFFFFF AND DUP2 MSTORE PUSH1 0x20 ADD SWAP1 DUP2 MSTORE PUSH1 0x20 ADD PUSH1 0x0 KECCAK256 SLOAD SWAP1 POP DUP5 DUP2 LT ISZERO PUSH2 0x6C9 JUMPI PUSH1 0x40 MLOAD PUSH32 0x8C379A000000000000000000000000000000000000000000000000000000000 DUP2 MSTORE PUSH1 0x4 ADD PUSH2 0x6C0 SWAP1 PUSH2 0x1439 JUMP JUMPDEST PUSH1 0x40 MLOAD DUP1 SWAP2 SUB SWAP1 REVERT JUMPDEST PUSH1 0x0 PUSH2 0x6D4 DUP7 PUSH2 0xE46 JUMP JUMPDEST SWAP1 POP PUSH1 0x0 DUP2 DUP8 PUSH2 0x6E4 SWAP2 SWAP1 PUSH2 0x1459 JUMP JUMPDEST SWAP1 POP DUP1 PUSH1 0x3 PUSH1 0x0 DUP12 PUSH20 0xFFFFFFFFFFFFFFFFFFFFFFFFFFFFFFFFFFFFFFFF AND PUSH20 0xFFFFFFFFFFFFFFFFFFFFFFFFFFFFFFFFFFFFFFFF AND DUP2 MSTORE PUSH1 0x20 ADD SWAP1 DUP2 MSTORE PUSH1 0x20 ADD PUSH1 0x0 KECCAK256 PUSH1 0x0 DUP11 PUSH20 0xFFFFFFFFFFFFFFFFFFFFFFFFFFFFFFFFFFFFFFFF AND PUSH20 0xFFFFFFFFFFFFFFFFFFFFFFFFFFFFFFFFFFFFFFFF AND DUP2 MSTORE PUSH1 0x20 ADD SWAP1 DUP2 MSTORE PUSH1 0x20 ADD PUSH1 0x0 KECCAK256 PUSH1 0x0 DUP3 DUP3 SLOAD PUSH2 0x772 SWAP2 SWAP1 PUSH2 0x1459 JUMP JUMPDEST SWAP3 POP POP DUP2 SWAP1 SSTORE POP DUP7 PUSH1 0x2 PUSH1 0x0 DUP12 PUSH20 0xFFFFFFFFFFFFFFFFFFFFFFFFFFFFFFFFFFFFFFFF AND PUSH20 0xFFFFFFFFFFFFFFFFFFFFFFFFFFFFFFFFFFFFFFFF AND DUP2 MSTORE PUSH1 0x20 ADD SWAP1 DUP2 MSTORE PUSH1 0x20 ADD PUSH1 0x0 KECCAK256 PUSH1 0x0 DUP3 DUP3 SLOAD PUSH2 0x7C8 SWAP2 SWAP1 PUSH2 0x1459 JUMP JUMPDEST SWAP3 POP POP DUP2 SWAP1 SSTORE POP DUP7 PUSH1 0x2 PUSH1 0x0 DUP11 PUSH20 0xFFFFFFFFFFFFFFFFFFFFFFFFFFFFFFFFFFFFFFFF AND PUSH20 0xFFFFFFFFFFFFFFFFFFFFFFFFFFFFFFFFFFFFFFFF AND DUP2 MSTORE PUSH1 0x20 ADD SWAP1 DUP2 MSTORE PUSH1 0x20 ADD PUSH1 0x0 KECCAK256 PUSH1 0x0 DUP3 DUP3 SLOAD PUSH2 0x81E SWAP2 SWAP1 PUSH2 0x134D JUMP JUMPDEST SWAP3 POP POP DUP2 SWAP1 SSTORE POP POP POP POP POP POP POP POP POP POP JUMP JUMPDEST PUSH1 0x0 PUSH8 0xDE0B6B3A7640000 SWAP1 POP SWAP1 JUMP JUMPDEST PUSH1 0x0 PUSH2 0x2710 SWAP1 POP SWAP1 JUMP JUMPDEST CALLER PUSH20 0xFFFFFFFFFFFFFFFFFFFFFFFFFFFFFFFFFFFFFFFF AND PUSH1 0x1 PUSH1 0x0 SWAP1 SLOAD SWAP1 PUSH2 0x100 EXP SWAP1 DIV PUSH20 0xFFFFFFFFFFFFFFFFFFFFFFFFFFFFFFFFFFFFFFFF AND PUSH20 0xFFFFFFFFFFFFFFFFFFFFFFFFFFFFFFFFFFFFFFFF AND EQ PUSH2 0x8DA JUMPI PUSH1 0x40 MLOAD PUSH32 0x8C379A000000000000000000000000000000000000000000000000000000000 DUP2 MSTORE PUSH1 0x4 ADD PUSH2 0x8D1 SWAP1 PUSH2 0x14D9 JUMP JUMPDEST PUSH1 0x40 MLOAD DUP1 SWAP2 SUB SWAP1 REVERT JUMPDEST PUSH2 0x8E3 DUP2 PUSH2 0xE83 JUMP JUMPDEST POP JUMP JUMPDEST PUSH1 0x0 PUSH32 0xC5F16F0FCC639FA48A6947836D9850F504798523BF8C9A3A87D5876CF622BCF7 PUSH1 0x0 SHL SWAP1 POP SWAP1 JUMP JUMPDEST PUSH1 0x0 PUSH1 0x2 PUSH1 0x0 DUP4 PUSH20 0xFFFFFFFFFFFFFFFFFFFFFFFFFFFFFFFFFFFFFFFF AND PUSH20 0xFFFFFFFFFFFFFFFFFFFFFFFFFFFFFFFFFFFFFFFF AND DUP2 MSTORE PUSH1 0x20 ADD SWAP1 DUP2 MSTORE PUSH1 0x20 ADD PUSH1 0x0 KECCAK256 SLOAD SWAP1 POP SWAP2 SWAP1 POP JUMP JUMPDEST PUSH1 0x1 PUSH1 0x0 SWAP1 SLOAD SWAP1 PUSH2 0x100 EXP SWAP1 DIV PUSH20 0xFFFFFFFFFFFFFFFFFFFFFFFFFFFFFFFFFFFFFFFF AND DUP2 JUMP JUMPDEST PUSH1 0x0 CALLER PUSH20 0xFFFFFFFFFFFFFFFFFFFFFFFFFFFFFFFFFFFFFFFF AND PUSH1 0x1 PUSH1 0x0 SWAP1 SLOAD SWAP1 PUSH2 0x100 EXP SWAP1 DIV PUSH20 0xFFFFFFFFFFFFFFFFFFFFFFFFFFFFFFFFFFFFFFFF AND PUSH20 0xFFFFFFFFFFFFFFFFFFFFFFFFFFFFFFFFFFFFFFFF AND EQ PUSH2 0xA12 JUMPI PUSH1 0x40 MLOAD PUSH32 0x8C379A000000000000000000000000000000000000000000000000000000000 DUP2 MSTORE PUSH1 0x4 ADD PUSH2 0xA09 SWAP1 PUSH2 0x14D9 JUMP JUMPDEST PUSH1 0x40 MLOAD DUP1 SWAP2 SUB SWAP1 REVERT JUMPDEST DUP3 PUSH1 0x0 DUP1 DUP3 DUP3 SLOAD PUSH2 0xA23 SWAP2 SWAP1 PUSH2 0x134D JUMP JUMPDEST SWAP3 POP POP DUP2 SWAP1 SSTORE POP PUSH2 0x2710 PUSH1 0x0 SLOAD GT ISZERO PUSH2 0xA71 JUMPI PUSH1 0x40 MLOAD PUSH32 0x8C379A000000000000000000000000000000000000000000000000000000000 DUP2 MSTORE PUSH1 0x4 ADD PUSH2 0xA68 SWAP1 PUSH2 0x1545 JUMP JUMPDEST PUSH1 0x40 MLOAD DUP1 SWAP2 SUB SWAP1 REVERT JUMPDEST PUSH1 0x0 PUSH20 0xFFFFFFFFFFFFFFFFFFFFFFFFFFFFFFFFFFFFFFFF AND DUP3 PUSH20 0xFFFFFFFFFFFFFFFFFFFFFFFFFFFFFFFFFFFFFFFF AND SUB PUSH2 0xAE0 JUMPI PUSH1 0x40 MLOAD PUSH32 0x8C379A000000000000000000000000000000000000000000000000000000000 DUP2 MSTORE PUSH1 0x4 ADD PUSH2 0xAD7 SWAP1 PUSH2 0x15B1 JUMP JUMPDEST PUSH1 0x40 MLOAD DUP1 SWAP2 SUB SWAP1 REVERT JUMPDEST PUSH1 0x0 PUSH8 0xDE0B6B3A7640000 DUP5 PUSH2 0xAF6 SWAP2 SWAP1 PUSH2 0x15D1 JUMP JUMPDEST SWAP1 POP DUP1 PUSH1 0x2 PUSH1 0x0 DUP6 PUSH20 0xFFFFFFFFFFFFFFFFFFFFFFFFFFFFFFFFFFFFFFFF AND PUSH20 0xFFFFFFFFFFFFFFFFFFFFFFFFFFFFFFFFFFFFFFFF AND DUP2 MSTORE PUSH1 0x20 ADD SWAP1 DUP2 MSTORE PUSH1 0x20 ADD PUSH1 0x0 KECCAK256 PUSH1 0x0 DUP3 DUP3 SLOAD PUSH2 0xB47 SWAP2 SWAP1 PUSH2 0x134D JUMP JUMPDEST SWAP3 POP POP DUP2 SWAP1 SSTORE POP PUSH32 0xEEF892AA26C4762FAD30F87B912A95ED5B6FF48D8EA3521783C84679E23D2AE2 DUP4 DUP3 PUSH1 0x40 MLOAD PUSH2 0xB7F SWAP3 SWAP2 SWAP1 PUSH2 0x1613 JUMP JUMPDEST PUSH1 0x40 MLOAD DUP1 SWAP2 SUB SWAP1 LOG1 DUP1 SWAP2 POP POP SWAP3 SWAP2 POP POP JUMP JUMPDEST PUSH1 0x0 PUSH20 0xFFFFFFFFFFFFFFFFFFFFFFFFFFFFFFFFFFFFFFFF AND DUP3 PUSH20 0xFFFFFFFFFFFFFFFFFFFFFFFFFFFFFFFFFFFFFFFF AND SUB PUSH2 0xC00 JUMPI PUSH1 0x40 MLOAD PUSH32 0x8C379A000000000000000000000000000000000000000000000000000000000 DUP2 MSTORE PUSH1 0x4 ADD PUSH2 0xBF7 SWAP1 PUSH2 0x15B1 JUMP JUMPDEST PUSH1 0x40 MLOAD DUP1 SWAP2 SUB SWAP1 REVERT JUMPDEST PUSH1 0x0 PUSH1 0x2 PUSH1 0x0 CALLER PUSH20 0xFFFFFFFFFFFFFFFFFFFFFFFFFFFFFFFFFFFFFFFF AND PUSH20 0xFFFFFFFFFFFFFFFFFFFFFFFFFFFFFFFFFFFFFFFF AND DUP2 MSTORE PUSH1 0x20 ADD SWAP1 DUP2 MSTORE PUSH1 0x20 ADD PUSH1 0x0 KECCAK256 SLOAD SWAP1 POP DUP2 DUP2 LT ISZERO PUSH2 0xC87 JUMPI PUSH1 0x40 MLOAD PUSH32 0x8C379A000000000000000000000000000000000000000000000000000000000 DUP2 MSTORE PUSH1 0x4 ADD PUSH2 0xC7E SWAP1 PUSH2 0x1688 JUMP JUMPDEST PUSH1 0x40 MLOAD DUP1 SWAP2 SUB SWAP1 REVERT JUMPDEST PUSH1 0x0 PUSH2 0xC92 DUP4 PUSH2 0xE46 JUMP JUMPDEST SWAP1 POP PUSH1 0x0 DUP2 DUP5 PUSH2 0xCA2 SWAP2 SWAP1 PUSH2 0x1459 JUMP JUMPDEST SWAP1 POP DUP4 PUSH1 0x2 PUSH1 0x0 CALLER PUSH20 0xFFFFFFFFFFFFFFFFFFFFFFFFFFFFFFFFFFFFFFFF AND PUSH20 0xFFFFFFFFFFFFFFFFFFFFFFFFFFFFFFFFFFFFFFFF AND DUP2 MSTORE PUSH1 0x20 ADD SWAP1 DUP2 MSTORE PUSH1 0x20 ADD PUSH1 0x0 KECCAK256 PUSH1 0x0 DUP3 DUP3 SLOAD PUSH2 0xCF3 SWAP2 SWAP1 PUSH2 0x1459 JUMP JUMPDEST SWAP3 POP POP DUP2 SWAP1 SSTORE POP DUP1 PUSH1 0x2 PUSH1 0x0 DUP8 PUSH20 0xFFFFFFFFFFFFFFFFFFFFFFFFFFFFFFFFFFFFFFFF AND PUSH20 0xFFFFFFFFFFFFFFFFFFFFFFFFFFFFFFFFFFFFFFFF AND DUP2 MSTORE PUSH1 0x20 ADD SWAP1 DUP2 MSTORE PUSH1 0x20 ADD PUSH1 0x0 KECCAK256 PUSH1 0x0 DUP3 DUP3 SLOAD PUSH2 0xD49 SWAP2 SWAP1 PUSH2 0x134D JUMP JUMPDEST SWAP3 POP POP DUP2 SWAP1 SSTORE POP PUSH32 0x30E0789ED23094F42B5810CBDF4E48A0478AEC0B37810E24E912443DD0032B3C CALLER DUP7 DUP7 PUSH1 0x40 MLOAD PUSH2 0xD83 SWAP4 SWAP3 SWAP2 SWAP1 PUSH2 0x16A8 JUMP JUMPDEST PUSH1 0x40 MLOAD DUP1 SWAP2 SUB SWAP1 LOG1 POP POP POP POP POP JUMP JUMPDEST PUSH1 0x60 PUSH1 0x40 MLOAD DUP1 PUSH1 0x40 ADD PUSH1 0x40 MSTORE DUP1 PUSH1 0x4 DUP2 MSTORE PUSH1 0x20 ADD PUSH32 0x4549504900000000000000000000000000000000000000000000000000000000 DUP2 MSTORE POP SWAP1 POP SWAP1 JUMP JUMPDEST PUSH1 0x60 PUSH1 0x40 MLOAD DUP1 PUSH1 0x40 ADD PUSH1 0x40 MSTORE DUP1 PUSH1 0x17 DUP2 MSTORE PUSH1 0x20 ADD PUSH32 0x4549502D3138323220496D706C656D656E746174696F6E000000000000000000 DUP2 MSTORE POP SWAP1 POP SWAP1 JUMP JUMPDEST PUSH1 0x2 PUSH1 0x20 MSTORE DUP1 PUSH1 0x0 MSTORE PUSH1 0x40 PUSH1 0x0 KECCAK256 PUSH1 0x0 SWAP2 POP SWAP1 POP SLOAD DUP2 JUMP JUMPDEST PUSH1 0x0 PUSH1 0x64 PUSH1 0xA DUP4 PUSH2 0xE35 SWAP2 SWAP1 PUSH2 0x15D1 JUMP JUMPDEST PUSH2 0xE3F SWAP2 SWAP1 PUSH2 0x170E JUMP JUMPDEST SWAP1 POP SWAP2 SWAP1 POP JUMP JUMPDEST PUSH1 0x0 PUSH2 0xE51 DUP3 PUSH2 0xE24 JUMP JUMPDEST SWAP1 POP PUSH8 0xDE0B6B3A7640000 DUP2 PUSH2 0xE67 SWAP2 SWAP1 PUSH2 0x170E JUMP JUMPDEST PUSH1 0x0 DUP1 DUP3 DUP3 SLOAD PUSH2 0xE77 SWAP2 SWAP1 PUSH2 0x1459 JUMP JUMPDEST SWAP3 POP POP DUP2 SWAP1 SSTORE POP SWAP2 SWAP1 POP JUMP JUMPDEST DUP1 PUSH20 0xFFFFFFFFFFFFFFFFFFFFFFFFFFFFFFFFFFFFFFFF AND PUSH4 0x52D1902D PUSH1 0x40 MLOAD DUP2 PUSH4 0xFFFFFFFF AND PUSH1 0xE0 SHL DUP2 MSTORE PUSH1 0x4 ADD PUSH1 0x20 PUSH1 0x40 MLOAD DUP1 DUP4 SUB DUP2 DUP7 GAS STATICCALL ISZERO DUP1 ISZERO PUSH2 0xECE JUMPI RETURNDATASIZE PUSH1 0x0 DUP1 RETURNDATACOPY RETURNDATASIZE PUSH1 0x0 REVERT JUMPDEST POP POP POP POP PUSH1 0x40 MLOAD RETURNDATASIZE PUSH1 0x1F NOT PUSH1 0x1F DUP3 ADD AND DUP3 ADD DUP1 PUSH1 0x40 MSTORE POP DUP2 ADD SWAP1 PUSH2 0xEF2 SWAP2 SWAP1 PUSH2 0x176B JUMP JUMPDEST PUSH32 0xC5F16F0FCC639FA48A6947836D9850F504798523BF8C9A3A87D5876CF622BCF7 PUSH1 0x0 SHL EQ PUSH2 0xF56 JUMPI PUSH1 0x40 MLOAD PUSH32 0x8C379A000000000000000000000000000000000000000000000000000000000 DUP2 MSTORE PUSH1 0x4 ADD PUSH2 0xF4D SWAP1 PUSH2 0x17E4 JUMP JUMPDEST PUSH1 0x40 MLOAD DUP1 SWAP2 SUB SWAP1 REVERT JUMPDEST DUP1 PUSH32 0xC5F16F0FCC639FA48A6947836D9850F504798523BF8C9A3A87D5876CF622BCF7 SSTORE POP JUMP JUMPDEST PUSH1 0x0 DUP1 REVERT JUMPDEST PUSH1 0x0 PUSH20 0xFFFFFFFFFFFFFFFFFFFFFFFFFFFFFFFFFFFFFFFF DUP3 AND SWAP1 POP SWAP2 SWAP1 POP JUMP JUMPDEST PUSH1 0x0 PUSH2 0xFAC DUP3 PUSH2 0xF81 JUMP JUMPDEST SWAP1 POP SWAP2 SWAP1 POP JUMP JUMPDEST PUSH2 0xFBC DUP2 PUSH2 0xFA1 JUMP JUMPDEST DUP2 EQ PUSH2 0xFC7 JUMPI PUSH1 0x0 DUP1 REVERT JUMPDEST POP JUMP JUMPDEST PUSH1 0x0 DUP2 CALLDATALOAD SWAP1 POP PUSH2 0xFD9 DUP2 PUSH2 0xFB3 JUMP JUMPDEST SWAP3 SWAP2 POP POP JUMP JUMPDEST PUSH1 0x0 DUP2 SWAP1 POP SWAP2 SWAP1 POP JUMP JUMPDEST PUSH2 0xFF2 DUP2 PUSH2 0xFDF JUMP JUMPDEST DUP2 EQ PUSH2 0xFFD JUMPI PUSH1 0x0 DUP1 REVERT JUMPDEST POP JUMP JUMPDEST PUSH1 0x0 DUP2 CALLDATALOAD SWAP1 POP PUSH2 0x100F DUP2 PUSH2 0xFE9 JUMP JUMPDEST SWAP3 SWAP2 POP POP JUMP JUMPDEST PUSH1 0x0 DUP1 PUSH1 0x40 DUP4 DUP6 SUB SLT ISZERO PUSH2 0x102C JUMPI PUSH2 0x102B PUSH2 0xF7C JUMP JUMPDEST JUMPDEST PUSH1 0x0 PUSH2 0x103A DUP6 DUP3 DUP7 ADD PUSH2 0xFCA JUMP JUMPDEST SWAP3 POP POP PUSH1 0x20 PUSH2 0x104B DUP6 DUP3 DUP7 ADD PUSH2 0x1000 JUMP JUMPDEST SWAP2 POP POP SWAP3 POP SWAP3 SWAP1 POP JUMP JUMPDEST PUSH1 0x0 DUP2 ISZERO ISZERO SWAP1 POP SWAP2 SWAP1 POP JUMP JUMPDEST PUSH2 0x106A DUP2 PUSH2 0x1055 JUMP JUMPDEST DUP3 MSTORE POP POP JUMP JUMPDEST PUSH1 0x0 PUSH1 0x20 DUP3 ADD SWAP1 POP PUSH2 0x1085 PUSH1 0x0 DUP4 ADD DUP5 PUSH2 0x1061 JUMP JUMPDEST SWAP3 SWAP2 POP POP JUMP JUMPDEST PUSH1 0x0 DUP1 PUSH1 0x0 PUSH1 0x60 DUP5 DUP7 SUB SLT ISZERO PUSH2 0x10A4 JUMPI PUSH2 0x10A3 PUSH2 0xF7C JUMP JUMPDEST JUMPDEST PUSH1 0x0 PUSH2 0x10B2 DUP7 DUP3 DUP8 ADD PUSH2 0xFCA JUMP JUMPDEST SWAP4 POP POP PUSH1 0x20 PUSH2 0x10C3 DUP7 DUP3 DUP8 ADD PUSH2 0xFCA JUMP JUMPDEST SWAP3 POP POP PUSH1 0x40 PUSH2 0x10D4 DUP7 DUP3 DUP8 ADD PUSH2 0x1000 JUMP JUMPDEST SWAP2 POP POP SWAP3 POP SWAP3 POP SWAP3 JUMP JUMPDEST PUSH2 0x10E7 DUP2 PUSH2 0xFDF JUMP JUMPDEST DUP3 MSTORE POP POP JUMP JUMPDEST PUSH1 0x0 PUSH1 0x20 DUP3 ADD SWAP1 POP PUSH2 0x1102 PUSH1 0x0 DUP4 ADD DUP5 PUSH2 0x10DE JUMP JUMPDEST SWAP3 SWAP2 POP POP JUMP JUMPDEST PUSH1 0x0 PUSH1 0x20 DUP3 DUP5 SUB SLT ISZERO PUSH2 0x111E JUMPI PUSH2 0x111D PUSH2 0xF7C JUMP JUMPDEST JUMPDEST PUSH1 0x0 PUSH2 0x112C DUP5 DUP3 DUP6 ADD PUSH2 0xFCA JUMP JUMPDEST SWAP2 POP POP SWAP3 SWAP2 POP POP JUMP JUMPDEST PUSH1 0x0 DUP2 SWAP1 POP SWAP2 SWAP1 POP JUMP JUMPDEST PUSH2 0x1148 DUP2 PUSH2 0x1135 JUMP JUMPDEST DUP3 MSTORE POP POP JUMP JUMPDEST PUSH1 0x0 PUSH1 0x20 DUP3 ADD SWAP1 POP PUSH2 0x1163 PUSH1 0x0 DUP4 ADD DUP5 PUSH2 0x113F JUMP JUMPDEST SWAP3 SWAP2 POP POP JUMP JUMPDEST PUSH2 0x1172 DUP2 PUSH2 0xFA1 JUMP JUMPDEST DUP3 MSTORE POP POP JUMP JUMPDEST PUSH1 0x0 PUSH1 0x20 DUP3 ADD SWAP1 POP PUSH2 0x118D PUSH1 0x0 DUP4 ADD DUP5 PUSH2 0x1169 JUMP JUMPDEST SWAP3 SWAP2 POP POP JUMP JUMPDEST PUSH1 0x0 DUP1 PUSH1 0x40 DUP4 DUP6 SUB SLT ISZERO PUSH2 0x11AA JUMPI PUSH2 0x11A9 PUSH2 0xF7C JUMP JUMPDEST JUMPDEST PUSH1 0x0 PUSH2 0x11B8 DUP6 DUP3 DUP7 ADD PUSH2 0x1000 JUMP JUMPDEST SWAP3 POP POP PUSH1 0x20 PUSH2 0x11C9 DUP6 DUP3 DUP7 ADD PUSH2 0xFCA JUMP JUMPDEST SWAP2 POP POP SWAP3 POP SWAP3 SWAP1 POP JUMP JUMPDEST PUSH1 0x0 DUP2 MLOAD SWAP1 POP SWAP2 SWAP1 POP JUMP JUMPDEST PUSH1 0x0 DUP3 DUP3 MSTORE PUSH1 0x20 DUP3 ADD SWAP1 POP SWAP3 SWAP2 POP POP JUMP JUMPDEST PUSH1 0x0 JUMPDEST DUP4 DUP2 LT ISZERO PUSH2 0x120D JUMPI DUP1 DUP3 ADD MLOAD DUP2 DUP5 ADD MSTORE PUSH1 0x20 DUP2 ADD SWAP1 POP PUSH2 0x11F2 JUMP JUMPDEST PUSH1 0x0 DUP5 DUP5 ADD MSTORE POP POP POP POP JUMP JUMPDEST PUSH1 0x0 PUSH1 0x1F NOT PUSH1 0x1F DUP4 ADD AND SWAP1 POP SWAP2 SWAP1 POP JUMP JUMPDEST PUSH1 0x0 PUSH2 0x1235 DUP3 PUSH2 0x11D3 JUMP JUMPDEST PUSH2 0x123F DUP2 DUP6 PUSH2 0x11DE JUMP JUMPDEST SWAP4 POP PUSH2 0x124F DUP2 DUP6 PUSH1 0x20 DUP7 ADD PUSH2 0x11EF JUMP JUMPDEST PUSH2 0x1258 DUP2 PUSH2 0x1219 JUMP JUMPDEST DUP5 ADD SWAP2 POP POP SWAP3 SWAP2 POP POP JUMP JUMPDEST PUSH1 0x0 PUSH1 0x20 DUP3 ADD SWAP1 POP DUP2 DUP2 SUB PUSH1 0x0 DUP4 ADD MSTORE PUSH2 0x127D DUP2 DUP5 PUSH2 0x122A JUMP JUMPDEST SWAP1 POP SWAP3 SWAP2 POP POP JUMP JUMPDEST PUSH1 0x0 PUSH1 0x20 DUP3 DUP5 SUB SLT ISZERO PUSH2 0x129B JUMPI PUSH2 0x129A PUSH2 0xF7C JUMP JUMPDEST JUMPDEST PUSH1 0x0 PUSH2 0x12A9 DUP5 DUP3 DUP6 ADD PUSH2 0x1000 JUMP JUMPDEST SWAP2 POP POP SWAP3 SWAP2 POP POP JUMP JUMPDEST PUSH32 0x496E73756666696369656E742066756E64730000000000000000000000000000 PUSH1 0x0 DUP3 ADD MSTORE POP JUMP JUMPDEST PUSH1 0x0 PUSH2 0x12E8 PUSH1 0x12 DUP4 PUSH2 0x11DE JUMP JUMPDEST SWAP2 POP PUSH2 0x12F3 DUP3 PUSH2 0x12B2 JUMP JUMPDEST PUSH1 0x20 DUP3 ADD SWAP1 POP SWAP2 SWAP1 POP JUMP JUMPDEST PUSH1 0x0 PUSH1 0x20 DUP3 ADD SWAP1 POP DUP2 DUP2 SUB PUSH1 0x0 DUP4 ADD MSTORE PUSH2 0x1317 DUP2 PUSH2 0x12DB JUMP JUMPDEST SWAP1 POP SWAP2 SWAP1 POP JUMP JUMPDEST PUSH32 0x4E487B7100000000000000000000000000000000000000000000000000000000 PUSH1 0x0 MSTORE PUSH1 0x11 PUSH1 0x4 MSTORE PUSH1 0x24 PUSH1 0x0 REVERT JUMPDEST PUSH1 0x0 PUSH2 0x1358 DUP3 PUSH2 0xFDF JUMP JUMPDEST SWAP2 POP PUSH2 0x1363 DUP4 PUSH2 0xFDF JUMP JUMPDEST SWAP3 POP DUP3 DUP3 ADD SWAP1 POP DUP1 DUP3 GT ISZERO PUSH2 0x137B JUMPI PUSH2 0x137A PUSH2 0x131E JUMP JUMPDEST JUMPDEST SWAP3 SWAP2 POP POP JUMP JUMPDEST PUSH32 0x4E6F7420616E20617070726F766564207370656E646572000000000000000000 PUSH1 0x0 DUP3 ADD MSTORE POP JUMP JUMPDEST PUSH1 0x0 PUSH2 0x13B7 PUSH1 0x17 DUP4 PUSH2 0x11DE JUMP JUMPDEST SWAP2 POP PUSH2 0x13C2 DUP3 PUSH2 0x1381 JUMP JUMPDEST PUSH1 0x20 DUP3 ADD SWAP1 POP SWAP2 SWAP1 POP JUMP JUMPDEST PUSH1 0x0 PUSH1 0x20 DUP3 ADD SWAP1 POP DUP2 DUP2 SUB PUSH1 0x0 DUP4 ADD MSTORE PUSH2 0x13E6 DUP2 PUSH2 0x13AA JUMP JUMPDEST SWAP1 POP SWAP2 SWAP1 POP JUMP JUMPDEST PUSH32 0x6E6F20616C6C6F77616E636520666F7220796F75000000000000000000000000 PUSH1 0x0 DUP3 ADD MSTORE POP JUMP JUMPDEST PUSH1 0x0 PUSH2 0x1423 PUSH1 0x14 DUP4 PUSH2 0x11DE JUMP JUMPDEST SWAP2 POP PUSH2 0x142E DUP3 PUSH2 0x13ED JUMP JUMPDEST PUSH1 0x20 DUP3 ADD SWAP1 POP SWAP2 SWAP1 POP JUMP JUMPDEST PUSH1 0x0 PUSH1 0x20 DUP3 ADD SWAP1 POP DUP2 DUP2 SUB PUSH1 0x0 DUP4 ADD MSTORE PUSH2 0x1452 DUP2 PUSH2 0x1416 JUMP JUMPDEST SWAP1 POP SWAP2 SWAP1 POP JUMP JUMPDEST PUSH1 0x0 PUSH2 0x1464 DUP3 PUSH2 0xFDF JUMP JUMPDEST SWAP2 POP PUSH2 0x146F DUP4 PUSH2 0xFDF JUMP JUMPDEST SWAP3 POP DUP3 DUP3 SUB SWAP1 POP DUP2 DUP2 GT ISZERO PUSH2 0x1487 JUMPI PUSH2 0x1486 PUSH2 0x131E JUMP JUMPDEST JUMPDEST SWAP3 SWAP2 POP POP JUMP JUMPDEST PUSH32 0x4E6F207065726D697373696F6E2065786365707420746F206F776E6572000000 PUSH1 0x0 DUP3 ADD MSTORE POP JUMP JUMPDEST PUSH1 0x0 PUSH2 0x14C3 PUSH1 0x1D DUP4 PUSH2 0x11DE JUMP JUMPDEST SWAP2 POP PUSH2 0x14CE DUP3 PUSH2 0x148D JUMP JUMPDEST PUSH1 0x20 DUP3 ADD SWAP1 POP SWAP2 SWAP1 POP JUMP JUMPDEST PUSH1 0x0 PUSH1 0x20 DUP3 ADD SWAP1 POP DUP2 DUP2 SUB PUSH1 0x0 DUP4 ADD MSTORE PUSH2 0x14F2 DUP2 PUSH2 0x14B6 JUMP JUMPDEST SWAP1 POP SWAP2 SWAP1 POP JUMP JUMPDEST PUSH32 0x546F74616C20737570706C79206F6620746F6B656E2065786365656465640000 PUSH1 0x0 DUP3 ADD MSTORE POP JUMP JUMPDEST PUSH1 0x0 PUSH2 0x152F PUSH1 0x1E DUP4 PUSH2 0x11DE JUMP JUMPDEST SWAP2 POP PUSH2 0x153A DUP3 PUSH2 0x14F9 JUMP JUMPDEST PUSH1 0x20 DUP3 ADD SWAP1 POP SWAP2 SWAP1 POP JUMP JUMPDEST PUSH1 0x0 PUSH1 0x20 DUP3 ADD SWAP1 POP DUP2 DUP2 SUB PUSH1 0x0 DUP4 ADD MSTORE PUSH2 0x155E DUP2 PUSH2 0x1522 JUMP JUMPDEST SWAP1 POP SWAP2 SWAP1 POP JUMP JUMPDEST PUSH32 0x6D696E7420746F2061646472657373207A65726F000000000000000000000000 PUSH1 0x0 DUP3 ADD MSTORE POP JUMP JUMPDEST PUSH1 0x0 PUSH2 0x159B PUSH1 0x14 DUP4 PUSH2 0x11DE JUMP JUMPDEST SWAP2 POP PUSH2 0x15A6 DUP3 PUSH2 0x1565 JUMP JUMPDEST PUSH1 0x20 DUP3 ADD SWAP1 POP SWAP2 SWAP1 POP JUMP JUMPDEST PUSH1 0x0 PUSH1 0x20 DUP3 ADD SWAP1 POP DUP2 DUP2 SUB PUSH1 0x0 DUP4 ADD MSTORE PUSH2 0x15CA DUP2 PUSH2 0x158E JUMP JUMPDEST SWAP1 POP SWAP2 SWAP1 POP JUMP JUMPDEST PUSH1 0x0 PUSH2 0x15DC DUP3 PUSH2 0xFDF JUMP JUMPDEST SWAP2 POP PUSH2 0x15E7 DUP4 PUSH2 0xFDF JUMP JUMPDEST SWAP3 POP DUP3 DUP3 MUL PUSH2 0x15F5 DUP2 PUSH2 0xFDF JUMP JUMPDEST SWAP2 POP DUP3 DUP3 DIV DUP5 EQ DUP4 ISZERO OR PUSH2 0x160C JUMPI PUSH2 0x160B PUSH2 0x131E JUMP JUMPDEST JUMPDEST POP SWAP3 SWAP2 POP POP JUMP JUMPDEST PUSH1 0x0 PUSH1 0x40 DUP3 ADD SWAP1 POP PUSH2 0x1628 PUSH1 0x0 DUP4 ADD DUP6 PUSH2 0x1169 JUMP JUMPDEST PUSH2 0x1635 PUSH1 0x20 DUP4 ADD DUP5 PUSH2 0x10DE JUMP JUMPDEST SWAP4 SWAP3 POP POP POP JUMP JUMPDEST PUSH32 0x496E73756666696369656E742066756E64000000000000000000000000000000 PUSH1 0x0 DUP3 ADD MSTORE POP JUMP JUMPDEST PUSH1 0x0 PUSH2 0x1672 PUSH1 0x11 DUP4 PUSH2 0x11DE JUMP JUMPDEST SWAP2 POP PUSH2 0x167D DUP3 PUSH2 0x163C JUMP JUMPDEST PUSH1 0x20 DUP3 ADD SWAP1 POP SWAP2 SWAP1 POP JUMP JUMPDEST PUSH1 0x0 PUSH1 0x20 DUP3 ADD SWAP1 POP DUP2 DUP2 SUB PUSH1 0x0 DUP4 ADD MSTORE PUSH2 0x16A1 DUP2 PUSH2 0x1665 JUMP JUMPDEST SWAP1 POP SWAP2 SWAP1 POP JUMP JUMPDEST PUSH1 0x0 PUSH1 0x60 DUP3 ADD SWAP1 POP PUSH2 0x16BD PUSH1 0x0 DUP4 ADD DUP7 PUSH2 0x1169 JUMP JUMPDEST PUSH2 0x16CA PUSH1 0x20 DUP4 ADD DUP6 PUSH2 0x1169 JUMP JUMPDEST PUSH2 0x16D7 PUSH1 0x40 DUP4 ADD DUP5 PUSH2 0x10DE JUMP JUMPDEST SWAP5 SWAP4 POP POP POP POP JUMP JUMPDEST PUSH32 0x4E487B7100000000000000000000000000000000000000000000000000000000 PUSH1 0x0 MSTORE PUSH1 0x12 PUSH1 0x4 MSTORE PUSH1 0x24 PUSH1 0x0 REVERT JUMPDEST PUSH1 0x0 PUSH2 0x1719 DUP3 PUSH2 0xFDF JUMP JUMPDEST SWAP2 POP PUSH2 0x1724 DUP4 PUSH2 0xFDF JUMP JUMPDEST SWAP3 POP DUP3 PUSH2 0x1734 JUMPI PUSH2 0x1733 PUSH2 0x16DF JUMP JUMPDEST JUMPDEST DUP3 DUP3 DIV SWAP1 POP SWAP3 SWAP2 POP POP JUMP JUMPDEST PUSH2 0x1748 DUP2 PUSH2 0x1135 JUMP JUMPDEST DUP2 EQ PUSH2 0x1753 JUMPI PUSH1 0x0 DUP1 REVERT JUMPDEST POP JUMP JUMPDEST PUSH1 0x0 DUP2 MLOAD SWAP1 POP PUSH2 0x1765 DUP2 PUSH2 0x173F JUMP JUMPDEST SWAP3 SWAP2 POP POP JUMP JUMPDEST PUSH1 0x0 PUSH1 0x20 DUP3 DUP5 SUB SLT ISZERO PUSH2 0x1781 JUMPI PUSH2 0x1780 PUSH2 0xF7C JUMP JUMPDEST JUMPDEST PUSH1 0x0 PUSH2 0x178F DUP5 DUP3 DUP6 ADD PUSH2 0x1756 JUMP JUMPDEST SWAP2 POP POP SWAP3 SWAP2 POP POP JUMP JUMPDEST PUSH32 0x4E6F7420636F6D70617469626C65000000000000000000000000000000000000 PUSH1 0x0 DUP3 ADD MSTORE POP JUMP JUMPDEST PUSH1 0x0 PUSH2 0x17CE PUSH1 0xE DUP4 PUSH2 0x11DE JUMP JUMPDEST SWAP2 POP PUSH2 0x17D9 DUP3 PUSH2 0x1798 JUMP JUMPDEST PUSH1 0x20 DUP3 ADD SWAP1 POP SWAP2 SWAP1 POP JUMP JUMPDEST PUSH1 0x0 PUSH1 0x20 DUP3 ADD SWAP1 POP DUP2 DUP2 SUB PUSH1 0x0 DUP4 ADD MSTORE PUSH2 0x17FD DUP2 PUSH2 0x17C1 JUMP JUMPDEST SWAP1 POP SWAP2 SWAP1 POP JUMP INVALID LOG2 PUSH5 0x6970667358 0x22 SLT KECCAK256 0xDB 0x1E CREATE2 0xB1 DUP2 0xED 0xB2 PUSH19 0x258A9D4196D892C5AC4A751A191718560C64AA 0x29 DIV 0x4F PUSH29 0x1A64736F6C634300081100330000000000000000000000000000000000 "
				},
				"gasEstimates": {
					"creation": {
						"codeDepositCost": "1240400",
						"executionCost": "25605",
						"totalCost": "1266005"
					},
					"external": {
						"_balance(address)": "2880",
						"_decimal()": "360",
						"_name()": "infinite",
						"_symbol()": "infinite",
						"_totalSupply()": "382",
						"approve(address,uint256)": "infinite",
						"balanceOfAddress(address)": "2864",
						"calculateBurn(uint256)": "infinite",
						"initialized()": "2567",
						"mint(uint256,address)": "infinite",
						"owner()": "2559",
						"proxiableUUID()": "432",
						"transfer(address,uint256)": "infinite",
						"transferFrom(address,address,uint256)": "infinite",
						"updateCode(address)": "infinite"
					},
					"internal": {
						"_burn(uint256)": "infinite"
					}
				},
				"methodIdentifiers": {
					"_balance(address)": "d3aceae2",
					"_decimal()": "2f0e3120",
					"_name()": "d28d8852",
					"_symbol()": "b09f1266",
					"_totalSupply()": "3eaaf86b",
					"approve(address,uint256)": "095ea7b3",
					"balanceOfAddress(address)": "86212b8f",
					"calculateBurn(uint256)": "dc287c7e",
					"initialized()": "158ef93e",
					"mint(uint256,address)": "94bf804d",
					"owner()": "8da5cb5b",
					"proxiableUUID()": "52d1902d",
					"transfer(address,uint256)": "a9059cbb",
					"transferFrom(address,address,uint256)": "23b872dd",
					"updateCode(address)": "46951954"
				}
			},
			"storageLayout": {
				"storage": [
					{
						"astId": 9,
						"contract": "Upgradable E1P 1822/Implementation2.sol:Implementation2",
						"label": "circulatingSuppy",
						"offset": 0,
						"slot": "0",
						"type": "t_uint256"
					},
					{
						"astId": 20,
						"contract": "Upgradable E1P 1822/Implementation2.sol:Implementation2",
						"label": "owner",
						"offset": 0,
						"slot": "1",
						"type": "t_address"
					},
					{
						"astId": 23,
						"contract": "Upgradable E1P 1822/Implementation2.sol:Implementation2",
						"label": "initialized",
						"offset": 20,
						"slot": "1",
						"type": "t_bool"
					},
					{
						"astId": 27,
						"contract": "Upgradable E1P 1822/Implementation2.sol:Implementation2",
						"label": "_balance",
						"offset": 0,
						"slot": "2",
						"type": "t_mapping(t_address,t_uint256)"
					},
					{
						"astId": 33,
						"contract": "Upgradable E1P 1822/Implementation2.sol:Implementation2",
						"label": "_allowance",
						"offset": 0,
						"slot": "3",
						"type": "t_mapping(t_address,t_mapping(t_address,t_uint256))"
					}
				],
				"types": {
					"t_address": {
						"encoding": "inplace",
						"label": "address",
						"numberOfBytes": "20"
					},
					"t_bool": {
						"encoding": "inplace",
						"label": "bool",
						"numberOfBytes": "1"
					},
					"t_mapping(t_address,t_mapping(t_address,t_uint256))": {
						"encoding": "mapping",
						"key": "t_address",
						"label": "mapping(address => mapping(address => uint256))",
						"numberOfBytes": "32",
						"value": "t_mapping(t_address,t_uint256)"
					},
					"t_mapping(t_address,t_uint256)": {
						"encoding": "mapping",
						"key": "t_address",
						"label": "mapping(address => uint256)",
						"numberOfBytes": "32",
						"value": "t_uint256"
					},
					"t_uint256": {
						"encoding": "inplace",
						"label": "uint256",
						"numberOfBytes": "32"
					}
				}
			},
			"userdoc": {
				"kind": "user",
				"methods": {},
				"version": 1
			}
		}
	}
}